:0400000067EF30F086
:08000800046ED8CF05F0E0CF33
:1000100006F00001E9CF0CF0EACF07F0E1CF08F0DD
:10002000E2CF09F0D9CF0AF0DACF0BF0F3CF12F01C
:10003000F4CF13F0FACF14F000C00EF001C00FF0AF
:1000400002C010F003C011F0F2A82AEF00F0F2B2E3
:10005000ADEF09F00EC000F00FC001F010C002F0CB
:1000600011C003F00CC0E9FF07C0EAFF078E08C00B
:10007000E1FF09C0E2FF0AC0D9FF0BC0DAFF12C0DE
:10008000F3FF13C0F4FF14C0FAFF045006C0E0FFF2
:1000900005C0D8FF1000F2CF0DF0F29EF76AB00F46
:1000A000F66E000EF7220900F5500DBEF28E12001A
:1000B000000000000000005F0000000300030014C7
:1000C0003E143E14242A7F2A1243330866613649BF
:1000D0005522500005030000001C2241000041226F
:1000E0001C0014083E081408083E080800503000A0
:1000F00000080808080800606000002010080402DA
:100100003E5149453E0004027F004261514946226A
:10011000414949361814127F1027454545393E4953
:100120004949320101710907364949493626494989
:10013000493E0036360000005636000008142241C1
:100140000014141414140041221408020151090669
:100150003E4159555E7E0909097E7F494949363E2F
:10016000414141227F4141413E7F494949417F0907
:100170000909013E4141493A7F0808087F00417F53
:100180004100304040403F7F081422417F404040C2
:10019000407F020C027F7F0204087F3E4141413EC6
:1001A0007F090909061E2121215E7F0909097600C0
:1001B000F2CF0DF0F29EF76ACA0FF66E010EF7222B
:1001C0000900F5500DBEF28E120026494949320150
:1001D000017F01013F4040403F1F2040201F7F2002
:1001E00010207F41221C22410708700807615149F5
:1001F0004543007F41000002040810200000417FB9
:10020000000402010204404040404000010204009A
:1002100020545454787F4444443838444444443847
:100220004444447F385454541804047E050508544B
:1002300054543C7F0804047800447D40002040442E
:100240003D007F1028440000417F40007C0478047A
:10025000787C0804047838444444387C1414140826
:10026000081414147C007C080404485454542004DA
:10027000043F44443C4040207C1C2040201C3C4027
:1002800030403C44281028440C5050503C446454A6
:100290004C44000836414100007F000041413608CF
:1002A000000201020402F2CF0DF0F29EBE0FF66EC4
:1002B000020EF7220900F5500DBEF28E120000006A
:1002C000000000000000000000000000000000002E
:1002D000000000000000000000000000000000001E
:1002E000000000000000000000000000000000000E
:1002F00000000000000000000000000000000000FE
:1003000000000000000000000000000000000000ED
:1003100000000000000000000000000000000000DD
:1003200000000000000000000000000000000000CD
:1003300000000000000000000000000000000000BD
:1003400000000000000000000000000000000000AD
:10035000000000000000000000000000000000009D
:10036000000000000000000000000000000000008D
:10037000000000000000000000000000000000007D
:10038000000000000000000000000000000000006D
:10039000000000000000000000000000000000005D
:1003A000000000000000000000000000000000004D
:1003B00000000000000000000000000800800000B5
:1003C0000000000000000000000000040100000028
:1003D0000000000000000000000000020200000019
:1003E0000000000000000000000000007800000095
:1003F0000000000000000000000000008400000079
:1004000000000000000000000000000102000000E9
:100410000000000000000000000000F902F80000E9
:1004200000000000000000000000000102000000C9
:1004300000000000000000000000000102000000B9
:1004400000000000000000000000000484800000A4
:1004500000000000000000000000000878400000DC
:100460000000000000000000000000104820000014
:100470000000000000000000000000204810000004
:1004800000000000000000000000000078000000F4
:10049000000000000000000000000000000000005C
:1004A000000000000000000000000000000000004C
:1004B000000000000000000000000000000000003C
:1004C000000000000000000000000000000000002C
:1006B0000000000000000000000000000000F2CF79
:1006C0000DF0F29ED60FF66E060EF7220900F550D9
:1006D0000DBEF28E120000000000000000000000BD
:1006E000000000000000000000000000000000000A
:1006F00000000000000000000000000000000000FA
:1007000000000000000000000000000000000000E9
:1007100000000000000000000000000000000000D9
:1007200000000000000000000000000000000000C9
:1007300000000000000000000000000000000000B9
:1007400000000000000000000000000000000000A9
:100750000000000000000000000000000000000099
:100760000000000000000000000000000000000089
:100770000000000000000000000000000000000079
:100780000000000000000000000000000000000069
:100790000000000000000000000000000000000059
:1007A0000000000000000000000000000000000049
:1007B0000000000000000000000000000000000039
:1007C0000000000000000000000000000000000029
:1007D0000000000000000000000000000000000019
:1007E0000000000000000000000000000000000009
:1007F00000000000000000000000000000000000F9
:1008000000000000000000000000000000000000E8
:1008100000000000000000000000000000000000D8
:1008200000000000000000000000000000000000C8
:1008300000000000000000000000000000000000B8
:1008400000000000000000000000000000000000A8
:100850000000000000000000000000000000000098
:100860000000000000000000000000000000000088
:100870000000000000000000000000000000000078
:100880000000000000000000000000000000000068
:100890000000000000000000000000000000000058
:1008A0000000000000000000000000000000000048
:1008B0000000000000000000000000000000000038
:1008C0000000007FFFF800000000000000000000B2
:1008D00000000040000800000000000000000000D0
:1008E0000000004703880000000000000000000036
:1008F0000000004502880000000000000000000029
:100900000000004502880000000000000000000018
:100910000000004502880000000000000000000008
:1009200000000045028800000000000000000000F8
:1009300000000047038800000000000000000000E5
:10094000000000400008000000000000000000005F
:1009500000000040FC080000000000000000000053
:1009600000000040840800000000000000000000BB
:1009700000000040840800000000000000000000AB
:1009800000000040FC080000000000000000000023
:10099000000000400008000000000000000000000F
:1009A0000000007FFFF800000000000000000000D1
:1009B0000000000000000000000000000000000037
:1009C0000000000000000000000000000000000027
:1009D0000000000000000000000000000000000017
:1009E0000000000000000000000000000000000007
:1009F00000000000000000000000000000000000F7
:100A000000000000000000000000000000000000E6
:100A100000000000000000000000000000000000D6
:100A200000000000000000000000000000000000C6
:100A300000000000000000000000000000000000B6
:100A400000000000000000000000000000000000A6
:100A50000000000000000000000000000000000096
:100A60000000000000000000000000000000000086
:100A70000000000000000000000000000000000076
:100A80000000000000000000000000000000000066
:100A90000000000000000000000000000000000056
:100AA0000000000000000000000000000000000046
:100AB0000000000000000000000000000000000036
:100AC0000000000000000000000000000000000026
:100AD000000000000000F2CF0DF0F29EEE0FF66E67
:100AE0000A0EF7220900F5500DBEF28E120000002A
:100AF00000000000000000000000000000000000F6
:100B000000000000000000000000000000000000E5
:100B100000000000000000000000000000000000D5
:100B200000000000000000000000000000000000C5
:100DD00000000000000000000000000060000000B3
:100DE000000000000000000000000000F000000013
:100DF000000000000000000000000001F8000000FA
:100E0000000000000000000000000001F8000000E9
:100E1000000000000000000000000001F8000000D9
:100E2000000000000000000000000000F0000000D2
:100E300000000000000000000000003871C0000049
:100E400000000000000000000000007C93E00000B3
:100E50000000000000000000000000FF0FF0000094
:100E60000000000000000000000000FF0FF0000084
:100E700000000000000000000000007D93E0000082
:100E800000000000000000000000003861C0000009
:100E9000000000000000000000000000F000000062
:100EA000000000000000000000000001F800000049
:100EB000000000000000000000000001F800000039
:100EC000000000000000000000000001F800000029
:100ED000000000000000000000000000F000000022
:100EE0000000000000000000000000006000F2CFE1
:100EF0000DF0F29EF76A080FF66E0F0EF72209004A
:100F0000F5500DBEF28E1200436C61766500F2CF93
:100F10000DF0F29EF76A280FF66E0F0EF722090009
:100F2000F5500DBEF28E1200436F727265637461EC
:100F30000000F2CF0DF0F29EF76A4C0FF66E0F0E26
:100F4000F7220900F5500DBEF28E1200496E636F54
:100F50007272656374610000F2CF0DF0F29EF76A61
:100F6000720FF66E0F0EF7220900F5500DBEF28ECD
:100F70001200202021416272612050726F746563FB
:100F800063696F6E0000F2CF0DF0F29EF76AA00F5A
:100F9000F66E0F0EF7220900F5500DBEF28E12000C
:100FA00020202020202046726F6E74616C2120204A
:100FB00020200000F2CF0DF0F29EF76ACE0FF66E01
:100FC0000F0EF7220900F5500DBEF28E1200202000
:100FD0002020202020202020202020202020202011
:100FE0000000F2CF0DF0F29EF76AFC0FF66E0F0EC6
:100FF000F7220900F5500DBEF28E120046696C749E
:10100000726F20536174757261646F00F2CF0DF0DE
:10101000F29EF76A260FF66E100EF7220900F550C1
:101020000DBEF28E12004A50435632342D504352B8
:101030002D454300F2CF0DF0F29EF76A4E0FF66E8B
:10104000100EF7220900F5500DBEF28E12004D650C
:101050006E750000F2CF0DF0F29EF76A6E0FF66E1D
:10106000100EF7220900F5500DBEF28E1200416AF3
:10107000757374657300F2CF0DF0F29EF76A900FEE
:10108000F66E100EF7220900F5500DBEF28E12001A
:1010900043616D62696F20646520436C6176650011
:1010A000F2CF0DF0F29EF76ABA0FF66E100EF7222D
:1010B0000900F5500DBEF28E12004D6F646F0000F6
:1010C000F2CF0DF0F29EF76ADA0FF66E100EF722ED
:1010D0000900F5500DBEF28E12005469656D706FF7
:1010E0002050757267610000F2CF0DF0F29EF76A32
:1010F000020FF66E110EF7220900F5500DBEF28EAA
:10110000120054656D706F2055560000F2CF0DF03F
:10111000F29EF76A260FF66E110EF7220900F550BF
:101120000DBEF28E12004D616E74656E696D69655B
:101130006E746F00F2CF0DF0F29EF76A4E0FF66EEE
:10114000110EF7220900F5500DBEF28E1200536504
:1011500072766963696F0000F2CF0DF0F29EF76A54
:10116000720FF66E110EF7220900F5500DBEF28EC9
:101170001200542E2050757267610000F2CF0DF0FE
:10118000F29EF76A960FF66E110EF7220900F550DF
:101190000DBEF28E1200542E20555600F2CF0DF0E7
:1011A000F29EF76AB60FF66E110EF7220900F5509F
:1011B0000DBEF28E1200436C617665204E75657629
:1011C0006100F2CF0DF0F29EF76ADC0FF66E110EA1
:1011D000F7220900F5500DBEF28E12004D616E74BB
:1011E000656E69656E746F00F2CF0DF0F29EF76A5E
:1011F000020FF66E120EF7220900F5500DBEF28EA8
:10120000120054726162616A6F2046696C74726F79
:101210002868293A0000F2CF0DF0F29EF76A300FED
:10122000F66E120EF7220900F5500DBEF28E120076
:1012300054726162616A6F204C757A205556286835
:10124000293A0000F2CF0DF0F29EF76A5E0FF66EBB
:10125000120EF7220900F5500DBEF28E12005365F2
:101260006E736F7220646520466C756A6F00F2CFF2
:101270000DF0F29EF76A880FF66E120EF722090043
:10128000F5500DBEF28E120053656E736F722064BE
:10129000652050726573696F6E00F2CF0DF0F29E9B
:1012A000F76AB40FF66E120EF7220900F5500DBE64
:1012B000F28E120056656C6F636964616420566536
:1012C0006E74696C61646F720000F2CF0DF0F29E73
:1012D000F76AE40FF66E120EF7220900F5500DBE04
:1012E000F28E120053656C656363696F6E205665FC
:1012F0006C00F2CF0DF0F29EF76A0C0FF66E130E33
:10130000F7220900F5500DBEF28E120056656C6F83
:10131000636964616400F2CF0DF0F29EF76A300FEA
:10132000F66E130EF7220900F5500DBEF28E120074
:1013300047756172646164610000030E0601385FE5
:101340000AE3060EEA6E380EE96EEF5004E001D0B3
:1013500000D0EF2EFDD70001000C928A80BA05D094
:101360000401EA2BD8B4EB2B03D00401EB6BEA6B3E
:10137000968084B004D0EC2BD8B4ED2B02D0ED6B6A
:10138000EC6B968284B204D0EE2BD8B4EF2B02D053
:10139000EF6BEE6B968484B404D0F02BD8B4F12BB1
:1013A00002D0F16BF06B928680B609D0F35306E160
:1013B000F2513B0803E3F22BD8B4F32B02D0F36BCA
:1013C000F26B0501D82BD8B4D92BD95303E1D851EE
:1013D000770858E2D96BD86B04012C8D2E89D22B5B
:1013E0002CAF03D0E62BD8B4E72B2EA128D0E02BCE
:1013F000D8B4E12B050108BF05D00851000802E26E
:1014000008071ED0090E086F09BF05D00951000852
:1014100002E2090715D0050E096F0ABF05D00A516F
:10142000000802E20A070CD0090E0A6F0BBF05D0B4
:101430000B51000802E20B0703D004012E850501C1
:1014400004012DB902D02EAF1CD0F42BF4BF05D06F
:10145000F451090802E2F46BF52BF5BF05D0F55104
:10146000050802E2F56BF62BF6BF05D0F651090828
:1014700002E2F66BF72BF7BF04D0F751050801E243
:10148000F76B0501E16BE06B04012E8D0501E35163
:10149000050820E3E3531CE0E251630819E3DBC5D0
:1014A00037F60601372B3707D8B406D0FF0E386F52
:1014B000000143DF0601F7D7DAC538F600013DDF4A
:1014C0008B849494A60E006E002EFED700000501BA
:1014D0008B949494F29200012AEF00F0060EEA6ECB
:1014E000E96AEF500DE0060E016E006A002EFED78D
:1014F000012EFBD77B0E006E002EFED7EF2EF3D70A
:10150000000C0501EC51060804E1E26B8B84949415
:1015100037D0EC51050807E10F0EE26F070EDB6FC5
:10152000D00EDA6F2DD0EC51040807E1190EE26FEE
:101530000B0EDB6FB80EDA6F23D0EC51030807E116
:10154000230EE26F0E0EDB6F100EDA6F19D0EC5126
:10155000020807E12D0EE26F100EDB6FCC0EDA6F82
:101560000FD0EC2D07D0320EE26F130EDB6F880E1A
:10157000DA6F06D0EC5304E1640EE26F8B9494941E
:101580000001000C0501FB5303E093968A8602D00C
:1015900093948A84939C8A9C956AFCC58CFF000076
:1015A000939E8A8E00D000D00000939E8A9E9394D2
:1015B0008A9493968A960001000C0501F76B160E2B
:1015C000F66F020EF96F160EF86FF451FF0DF3CFA0
:1015D000F5F5FB6BFA6BFB5101081AE3F7C503F055
:1015E000F651F62BD8B4F72BE96E03C0EAFFF5C528
:1015F000EFFFF9C503F0F851F82BD8B4F92BE96ED9
:1016000003C0EAFFF5C5EFFFFA2BD8B4FB2BE3D7F5
:101610000001000C0501F76B160EF66F020EF96F54
:10162000160EF86FF46BF45107084EE3939A8A9AFA
:10163000FB6B400EFC6F0001A5DF010E0501FB6F87
:10164000400EFC6F00019EDF0501F451B809FA6FEE
:10165000FB6BFC6F000196DF0501F451B809FA6FCE
:10166000010EFB6FFAC5FCF500018CDF939A8A8AA4
:101670000501F56BF5513F0825E3F7C503F0F65179
:10168000F62BD8B4F72BE96E03C0EAFFEFCFFAF5DB
:10169000FB6BFAC5FCF5000175DF0501F9C503F028
:1016A000F851F82BD8B4F92BE96E03C0EAFFEFCF5D
:1016B000FAF5010EFB6FFAC5FCF5000163DF0501C9
:1016C000F52BD8D7F42BAFD70001000C93988A885C
:1016D000939E8A9E93948A9493968A96939A8A9AD2
:1016E0000501FB6BC00EFC6F00014CDF010E050114
:1016F000FB6FC00EFC6F000145DF0501FB6B400E68
:10170000FC6F00013FDF010E0501FB6F400EFC6F17
:10171000000138DF0501FB6BB80EFC6F000132DF02
:10172000010E0501FB6FB80EFC6F00012BDF0501F8
:10173000EC2D0ED0FB6B3F0EFC6F000123DF010E82
:101740000501FB6F3F0EFC6F00011CDF0DD0050192
:10175000FB6B3E0EFC6F000115DF010E0501FB6FF8
:101760003E0EFC6F00010EDF0501F46B000125DF6A
:1017700051DF000C0601266B2131256F25332533FF
:101780001F0E2517253726372537263725372637C5
:10179000253726372537263725372637C00E251714
:1017A00020512527000E262320513F080DE2160E5A
:1017B0002525276F020E2621286F400E275D236FF7
:1017C000000E2859246F06D0160E2525236F000E13
:1017D0002621246F225315E024C603F023C6E9FF17
:1017E00024C6EAFF2151070B276F010E006E275117
:1017F000016E04E0D8900036012EFCD70050EF12A5
:1018000015D024C603F023C6E9FF24C6EAFF215100
:10181000070B276F010E006E2751016E04E0D89070
:101820000036012EFCD70050FF0AEF160001000C15
:1018300008C603F0060107C6E9FF08C6EAFFEF5233
:10184000D8B4D0D008C603F007C6E9FF08C6EAFF3F
:10185000EF50520827E308C603F007C6E9FF08C6A1
:10186000EAFF200EEF5C050DF350036A146F060EBD
:10187000EA6E0F0EE96E186B14C617F6F2CF15F666
:10188000F29E050E016EF76A145100014BEC00F058
:101890000A000900F5CFEEFF012EFBD7060115BFA8
:1018A000F28E35D008C603F007C6E9FF08C6EAFF86
:1018B000EF507E0827E308C603F007C6E9FF08C615
:1018C000EAFF530EEF5C050DF350036A146F060E2A
:1018D000EA6E0F0EE96E186B14C617F6F2CF15F606
:1018E000F29E050E016EF76A14510001D8EC00F06B
:1018F0000A000900F5CFEEFF012EFBD7060115BF48
:10190000F28E05D00F6B106B116B126B136B08C648
:1019100003F00751E96E03C0EAFFEF500A0A000125
:1019200003E0070A09E00BD006010951070DF35047
:10193000010F062750D000010601056B4CD00601AF
:101940000951050DF35005257F0806E2056B095185
:10195000070DF350010F06270B6B0B5104083BE3F7
:101960000C6B0C51060833E3036A0B510F0FE96E41
:10197000060E0320EA6EEFCF14F614C600F00C51E9
:10198000016E04E0D8900032012EFCD700A01DD0DB
:101990000D6B09510D5D19E20E6B09510E5D13E2DD
:1019A0000E510525146F0C510903F35006250D2522
:1019B000156F14C620F6216F0AC622F60001DADE82
:1019C00006010E2BEAD70D2BE4D70C2BCAD70B2B15
:1019D00009510527C2D7072BD8B4082B052B0001C6
:1019E00027D706010001000C8E0E006E22C601F002
:1019F00021C602F0036A015209E102C001F0026A45
:101A0000080E005E015202E1006A08D0D89001BEC3
:101A100004D0023601360006F9D7019E000C0601FB
:101A20001D51D8B4A5D0296F2151D8B4A1D0295FB8
:101A300005E37F0E2927D8B09BD006D0810E295F01
:101A4000D8A096D0D8B494D029C600F0016A026A12
:101A5000036A286B1EC627F6278F1FC626F620C6E8
:101A600025F6190E296F2451255F0DE2010E265F20
:101A70000AE2275F08E2285F06E2282B272B262BA5
:101A80002451252728D02351265F12E2010E275F1B
:101A90000FE2285F0DE2282B272B23512627245104
:101AA000252719E3262B17E1272B15E1282B13D027
:101AB00022518009275F0EE2010E285F0BE2282BDE
:101AC00022518009272723512627E9E3272BE7E125
:101AD000282BE5D70380292F01D00BD0D8902537AC
:101AE000263727372837D8900336023601362A376B
:101AF000BAD72AA106D0D8900132023203322A3353
:101B000002D0000635E02ABF1ED0D89025372637F0
:101B1000273728372451255F07E2010E265F04E2AC
:101B2000275F02E2285F1AE32351265F05E2010ED8
:101B3000275F02E2285F12E322518009275F03E258
:101B4000010E285F0BE3032A09E1022A07E1012ABB
:101B500005E1002A0DE00132023203321EC629F6E9
:101B60002251291B29AF02D0018E06D0019E04D03C
:101B7000006A016A026A036A0001000C800ED8A2A2
:101B800002D00601261B06012B6B2C6B22C62AF6FF
:101B900026512A1B2151D8B4DFD0296F006E255160
:101BA000D8B4E3D0295FD8B483D03EE326C62FF65D
:101BB0002F8F27C62EF628C62DF62C6BD8902F33E4
:101BC0002E332D332C33292FF8D72AAF03D02B8176
:101BD000E0D02B9129912B89060EEA6E240EE96E36
:101BE000EBD02B992ABF0AD029A113D02F332E3343
:101BF0002D332C33002AD8B4C7D00BD02FBF0CD034
:101C0000D8902C372D372E372F370006D8B4BCD0BC
:101C1000F5D72B8D6DD02B9D22C62AF622AF02D090
:101C20002F8FABD02F9FA9D025C629F625C600F04F
:101C30002151295F22C62FF62F8F23C62EF624C6E8
:101C40002DF62C6BD8902F332E332D332C33292F98
:101C5000F8D72AAF03D02B839CD02B9329912B8BC1
:101C6000060EEA6E280EE96EA7D02B9B2ABF0AD07B
:101C700029A113D02F332E332D332C33002AD8B47F
:101C800083D00BD02FBF0CD0D8902C372D372E37C8
:101C90002F370006D8B478D0F5D72B8F29D02B9FBB
:101CA00026C62AF626AF02D02F8F67D02F9F65D089
:101CB00026C62FF62F8F27C62EF628C62DF62AAF5A
:101CC00004D02F9F2B8565D02B952C6B2991060E68
:101CD000EA6E240EE96E70D02ABF1CD022C62AF606
:101CE00029A106D02F332E332D332C33002A4CE07C
:101CF0002CAF0BD02D2B09E12E2B07E12F2B05E16B
:101D00002F332E332D33002A3FE02BBD84D72BBF3A
:101D1000C6D71CD0800E2F1B2FAF04D03AD026C6BA
:101D20002AF60AD022C62AF62F5306E12E5304E1E2
:101D30002D5302E1006A21D02FBF08D0D8902C3754
:101D40002D372E372F37002EF7D71ED02AAF02D0CF
:101D50002F8F13D02F9F11D025C600F026C62FF647
:101D600027C62EF628C62DF608D021C600F022C6BA
:101D70002FF623C62EF624C62DF62FC601F02EC64A
:101D800002F02DC603F034D0006A016A026A036AC9
:101D90002FD02C6B2D1F2E1F2F1F2C1F2C2B05E13E
:101DA0002D2B03E12E2B01E12F2B2BB112D72BB3BF
:101DB00054D72BB589D7B3D7EF502D2705E32E2B5A
:101DC00003E12F2BD8B42981ED52EF502E2703E3E6
:101DD0002F2BD8B42981ED52EF50EFBE01D0800AED
:101DE0002F27D8B029812BB9FCD62BBB3ED774D76F
:101DF0000001000CF2CFECF5F29EAA6AA96AA69C3B
:101E0000A69EA680A8500501ECBFF28E146F0A0EA4
:101E10000601006F00016EEC0AF0F2CFECF5F29EC5
:101E2000AA6A010EA96EA69CA69EA680A8500501CE
:101E3000ECBFF28E156F0A0E0601006F00016EEC0A
:101E40000AF0F2CFECF5F29EAA6A020EA96EA69CE9
:101E5000A69EA680A8500501ECBFF28E166F0A0E52
:101E60000601006F00016EEC0AF0F2CFECF5F29E75
:101E7000AA6A030EA96EA69CA69EA680A85005017C
:101E8000ECBFF28E176F0A0E0601006F00016EECB8
:101E90000AF0F2CFECF5F29EAA6A040EA96EA69C97
:101EA000A69EA680A8500501ECBFF28E0401F86F33
:101EB0000A0E0601006F00016EEC0AF0F2CFECF59D
:101EC000F29EAA6A050EA96EA69CA69EA680A850A0
:101ED0000501ECBFF28E0401F96F0A0E0601006FD6
:101EE00000016EEC0AF0F2CFECF5F29EAA6A060E43
:101EF000A96EA69CA69EA680A8500501ECBFF28EF6
:101F00000401FA6F0A0E0601006F00016EEC0AF080
:101F1000F2CFECF5F29EAA6A070EA96EA69CA69EC9
:101F2000A680A8500501ECBFF28E0401FB6F0A0EDB
:101F30000601006F00016EEC0AF0F2CFECF5F29EA4
:101F4000AA6A080EA96EA69CA69EA680A8500501A6
:101F5000ECBFF28E0401FC6F0A0E0601006F000157
:101F60006EEC0AF0F2CFECF5F29EAA6A090EA96EA9
:101F7000A69CA69EA680A8500501ECBFF28E040187
:101F8000FD6F0A0E0601006F00016EEC0AF0F2CF41
:101F9000ECF5F29EAA6A0A0EA96EA69CA69EA680E1
:101FA000A8500501ECBFF28E0401FE6F0A0E060177
:101FB000006F00016EEC0AF0F2CFECF5F29EAA6A17
:101FC0000B0EA96EA69CA69EA680A8500501ECBF8C
:101FD000F28E0401FF6F0A0E0601006F00016EEC25
:101FE0000AF0F2CFECF5F29EAA6A0C0EA96EA69C3E
:101FF000A69EA680A8500501ECBFF28E006F0A0EC7
:102000000601006F00016EEC0AF0F2CFECF5F29ED3
:10201000AA6A0D0EA96EA69CA69EA680A8500501D0
:10202000ECBFF28E016F0A0E0601006F00016EEC2C
:102030000AF0F2CFECF5F29EAA6A0E0EA96EA69CEB
:10204000A69EA680A8500501ECBFF28E026F0A0E74
:102050000601006F00016EEC0AF0F2CFECF5F29E83
:10206000AA6A0F0EA96EA69CA69EA680A85005017E
:10207000ECBFF28E036F0A0E0601006F00016EECDA
:102080000AF0F2CFECF5F29EAA6A100EA96EA69C99
:10209000A69EA680A8500501ECBFF28E0C6F0A0E1A
:1020A0000601006F00016EEC0AF0F2CFECF5F29E33
:1020B000AA6A110EA96EA69CA69EA680A85005012C
:1020C000ECBFF28E0D6F0A0E0601006F00016EEC80
:1020D0000AF0F2CFECF5F29EAA6A120EA96EA69C47
:1020E000A69EA680A8500501ECBFF28E0E6F0A0EC8
:1020F0000601006F00016EEC0AF0F2CFECF5F29EE3
:10210000AA6A130EA96EA69CA69EA680A8500501D9
:10211000ECBFF28E0F6F0A0E0601006F00016EEC2D
:102120000AF0F2CFECF5F29EAA6A150EA96EA69CF3
:10213000A69EA680A8500501ECBFF28E046F0A0E81
:102140000601006F00016EEC0AF0F2CFECF5F29E92
:10215000AA6A160EA96EA69CA69EA680A850050186
:10216000ECBFF28E056F0A0E0601006F00016EECE7
:102170000AF0F2CFECF5F29EAA6A170EA96EA69CA1
:10218000A69EA680A8500501ECBFF28E066F0A0E2F
:102190000601006F00016EEC0AF0F2CFECF5F29E42
:1021A000AA6A180EA96EA69CA69EA680A850050134
:1021B000ECBFF28E076F0A0E0601006F00016EEC95
:1021C0000AF0F2CFECF5F29EAA6A190EA96EA69C4F
:1021D000A69EA680A8500501ECBFF28E0401D76F21
:1021E0000A0E0601006F00016EEC0AF0F2CFECF56A
:1021F000F29EAA6A1A0EA96EA69CA69EA680A85058
:102200000501ECBFF28E0601226B216F0001F4EC98
:102210000CF003C04BF502C04AF501C049F500C0FF
:1022200048F50A0E0601006F00016EEC0AF04BC57E
:1022300020F64AC51FF649C51EF648C51DF606011B
:10224000246B236B200E226F820E216F00010FEC96
:102250000DF003C04BF502C04AF501C049F500C0BE
:1022600048F50601226BD7C421F60001F4EC0CF00E
:10227000D89203C024F602C023F601C022F600C0A3
:1022800021F64BC528F64AC527F649C526F648C5A6
:1022900025F674DC03C043F502C042F501C041F5E8
:1022A00000C040F5F2CFECF5F29EAA6A1B0EA96EB3
:1022B000A69CA69EA680A8500501ECBFF28E040144
:1022C000D76F0A0E0601006F00016EEC0AF0F2CF24
:1022D000ECF5F29EAA6A1C0EA96EA69CA69EA6808C
:1022E000A8500501ECBFF28E0601226B216F0001A0
:1022F000F4EC0CF003C04BF502C04AF501C049F5FF
:1023000000C048F50A0E0601006F00016EEC0AF0ED
:102310004BC520F64AC51FF649C51EF648C51DF631
:102320000601246B236B200E226F820E216F0001A9
:102330000FEC0DF003C04BF502C04AF501C049F5A2
:1023400000C048F50601226BD7C421F60001F4EC69
:102350000CF0D89203C024F602C023F601C022F686
:1023600000C021F64BC528F64AC527F649C526F612
:1023700048C525F603DC03C047F502C046F501C099
:1023800045F500C044F5F2CFECF5F29EAA6A1E0EA8
:10239000A96EA69CA69EA680A8500501ECBFF28E51
:1023A000ED6FF2CFEEF5F29EAA6A1D0EA96EA69C05
:1023B000A69EA680A850EEBFF28EEF6FEDC503F08B
:1023C000EF510601216F03C022F60001F4EC0CF07E
:1023D00003C0CBF502C0CAF501C0C9F500C0C8F5FD
:1023E0000A0E0601006F00016EEC0AF0F2CFECF568
:1023F000F29EAA6A220EA96EA69CA69EA680A8504E
:102400000501ECBFF28EED6FF2CFEEF5F29EAA6AF7
:10241000210EA96EA69CA69EA680A850EEBFF28EA5
:10242000EF6FEDC5E7F4EFC5E6F40A0E0601006FA5
:1024300000016EEC0AF0F2CFECF5F29EAA6A1F0ED4
:10244000A96EA69CA69EA680A8500501ECBFF28EA0
:102450000401E56BE46F0A0E0601006F00016EECEB
:102460000AF0F2CFECF5F29EAA6A200EA96EA69CA5
:10247000A69EA680A8500501ECBFF28EE36F0A0E5F
:102480000601006F00016EEC0AF0F2CFECF5F29E4F
:10249000AA6A3D0EA96EA69CA69EA680A85005011C
:1024A000ECBFF28EED6FF2CFEEF5F29EAA6A3C0E13
:1024B000A96EA69CA69EA680A850EEBFF28EEF6FD6
:1024C000EDC503F0EF510601216F03C022F60001B4
:1024D000F4EC0CF003C027F502C026F501C025F589
:1024E00000C024F50A0E0601006F00016EEC0AF030
:1024F000F2CFECF5F29EAA6A3F0EA96EA69CA69EAC
:10250000A680A8500501ECBFF28EED6FF2CFEEF57C
:10251000F29EAA6A3E0EA96EA69CA69EA680A85010
:10252000EEBFF28EEF6FEDC503F0EF510601216FA4
:1025300003C022F60001F4EC0CF003C0D7F502C092
:10254000D6F501C0D5F500C0D4F50A0E0601006F1E
:1025500000016EEC0AF0F2CFECF5F29EAA6A320EA0
:10256000A96EA69CA69EA680A8500501ECBFF28E7F
:102570000401CF6F0A0E0601006F00016EEC0AF035
:1025800081EF33F01EC625F606012251251B25AF2B
:1025900005D0D894D8901EBFD8802FD01EC625F65F
:1025A00021C626F61D51265F06E025AF26D0D8505D
:1025B000010AD86E22D022C626F61E51265F06E0FA
:1025C00025AF1BD0D850010AD86E17D023C626F6E7
:1025D0001F51265F06E025AF10D0D850010AD86EF3
:1025E0000CD024C626F62051265F06E025AF05D084
:1025F000D850010AD86E01D0D8900001000C050116
:1026000014BF03D01451090803E314BF01D016D03E
:10261000146BAA6AA96AA86AA69CA69EA684F25010
:10262000006EF29E0F01550EA76EAA0EA76EA6822F
:10263000A6B2FED7A6940050F212050115BF03D032
:102640001551090803E315BF01D017D0156BAA6A0D
:10265000010EA96EA86AA69CA69EA684F250006EE2
:10266000F29E0F01550EA76EAA0EA76EA682A6B205
:10267000FED7A6940050F212050116BF03D01651E2
:10268000090803E316BF01D017D0166BAA6A020E21
:10269000A96EA86AA69CA69EA684F250006EF29E21
:1026A0000F01550EA76EAA0EA76EA682A6B2FED780
:1026B000A6940050F212050117BF03D01751090864
:1026C00003E317BF01D016D0176BAA6A030EA96ED9
:1026D000A86AA69CA69EA684F250006EF29E0F01E8
:1026E000550EA76EAA0EA76EA682A6B2FED7A69416
:1026F0000050F2120401F8BF03D0F851090803E3B7
:10270000F8BF01D017D0F86BAA6A040EA96EA86AA8
:10271000A69CA69EA684F250006EF29E0F01550E56
:10272000A76EAA0EA76EA682A6B2FED7A6940050E8
:10273000F2120401F9BF03D0F951090803E3F9BF0C
:1027400001D017D0F96BAA6A050EA96EA86AA69CDB
:10275000A69EA684F250006EF29E0F01550EA76E43
:10276000AA0EA76EA682A6B2FED7A6940050F212B9
:102770000401FABF03D0FA51090803E3FABF01D0FC
:1027800019D0020EFA6FAA6A060EA96E020EA86E82
:10279000A69CA69EA684F250006EF29E0F01550ED6
:1027A000A76EAA0EA76EA682A6B2FED7A694005068
:1027B000F2120401FBBF03D0FB51090803E3FBBF86
:1027C00001D017D0FB6BAA6A070EA96EA86AA69C57
:1027D000A69EA684F250006EF29E0F01550EA76EC3
:1027E000AA0EA76EA682A6B2FED7A6940050F21239
:1027F0000401FCBF03D0FC51090803E3FCBF01D076
:1028000017D0FC6BAA6A080EA96EA86AA69CA69EA1
:10281000A684F250006EF29E0F01550EA76EAA0E0E
:10282000A76EA682A6B2FED7A6940050F2120401AB
:10283000FDBF03D0FD51090803E3FDBF01D017D050
:10284000FD6BAA6A090EA96EA86AA69CA69EA6841C
:10285000F250006EF29E0F01550EA76EAA0EA76EE3
:10286000A682A6B2FED7A6940050F2120401FEBFC3
:1028700003D0FE51090803E3FEBF01D019D0020EB8
:10288000FE6FAA6A0A0EA96E020EA86EA69CA69EEC
:10289000A684F250006EF29E0F01550EA76EAA0E8E
:1028A000A76EA682A6B2FED7A6940050F21204012B
:1028B000FFBF03D0FF51090803E3FFBF01D016D0CB
:1028C000FF6BAA6A0B0EA96EA86AA69CA69EA68498
:1028D000F250006EF29E0F01550EA76EAA0EA76E63
:1028E000A682A6B2FED7A6940050F212050100BF40
:1028F00003D00051090803E300BF01D017D0006BDB
:10290000AA6A0C0EA96EA86AA69CA69EA684F2507E
:10291000006EF29E0F01550EA76EAA0EA76EA6823C
:10292000A6B2FED7A6940050F212050101BF03D053
:102930000151090803E301BF01D017D0016BAA6A56
:102940000D0EA96EA86AA69CA69EA684F250006EE3
:10295000F29E0F01550EA76EAA0EA76EA682A6B212
:10296000FED7A6940050F212050102BF03D0025117
:10297000090803E302BF01D017D0026BAA6A0E0E4A
:10298000A96EA86AA69CA69EA684F250006EF29E2E
:102990000F01550EA76EAA0EA76EA682A6B2FED78D
:1029A000A6940050F212050103BF03D00351090899
:1029B00003E303BF01D017D0036BAA6A0F0EA96E01
:1029C000A86AA69CA69EA684F250006EF29E0F01F5
:1029D000550EA76EAA0EA76EA682A6B2FED7A69423
:1029E0000050F21205010CBF03D00C51090803E39B
:1029F0000CBF01D017D00C6BAA6A100EA96EA86A82
:102A0000A69CA69EA684F250006EF29E0F01550E63
:102A1000A76EAA0EA76EA682A6B2FED7A6940050F5
:102A2000F21205010DBF03D00D51090803E30DBFDC
:102A300001D017D00D6BAA6A110EA96EA86AA69CC8
:102A4000A69EA684F250006EF29E0F01550EA76E50
:102A5000AA0EA76EA682A6B2FED7A6940050F212C6
:102A600005010EBF03D00E51090803E30EBF01D0CC
:102A700017D00E6BAA6A120EA96EA86AA69CA69E13
:102A8000A684F250006EF29E0F01550EA76EAA0E9C
:102A9000A76EA682A6B2FED7A6940050F212050138
:102AA0000FBF03D00F51090803E30FBF01D017D0A8
:102AB0000F6BAA6A130EA96EA86AA69CA69EA6848E
:102AC000F250006EF29E0F01550EA76EAA0EA76E71
:102AD000A682A6B2FED7A6940050F212050104BF4A
:102AE00003D00451090803E304BF01D017D0046BDD
:102AF000AA6A150EA96EA86AA69CA69EA684F25084
:102B0000006EF29E0F01550EA76EAA0EA76EA6824A
:102B1000A6B2FED7A6940050F212050105BF03D05D
:102B20000551090803E305BF01D017D0056BAA6A58
:102B3000160EA96EA86AA69CA69EA684F250006EE8
:102B4000F29E0F01550EA76EAA0EA76EA682A6B220
:102B5000FED7A6940050F212050106BF03D006511D
:102B6000090803E306BF01D017D0066BAA6A170E47
:102B7000A96EA86AA69CA69EA684F250006EF29E3C
:102B80000F01550EA76EAA0EA76EA682A6B2FED79B
:102B9000A6940050F212050107BF03D0075109089F
:102BA00003E307BF01D018D0010E076FAA6A180E01
:102BB000A96E010EA86EA69CA69EA684F250006E79
:102BC000F29E0F01550EA76EAA0EA76EA682A6B2A0
:102BD000FED7A6940050F2120601206B1F6B1E6BED
:102BE000800E1D6F43C524F642C523F641C522F66B
:102BF00040C521F60001C6DC32E30501436B426BA0
:102C0000400E416F7F0E406FAA6A190EA96E010E29
:102C1000A86EA69CA69EA684F250006EF29E0F019E
:102C2000550EA76EAA0EA76EA682A6B2FED7A694D0
:102C30000050F212AA6A1A0EA96E050EA86EA69C82
:102C4000A69EA684F250006EF29E550EA76EAA0EA6
:102C5000A76EA682A6B2FED7A6940050F212060175
:102C6000206B1F6B1E6B800E1D6F47C524F646C57B
:102C700023F645C522F644C521F6000183DC30E386
:102C80000501476B466B456B7F0E446FAA6A1B0EAE
:102C9000A96E010EA86EA69CA69EA684F250006E98
:102CA000F29E0F01550EA76EAA0EA76EA682A6B2BF
:102CB000FED7A6940050F212AA6A1C0EA96EA86A4A
:102CC000A69CA69EA684F250006EF29E550EA76E9C
:102CD000AA0EA76EA682A6B2FED7A6940050F21244
:102CE0000601206B1F6B160E1E6F870E1D6FCBC566
:102CF00024F6CAC523F6C9C522F6C8C521F60001C7
:102D000041DC31E30501CB6BCA6B4B0EC96F860EFC
:102D1000C86FAA6A1D0EA96ECB0EA86EA69CA69EB1
:102D2000A684F250006EF29E0F01550EA76EAA0EF9
:102D3000A76EA682A6B2FED7A6940050F212AA6A87
:102D40001E0EA96EA86AA69CA69EA684F250006ECE
:102D5000F29E550EA76EAA0EA76EA682A6B2FED749
:102D6000A6940050F2120401E55303E1E4513C083B
:102D700017E2E56BE46BAA6A1F0EA96EA86AA69C0F
:102D8000A69EA684F250006EF29E0F01550EA76E0D
:102D9000AA0EA76EA682A6B2FED7A6940050F21283
:102DA0000501E351060818E2020EE36FAA6A200E3D
:102DB000A96E020EA86EA69CA69EA684F250006E76
:102DC000F29E0F01550EA76EAA0EA76EA682A6B29E
:102DD000FED7A6940050F2120401E7510D0830E22C
:102DE000FF0A03E1E65110082BE2E76BE66BAA6AE3
:102DF000210EA96EA86AA69CA69EA684F250006E1B
:102E0000F29E0F01550EA76EAA0EA76EA682A6B25D
:102E1000FED7A6940050F212AA6A220EA96EA86AE2
:102E2000A69CA69EA684F250006EF29E550EA76E3A
:102E3000AA0EA76EA682A6B2FED7A6940050F212E2
:102E40000601206B1F6B480E1E6F860E1D6F27C577
:102E500024F626C523F625C522F624C521F6000151
:102E6000C2EC12F02EE30501276B266B256B246B59
:102E7000AA6A3C0EA96EA86AA69CA69EA684F250D9
:102E8000006EF29E0F01550EA76EAA0EA76EA682C7
:102E9000A6B2FED7A6940050F212AA6A3D0EA96E01
:102EA000A86AA69CA69EA684F250006EF29E550EBD
:102EB000A76EAA0EA76EA682A6B2FED7A694005051
:102EC000F212D7C520F6D6C51FF6D5C51EF6D4C555
:102ED0001DF60601246B236B340E226F860E216FC4
:102EE0000001C2EC12F013E20601206B1F6B2F0EE3
:102EF0001E6F870E1D6FD7C524F6D6C523F6D5C520
:102F000022F6D4C521F60001C2EC12F031E305012E
:102F1000D76BD66B700ED56F860ED46FAA6A3E0E35
:102F2000A96EF00EA86EA69CA69EA684F250006E16
:102F3000F29E0F01550EA76EAA0EA76EA682A6B22C
:102F4000FED7A6940050F212AA6A3F0EA96EA86A94
:102F5000A69CA69EA684F250006EF29E550EA76E09
:102F6000AA0EA76EA682A6B2FED7A6940050F212B1
:102F70000401CF51140819E20A0ECF6FAA6A320E6B
:102F8000A96E0A0EA86EA69CA69EA684F250006E9C
:102F9000F29E0F01550EA76EAA0EA76EA682A6B2CC
:102FA000FED7A6940050F2120401000183EF33F023
:102FB0000501FD35006E0036FC0E001600C001F064
:102FC000C250C30B0010C26E010E0601006F00015B
:102FD0006EEC0AF0C282C2B2FED7C4CFFFF5050183
:102FE000C3CFFEF5FEC501F0FFC502F00001000CE5
:102FF0008E0E006E06011D51005E1EC602F01FC639
:1030000001F0028E005209E0D890025202E1015212
:1030100004E002320132002EF7D71EAF05D0011EA8
:10302000021E012AD8B4022A0001000C06011D511B
:10303000D8B471D0006E2151D8B46DD0002604E30D
:10304000810E002668E204D07F0E005E64E363E038
:103050001EC625F62251251B1E8F228F20512403C8
:10306000F4CF27F61F512303F4CF03F0F3CF26F656
:103070002403F3502727F4502623000E0322205167
:103080002303F3502727F4502623000E026A03225D
:1030900002221E512403F3502627F4500322000E6F
:1030A00002221E512303F3500326F4500222000E85
:1030B000016A012220512203F3502627F4500322F3
:1030C000000E022201221F512203F3500326F45066
:1030D0000222000E01221E512203F3500226F45058
:1030E0000122002A01BE05D02637033602360136FA
:1030F0000006000E26AF0AD0032A02220122015048
:1031000005E1025003E1035001E1002A25BF018ED1
:1031100025AF019E04D0006A016A026A036A0001B9
:10312000000C06011C9110C615F60FC614F60EC64B
:1031300013F60DC612F610C620F60FC61FF60EC601
:103140001EF60DC61DF6246B236B226B216B00014E
:10315000C2EC12F005E306011C811351800A136FC3
:1031600015C620F614C61FF613C61EF612C61DF6A7
:103170000601246B236B226B8E0E216F0001C2ECC3
:1031800012F001E218E115C620F614C61FF613C6A8
:103190001EF612C61DF62CDF02C022F601C021F673
:1031A000F4EC0CF003C019F602C018F601C017F6D3
:1031B00000C016F6CFD015C620F614C61FF613C6EB
:1031C0001EF612C61DF6800E0601246F960E236FA2
:1031D000180E226F960E216F0001C2EC12F0D8A0DB
:1031E000B1D015C620F614C61FF613C61EF612C6B9
:1031F0001DF60601246B236B226B8E0E216F0001DE
:103200000FEC0DF003C020F602C01FF601C01EF641
:1032100000C01DF6EDDE02C01BF601C01AF615C691
:1032200020F614C61FF613C61EF612C61DF60601BA
:10323000246B236B226B8E0E216F00010FEC0DF0BF
:1032400000C01DF601C01EF602C01FF603C020F626
:103250001BC622F61AC621F6F4EC0CF0D88220C662
:1032600024F61FC623F61EC622F61DC621F603C08D
:1032700028F602C027F601C026F600C025F6BEECEF
:103280000DF00601206B1F6B1E6B8E0E1D6F03C0B1
:1032900024F602C023F601C022F600C021F6000188
:1032A000C5DE03C015F602C014F601C013F600C057
:1032B00012F61BC622F61AC621F6F4EC0CF0060133
:1032C000206B1F6B1E6B8E0E1D6F03C024F602C099
:1032D00023F601C022F600C021F60001A7DE03C0DC
:1032E00019F602C018F601C017F600C016F615C68A
:1032F00020F614C61FF613C61EF612C61DF678DE9B
:1033000002C022F601C021F6F4EC0CF0D89219C6E6
:1033100024F618C623F617C622F616C621F603C0F1
:1033200028F602C027F601C026F600C025F6BEEC3E
:103330000DF003C019F602C018F601C017F600C060
:1033400016F608D015C619F614C618F613C617F6E1
:1033500012C616F615C620F614C61FF613C61EF6BC
:1033600012C61DF645DE02C022F601C021F6F4ECBD
:103370000CF0D88215C624F614C623F613C622F61E
:1033800012C621F603C028F602C027F601C026F6B1
:1033900000C025F6BEEC0DF003C015F602C014F611
:1033A00001C013F600C012F606011CA103D017518C
:1033B000800A176F15C620F614C61FF613C61EF630
:1033C00012C61DF6246B236B226B216B0001C2EC2D
:1033D00012F03CE006011CA11CD011531AE1D88266
:1033E00019C624F618C623F617C622F616C621F605
:1033F000286B276B266B7F0E256F0001BEEC0DF04E
:1034000003C019F602C018F601C017F600C016F680
:1034100006011CB11CD0112D1AD0D89219C624F661
:1034200018C623F617C622F616C621F6286B276B98
:10343000266B7F0E256F0001BEEC0DF003C019F660
:1034400002C018F601C017F600C016F6060110C635
:1034500020F60FC61FF60EC61EF60DC61DF6246B0F
:10346000236B226B216B0001C2EC12F006E1060116
:10347000196B186B176B166B000116C600F017C698
:1034800001F018C602F019C603F0000C0CC610F6C5
:103490000BC60FF60AC60EF609C60DF6010E06019A
:1034A000116F00013EDEC3EF1AF00CC610F60BC61A
:1034B0000FF60AC60EF609C60DF60601116B0001DD
:1034C00030DEE7EF1AF000C620F6FFC51FF6FEC596
:1034D0001EF6FDC51DF60601246B236B226B216BC6
:1034E0000001C2EC12F0D8B4A0D0FCC520F6FBC598
:1034F0001FF6FAC51EF6F9C51DF600C624F6FFC56F
:1035000023F6FEC522F6FDC521F60FEC0DF000C036
:1035100005F601C006F602C007F603C008F603C0B0
:1035200020F602C01FF601C01EF600C01DF60601FF
:10353000246B236B226B216B0001C2EC12F024E39D
:10354000FCC520F6FBC51FF6FAC51EF6F9C51DF62B
:1035500000C624F6FFC523F6FEC522F6FDC521F6FA
:103560000FEC0DF000C005F601C006F602C007F62C
:1035700003C008F603C00CF602C00BF601C00AF641
:1035800000C009F683D723D0FCC520F6FBC51FF683
:10359000FAC51EF6F9C51DF600C624F6FFC523F6CA
:1035A000FEC522F6FDC521F60FEC0DF000C005F6B4
:1035B00001C006F602C007F603C008F603C00CF609
:1035C00002C00BF601C00AF600C009F66ED703C0B0
:1035D00004F602C003F601C002F600C001F604C6FC
:1035E00020F603C61FF602C61EF601C61DF600C66B
:1035F00024F6FFC523F6FEC522F6FDC521F616DD2D
:10360000D882FCC524F6FBC523F6FAC522F6F9C517
:1036100021F603C028F602C027F601C026F600C036
:1036200025F6BEEC0DF001D000D0000C8E0E006E21
:1036300017C601F016C602F0036A01AE05D0011EDE
:10364000021E022A01E1012A015209E102C001F031
:10365000026A080E005E015202E1006A0DD0D890A5
:1036600001BE04D0023601360006F9D7060117AFB5
:1036700002D0000101D0019E0001000C00C604F63A
:10368000FFC503F6FEC502F6FDC501F604C620F629
:1036900003C61FF602C61EF601C61DF60601246B00
:1036A000236B226B7F0E216F0001C2EC12F0D8B4A5
:1036B00043D2060E0601136F010EE96E13C6EAFF30
:1036C0007E0EEF6ED88204C624F603C623F602C629
:1036D00022F601C621F6286B276B266B7F0E256F1D
:1036E0000001BEEC0DF000C012F601C013F602C0DE
:1036F00014F603C015F6D89204C624F603C623F6C2
:1037000002C622F601C621F60601286B276B266B3E
:103710007F0E256F0001BEEC0DF015C620F614C615
:103720001FF613C61EF612C61DF603C024F602C00D
:1037300023F601C022F600C021F60FEC0DF003C005
:1037400004F602C003F601C002F600C001F604C68A
:1037500020F603C61FF602C61EF601C61DF604C6F5
:1037600024F603C623F602C622F601C621F65EDC65
:1037700003C010F602C00FF601C00EF600C00DF631
:10378000BC0E0601206F240E1F6F670E1E6F7D0E8C
:103790001D6F10C624F60FC623F60EC622F60DC600
:1037A00021F6000143DC00C012F601C013F602C08E
:1037B00014F603C015F6D89203C024F602C023F60F
:1037C00001C022F600C021F6E30E0601286FE40EC8
:1037D000276F900E266F820E256F0001BEEC0DF054
:1037E00003C008F602C007F601C006F600C005F6E1
:1037F00008C620F607C61FF606C61EF605C61DF645
:1038000010C624F60FC623F60EC622F60DC621F604
:103810000DDC00C012F601C013F602C014F603C09E
:1038200015F6D89203C024F602C023F601C022F692
:1038300000C021F61C0E0601286F870E276F570E59
:10384000266F830E256F0001BEEC0DF003C008F655
:1038500002C007F601C006F600C005F608C620F64D
:1038600007C61FF606C61EF605C61DF610C624F6C8
:103870000FC623F60EC622F60DC621F616EC18F07A
:1038800000C012F601C013F602C014F603C015F60C
:10389000D89203C024F602C023F601C022F600C06D
:1038A00021F6AB0E0601286FE10E276F9E0E266FE4
:1038B000830E256F0001BEEC0DF003C008F602C0B8
:1038C00007F601C006F600C005F60601206B1F6B67
:1038D0001E6B7F0E1D6F10C624F60FC623F60EC694
:1038E00022F60DC621F6000116EC18F000C012F603
:1038F00001C013F602C014F603C015F6D89203C037
:1039000024F602C023F601C022F600C021F6B40E50
:103910000601286F2A0E276F820E266F256F000181
:10392000BEEC0DF003C00CF602C00BF601C00AF6A7
:1039300000C009F60CC620F60BC61FF60AC61EF616
:1039400009C61DF610C624F60FC623F60EC622F6CB
:103950000DC621F616EC18F000C012F601C013F6E1
:1039600002C014F603C015F6D89203C024F602C0B4
:1039700023F601C022F600C021F6800E0601286F52
:103980003E0E276F060E266F830E256F0001BEECDC
:103990000DF003C00CF602C00BF601C00AF600C021
:1039A00009F60CC620F60BC61FF60AC61EF609C697
:1039B0001DF610C624F60FC623F60EC622F60DC657
:1039C00021F616EC18F000C012F601C013F602C082
:1039D00014F603C015F6D89203C024F602C023F6ED
:1039E00001C022F600C021F6AB0E0601286FE10EE1
:1039F000276F9E0E266F820E256F0001BEEC0DF024
:103A000003C00CF602C00BF601C00AF600C009F6AE
:103A100004C620F603C61FF602C61EF601C61DF632
:103A200008C624F607C623F606C622F605C621F602
:103A300016EC18F000C012F601C013F602C014F61E
:103A400003C015F603C020F602C01FF601C01EF623
:103A500000C01DF60CC624F60BC623F60AC622F6D5
:103A600009C621F60FEC0DF003C008F602C007F6F8
:103A700001C006F600C005F6050E0601136FFD0E27
:103A8000E96E13C6EAFF7E0EEF5C116F11BF01D025
:103A900014D0000ED8801155176B166F16BF17077C
:103AA0000001C4DD00C009F60150800A06010A6F5A
:103AB00002C00BF603C00CF610D0176B11C616F639
:103AC00016BF17070001B2DD03C00CF602C00BF6EB
:103AD00001C00AF600C009F606010CC620F60BC6A6
:103AE0001FF60AC61EF609C61DF6180E246F720EC2
:103AF000236F310E226F7E0E216F000116EC18F03D
:103B0000D89208C624F607C623F606C622F605C6CE
:103B100021F603C028F602C027F601C026F600C031
:103B200025F6BEEC0DF003C008F602C007F601C092
:103B300006F600C005F606D00601086B076B066B9B
:103B4000056B000105C600F006C601F007C602F0CD
:103B500008C603F0000C00C620F6FFC51FF6FEC520
:103B60001EF6FDC51DF6180E0601246F720E236F9A
:103B7000310E226F7E0E216F00010FEC0DF003C09D
:103B800020F602C01FF601C01EF600C01DF6F8ECBC
:103B900017F001C00DF606010E9100C604F6FFC530
:103BA00003F6FEC502F6FDC501F600C620F6FFC508
:103BB0001FF6FEC51EF6FDC51DF6246B236B226B9A
:103BC000216B0001C2EC12F006E306010E810D6DBF
:103BD0000251800A026F0601086B076B066B056BCA
:103BE000060E106F050EE96E10C6EAFF7F0E0D255A
:103BF000EF6E04C620F603C61FF602C61EF601C607
:103C00001DF6180E246F720E236F310E226F7E0E7A
:103C1000216F00010FEC0DF000C00FF601C010F68F
:103C200002C011F603C012F60601176B0DC616F698
:103C300016BF17070001FADCD88212C624F611C697
:103C400023F610C622F60FC621F603C028F602C0DE
:103C500027F601C026F600C025F6BEEC0DF003C025
:103C600004F602C003F601C002F600C001F67C0EA5
:103C70000601206F880E1F6F590E1E6F720E1D6F8A
:103C800004C624F603C623F602C622F601C621F6B0
:103C9000000116EC18F000C00FF601C010F602C0CB
:103CA00011F603C012F6D89203C024F602C023F620
:103CB00001C022F600C021F6E00E0601286F970E23
:103CC000276F260E266F750E256F0001BEEC0DF0D6
:103CD00003C00CF602C00BF601C00AF600C009F6DC
:103CE0000CC620F60BC61FF60AC61EF609C61DF640
:103CF00004C624F603C623F602C622F601C621F640
:103D000016EC18F000C00FF601C010F602C011F654
:103D100003C012F6D89203C024F602C023F601C0F5
:103D200022F600C021F6C40E0601286F1D0E276F73
:103D30001E0E266F780E256F0001BEEC0DF003C03D
:103D40000CF602C00BF601C00AF600C009F60CC65C
:103D500020F60BC61FF60AC61EF609C61DF604C6D7
:103D600024F603C623F602C622F601C621F616EC97
:103D700018F000C00FF601C010F602C011F603C023
:103D800012F6D89203C024F602C023F601C022F630
:103D900000C021F65E0E0601286F500E276F630EDD
:103DA000266F7A0E256F0001BEEC0DF003C00CF6F5
:103DB00002C00BF601C00AF600C009F60CC620F6D8
:103DC0000BC61FF60AC61EF609C61DF604C624F663
:103DD00003C623F602C622F601C621F616EC18F039
:103DE00000C00FF601C010F602C011F603C012F6B3
:103DF000D89203C024F602C023F601C022F600C008
:103E000021F61A0E0601286FFE0E276F750E266F1B
:103E10007C0E256F0001BEEC0DF003C00CF602C055
:103E20000BF601C00AF600C009F60CC620F60BC658
:103E30001FF60AC61EF609C61DF604C624F603C6FA
:103E400023F602C622F601C621F616EC18F000C0D1
:103E50000FF601C010F602C011F603C012F6D89298
:103E600003C024F602C023F601C022F600C021F6EA
:103E7000180E0601286F720E276F310E266F7E0E08
:103E8000256F0001BEEC0DF003C00CF602C00BF66E
:103E900001C00AF600C009F604C620F603C61FF6E4
:103EA00002C61EF601C61DF60CC624F60BC623F686
:103EB0000AC622F609C621F616EC18F0D8920601B9
:103EC000246B236B226B7F0E216F03C028F602C088
:103ED00027F601C026F600C025F60001BEEC0DF065
:103EE00008C620F607C61FF606C61EF605C61DF64E
:103EF00003C024F602C023F601C022F600C021F65A
:103F000016EC18F003C008F602C007F601C006F66A
:103F100000C005F606010EA119D0206B1F6B1E6BA9
:103F20007F0E1D6F08C624F607C623F606C622F6C6
:103F300005C621F600010FEC0DF003C008F602C023
:103F400007F601C006F600C005F6060105C600F03A
:103F500006C601F007C602F008C603F00001000C17
:103F6000F4C520F6F3C51FF6F2C51EF6F1C51DF621
:103F70000601246B236B226B216B0001C2EC12F053
:103F8000D8A0DBD0F8C5FCF5F7C5FBF5F6C5FAF50A
:103F9000F5C5F9F50601006B0501FF6BFE6B7F0EA1
:103FA000FD6F000163EC1AF000C0F9F501C0FAF5ED
:103FB00002C0FBF503C0FCF503C020F602C01FF6EB
:103FC00001C01EF600C01DF60601246B236B226B98
:103FD000216B0001C2EC12F0D8A4AFD0F8C5FCF5FB
:103FE000F7C5FBF5F6C5FAF5F5C5F9F50601006B61
:103FF0000501FF6BFE6B800EFD6F000163EC1AF094
:1040000000C0F9F501C0FAF502C0FBF503C0FCF5EC
:1040100003C020F602C01FF601C01EF600C01DF648
:104020000601246B236B226B216B0001C2EC12F0A2
:1040300041E1F1C5F9F50501F251800AFA6FF3C5C6
:10404000FBF5F4C5FCF5F4C500F6F3C5FFF5FE6F0E
:10405000F1C5FDF500013EEC1BF000C0F9F501C013
:10406000FAF502C0FBF503C0FCF503C020F602C060
:104070001FF601C01EF600C01DF6F8C524F6F7C5F0
:1040800023F6F6C522F6F5C521F616EC18F000C0A9
:10409000F9F501C0FAF502C0FBF503C0FCF503C059
:1040A00000F602C0FFF501C0FEF500C0FDF553DDCE
:1040B000DFD042D0F1C5F9F50501F251800AFA6F5F
:1040C000F3C5FBF5F4C5FCF5F4C500F6F3C5FFF543
:1040D000FE6FF1C5FDF500013EEC1BF000C0F9F5E7
:1040E00001C0FAF502C0FBF503C0FCF503C020F6E1
:1040F00002C01FF601C01EF600C01DF6F8C524F66A
:10410000F7C523F6F6C522F6F5C521F616EC18F02C
:1041100000C0F9F501C0FAF502C0FBF503C0FCF5DB
:1041200003C000F602C0FFF501C0FEF500C0FDF5BA
:1041300012DD800E011A9CD09BD0F4C520F6F3C589
:104140001FF6F2C51EF6F1C51DF60601246B236BA2
:10415000226B216B0001C2EC12F031E3F8C5FCF5D3
:10416000F7C5FBF5F6C5FAF5F5C5F9F50601006BDF
:104170000501FF6BFE6B7F0EFD6F000163EC1AF013
:1041800000C0F9F501C0FAF502C0FBF503C0FCF56B
:1041900003C020F602C01FF601C01EF600C01DF6C7
:1041A0000601246B236B226B216B0001C2EC12F021
:1041B00006E0006A016A026A036A5AD059D0F4C55F
:1041C00020F6F3C51FF6F2C51EF6F1C51DF6060171
:1041D000246B236B226B216B0001C2EC12F012E105
:1041E000F8C520F6F7C51FF6F6C51EF6F5C51DF68F
:1041F0000601246B236B226B216B0001C2EC12F0D1
:1042000001E236E1F4C500F6F3C5FFF5F2C5FEF5AF
:10421000F1C5FDF53EEC1BF000C0F9F501C0FAF563
:1042200002C0FBF503C0FCF503C020F602C01FF678
:1042300001C01EF600C01DF6F8C524F6F7C523F62A
:10424000F6C522F6F5C521F616EC18F000C0F9F512
:1042500001C0FAF502C0FBF503C0FCF503C000F68F
:1042600002C0FFF501C0FEF500C0FDF574DC00D012
:10427000000C010E0501FD6F0001D8EC17F002C023
:10428000DBF401C0DAF40401CF510A0823E1DBC4F6
:1042900022F6DAC421F60001F4EC0CF0D89203C047
:1042A00024F602C023F601C022F600C021F627C57D
:1042B00028F626C527F625C526F624C525F6BEEC24
:1042C0000DF003C037F502C036F501C035F500C06A
:1042D00034F50401CF51140822E1DBC422F6DAC41C
:1042E00021F60001F4EC0CF0D88203C024F602C0E1
:1042F00023F601C022F600C021F627C528F626C500
:1043000027F625C526F624C525F6BEEC0DF003C01C
:1043100037F502C036F501C035F500C034F537C5B4
:10432000F4F536C5F3F535C5F2F534C5F1F50501FB
:10433000F86BF76B400EF66F800EF56F000110DE24
:1043400000C0EDF501C0EEF502C0EFF503C0F0F5D9
:1043500003C020F602C01FF601C01EF600C01DF605
:1043600053C524F652C523F651C522F650C521F691
:1043700016EC18F000C0EDF501C0EEF502C0EFF547
:1043800003C0F0F537C5F4F536C5F3F535C5F2F5DC
:1043900034C5F1F50501F86BF76BF66B800EF56F20
:1043A0000001DEDD00C0F1F501C0F2F502C0F3F559
:1043B00003C0F4F503C020F602C01FF601C01EF6CC
:1043C00000C01DF657C524F656C523F655C522F67E
:1043D00054C521F616EC18F0EACFF2F5E9CFF1F565
:1043E000D892F0C524F6EFC523F6EEC522F6EDC54A
:1043F00021F603C028F602C027F601C026F600C049
:1044000025F6BEEC0DF0F2C5EAFFF1C5E9FF00C0EC
:10441000EDF501C0EEF502C0EFF503C0F0F537C5CC
:1044200020F636C51FF635C51EF634C51DF65BC52C
:1044300024F65AC523F659C522F658C521F616ECBE
:1044400018F0EACFF4F5E9CFF3F5D892F0C524F6E9
:10445000EFC523F6EEC522F6EDC521F603C028F61A
:1044600002C027F601C026F600C025F6BEEC0DF00E
:10447000F4C5EAFFF3C5E9FF00C0EDF501C0EEF5B4
:1044800002C0EFF503C0F0F5EACFF6F5E9CFF5F598
:10449000D89203C024F602C023F601C022F600C061
:1044A00021F65FC528F65EC527F65DC526F65CC514
:1044B00025F6BEEC0DF0F6C5EAFFF5C5E9FF03C031
:1044C00033F502C032F501C031F500C030F533C517
:1044D00020F632C51FF631C51EF630C51DF60601A1
:1044E000246B236B226B216B0001C2EC12F005E3FD
:1044F0000501336B326B316B306B0501EC510401FC
:10450000D55D01E3D56BD551040DF350036A600FFF
:10451000E96E050E0320EA6E30C5EFFF31C5ECFFF2
:1045200032C5ECFF33C5ECFFD52B0501C36BC26B65
:10453000C16BC06B0401D66B010E0501EC5D04017B
:10454000D65D01E038E2D651040DF350036A600FE6
:10455000E96E050E0320EA6EEFCF00F0ECCF01F01C
:10456000ECCF02F0ECCF03F0EACFEEF5E9CFEDF5BA
:10457000D892C3C524F6C2C523F6C1C522F6C0C56C
:1045800021F603C028F602C027F601C026F600C0B7
:1045900025F60001BEEC0DF0EEC5EAFFEDC5E9FF22
:1045A00003C0C3F502C0C2F501C0C1F500C0C0F52B
:1045B0000401D62BC1D70601226BECC521F6000100
:1045C000F4EC0CF0C3C520F6C2C51FF6C1C51EF63B
:1045D000C0C51DF603C024F602C023F601C022F6B2
:1045E00000C021F60FEC0DF000C0EDF501C0EEF5B6
:1045F00002C0EFF503C0F0F503C020F602C01FF6BD
:1046000001C01EF600C01DF643C524F642C523F6C0
:1046100041C522F640C521F616EC18F003C0C3F5DB
:1046200002C0C2F501C0C1F500C0C0F5C0C500F0B0
:10463000C1C501F0C2C502F0C3C503F08FEF33F06E
:104640000501F06BEF6BEE6BED6BF46BF36BF26BE4
:10465000F16BF86BF76BF66BF56BFC6BFB6BFA6B46
:10466000F96BFD6B0001D8EC17F002C022F601C017
:1046700021F6F4EC0CF003C0F0F502C0EFF501C038
:10468000EEF500C0EDF50601206B1F6B200E1E6FCE
:10469000810E1D6FF0C524F6EFC523F6EEC522F698
:1046A000EDC521F6000116EC18F000C0FDF501C0C3
:1046B000FEF502C0FFF503C000F603C020F602C0FD
:1046C0001FF601C01EF600C01DF60601246BC00EC9
:1046D000236F7F0E226F880E216F00010FEC0DF00B
:1046E00003C0F4F502C0F3F501C0F2F500C0F1F526
:1046F000F4C520F6F3C51FF6F2C51EF6F1C51DF68A
:104700000A0E0601246FD70E236F230E226F780E38
:10471000216F00010FEC0DF003C0F8F502C0F7F5B2
:1047200001C0F6F500C0F5F50501DD51EC5D01E2D3
:10473000DD6BDD51040DF350036A800FE96E050E49
:104740000320EA6EF5C5EFFFF6C5ECFFF7C5ECFFF9
:10475000F8C5ECFFDD2BFC6BFB6BFA6BF96BDE6BCA
:10476000010EEC5DDE5D01E038E2DE51040DF35038
:10477000036A800FE96E050E0320EA6EEFCF00F0AA
:10478000ECCF01F0ECCF02F0ECCF03F0EACFFEF576
:10479000E9CFFDF5D892FCC524F6FBC523F6FAC592
:1047A00022F6F9C521F603C028F602C027F601C09B
:1047B00026F600C025F60001BEEC0DF0FEC5EAFFAE
:1047C000FDC5E9FF03C0FCF502C0FBF501C0FAF529
:1047D00000C0F9F50501DE2BC3D70601226BECC53D
:1047E00021F60001F4EC0CF0FCC520F6FBC51FF629
:1047F000FAC51EF6F9C51DF603C024F602C023F65D
:1048000001C022F600C021F60FEC0DF09DEF33F051
:104810000501F06BEF6BEE6BED6BF46BF36BF26B12
:10482000F16BF86BF76BF66BF56BFC6BFB6BFA6B74
:10483000F96B020EFD6F0001D8EC17F002C0DDF439
:1048400001C0DCF4DDC422F6DCC421F6F4EC0CF08B
:1048500003C0CFF502C0CEF501C0CDF500C0CCF548
:10486000CFC520F6CEC51FF6CDC51EF6CCC51DF6AC
:10487000D7C524F6D6C523F6D5C522F6D4C521F66C
:104880000FEC0DF000C0FDF501C0FEF502C0FFF514
:1048900003C000F6D88203C024F602C023F601C08C
:1048A00022F600C021F60601286B276B266B7F0ECF
:1048B000256F0001BEEC0DF003C0D3F502C0D2F5A8
:1048C00001C0D1F500C0D0F50601206B1F6B1E6B37
:1048D0001D6BD3C524F6D2C523F6D1C522F6D0C5AB
:1048E00021F60001C2EC12F005E30501D36BD26B97
:1048F000D16BD06BD3C520F6D2C51FF6D1C51EF63D
:10490000D0C51DF60601246B236B226B216B0001C1
:10491000C2EC12F01AE3D3C520F6D2C51FF6D1C5FA
:104920001EF6D0C51DF60601246B236B800E226F88
:104930007F0E216F000116EC18F003C0D3F502C002
:10494000D2F501C0D1F500C0D0F5010E0501EC5D36
:104950000401D45D02E001E3D46BD451040DF350A3
:10496000036AA00FE96E050E0320EA6ED3C520F698
:10497000D2C51FF6D1C51EF6D0C51DF6D70E06014D
:10498000246FA30E236F226B810E216F000116ECA2
:1049900018F000C0EFFF01C0ECFF02C0ECFF03C045
:1049A000ECFF0401D42BD36B010E0501EC5D040177
:1049B000D35D01E038E2D351040DF350036AA00F38
:1049C000E96E050E0320EA6EEFCF00F0ECCF01F0A8
:1049D000ECCF02F0ECCF03F0EACFFEF5E9CFFDF526
:1049E000D892F0C524F6EFC523F6EEC522F6EDC544
:1049F00021F603C028F602C027F601C026F600C043
:104A000025F60001BEEC0DF0FEC5EAFFFDC5E9FF8D
:104A100003C0F0F502C0EFF501C0EEF500C0EDF502
:104A20000401D32BC1D70601226BECC521F600018E
:104A3000F4EC0CF0F0C520F6EFC51FF6EEC51EF63F
:104A4000EDC51DF603C024F602C023F601C022F610
:104A500000C021F60FEC0DF003C0F0F502C0EFF539
:104A600001C0EEF500C0EDF5F0C520F6EFC51FF66C
:104A7000EEC51EF6EDC51DF647C524F646C523F660
:104A800045C522F644C521F616EC18F0AFEF33F019
:104A900006010A51016A095D03E209C600F00CD063
:104AA000006A080E0B6F093700360A51005CD8B057
:104AB000006E01360B2FF7D70001000C2BC4EAFF64
:104AC0002AC4E9FF06010EC6EFFFE92AD8B4EA2A94
:104AD000EF6A04012A2BD8B42B2B0001000C200E06
:104AE000060104A9300E056F03C600F003AF07D01E
:104AF000001E002A00C003F62D0E056F048F015022
:104B000003C609F6640E0A6F0001C2DF00C003F697
:104B1000300E01240601066F03C609F60A0E0A6F5D
:104B20000001B6DF300E00240601086F300E0124AC
:104B3000076F05C600F004A702D004AF049504B9BE
:104B40000BD004AF22D004B520D000C006F604B3C9
:104B50001CD000C007F619D0300E065D16E100C06B
:104B600006F6200E056F04A704D00495048304AF55
:104B70000493300E075D09E100C007F6200E066FB2
:104B800004A7F7D7049304AF049104A505D005C684
:104B90000EF6000193DF060104A305D006C60EF64B
:104BA00000018CDF060104A104D007C60EF6000147
:104BB00085DF08C60EF6000181DF000C010E06013C
:104BC000196F1A6F1F6B1051125D206F205120AFAB
:104BD00003D0000ED8802055036A176F03C018F663
:104BE0001151135D206F205120AF03D0000ED880EB
:104BF0002055036A156F03C016F61051125D02E2CC
:104C0000FF0E196F1151135D02E2FF0E1A6F16515C
:104C1000185D3CE303E11551175D38E3D890153773
:104C200016371751155D006E1851165900C01BF646
:104C30001C6F17511B5D1D6F18511C591E6F1853A7
:104C400003E11F51175D21E310C620F611C621F6BE
:104C500014C622F60001BAEC0BF006011CBF01D00D
:104C600008D015511B2716511C2319511025106F00
:104C70000AD01D511B271E511C2319511025106FDE
:104C80001A511125116F1F2BDAD737D0D89017374B
:104C900018371551175D006E1651185900C01BF6D4
:104CA0001C6F15511B5D1D6F16511C591E6F16533D
:104CB00003E11F51155D21E310C620F611C621F650
:104CC00014C622F60001BAEC0BF006011CBF01D09D
:104CD00008D017511B2718511C231A511125116F89
:104CE0000AD01D511B271E511C2319511025106F6E
:104CF0001A511125116F1F2BDAD70001000C060184
:104D000009532FE00751055D05E205C60CF607C6FD
:104D10000DF604D007C60CF605C60DF60851065D63
:104D200005E206C60EF608C60FF604D008C60EF653
:104D300006C60FF60C510D5D13E30EC60BF60B51B4
:104D40000F5D0CE30CC620F60BC621F60AC622F650
:104D50000001BAEC0BF006010B2BF1D70C2BEAD7B4
:104D60002ED005C610F606C611F607C612F606C600
:104D700013F60AC614F6000121DF05C610F608C6B0
:104D800011F607C612F608C613F60AC614F616DFA1
:104D900005C610F606C611F605C612F608C613F6C5
:104DA0000AC614F60BDF07C610F606C611F607C6CC
:104DB00012F608C613F60AC614F600DF0601000153
:104DC000000C050E04012B6FFA0E2A6FF6C503F6D0
:104DD0001F0E0601046F000182DE0501F92D2ED0A1
:104DE000120EF7250601036F180E0501F8250601BE
:104DF000046FF7C505F6F8C506F603C607F6086F93
:104E0000010E096F0A6F00017ADF020E0501F72516
:104E10000601036F010E0501F8250601046F03C6A4
:104E200005F6066F050E086FFA0E076F020E096F82
:104E30000A6B000118EC0CF02DD00501120EF725BD
:104E40000601036F180E0501F8250601046FF7C56A
:104E500005F6F8C506F603C607F6086F096B0A6B78
:104E600000014DDF020E0501F7250601036F010E5B
:104E70000501F8250601046F03C605F6066F050E49
:104E8000086FFA0E076F020E096F010E0A6F00011C
:104E900018EC0CF0000C0501F4C501F0F5C503F0A9
:104EA000F4C5FAF5F5C5FBF5040EEA6E160EE96ECB
:104EB000F5C5E2FFF4C5E1FFE752E6CFEEFFFCE106
:104EC000F82D29D0F951080DF350F725FA6F060196
:104ED000056BF7C506F67F0E076FFAC508F6010EDB
:104EE000096F0A6F00010BDF010E0501F625FA6F4D
:104EF000010EF725FB6FFAC505F6E8CF06F6040E9E
:104F00000601086F160E076FF9C509F60A6B000156
:104F100018EC0CF00501F8532AE1F951080DF35093
:104F2000F725FA6F0601056BF7C506F67F0E076FCA
:104F3000FAC508F6010E096F0A6B0001E0DE010EEA
:104F40000501F625FA6F010EF725FB6FFAC505F688
:104F5000E8CF06F6040E0601086F160E076FF9C5B6
:104F600009F6010E0A6F000118EC0CF005010001B2
:104F7000000C04012EBB4BD010C5F6F5140E050134
:104F8000F76F1E0EF86F010EF96F00011ADF11C5E1
:104F9000F6F5280E0501F76F1E0EF86FF96B00018C
:104FA00010DF12C5F6F53C0E0501F76F1E0EF86F07
:104FB000F96B000106DF10C5F6F5500E0501F76F1D
:104FC0001E0EF86FF96B0001FCDE040EEA6E160E81
:104FD000E96EF2CFF4F5F29E000E77EC07F00A00CE
:104FE0000900F550EE6E0009FBE10501F4BFF28EF9
:104FF000040EF56F160EF46F140EF66FF76B010EBC
:10500000F86F030EF96F000146DF04012E8B928AC0
:1050100080BA6DD02D9DE36BE26B2CB167D02C81F3
:10502000050E0601006F00016EEC0AF0010E05018D
:10503000DC6FDC51040859E3DC510401CD5D3AE139
:10504000010E0501DC5D036A100FE96E050E0320F9
:10505000EA6EEF2A010EDC5D036A100FE96E050EA1
:105060000320EA6EEFBE0CD0EF50090809E2010EF2
:10507000DC5D036A100FE96E050E0320EA6EEF6A2D
:10508000010EDC5D036A100FE96E050E0320EA6E67
:10509000EFCFF4F5DC51140DF3CFF5F5F4C5F6F5CB
:1050A000F5C5F7F51E0EF86F010EF96F000189DEE8
:1050B00019D00401010E0501DC5D036A100FE96ED1
:1050C000050E0320EA6EEFCFF4F5DC51140DF3CF9B
:1050D000F5F5F4C5F6F5F5C5F7F51E0EF86FF96BA5
:1050E00000016FDE0501DC2BA4D7040101D02C9157
:1050F000968084B06BD02D9DE36BE26B2CB565D0B0
:105100002C85050E0601006F00016EEC0AF0010E01
:105110000501DC6FDC51040857E3DC510401CD5D6F
:1051200038E1010E0501DC5D036A100FE96E050E22
:105130000320EA6EEF06010EDC5D036A100FE96ED4
:10514000050E0320EA6EEFAE0AD0010EDC5D036AA5
:10515000100FE96E050E0320EA6E090EEF6E010EC8
:10516000DC5D036A100FE96E050E0320EA6EEFCFD7
:10517000F4F5DC51140DF3CFF5F5F4C5F6F5F5C5EE
:10518000F7F51E0EF86F010EF96F00011ADE19D047
:105190000401010E0501DC5D036A100FE96E050EC6
:1051A0000320EA6EEFCFF4F5DC51140DF3CFF5F5E3
:1051B000F4C5F6F5F5C5F7F51E0EF86FF96B0001AD
:1051C00000DE0501DC2BA6D7040101D02C959682C8
:1051D00084B250D02D9DE36BE26B2CB34AD02C836C
:1051E000050E0601006F00016EEC0AF00401CD2BE4
:1051F000010E0501DC6FDC5104083AE3DC510401C7
:10520000CD5D1BE1010E0501DC5D036A100FE96E47
:10521000050E0320EA6EEFCFF4F5DC51140DF3CF49
:10522000F5F5F4C5F6F5F5C5F7F51E0EF86F010EA8
:10523000F96F0001C6DD19D00401010E0501DC5D26
:10524000036A100FE96E050E0320EA6EEFCFF4F546
:10525000DC51140DF3CFF5F5F4C5F6F5F5C5F7F50A
:105260001E0EF86FF96B0001ACDD0501DC2BC3D716
:10527000040101D02C93968484B424D0640E0601DA
:10528000006F00016EEC0AF0968484B41AD0EDC56C
:10529000CCF40501F46B0001DDEC0AF004012E9B57
:1052A000010ECE6FCD6F0501106B116B126B136B7E
:1052B000F46B0001DDEC0AF00AEC0BF0010E016E5C
:1052C000C8D10401CD510408D8B0C4D10501F46B94
:1052D0000001DDEC0AF0010E0401CD6F2D9DE36BA2
:1052E000E26B050110510308D8A479D011510808C8
:1052F000D8A475D01251090872E1135102086FE168
:10530000EE536DE1AA6AA96AA86AA69CA69EA68425
:10531000F250006EF29E0F01550EA76EAA0EA76EF8
:10532000A682A6B2FED7A6940050F212140E060171
:10533000006F00016EEC0AF0AA6A010EA96EA86A5D
:10534000A69CA69EA684F250006EF29E0F01550EFA
:10535000A76EAA0EA76EA682A6B2FED7A69400508C
:10536000F212140E0601006F00016EEC0AF0AA6A38
:10537000020EA96EA86AA69CA69EA684F250006E94
:10538000F29E0F01550EA76EAA0EA76EA682A6B2B8
:10539000FED7A6940050F212140E0601006F000111
:1053A0006EEC0AF0AA6A030EA96EA86AA69CA69ED5
:1053B000A684F250006EF29E0F01550EA76EAA0E43
:1053C000A76EA682A6B2FED7A6940050F212140EC3
:1053D0000601006F00016EEC0AF0FF000501F051BC
:1053E000105DD8A471D0F151115D6EE1F251125DE2
:1053F0006BE1F351135D68E1F46B0001DDEC0AF041
:10540000040EEA6E160EE96EF2CFF4F5F29E000E6F
:1054100077EC07F00A000900F550EE6E0009FBE199
:105420000501F4BFF28E040EF56F160EF46F1E0E1A
:10543000F66FF76BF86B020EF96F00012CDD040EAE
:10544000EA6E160EE96EF2CFF4F5F29E000E87ECCE
:1054500007F00A000900F550EE6E0009FBE10501B6
:10546000F4BFF28E040EF56F160EF46F0F0EF66F8A
:105470001E0EF76FF86B020EF96F00010CDDEFC521
:10548000CCF40AEC0BF0040E0501F46FFA0E0601E1
:10549000006F00016EEC0AF00501F42FF7D7F46BF2
:1054A0000001DDEC0AF00501106B116B126B136B40
:1054B000EE5302E104012D8904012E9B010E016EC1
:1054C0000001C7D0C6D00501F46B0001DDEC0AF085
:1054D000040EEA6E160EE96EF2CFF4F5F29E000E9F
:1054E00077EC07F00A000900F550EE6E0009FBE1C9
:1054F0000501F4BFF28E040EF56F160EF46F1E0E4A
:10550000F66FF76BF86B020EF96F0001C4DC040E46
:10551000EA6E160EE96EF2CFF4F5F29E000E99ECEB
:1055200007F00A000900F550EE6E0009FBE10501E5
:10553000F4BFF28E040EF56F160EF46FF66B1E0EAE
:10554000F76FF86B020EF96F0001A5DC010E040184
:10555000CD6F00010AEC0BF0040E0501F46FFA0E9A
:105560000601006F00016EEC0AF00501F42FF7D779
:10557000106B116B126B136BF46B0001DDEC0AF016
:105580000601056B066B7F0E076F190E086F010E83
:10559000096F0A6F00017FEC26F0040EEA6E160E0A
:1055A000E96EF2CFF4F5F29E000E77EC07F00A00F8
:1055B0000900F550EE6E0009FBE10501F4BFF28E23
:1055C000190E0601056F010E066F040E086F160E08
:1055D000076F030E096F0A6B000118EC0CF010C581
:1055E000F6F5140E0501F76F1E0EF86F010EF96F38
:1055F0000001E1EC26F011C5F6F5280E0501F76F64
:105600001E0EF86FF96B0001E1EC26F012C5F6F5FD
:105610003C0E0501F76F1E0EF86FF96B0001E1EC0F
:1056200026F010C5F6F5500E0501F76F1E0EF86F47
:10563000F96B0001E1EC26F0EDC5CCF40501F46B4B
:105640000001DDEC0AF004012E9B000E016E00014A
:1056500000D004010001000C050E04012B6FF10EB7
:105660002A6FECC503F61F0E0601046F00016FECF4
:1056700025F00501EF2D30D0F051060DF350ED254A
:10568000FA6FF051080DF350EE25FB6FEDC505F6EE
:10569000EEC506F6FAC507F6E8CF08F6010E0601D4
:1056A000096F0A6F00017FEC26F0020E0501ED255F
:1056B000FA6F010EEE25FB6FFAC505F6E8CF06F688
:1056C000050E0601086FF10E076FF0C509F60A6BAB
:1056D000000118EC0CF00501EF5331E1F051060D1B
:1056E000F350ED25FA6FF051080DF350EE25FB6FE6
:1056F000EDC505F6EEC506F6FAC507F6E8CF08F6DD
:10570000010E0601096F0A6B00017FEC26F0020E04
:105710000501ED25FA6F010EEE25FB6FFAC505F6C2
:10572000E8CF06F6050E0601086FF10E076FF0C50B
:1057300009F6010E0A6F000118EC0CF005010001DA
:10574000000C06010E51B6080E6F036A0FC612F662
:105750000F8FD8900F3310331133033202320132DE
:1057600000320E2FF6D712AF0BD0001E011E021E04
:10577000031E002AD8B4012AD8B4022AD8B4032AB6
:1057800000012FEF2CF0006A016A026A036A060129
:10579000166B176B186B196B15511411131112112D
:1057A0002CE0200E1A6FD8900E370F3710371137B4
:1057B00016371737183719371551195D08E1145185
:1057C000185D05E11351175D02E11251165D0FE3FB
:1057D0001251165F1351D8A0133D175F1451D8A072
:1057E000143D185F1551D8A0153D195FD8800036BB
:1057F0000136023603361A2FD6D7060EEA6E160E7B
:10580000E96E0001000CE9500601066F0551086FB2
:105810001CE004C620F603C61FF602C61EF601C62B
:105820001DF6246B236B200E226F820E216F000168
:1058300016EC18F003C004F602C003F601C002F62D
:1058400000C001F60601082FE4D704C611F603C60E
:1058500010F602C60FF601C60EF6000172D703C09D
:1058600004F602C003F601C002F600C001F606010C
:1058700004AF0DD00607068B011F021F031F041F74
:10588000012BD8B4022BD8B4032BD8B4042B3B0E75
:105890000D6F9A0E0C6FCA0E0B6F0A6B0A0E086F13
:1058A0000551D8B4062B04C611F603C610F602C67D
:1058B0000FF601C60EF60DC615F60CC614F60BC68D
:1058C00013F60AC612F600015EDF0150EFCF01F6B3
:1058D000ECCF02F6ECCF03F6ECCF04F6005213E166
:1058E00006010529085DD8A402D000010CD006519C
:1058F0000DE00F0B085D01E044E206BF42D006BD9B
:1059000005D0200E37D0200E0601061706AB0FD0AB
:10591000069B0551D8A406070050066F2D0E0E6F8A
:1059200000015EEC25F006010651006E066B055184
:10593000085D0DE10050066F2E0E0E6F00015EEC4B
:1059400025F006010651006E200E0617000E300EDF
:1059500006AB10D0069B0551D8A406070050066F71
:105960002D0E0E6F00015EEC25F006010651006E53
:10597000066B300E002600C00EF600015EEC25F02E
:1059800006010DC611F60CC610F60BC60FF60AC6B8
:105990000EF6156B146B136B0A0E126F0001F3DE1B
:1059A00003C00DF602C00CF601C00BF600C00AF6EB
:1059B0000601082F78D70001000C006A016A060171
:1059C0000C51D8900DB10026003201320DB30026E3
:1059D000003201320DB50026003201320DB700262B
:1059E000003201320DB90026003201320DBB002613
:1059F000003201320DBD0026003201320DBF0026FB
:105A0000003201320001000C0601086B05C609F6E0
:105A1000010ED88005550A6F065365E00851035DF5
:105A20000B6F095104250C6F085103250D6F0951A7
:105A300004250E6F0BC610F60CC611F60DC612F635
:105A4000136F07C614F60001DEEC25F006010851BD
:105A5000035D0B6F0951045D0C6F085103250D6F39
:105A60000951045D0E6F0BC610F60CC611F60DC67B
:105A700012F6136F07C614F60001DEEC25F00601DE
:105A80000951035D0B6F085104250C6F0951032563
:105A90000D6F085104250E6F0BC610F60CC611F6DB
:105AA0000DC612F6136F07C614F60001DEEC25F0E2
:105AB00006010951035D0B6F0851045D0C6F09511C
:105AC00003250D6F0851045D0E6F0BC610F60CC652
:105AD00011F60DC612F6136F07C614F60001DEECC0
:105AE00025F078D00601035108250B6F04510925D4
:105AF0000C6F0BC620F6216F07C622F60001BAEC28
:105B00000BF00601035109250B6F045108250C6F9A
:105B10000BC620F6216F07C622F60001BAEC0BF087
:105B200006010851035D0B6F045109250C6F0BC66C
:105B300020F6216F07C622F60001BAEC0BF0060131
:105B40000951035D0B6F045108250C6F0BC620F63D
:105B5000216F07C622F60001BAEC0BF006010351D3
:105B600009250B6F0851045D0C6F0BC620F6216FE1
:105B700007C622F60001BAEC0BF006010351082516
:105B80000B6F0951045D0C6F0BC620F6216F07C621
:105B900022F60001BAEC0BF006010851035D0B6F11
:105BA0000951045D0C6F0BC620F6216F07C622F663
:105BB0000001BAEC0BF006010951035D0B6F0851AF
:105BC000045D0C6F0BC620F6216F07C622F600019C
:105BD000BAEC0BF006010ABF01D00ED00851082B19
:105BE0000B6F020E0C6F0BC60DF60001E6DE0150C6
:105BF000030F06010A2711D00851082B0B6F09511A
:105C000009070B5D0B6F020E0C6F0BC60DF6000142
:105C1000D4DE0150050F06010A270851800A006EE4
:105C20000951800A005CD8B4F7D6D8A0F5D6000197
:105C3000000C050E04012B6FF80E2A6F010EE96EA1
:105C4000F3C504F6F2C503F6F1C502F6F0C501F698
:105C50000601056B0001D7DD200E06010E6F000165
:105C60005EEC25F0430E06010E6F00015EEC25F0A0
:105C70000501F62D45D0F751140DF350F42506011A
:105C8000016F0501F751080DF350F5250601026F6C
:105C9000F4C505F6F5C506F601C607F6086F010E50
:105CA000096F0A6F00017FEC26F0020E0501F42552
:105CB0000601016F010E0501F5250601026F01C6FF
:105CC00005F6066F050E086FF80E076FF7C509F6A3
:105CD0000A6B000118EC0CF0110E0501F425060109
:105CE000016F020E0501F5250601026F01C603F6DC
:105CF000046F010E056F066F076B000185DE05015D
:105D0000F65346E1F751140DF350F4250601016FE7
:105D10000501F751080DF350F5250601026FF4C592
:105D200005F6F5C506F601C607F6086F010E096F00
:105D30000A6B00017FEC26F0020E0501F425060136
:105D4000016F010E0501F5250601026F01C605F67A
:105D5000066F050E086FF80E076FF7C509F6010EFE
:105D60000A6F000118EC0CF0110E0501F425060174
:105D7000016F020E0501F5250601026F01C603F64B
:105D8000046F010E056F066F076F00013DDE050110
:105D9000000135EF3AF00501F051F203F3CF01F0C5
:105DA000F4CF00F0F303F3500026F151F203F35067
:105DB0000020026E0001000C0501EC51030853E1C4
:105DC000ED6BED513F084FE3EE6BEE510F0849E3E9
:105DD000070EEF6FEF51800A7F0841E2F16BEDC5CE
:105DE000F0F5F36B100EF26F0001D5DF02C0F1F594
:105DF00001C0F0F50501EE510124016E000E0220F4
:105E0000036E0150F2CFF0F5F29E03C0F7FF0001E0
:105E100053EC01F00501F0BFF28EF06F070ED88051
:105E2000EF55F16FF0C500F0F151016E04E0D8902C
:105E30000032012EFCD700A010D0EE51080DF35017
:105E4000EF25F06FE8CF20F6EDC521F6010E060133
:105E5000226F0001BAEC0BF00501EF07BBD7EE2B68
:105E6000B4D7ED2BAED7EC51040853E1ED6BED51F7
:105E70003F084FE3EE6BEE510F0849E3070EEF6F5B
:105E8000EF51800A7F0841E2F16BEDC5F0F5F36B4D
:105E9000100EF26F00017FDF02C0F1F501C0F0F5D6
:105EA0000501EE510124016E000E0220036E015027
:105EB000F2CFF0F5F29E03C0F7FF00015FEC03F0B4
:105EC0000501F0BFF28EF06F070ED880EF55F16F2D
:105ED000F0C500F0F151016E04E0D8900032012EBF
:105EE000FCD700A010D0EE51080DF350EF25F06F55
:105EF000E8CF20F6EDC521F6010E0601226F000164
:105F0000BAEC0BF00501EF07BBD7EE2BB4D7ED2BA6
:105F1000AED7EC51050853E1ED6BED513F084FE36F
:105F2000EE6BEE510F0849E3070EEF6FEF51800A59
:105F30007F0841E2F16BEDC5F0F5F36B100EF26FE7
:105F4000000129DF02C0F1F501C0F0F50501EE51B5
:105F50000124016E000E0220036E0150F2CFF0F515
