:0400000002EF0CF00F
:08000800046ED8CF05F0E0CF33
:1000100006F00001E9CF0CF0EACF07F0E1CF08F0DD
:10002000E2CF09F0D9CF0AF0DACF0BF0F3CF12F01C
:10003000F4CF13F0FACF14F000C00EF001C00FF0AF
:1000400002C010F003C011F09DA02AEF00F09EB096
:100050005AEF00F00EC000F00FC001F010C002F027
:1000600011C003F00CC0E9FF07C0EAFF078E08C00B
:10007000E1FF09C0E2FF0AC0D9FF0BC0DAFF12C0DE
:10008000F3FF13C0F4FF14C0FAFF045006C0E0FFF2
:1000900005C0D8FF1000F2CF0DF0F29EF76AB00F46
:1000A000F66E000EF7220900F5500DBEF28E12001A
:1000B000280C0106150ECF6EA00ECE6E3B2AD8B4CA
:1000C0003C2A3C5203E13B50C7081CE23C6A3B6AB5
:1000D0002C2A222A188017A015D017BE13D025521B
:1000E00002E025060FD0245204E024063B0E256EC4
:1000F00009D017908C909590010E2D6E26C024F09B
:1001000027C025F09E902AEF00F054656D706F7245
:10011000697A61646F722055562020202000566550
:100120006C6F6369646164204D6F746F722020206E
:10013000200043616D62696F20436F6E747261735A
:1001400065F1612020005469656D706F2054726103
:1001500062616A6F20555620200020202020202038
:1001600020434142494E41202020202020200000F1
:1001700020202020202020202050435220202020FA
:10018000202020200000202020204A5020494E47D7
:100190004C4F42414C2020202020000020202052A3
:1001A00045463A204A50435043522D3234202020B5
:1001B00000002020202020496E6772657365202092
:1001C000202020202020000020202020436F6E745B
:1001D00072617365F1612020202020200000202022
:1001E0002020434C4156453D2569256925692569EF
:1001F000202000002020202020202020202020203F
:1002000020202020202020002020202020436F6E4E
:100210007472617365F1612020202000202020206D
:100220002020436F727265637461202020202000BB
:1002300020202020202020202020202020202020BE
:10024000202020002020202020436F6E74726173D4
:1002500065F16120202020002020202020496E63AD
:100260006F7272656374612020202000202020209E
:10027000202020202020202020202020202020009E
:100280002D2D2D4D454E55205052494E434950413C
:100290004C2D2D2D00002020202054656D706F7294
:1002A000697A61646F7220202020200020202020A5
:1002B0002020204C757A20555620202020202020F8
:1002C0002000253032753A2530327520284D3A53BA
:1002D000292020005469656D706F20416C6D616349
:1002E000656E61646F002020436F72726563746194
:1002F0006D656E746520200053656C656363696F7E
:100300006E652056656C6F6369646164000020202F
:10031000202064652056656E74696C61646F72207C
:10032000202000002020202020202020202020200D
:100330002020202020202020000020202048612094
:1003400073656C656363696F6E61646F2020000084
:1003500020206C612076656C6F6369646164202085
:10036000256920200000202020202020202020207F
:1003700020202020202020202020000020202020BD
:100380002020496E67726573652020202020202080
:10039000000020436F6E7472617365F161204163E8
:1003A0007475616C2020000020202020434C4156B1
:1003B000453D256925692569256920200000202003
:1003C000202020202020202020202020202020202D
:1003D000202000002020202020436F6E7472617363
:1003E00065F16120202020200000202020202020F6
:1003F000436F72726563746120202020202000000A
:1004000020202020202020202020202020202020EC
:10041000202020200000202020202020202020201C
:10042000202020202020202020200000202020200C
:1004300020436F6E7472617365F16120202020206B
:1004400000002020202020496E636F727265637463
:10045000612020202020000020202020202020209B
:1004600020202020202020202020202000002020CC
:10047000202020496E67726573652020202020208F
:10048000202000002020436F6E7472617365F1615B
:10049000204E756576612020000020202020434CEE
:1004A0004156453D256925692569256920200000BB
:1004B000202020202020202020202020202020203C
:1004C0002020202000002020202020436F6E747206
:1004D000617365F161202020202000002020202071
:1004E00020416C6D6163656E616461202020202075
:1004F000000020202020202020202020202020203C
:100500002020202020200000202044757261636993
:100510006F6E2041637475616C20202000002020E4
:10052000205469656D706F3D202530354C75202055
:1005300020002052455345543D204F7072696D6133
:10054000205E2079203E200020526573657420646F
:1005500065207469656D706F200020202020204583
:100560007869746F736F2020202020004A50435216
:100570002044503A25332E326620696E48324F208F
:10058000000046696C74726F3A0054656D706F3A82
:10059000253032753A25303275004D6F746F723ADE
:1005A0004F4E20004D6F746F723A4F4646005556BD
:1005B0003A4F4E20000055563A4F464600004C75C3
:1005C0007A3A4F4E20004C757A3A4F464600EA6A16
:1005D000B60EE96EEF500EE00F0E016E006A002EAF
:1005E000FED7012EFBD78F0E006E002EFED7000027
:1005F000EF2EF2D7000CB739F00B006E0F0E8114FE
:100600000010816E090E006E002EFED700D081868C
:10061000DB0E006E002EFED700D08196000C81927A
:10062000010EB66FD4DFB4A18192B4B18182090EFC
:10063000006E002EFED700D08194090E006E002EB1
:10064000FED700D08196B539B66F0F0EB617B6C07B
:10065000B7F0D1DFB5510F0BB66FB76FCCDF000C21
:10066000000E936E8192819481960F0EB66FAFDF6C
:10067000010E9F6F9F51030808E3030EB76FBBDFA6
:10068000050EB66FA4DF9F2BF5D7020EB76FB3DF51
:100690009F6B9F5103080EE3036A9F51F2CFA0F0B6
:1006A000F29EF9DCA0BFF28EA06FB46BB56FB7DF1E
:1006B0009F2BEFD7000C8E0E006EB8C001F0B7C0B4
:1006C00002F0036A015209E102C001F0026A080E59
:1006D000005E015202E1006A08D0D89001BE04D049
:1006E000023601360006F9D7019E000CA435006ED3
:1006F0000036FC0E001600C001F0C250C30B001003
:10070000C26E0A0EB66F63DFC282C2B2FED7C4CF1A
:1007100003F0C3CFB7F0C4CFB8F0CDDF03C0A8F06B
:1007200002C0A7F001C0A6F000C0A5F0A5C000F06F
:10073000A6C001F0A7C002F0A8C003F0000C010E93
:10074000B25DFC0F0FE2040FBAEF03F0800EB36F3F
:1007500009D0C00EB36F06D0940EB36F03D0D40E81
:10076000B36F00D0010EB15DB327B46BB3C0B5F069
:1007700056DF000CF2CF0DF0F29EE824F76AF73650
:10078000990FF66E070EF7220A00F550FA6E080070
:10079000F5500DBEF28EF96E4C07520758075E07F2
:1007A000B051F10802E1EE0EB06FB051D10802E194
:1007B000FF0EB06FB0510C0A05E0060A0DE0020A08
:1007C00012E016D0B46B010EB56F29DF010E166E64
:1007D000020EB66FFCDE12D0162A010EB16F16C0E3
:1007E000B2F0ADDF0BD0B46B100EB56F18DF06D0D2
:1007F000010EB46FB0C0B5F012DF00D0000C0900DC
:10080000F5520CE0F6CFA2F0F7CFA3F0F5CFB0F0A1
:10081000C7DFA2C0F6FFA3C0F7FFF1D7000C0900A5
:10082000F6CFA4F0F7CFA5F0F5CFB0F0B9DFA4C0B4
:10083000F6FFA5C0F7FFA32FF2D7000CA651016A5F
:10084000A55D03E2A5C000F00CD0006A080EA76FFA
:10085000A5370036A651005CD8B0006E0136A72F30
:10086000F7D7000C200EA0A9300EA16F9FC000F09A
:100870009FAF07D0001E002A00C09FF02D0EA16F71
:10088000A08F01509FC0A5F0640EA66FD7DF00C0F7
:100890009FF0300E0124A26F9FC0A5F00A0EA66F34
:1008A000CDDF300E0024A46F300E0124A36FA1C051
:1008B00000F0A0A702D0A0AFA095A0B90BD0A0AF28
:1008C00022D0A0B520D000C0A2F0A0B31CD000C0A0
:1008D000A3F019D0300EA25D16E100C0A2F0200EE8
:1008E000A16FA0A704D0A095A083A0AFA093300EC5
:1008F000A35D09E100C0A3F0200EA26FA0A7F7D767
:10090000A093A0AFA091A0A503D0A1C0B0F048DFF4
:10091000A0A303D0A2C0B0F043DFA0A103D0A3C026
:10092000B0F03EDFA4C0B0F03BDF000CA02D0AD039
:10093000020EB16FA1C0B2F002DF0A0EF66E010E18
:10094000F76E5DDFA05102080AE1020EB16FA1C08F
:10095000B2F0F5DE1E0EF66E010EF76E50DFA051FE
:1009600003080AE1020EB16FA1C0B2F0E8DE320E58
:10097000F66E010EF76E43DFA05104080AE1020E85
:10098000B16FA1C0B2F0DBDE460EF66E010EF76E5F
:1009900036DF000C01509FC0A5F0640EA66F4EDF3D
:1009A00000C09FF00150300E07E1A0A30CD0A0B70B
:1009B0000AD0A0B9200E03D0A097A099A08101264B
:1009C00001C0B0F0EDDE9FC0A5F00A0EA66F36DFC5
:1009D00000C09FF00150300E06E1A0B708D0A0A1E2
:1009E00006D0A0B9200E012601C0B0F0D9DE300E2D
:1009F0009F279FC0B0F0D4DE000CA15308E18C9477
:100A000095948C9895988C9A959A8C969596A12DFC
:100A100008D08C9495948C9895988C9A959A8C86FD
:100A20009596A151020808E18C9895988C9A959A10
:100A30008C9695968C849594A151030808E18C9A24
:100A4000959A8C9695968C9495948C889598A151AE
:100A5000040808E18C9495948C9895988C969596BA
:100A60008C8A959A000CEACFA7F0E9CFA6F0A039BE
:100A7000F009A26FA227E20FA36F320FA56FA0515A
:100A80000F0BA327A327A527E90FA46FA427A4274B
:100A90009F390F0BA427A527A437A537A51FA53776
:100AA0009F510F0BA527A237070EA16F0A0EA407AF
:100AB000A527FDE3A307A427FDE3A207A327FDE3E2
:100AC000A107A227FDE3EA6AA10EE96E070EA615AB
:100AD000A69DE926A50EE95CD8B4A68DEF50006E60
:100AE00008E1A6BD06D0A6B913D0A6B702D0200E45
:100AF00003D0A687A699300E0026EACFA0F0E9CF52
:100B00009FF000C0B0F04CDEA0C0EAFF9FC0E9FF3C
:100B1000EE50A6ADDFD78AEF15F0B351D8B471D03F
:100B2000006EB751D8B46DD0002604E3810E0026C4
:100B300068E204D07F0E005E64E363E0B4C0BBF003
:100B4000B851BB1BB48FB88FB651BA03F4CFBDF008
:100B5000B551B903F4CF03F0F3CFBCF0BA03F350AF
:100B6000BD27F450BC23000E0322B651B903F35045
:100B7000BD27F450BC23000E026A03220222B451A6
:100B8000BA03F350BC27F4500322000E0222B451E2
:100B9000B903F3500326F4500222000E016A012229
:100BA000B651B803F350BC27F4500322000E0222C2
:100BB0000122B551B803F3500326F4500222000E6F
:100BC0000122B451B803F3500226F4500122002A46
:100BD00001BE05D0BC370336023601360006000ED2
:100BE000BCAF0AD0032A02220122015005E10250C3
:100BF00003E1035001E1002ABBBF018EBBAF019EA0
:100C000004D0006A016A026A036A000CB351D8B4C6
:100C1000A5D0BF6FB751D8B4A1D0BF5F05E37F0E99
:100C2000BF27D8B09BD006D0810EBF5FD8A096D08A
:100C3000D8B494D0BFC000F0016A026A036ABE6BE8
:100C4000B4C0BDF0BD8FB5C0BCF0B6C0BBF0190ECE
:100C5000BF6FBA51BB5F0DE2010EBC5F0AE2BD5F20
:100C600008E2BE5F06E2BE2BBD2BBC2BBA51BB27F0
:100C700028D0B951BC5F12E2010EBD5F0FE2BE5F2A
:100C80000DE2BE2BBD2BB951BC27BA51BB2719E3CE
:100C9000BC2B17E1BD2B15E1BE2B13D0B851800939
:100CA000BD5F0EE2010EBE5F0BE2BE2BB8518009A4
:100CB000BD27B951BC27E9E3BD2BE7E1BE2BE5D742
:100CC0000380BF2F01D00BD0D890BB37BC37BD37C6
:100CD000BE37D890033602360136C037BAD7C0A126
:100CE00006D0D890013202320332C03302D000065F
:100CF00035E0C0BF1ED0D890BB37BC37BD37BE373C
:100D0000BA51BB5F07E2010EBC5F04E2BD5F02E2C5
:100D1000BE5F1AE3B951BC5F05E2010EBD5F02E29E
:100D2000BE5F12E3B8518009BD5F03E2010EBE5FF2
:100D30000BE3032A09E1022A07E1012A05E1002A5F
:100D40000DE0013202320332B4C0BFF0B851BF1B14
:100D5000BFAF02D0018E06D0019E04D0006A016AA6
:100D6000026A036A000C800ED8B2BC1BC16BC26B56
:100D7000B8C0C0F0BC51C01BB751D8B4DCD0BF6FF5
:100D8000006EBB51D8B4E0D0BF5FD8B481D03DE392
:100D9000BCC0C5F0C58FBDC0C4F0BEC0C3F0C26B3F
:100DA000D890C533C433C333C233BF2FF8D7C0AFD5
:100DB00003D0C181DDD0C191BF91C189EA6ABA0E69
:100DC000E96EE9D0C199C0BF0AD0BFA113D0C53325
:100DD000C433C333C233002AD8B4C5D00BD0C5BF87
:100DE0000CD0D890C237C337C437C5370006D8B443
:100DF000BAD0F5D7C18D6BD0C19DB8C0C0F0B8AF27
:100E000002D0C58FA9D0C59FA7D0BBC0BFF0BBC0C3
:100E100000F0B751BF5FB8C0C5F0C58FB9C0C4F00E
:100E2000BAC0C3F0C26BD890C533C433C333C23326
:100E3000BF2FF8D7C0AF03D0C1839AD0C193BF9161
:100E4000C18BEA6ABE0EE96EA6D0C19BC0BF0AD0B4
:100E5000BFA113D0C533C433C333C233002AD8B4BF
:100E600082D00BD0C5BF0CD0D890C237C337C4379F
:100E7000C5370006D8B477D0F5D7C18F28D0C19F29
:100E8000BCC0C0F0BCAF02D0C58F66D0C59F64D0D7
:100E9000BCC0C5F0C58FBDC0C4F0BEC0C3F0C0AFFC
:100EA00004D0C59FC18564D0C195C26BBF91EA6A69
:100EB000BA0EE96E70D0C0BF1CD0B8C0C0F0BFA1E0
:100EC00006D0C533C433C333C233002A4CE0C2AFAB
:100ED0000BD0C32B09E1C42B07E1C52B05E1C533BA
:100EE000C433C333002A3FE0C1BD86D7C1BFC7D7D3
:100EF0001CD0800EC51BC5AF04D03AD0BCC0C0F01A
:100F00000AD0B8C0C0F0C55306E1C45304E1C353CE
:100F100002E1006A21D0C5BF08D0D890C237C337DC
:100F2000C437C537002EF7D71ED0C0AF02D0C58F4B
:100F300013D0C59F11D0BBC000F0BCC0C5F0BDC070
:100F4000C4F0BEC0C3F008D0B7C000F0B8C0C5F050
:100F5000B9C0C4F0BAC0C3F0C5C001F0C4C002F04B
:100F6000C3C003F034D0006A016A026A036A2FD05A
:100F7000C26BC31FC41FC51FC21FC22B05E1C32BF9
:100F800003E1C42B01E1C52BC1B115D7C1B356D7BD
:100F9000C1B58AD7B3D7EF50C32705E3C42B03E10C
:100FA000C52BD8B4BF81ED52EF50C42703E3C52B46
:100FB000D8B4BF81ED52EF50EFBE01D0800AC527F3
:100FC000D8B0BF81C1B9FED6C1BB3FD774D7000C22
:100FD000B4C0BBF0B851BB1BBBAF05D0D894D89000
:100FE000B4BFD8802FD0B4C0BBF0B7C0BCF0B351F1
:100FF000BC5F06E0BBAF26D0D850010AD86E22D025
:10100000B8C0BCF0B451BC5F06E0BBAF1BD0D85039
:10101000010AD86E17D0B9C0BCF0B551BC5F06E06C
:10102000BBAF10D0D850010AD86E0CD0BAC0BCF0FB
:10103000B651BC5F06E0BBAF05D0D850010AD86EF0
:1010400001D0D890000CA36BA26BA16BA06B010E1A
:10105000A46F76EC03F000C0A4F001C0A5F002C0BC
:10106000A6F003C0A7F003C0B6F002C0B5F001C0FF
:10107000B4F000C0B3F0BA6BB96B200EB86F810E3C
:10108000B76F4BDD00C0A4F001C0A5F002C0A6F010
:1010900003C0A7F003C0B6F002C0B5F001C0B4F0C1
:1010A00000C0B3F0BA6BC00EB96F7F0EB86F880E78
:1010B000B76FACDD03C092F002C091F001C090F0B8
:1010C00000C08FF092C0B6F091C0B5F090C0B4F0FF
:1010D0008FC0B3F0140EBA6FAE0EB96F670EB86F53
:1010E0007F0EB76F93DD00C0A4F001C0A5F002C071
:1010F000A6F003C0A7F0D88203C0BAF002C0B9F0CE
:1011000001C0B8F000C0B7F0BE6BBD6BBC6B7F0E0A
:10111000BB6F29DE03C096F002C095F001C094F0C9
:1011200000C093F096C0B6F095C0B5F094C0B4F08E
:1011300093C0B3F0BA6BB96BB86BB76B49DF04E31C
:10114000966B956B946B936B010E9F5D285C02E030
:1011500001E3286A2850040DF350036A3F0FE96E3B
:10116000000E0320EA6E93C0EFFF94C0ECFF95C021
:10117000ECFF96C0ECFF282A296A010E9F5D295CCE
:1011800001E035E22950040DF350036A3F0FE96E88
:10119000000E0320EA6EEFCF00F0ECCF01F0ECCFB1
:1011A00002F0ECCF03F0EACFA5F0E9CFA4F0D8929B
:1011B000A3C0BAF0A2C0B9F0A1C0B8F0A0C0B7F007
:1011C00003C0BEF002C0BDF001C0BCF000C0BBF067
:1011D000CADDA5C0EAFFA4C0E9FF03C0A3F002C0B6
:1011E000A2F001C0A1F000C0A0F0292AC6D7B86BB8
:1011F0009FC0B7F05BEC03F0A3C0B6F0A2C0B5F09F
:10120000A1C0B4F0A0C0B3F003C0BAF002C0B9F0FE
:1012100001C0B8F000C0B7F0F9DC03C0A3F002C011
:10122000A2F001C0A1F000C0A0F0A0C000F0A1C0D9
:1012300001F0A2C002F0A3C003F042EF16F0B051DB
:10124000B608B06F036AB1C0B4F0B18FD890B133B3
:10125000B233B3330332023201320032B02FF6D749
:10126000B4AF0BD0001E011E021E031E002AD8B40C
:10127000012AD8B4022AD8B4032AA4EF09F0006ADC
:10128000016A026A036AB86BB96BBA6BBB6BB75180
:10129000B611B511B4112CE0200EBC6FD890B03748
:1012A000B137B237B337B837B937BA37BB37B751B9
:1012B000BB5D08E1B651BA5D05E1B551B95D02E12A
:1012C000B451B85D0FE3B451B85FB551D8A0B53D86
:1012D000B95FB651D8A0B63DBA5FB751D8A0B73DF7
:1012E000BB5FD8800036013602360336BC2FD6D716
:1012F000EA6AB80EE96E000CE950A86FA751AA6F10
:101300001AE0A6C0B6F0A5C0B5F0A4C0B4F0A3C062
:10131000B3F0BA6BB96B200EB86F820EB76F8DEC5D
:1013200005F003C0A6F002C0A5F001C0A4F000C003
:10133000A3F0AA2FE6D7A6C0B3F0A5C0B2F0A4C010
:10134000B1F0A3C0B0F07BD703C0A6F002C0A5F0F7
:1013500001C0A4F000C0A3F0A6AF0DD0A807A88BD1
:10136000A31FA41FA51FA61FA32BD8B4A42BD8B4BA
:10137000A52BD8B4A62B3B0EAF6F9A0EAE6FCA0E3C
:10138000AD6FAC6B0A0EAA6FA751D8B4A82BA6C03C
:10139000B3F0A5C0B2F0A4C0B1F0A3C0B0F0AFC02C
:1013A000B7F0AEC0B6F0ADC0B5F0ACC0B4F067DF1A
:1013B0000150EFCFA3F0ECCFA4F0ECCFA5F0ECCF31
:1013C000A6F000520FE1A729AA5D0CE0A8510CE09D
:1013D0000F0BAA5D01E03BE2A8BF39D0A8BD04D045
:1013E000200E30D0200EA817A8AB0DD0A89BA75177
:1013F000D8A4A8070050A86F2D0EB06FD0EC03F052
:10140000A851006EA86BA751AA5D0BE10050A86F10
:101410002E0EB06FD0EC03F0A851006E200EA8176E
:10142000000E300EA8AB0ED0A89BA751D8A4A807D9
:101430000050A86F2D0EB06FD0EC03F0A851006ED5
:10144000A86B300E002600C0B0F0D0EC03F0AFC0A7
:10145000B3F0AEC0B2F0ADC0B1F0ACC0B0F0B76B9D
:10146000B66BB56B0A0EB46F0ADF03C0AFF002C0F3
:10147000AEF001C0ADF000C0ACF0AA2F88D77DEF70
:1014800016F08E0E006EB351005EB4C002F0B5C00F
:1014900001F0028E005209E0D890025202E101529E
:1014A00004E002320132002EF7D7B4AF05D0011E9E
:1014B000021E012AD8B4022A000CB291A6C0ABF0D9
:1014C000A5C0AAF0A4C0A9F0A3C0A8F0A6C0B6F019
:1014D000A5C0B5F0A4C0B4F0A3C0B3F0BA6BB96BAB
:1014E000B86BB76B75DD04E3B281A951800AA96FAF
:1014F000ABC0B6F0AAC0B5F0A9C0B4F0A8C0B3F0B4
:10150000BA6BB96BB86B8E0EB76F62DD01E218E192
:10151000ABC0B6F0AAC0B5F0A9C0B4F0A8C0B3F093
:10152000B0DF02C0B8F001C0B7F05BEC03F003C05D
:10153000AFF002C0AEF001C0ADF000C0ACF0C6D05C
:10154000ABC0B6F0AAC0B5F0A9C0B4F0A8C0B3F063
:10155000800EBA6F960EB96F180EB86F960EB76FF1
:1015600037DDD8A0ABD0ABC0B6F0AAC0B5F0A9C0EB
:10157000B4F0A8C0B3F0BA6BB96BB86B8E0EB76F8E
:1015800006EC06F003C0B6F002C0B5F001C0B4F03E
:1015900000C0B3F076DF02C0B1F001C0B0F0ABC064
:1015A000B6F0AAC0B5F0A9C0B4F0A8C0B3F0BA6B49
:1015B000B96BB86B8E0EB76F06EC06F000C0B3F0D7
:1015C00001C0B4F002C0B5F003C0B6F0B1C0B8F0CD
:1015D000B0C0B7F05BEC03F0D882B6C0BAF0B5C0CB
:1015E000B9F0B4C0B8F0B3C0B7F003C0BEF002C0E9
:1015F000BDF001C0BCF000C0BBF0B3EC06F0B66BB0
:10160000B56BB46B8E0EB36F03C0BAF002C0B9F005
:1016100001C0B8F000C0B7F08DEC05F003C0ABF02E
:1016200002C0AAF001C0A9F000C0A8F0B1C0B8F093
:10163000B0C0B7F05BEC03F0B66BB56BB46B8E0E5D
:10164000B36F03C0BAF002C0B9F001C0B8F000C077
:10165000B7F08DEC05F003C0AFF002C0AEF001C0F2
:10166000ADF000C0ACF0ABC0B6F0AAC0B5F0A9C0F8
:10167000B4F0A8C0B3F005DF02C0B8F001C0B7F005
:101680005BEC03F0D892AFC0BAF0AEC0B9F0ADC019
:10169000B8F0ACC0B7F003C0BEF002C0BDF001C0EE
:1016A000BCF000C0BBF0B3EC06F003C0AFF002C06A
:1016B000AEF001C0ADF000C0ACF008D0ABC0AFF0F0
:1016C000AAC0AEF0A9C0ADF0A8C0ACF0ABC0B6F0F7
:1016D000AAC0B5F0A9C0B4F0A8C0B3F0D2DE02C071
:1016E000B8F001C0B7F05BEC03F0D882ABC0BAF041
:1016F000AAC0B9F0A9C0B8F0A8C0B7F003C0BEF046
:1017000002C0BDF001C0BCF000C0BBF0B3EC06F0FD
:1017100003C0ABF002C0AAF001C0A9F000C0A8F05D
:10172000B2A103D0AD51800AAD6FABC0B6F0AAC074
:10173000B5F0A9C0B4F0A8C0B3F0BA6BB96BB86B80
:10174000B76B46DC38E0B2A11AD0A75318E1D882B3
:10175000AFC0BAF0AEC0B9F0ADC0B8F0ACC0B7F031
:10176000BE6BBD6BBC6B7F0EBB6FB3EC06F003C0F2
:10177000AFF002C0AEF001C0ADF000C0ACF0B2B14D
:101780001AD0A72D18D0D892AFC0BAF0AEC0B9F019
:10179000ADC0B8F0ACC0B7F0BE6BBD6BBC6B7F0E1C
:1017A000BB6FB3EC06F003C0AFF002C0AEF001C0F7
:1017B000ADF000C0ACF0A6C0B6F0A5C0B5F0A4C0B6
:1017C000B4F0A3C0B3F0BA6BB96BB86BB76B00DC05
:1017D00004E1AF6BAE6BAD6BAC6BACC000F0ADC0F9
:1017E00001F0AEC002F0AFC003F001EF0CF0A2C0F8
:1017F000A6F0A1C0A5F0A0C0A4F09FC0A3F0A76B65
:101800005CD6000CF86AD09E078EEA6AE96A1790E7
:101810001792179417961798179A179C179E189057
:10182000189218941896196A050E1A6E020E1B6EFD
:101830000B0E1C6E020E1D6E030E1E6E020E1F6E30
:10184000206E040E216E226A236A246A256A266AA3
:10185000276A286A296A2A6A010E2B6E2C6A2D6A69
:101860002E6A2F6E3E6A3D6A926B916B906B8F6B06
:10187000966B956B946B936B9A6B996B986B976B5C
:101880009E6B9D6B9C6B9B6BC150C00B0F09C16E17
:10189000070EB46E3E0E306E200E316E5E0E326E4E
:1018A000336A346A356A366A376A386A396A3A6A34
:1018B0003F6A406A416A426A436A446A456A466AC4
:1018C000476A486A496A4A6A4B6A4C6A4D6A4E6A74
:1018D0004F6A506A516A526A536A546A556A566A24
:1018E000576A586A596A5A6A5B6A5C6A5D6A5E6AD4
:1018F0005F6A606B616B626B636B646B656B666B7D
:10190000676B686B696B6A6B6B6B6C6B6D6B6E6B2B
:101910006F6B706B716B726B736B746B756B766BDB
:10192000776B786B796B7A6B7B6B7C6B7D6B7E6B8B
:101930007F6B806B816B826B836B846B856B866B3B
:10194000876B886B896B8A6B8B6B8C6B8D6B8E6BEB
:10195000956A8C6A30EC03F0C00EF212850ECD6EE3
:101960009D80C150C00B0D09C16EC090C082C09453
:10197000C08EC280A46B76EC03F0010EB16FB26F23
:101980009FEC03F05A0EF66E010EF76EFFEC03F0BB
:10199000010EB16F020EB26F9FEC03F0700EF66E87
:1019A000010EF76EFFEC03F0010EB16F030EB26F84
:1019B0009FEC03F0860EF66E010EF76EFFEC03F05F
:1019C000010EB16F040EB26F9FEC03F09C0EF66E29
:1019D000010EF76EFFEC03F0080E9F6FFA0EB66F64
:1019E000E7EC02F09F2FFAD70C0EB06FD0EC03F0AB
:1019F000F2CF9FF0F29E050EA96EA69CA69EA68031
:101A0000A8509FBFF28E2F6EF2CF9FF0F29EA96A70
:101A1000A69CA69EA680A8509FBFF28E376E140E7D
:101A2000B66FE7EC02F0F2CF9FF0F29E010EA96EC6
:101A3000A69CA69EA680A8509FBFF28E386E140E5C
:101A4000B66FE7EC02F0F2CF9FF0F29E020EA96EA5
:101A5000A69CA69EA680A8509FBFF28E396E140E3B
:101A6000B66FE7EC02F0F2CF9FF0F29E030EA96E84
:101A7000A69CA69EA680A8509FBFF28E3A6E140E1A
:101A8000B66FE7EC02F0F2CF9FF0F29E140EA96E53
:101A9000A69CA69EA680A8509FBFF28E246EF2CF71
:101AA0009FF0F29E150EA96EA69CA69EA680A85039
:101AB0009FBFF28E256E24C026F025C027F0F2CFFE
:101AC0009FF0F29E320EA96EA69CA69EA680A850FC
:101AD0009FBFF28E226EF2CF9FF0F29E330EA96E60
:101AE000A69CA69EA680A8509FBFF28E236EF2CF22
:101AF0009FF0F29E340EA96EA69CA69EA680A850CA
:101B00009FBFF28E3E6A3D6E1952D8A4D4D1010E09
:101B1000B16FB26F9FEC03F0B20EF66E010EF76E6E
:101B2000FFEC03F0010EB16F020EB26F9FEC03F0F9
:101B3000C80EF66E010EF76EFFEC03F0010EB16FEA
:101B4000030EB26F9FEC03F0DE0EF66E010EF76E21
:101B50000A0EA36F0FEC04F033C09FF01F0EA06FAE
:101B600032EC04F034C09FF01F0EA06F32EC04F092
:101B700035C09FF01F0EA06F32EC04F036C09FF00E
:101B80001F0EA06F32EC04F0200EB06FD0EC03F00B
:101B9000200EB06FD0EC03F0928A80AA11D017B655
:101BA0000ED00B0E1C5C036A330FE96E000E03208F
:101BB000EA6EEF2A17861E0EB66FE7EC02F001D030
:101BC0001796968084A011D017BA0ED00B0E1C5C0D
:101BD000036A330FE96E000E0320EA6EEF06178AE0
:101BE0001E0EB66FE7EC02F001D0179A968284A21F
:101BF0000DD017B80AD017881C2A1E0EB66FE7EC56
:101C000002F00C0EB06FD0EC03F001D01798968460
:101C100084A40DD017BC0AD0178C1C061E0EB66FFC
:101C2000E7EC02F00C0EB06FD0EC03F001D0179C83
:101C30000B0E1C5C036A330FE96E000E0320EA6E84
:101C4000EFBE01D00AD00B0E1C5C036A330FE96EA5
:101C5000000E0320EA6E090EEF6E0B0E1C5C036A89
:101C6000330FE96E000E0320EA6EEFBE0CD0EF508A
:101C7000090809E20B0E1C5C036A330FE96E000EC3
:101C80000320EA6EEF6A1C500A0802E30B0E1C6E7A
:101C90001CC0B1F0040EB26F9FEC03F032C0B0F084
:101CA000D0EC03F01C500E08D8B0F3D0335003082A
:101CB0006DE1345008086AE13550090867E1365093
:101CC000020864E1A96AA86AA69CA69EA684F250AE
:101CD000006EF29E0F01550EA76EAA0EA76EA68289
:101CE000A6B2FED7A6940050F212140E0001B66FF1
:101CF000E7EC02F0010EA96EA86AA69CA69EA68437
:101D0000F250006EF29E0F01550EA76EAA0EA76E3E
:101D1000A682A6B2FED7A6940050F212140E0001BD
:101D2000B66FE7EC02F0020EA96EA86AA69CA69E0A
:101D3000A684F250006EF29E0F01550EA76EAA0EF9
:101D4000A76EA682A6B2FED7A6940050F212140E79
:101D50000001B66FE7EC02F0030EA96EA86AA69C1C
:101D6000A69EA684F250006EF29E0F01550EA76E3D
:101D7000AA0EA76EA682A6B2FED7A6940050F212B3
:101D8000140E0001B66FE7EC02F0FF003750335C31
:101D900049E13850345C46E13950355C43E13A5012
:101DA000365C40E1010EB16FB26F9FEC03F0F40EB0
:101DB000F66E010EF76EFFEC03F0010EB16F020E2E
:101DC000B26F9FEC03F0080EF66E020EF76EFFEC9A
:101DD00003F0010EB16F030EB26F9FEC03F01C0E07
:101DE000F66E020EF76EFFEC03F0010EB16F040EFB
:101DF000B26F9FEC03F0300EF66E020EF76EFFEC42
:101E000003F0040E9F6FFA0EB66FE7EC02F09F2FFF
:101E1000FAD7640E196E0B0E1C6E0C0EB06FD0EC60
:101E200003F037D0010EB16FB26F9FEC03F0010EDB
:101E3000B16F020EB26F9FEC03F0440EF66E020E0D
:101E4000F76EFFEC03F0010EB16F030EB26F9FEC63
:101E500003F0580EF66E020EF76EFFEC03F0010E63
:101E6000B16F040EB26F9FEC03F06C0EF66E020EB3
:101E7000F76EFFEC03F0040E9F6FFA0EB66FE7ECFF
:101E800002F09F2FFAD70B0E1C6E0C0EB06FD0EC29
:101E900003F01C500B080FE21C500D080CE3010E60
:101EA0001C5C9F6FB16F040EB26F9FEC03F031C0EA
:101EB000B0F0D0EC03F0192CF8D0010EB16FB26F76
:101EC0009FEC03F0800EF66E020EF76EFFEC03F04F
:101ED0002EBE01D001D02E6A928A80AA0DD017B6EC
:101EE0000AD01F061D06010E1D241E6E17861E0E2B
:101EF000B66FE7EC02F001D01796968084A00DD063
:101F000017BA0AD01F2A1D2A010E1D5C1E6E178AE1
:101F10001E0EB66FE7EC02F001D0179A1F50215C3D
:101F200008E22E2A1FC021F0020E215C206E040E52
:101F30001D6E20501F5C08E22E061FC020F0020E0E
:101F40002024216E020E1D6E1F501A5C09E21BC078
:101F50001FF0020E1D6E2E6A1FC020F02024216E7D
:101F60001B501F5C0BE21AC01FF0040E1D6E1A5CA2
:101F70002E6E1FC021F0020E215C206E010E2E2459
:101F80009F6FA06F020EA16F96EC04F0020E2E243C
:101F90009F6FA06F030EA16F96EC04F0030E2E242A
:101FA0009F6FA06F040EA16F96EC04F0010EB16F4D
:101FB0001DC0B2F09FEC03F030C0B0F0D0EC03F0E5
:101FC0001D50020814E1010EB16F040EB26F9FECB8
:101FD00003F031C0B0F0D0EC03F0010EB16F030E8E
:101FE000B26F9FEC03F031C0B0F0D0EC03F01D50A5
:101FF000040814E1010EB16F020EB26F9FEC03F002
:1020000031C0B0F0D0EC03F0010EB16F030EB26F2F
:102010009FEC03F031C0B0F0D0EC03F01D5003088A
:1020200014E1010EB16F040EB26F9FEC03F031C0EA
:10203000B0F0D0EC03F0010EB16F020EB26F9FEC66
:1020400003F031C0B0F0D0EC03F0968284A21BD034
:1020500017B818D017881FC019F0030E1D6E020E96
:102060009F6F960EB66FE7EC02F09F2FFAD70C0E1B
:10207000B06FD0EC03F01950060804E1336A346AFB
:10208000356A366A01D01798968484A40ED0640EFF
:10209000196E0C0EB06FD0EC03F0020E9F6FFA0EAB
:1020A000B66FE7EC02F09F2FFAD719500208D8A4B8
:1020B00019D1010EB16FB26F9FEC03F0960EF66E60
:1020C000020EF76EFFEC03F0010EB16F020EB26F5D
:1020D0009FEC03F0AC0EF66E020EF76EFFEC03F011
:1020E000060EB16F030EB26F9FEC03F026C09FF097
:1020F000010EA06FCAEC04F03A0EB06FD0EC03F002
:1021000027C09FF0010EA06FCAEC04F0CB0EF66E54
:10211000020EF76E080EA36F0FEC04F0060E2B24D0
:102120009F6FB16F040EB26F9FEC03F032C0B0F03E
:10213000D0EC03F0928A80AA1DD02B2C0CD0265014
:102140003C0809E3262A020E9F6F960EB66FE7EC55
:1021500002F09F2FFAD72B5003080CE127503B08C1
:1021600009E3272A020E9F6F960EB66FE7EC02F086
:102170009F2FFAD7968084A035D02B2C18D02652CA
:1021800009E02606020E9F6F960EB66FE7EC02F08E
:102190009F2FFAD726503C080AE23C0E266E020E0C
:1021A0009F6F960EB66FE7EC02F09F2FFAD72B5079
:1021B000030818E1275209E02706020E9F6F960ECA
:1021C000B66FE7EC02F09F2FFAD727503C080AE2DF
:1021D0003C0E276E020E9F6F960EB66FE7EC02F074
:1021E0009F2FFAD7968284A216D02B2C03D0030EF1
:1021F0002B6E05D02B50030802E1010E2B6E020E50
:102200009F6FFA0EB66FE7EC02F09F2FFAD70C0E15
:10221000B06FD0EC03F0968484A464D0C80EB66F7F
:10222000E7EC02F00C0EB06FD0EC03F0010EB16FD2
:10223000020EB26F9FEC03F0D40EF66E020EF76E34
:10224000FFEC03F0010EB16F030EB26F9FEC03F0D1
:10225000E60EF66E020EF76EFFEC03F0140EA96E9A
:1022600026C0A8FFA69CA69EA684F250006EF29EF1
:102270000F01550EA76EAA0EA76EA682A6B2FED7B4
:10228000A6940050F212150EA96E27C0A8FFA69CB6
:10229000A69EA684F250006EF29E550EA76EAA0E60
:1022A000A76EA682A6B2FED7A6940050F21226C050
:1022B00024F027C025F0040E00019F6FAF0EB66F0B
:1022C000E7EC02F09F2FFAD71E0EB66FE7EC02F094
:1022D000010E196E2E6A020E1D6E1F6E0C0EB06F6F
:1022E000D0EC03F019500308D8A4E5D0010EB16F6B
:1022F000B26F9FEC03F0F80EF66E020EF76EFFEC75
:1023000003F0010EB16F020EB26F9FEC03F00E0EE0
:10231000F66E030EF76EFFEC03F0080EB16F030EBE
:10232000B26F9FEC03F02FC09FF01F0EA06F32EC36
:1023300004F0200EB06FD0EC03F0928A80AA09D08E
:1023400017B606D02F2A17861E0EB66FE7EC02F0DE
:1023500001D01796968084A009D017BA06D02F0610
:10236000178A1E0EB66FE7EC02F001D0179A96841A
:1023700084A412D017BC0FD0020E1D6E1F6E178CD6
:10238000010E196E2E6A020E9F6FFA0EB66FE7EC01
:1023900002F09F2FFAD701D0179C2FBE03D02F50E9
:1023A000000802E3040E2F6E2FBE05D02F50040844
:1023B00002E2010E2F6E968284A272D017B86FD0FF
:1023C0001788010E196E2E6A050EA96E2FC0A8FF80
:1023D000A69CA69EA684F250006EF29E0F01550E9A
:1023E000A76EAA0EA76EA682A6B2FED7A69400502C
:1023F000F21217A405D02FC0A1F00001FDEC04F0EB
:10240000010E0001B16FB26F9FEC03F0240EF66E67
:10241000030EF76EFFEC03F0010EB16F020EB26F08
:102420009FEC03F03A0EF66E030EF76EFFEC03F02E
:10243000010EB16F030EB26F9FEC03F0500EF66EFB
:10244000030EF76E100EA36F0FEC04F02FC09FF079
:102450001F0EA06F32EC04F0200EB06FD0EC03F032
:10246000200EB06FD0EC03F0010EB16F040EB26F0E
:102470009FEC03F0660EF66E030EF76EFFEC03F0B2
:10248000040E9F6FFA0EB66FE7EC02F09F2FFAD79B
:10249000020E1D6E1F6E0C0EB06FD0EC03F001D05B
:1024A0001798060EB16F1DC0B2F09FEC03F030C05C
:1024B000B0F0D0EC03F019500408D8A47CD1010E80
:1024C000B16FB26F9FEC03F07C0EF66E030EF76EE9
:1024D000FFEC03F0010EB16F020EB26F9FEC03F040
:1024E000920EF66E030EF76EFFEC03F0010EB16F65
:1024F000030EB26F9FEC03F0A80EF66E030EF76E9C
:102500000A0EA36F0FEC04F033C09FF01F0EA06FF4
:1025100032EC04F034C09FF01F0EA06F32EC04F0D8
:1025200035C09FF01F0EA06F32EC04F036C09FF054
:102530001F0EA06F32EC04F0200EB06FD0EC03F051
:10254000200EB06FD0EC03F0928A80AA11D017B69B
:102550000ED00B0E1C5C036A330FE96E000E0320D5
:10256000EA6EEF2A17861E0EB66FE7EC02F001D076
:102570001796968084A011D017BA0ED00B0E1C5C53
:10258000036A330FE96E000E0320EA6EEF06178A26
:102590001E0EB66FE7EC02F001D0179A968284A265
:1025A0000DD017B80AD017881C2A1E0EB66FE7EC9C
:1025B00002F00C0EB06FD0EC03F001D017989684A7
:1025C00084A40DD017BC0AD0178C1C061E0EB66F43
:1025D000E7EC02F00C0EB06FD0EC03F001D0179CCA
:1025E0000B0E1C5C036A330FE96E000E0320EA6ECB
:1025F000EFBE01D00AD00B0E1C5C036A330FE96EEC
:10260000000E0320EA6E090EEF6E0B0E1C5C036ACF
:10261000330FE96E000E0320EA6EEFBE0CD0EF50D0
:10262000090809E20B0E1C5C036A330FE96E000E09
:102630000320EA6EEF6A1C500A0810E3010E196EBF
:102640002E6A020E1D6E1F6E0B0E1C6E020E9F6F09
:10265000FA0EB66FE7EC02F09F2FFAD71CC0B1F06C
:10266000040EB26F9FEC03F032C0B0F0D0EC03F078
:102670001C500E08D8B08DD03750335C4DE1385027
:10268000345C4AE13950355C47E13A50365C44E10C
:10269000010EB16FB26F9FEC03F0BE0EF66E030E2B
:1026A000F76EFFEC03F0010EB16F020EB26F9FECFC
:1026B00003F0D40EF66E030EF76EFFEC03F0010E7E
:1026C000B16F030EB26F9FEC03F0EA0EF66E030ECD
:1026D000F76EFFEC03F0010EB16F040EB26F9FECCA
:1026E00003F0000EF66E040EF76EFFEC03F0020E20
:1026F0009F6FFA0EB66FE7EC02F09F2FFAD73D0EF0
:10270000196E0B0E1C6E0C0EB06FD0EC03F0336A1A
:10271000346A356A366A3DD0010EB16FB26F9FECF4
:1027200003F0160EF66E040EF76EFFEC03F0010ECA
:10273000B16F020EB26F9FEC03F02C0EF66E040E1A
:10274000F76EFFEC03F0010EB16F030EB26F9FEC5A
:1027500003F0420EF66E040EF76EFFEC03F0010E6E
:10276000B16F040EB26F9FEC03F0580EF66E040EBC
:10277000F76EFFEC03F0020E9F6FFA0EB66FE7ECF8
:1027800002F09F2FFAD70B0E1C6E0C0EB06FD0EC20
:1027900003F01C500B080FE21C500D080CE3010E57
:1027A0001C5C9F6FB16F040EB26F9FEC03F031C0E1
:1027B000B0F0D0EC03F019503D08D8A487D1010E39
:1027C000B16FB26F9FEC03F06E0EF66E040EF76EF3
:1027D000FFEC03F0010EB16F020EB26F9FEC03F03D
:1027E000840EF66E040EF76EFFEC03F0010EB16F6F
:1027F000030EB26F9FEC03F09A0EF66E040EF76EA6
:102800000A0EA36F0FEC04F033C09FF01F0EA06FF1
:1028100032EC04F034C09FF01F0EA06F32EC04F0D5
:1028200035C09FF01F0EA06F32EC04F036C09FF051
:102830001F0EA06F32EC04F0200EB06FD0EC03F04E
:10284000200EB06FD0EC03F0928A80AA11D017B698
:102850000ED00B0E1C5C036A330FE96E000E0320D2
:10286000EA6EEF2A17861E0EB66FE7EC02F001D073
:102870001796968084A011D017BA0ED00B0E1C5C50
:10288000036A330FE96E000E0320EA6EEF06178A23
:102890001E0EB66FE7EC02F001D0179A968284A262
:1028A0000DD017B80AD017881C2A1E0EB66FE7EC99
:1028B00002F00C0EB06FD0EC03F001D017989684A4
:1028C00084A40DD017BC0AD0178C1C061E0EB66F40
:1028D000E7EC02F00C0EB06FD0EC03F001D0179CC7
:1028E0000B0E1C5C036A330FE96E000E0320EA6EC8
:1028F000EFBE01D00AD00B0E1C5C036A330FE96EE9
:10290000000E0320EA6E090EEF6E0B0E1C5C036ACC
:10291000330FE96E000E0320EA6EEFBE0CD0EF50CD
:10292000090809E20B0E1C5C036A330FE96E000E06
:102930000320EA6EEF6A1C500A0804E3050E196EC4
:102940000B0E1C6E1CC0B1F0040EB26F9FEC03F0B6
:1029500032C0B0F0D0EC03F01C500E08D8B0A4D0B8
:10296000010EB16FB26F9FEC03F0B00EF66E040E65
:10297000F76EFFEC03F0010EB16F020EB26F9FEC29
:1029800003F0C60EF66E040EF76EFFEC03F0010EB8
:10299000B16F030EB26F9FEC03F0DC0EF66E040E07
:1029A000F76EFFEC03F0010EB16F040EB26F9FECF7
:1029B00003F0F20EF66E040EF76EFFEC03F0A96A58
:1029C00033C0A8FFA69CA69EA684F250006EF29E7D
:1029D0000F01550EA76EAA0EA76EA682A6B2FED74D
:1029E000A6940050F212140E0001B66FE7EC02F04C
:1029F000010EA96E34C0A8FFA69CA69EA684F25024
:102A0000006EF29E0F01550EA76EAA0EA76EA6824B
:102A1000A6B2FED7A6940050F212140E0001B66FB3
:102A2000E7EC02F0020EA96E35C0A8FFA69CA69E98
:102A3000A684F250006EF29E0F01550EA76EAA0EEC
:102A4000A76EA682A6B2FED7A6940050F212140E6C
:102A50000001B66FE7EC02F0030EA96E36C0A8FFC6
:102A6000A69CA69EA684F250006EF29E0F01550E03
:102A7000A76EAA0EA76EA682A6B2FED7A694005095
:102A8000F212140E0001B66FE7EC02F0020E9F6F17
:102A9000FA0EB66FE7EC02F09F2FFAD7010E196E0F
:102AA0002E6A020E1D6E1F6E1C500B080FE21C508A
:102AB0000D080CE3010E1C5C9F6FB16F040EB26F2A
:102AC0009FEC03F031C0B0F0D0EC03F019500508D2
:102AD00039E1010EB16FB26F9FEC03F0080EF66E94
:102AE000050EF76EFFEC03F0010EB16F020EB26F30
:102AF0009FEC03F01E0EF66E050EF76E0B0EA36F25
:102B00000FEC04F0080EE96E3EC0A0F03DC09FF04F
:102B100033EF05F0200EB06FD0EC03F0200EB06F55
:102B2000D0EC03F0200EB06FD0EC03F0010EB16FCB
:102B3000040EB26F9FEC03F0320EF66E050EF76EC8
:102B4000FFEC03F0928A80AA78D0968284A275D096
:102B5000C80EB66FE7EC02F00C0EB06FD0EC03F0CD
:102B6000010EB16F020EB26F9FEC03F0480EF66ECD
:102B7000050EF76EFFEC03F0010EB16F030EB26F9E
:102B80009FEC03F05A0EF66E050EF76EFFEC03F0A5
:102B9000320EA96EA86AA69CA69EA684F250006E6C
:102BA000F29E0F01550EA76EAA0EA76EA682A6B2C0
:102BB000FED7A6940050F212330EA96EA86AA69C06
:102BC000A69EA684F250006EF29E550EA76EAA0E27
:102BD000A76EA682A6B2FED7A6940050F212340EBB
:102BE000A96EA86AA69CA69EA684F250006EF29ECC
:102BF000550EA76EAA0EA76EA682A6B2FED7A69401
:102C00000050F212040E00019F6FAF0EB66FE7EC9A
:102C100002F09F2FFAD7226A236A3E6A3D6A1E0E8F
:102C2000B66FE7EC02F0010E196E2E6A020E1D6EF1
:102C30001F6E0C0EB06FD0EC03F0968484A416D0F7
:102C400017BC13D0178C020E9F6FFA0EB66FE7EC0D
:102C500002F09F2FFAD7010E196E2E6A020E1D6E1A
:102C60001F6E0C0EB06FD0EC03F001D0179C195002
:102C70006408D8A471D218A00DD01890050E9F6FCB
:102C800023EF08F003C09EF002C09DF001C09CF04D
:102C900000C09BF0010EB16FB26F9FEC03F09EC0BD
:102CA000B6F09DC0B5F09CC0B4F09BC0B3F0D70E99
:102CB000BA6FA30EB96FB86B810EB76F8DEC05F0CC
:102CC00000C09FF001C0A0F002C0A1F003C0A2F0BC
:102CD0006C0EF66E050EF76E080EA36F0FEC04F087
:102CE000020EE96EA2C0A6F0A1C0A5F0A0C0A4F09B
:102CF0009FC0A3F0A76F7CEF09F0790EF66E050E6A
:102D0000F76E070EA36F0FEC04F0010EB16F020E09
:102D1000B26F9FEC03F0820EF66E050EF76EFFECBD
:102D200003F09EC0B6F09DC0B5F09CC0B4F09BC04F
:102D3000B3F0A40EBA6F700EB96F3D0EB86F7D0E72
:102D4000B76F06EC06F000C09FF001C0A0F002C013
:102D5000A1F003C0A2F003C0B6F002C0B5F001C0FC
:102D6000B4F000C0B3F0BA6BB96B300EB86F820E1E
:102D7000B76F8DEC05F003C09AF002C099F001C066
:102D800098F000C097F0B66BB56B300EB46F820E42
:102D9000B36F9AC0BAF099C0B9F098C0B8F097C0B4
:102DA000B7F0E8EC07F006E39A6B996B300E986F7A
:102DB000820E976F2A6A9AC0A2F099C0A1F098C0BB
:102DC000A0F097C09FF0F7EC0BF000C09FF001C09F
:102DD000A0F002C0A1F003C0A2F0B86B2AC0B7F007
:102DE0005BEC03F003C0B6F002C0B5F001C0B4F074
:102DF00000C0B3F0A2C0BAF0A1C0B9F0A0C0B8F052
:102E00009FC0B7F0E8EC07F00EE3080E2A249F6F8E
:102E1000B16F020EB26F9FEC03F0D10EB06FD0EC29
:102E200003F02A2AC8D79AC0A2F099C0A1F098C08E
:102E3000A0F097C09FF0F7EC0BF003C0B6F002C013
:102E4000B5F001C0B4F000C0B3F041EC0AF001C02D
:102E50002AF02A500A080EE3080E2A249F6FB16F49
:102E6000020EB26F9FEC03F0200EB06FD0EC03F0B7
:102E70002A2AEFD70A0EB16F030EB26F9FEC03F050
:102E80008A0EF66E050EF76E060EA36F0FEC04F0B9
:102E900024C09FF0010EA06FCAEC04F03A0EB06F90
:102EA000D0EC03F025C09FF0010EA06FCAEC04F037
:102EB00017A43ED0010EB16F040EB26F9FEC03F069
:102EC0009A0EF66E050EF76EFFEC03F0A46B76EC2F
:102ED00003F000C09FF001C0A0F002C0A1F003C049
:102EE000A2F0B66BB56BB46B880EB36F03C0BAF0CB
:102EF00002C0B9F001C0B8F000C0B7F0E8EC07F0CC
:102F000001E211E1F2CF9FF0F29E050EA96EA69CA0
:102F1000A69EA680A8509FBFF28EA06FA0C0A1F071
:102F2000FDEC04F004D01794A16BFDEC04F00FD07D
:102F3000010EB16F040EB26F9FEC03F0A40EF66E9B
:102F4000050EF76EFFEC03F0A16BFDEC04F017A08B
:102F500049D00D0EB16F040EB26F9FEC03F0AE0EB0
:102F6000F66E050EF76EFFEC03F0A46B76EC03F043
:102F700000C09FF001C0A0F002C0A1F003C0A2F009
:102F800003C0B6F002C0B5F001C0B4F000C0B3F0A9
:102F9000BA6BB96BB86B880EB76FE8EC07F014E347
:102FA0001794A16BFDEC04F017928C9295928C8093
:102FB0009590179E18B207D0320EB66FE7EC02F06C
:102FC00030EC03F018820DD017908C909590178EEE
:102FD00018A207D0320EB66FE7EC02F030EC03F027
:102FE000189218D017900D0EB16F040EB26F9FECAF
:102FF00003F0B60EF66E050EF76EFFEC03F08C9044
:10300000959018A207D0320EB66FE7EC02F030ECC4
:1030100003F0189217A241D0010EB16F030EB26FE8
:103020009FEC03F0BE0EF66E050EF76EFFEC03F09C
:10303000A46B76EC03F000C09FF001C0A0F002C0CA
:10304000A1F003C0A2F0B66BB56BB46B880EB36F82
:1030500003C0BAF002C0B9F001C0B8F000C0B7F0C8
:10306000E8EC07F001E20CE18C82959218B407D0ED
:10307000320EB66FE7EC02F030EC03F018840CD09F
:1030800017928C92959218A407D0320EB66FE7EC87
:1030900002F030EC03F0189417D0010EB16F030E5C
:1030A000B26F9FEC03F0C60EF66E050EF76EFFECE6
:1030B00003F08C92959218A407D0320EB66FE7EC0D
:1030C00002F030EC03F01894928A80AA0DD017B663
:1030D0000AD017721786020E9F6F960EB66FE7EC36
:1030E00002F09F2FFAD701D01796968084A00DD0BA
:1030F00017B80AD017741788020E9F6F960EB66F16
:10310000E7EC02F09F2FFAD701D01798968284A29D
:1031100012D00C0EB06FD0EC03F0020E9F6F960E23
:10312000B66FE7EC02F09F2FFAD7010E196E2E6AE8
:10313000020E1D6E1F6E968484A40DD017BA0AD09D
:103140001770178A020E9F6F960EB66FE7EC02F0AB
:103150009F2FFAD701D0179A2D2C3FD0320EA96E8F
:1031600022C0A8FFA69CA69EA684F250006EF29EE6
:103170000F01550EA76EAA0EA76EA682A6B2FED7A5
:10318000A6940050F212330EA96E23C0A8FFA69C8D
:10319000A69EA684F250006EF29E550EA76EAA0E51
:1031A000A76EA682A6B2FED7A6940050F212340EE5
:1031B000A96E3DC0A8FFA69CA69EA684F250006EF4
:1031C000F29E550EA76EAA0EA76EA682A6B2FED7D5
:1031D000A6940050F2122D6A00012C50130803E24D
:1031E00030EC03F02C6A22503B0802E2226A232AC8
:1031F00023503C0804E1236A3D2AD8B43E2A84EFD8
:043200000DF00300CA
:020000040030CA
:0E00000020CE1E1E000781000FC00FE00F4033
:00000001FF
;PIC18F4550
;CRC=215B  CREATED="31-oct.-15 09:56"
