:040000005FEF30F08E
:08000800046ED8CF05F0E0CF33
:1000100006F00001E9CF0CF0EACF07F0E1CF08F0DD
:10002000E2CF09F0D9CF0AF0DACF0BF0F3CF12F01C
:10003000F4CF13F0FACF14F0FBCF15F000C00EF0A0
:1000400001C00FF002C010F003C011F0F2A82CEFB5
:1000500000F0F2B2F3EF09F00EC000F00FC001F0B3
:1000600010C002F011C003F00CC0E9FF07C0EAFFA6
:10007000078E08C0E1FF09C0E2FF0AC0D9FF0BC02C
:10008000DAFF12C0F3FF13C0F4FF14C0FAFF15C06B
:10009000FBFF045006C0E0FF05C0D8FF1000F2CF00
:1000A0000DF0F29EF76ABC0FF66E000EF722000EFE
:1000B000F86E0900F5500DBEF28E1200000000002F
:1000C0000000005F00000003000300143E143E1413
:1000D000242A7F2A1243330866613649552250008C
:1000E00005030000001C2241000041221C001408EE
:1000F0003E081408083E08080050300000080808B0
:100100000808006060000020100804023E514945C4
:100110003E0004027F00426151494622414949366E
:100120001814127F1027454545393E494949320187
:10013000017109073649494936264949493E003681
:100140003600000056360000081422410014141432
:100150001414004122140802015109063E41595568
:100160005E7E0909097E7F494949363E4141412267
:100170007F4141413E7F494949417F090909013E8B
:100180004141493A7F0808087F00417F41003040E3
:1001900040403F7F081422417F404040407F020C96
:1001A000027F7F0204087F3E4141413E7F090909E9
:1001B000061E2121215E7F0909097600F2CF0DF08C
:1001C000F29EF76ADA0FF66E010EF722000EF86E55
:1001D0000900F5500DBEF28E120026494949320140
:1001E000017F01013F4040403F1F2040201F7F20F2
:1001F00010207F41221C22410708700807615149E5
:100200004543007F41000002040810200000417FA8
:10021000000402010204404040404000010204008A
:1002200020545454787F4444443838444444443837
:100230004444447F385454541804047E050508543B
:1002400054543C7F0804047800447D40002040441E
:100250003D007F1028440000417F40007C0478046A
:10026000787C0804047838444444387C1414140816
:10027000081414147C007C080404485454542004CA
:10028000043F44443C4040207C1C2040201C3C4017
:1002900030403C44281028440C5050503C44645496
:1002A0004C44000836414100007F000041413608BF
:1002B000000201020402F2CF0DF0F29ED20FF66EA0
:1002C000020EF722000EF86E0900F5500DBEF28EF8
:1002D000120000000000000000000000000000000C
:1002E000000000000000000000000000000000000E
:1002F00000000000000000000000000000000000FE
:1003000000000000000000000000000000000000ED
:1003100000000000000000000000000000000000DD
:1003200000000000000000000000000000000000CD
:1003300000000000000000000000000000000000BD
:1003400000000000000000000000000000000000AD
:10035000000000000000000000000000000000009D
:10036000000000000000000000000000000000008D
:10037000000000000000000000000000000000007D
:10038000000000000000000000000000000000006D
:10039000000000000000000000000000000000005D
:1003A000000000000000000000000000000000004D
:1003B000000000000000000000000000000000003D
:1003C0000000000000000000000000000000000825
:1003D0000080000000000000000000000000000499
:1003E000010000000000000000000000000000020A
:1003F00002000000000000000000000000000000FB
:100400007800000000000000000000000000000074
:100410008400000000000000000000000000000157
:10042000020000000000000000000000000000F9D1
:1004300002F80000000000000000000000000001C1
:1004400002000000000000000000000000000001A9
:100450000200000000000000000000000000000496
:100460008480000000000000000000000000000880
:1004700078400000000000000000000000000010B4
:1004800048200000000000000000000000000020E4
:100490004810000000000000000000000000000004
:1004A00078000000000000000000000000000000D4
:1004B000000000000000000000000000000000003C
:1004C000000000000000000000000000000000002C
:1004D000000000000000000000000000000000001C
:1004E000000000000000000000000000000000000C
:1006D0000000F2CF0DF0F29EEE0FF66E060EF7223E
:1006E000000EF86E0900F5500DBEF28E12000000EB
:1006F00000000000000000000000000000000000FA
:1007000000000000000000000000000000000000E9
:1007100000000000000000000000000000000000D9
:1007200000000000000000000000000000000000C9
:1007300000000000000000000000000000000000B9
:1007400000000000000000000000000000000000A9
:100750000000000000000000000000000000000099
:100760000000000000000000000000000000000089
:100770000000000000000000000000000000000079
:100780000000000000000000000000000000000069
:100790000000000000000000000000000000000059
:1007A0000000000000000000000000000000000049
:1007B0000000000000000000000000000000000039
:1007C0000000000000000000000000000000000029
:1007D0000000000000000000000000000000000019
:1007E0000000000000000000000000000000000009
:1007F00000000000000000000000000000000000F9
:1008000000000000000000000000000000000000E8
:1008100000000000000000000000000000000000D8
:1008200000000000000000000000000000000000C8
:1008300000000000000000000000000000000000B8
:1008400000000000000000000000000000000000A8
:100850000000000000000000000000000000000098
:100860000000000000000000000000000000000088
:100870000000000000000000000000000000000078
:100880000000000000000000000000000000000068
:100890000000000000000000000000000000000058
:1008A0000000000000000000000000000000000048
:1008B0000000000000000000000000000000000038
:1008C0000000000000000000000000000000000028
:1008D00000000000000000000000007FFFF80000A2
:1008E00000000000000000000000004000080000C0
:1008F0000000000000000000000000470388000026
:100900000000000000000000000000450288000018
:100910000000000000000000000000450288000008
:1009200000000000000000000000004502880000F8
:1009300000000000000000000000004502880000E8
:1009400000000000000000000000004703880000D5
:10095000000000000000000000000040000800004F
:10096000000000000000000000000040FC08000043
:1009700000000000000000000000004084080000AB
:10098000000000000000000000000040840800009B
:10099000000000000000000000000040FC08000013
:1009A00000000000000000000000004000080000FF
:1009B00000000000000000000000007FFFF80000C1
:1009C0000000000000000000000000000000000027
:1009D0000000000000000000000000000000000017
:1009E0000000000000000000000000000000000007
:1009F00000000000000000000000000000000000F7
:100A000000000000000000000000000000000000E6
:100A100000000000000000000000000000000000D6
:100A200000000000000000000000000000000000C6
:100A300000000000000000000000000000000000B6
:100A400000000000000000000000000000000000A6
:100A50000000000000000000000000000000000096
:100A60000000000000000000000000000000000086
:100A70000000000000000000000000000000000076
:100A80000000000000000000000000000000000066
:100A90000000000000000000000000000000000056
:100AA0000000000000000000000000000000000046
:100AB0000000000000000000000000000000000036
:100AC0000000000000000000000000000000000026
:100AD0000000000000000000000000000000000016
:100AE0000000000000000000000000000000F2CF45
:100AF0000DF0F29E0A0FF66E0B0EF722000EF86E46
:100B00000900F5500DBEF28E12000000000000003A
:100B100000000000000000000000000000000000D5
:100B200000000000000000000000000000000000C5
:100B300000000000000000000000000000000000B5
:100B400000000000000000000000000000000000A5
:100DF0000000000000000000600000000000000093
:100E00000000000000000000F000000000000000F2
:100E10000000000000000001F800000000000000D9
:100E20000000000000000001F800000000000000C9
:100E30000000000000000001F800000000000000B9
:100E40000000000000000000F000000000000000B2
:100E5000000000000000003871C000000000000029
:100E6000000000000000007C93E000000000000093
:100E700000000000000000FF0FF000000000000074
:100E800000000000000000FF0FF000000000000064
:100E9000000000000000007D93E000000000000062
:100EA000000000000000003861C0000000000000E9
:100EB0000000000000000000F00000000000000042
:100EC0000000000000000001F80000000000000029
:100ED0000000000000000001F80000000000000019
:100EE0000000000000000001F80000000000000009
:100EF0000000000000000000F00000000000000002
:100F000000000000000000006000F2CF0DF0F29E33
:100F1000F76A280FF66E0F0EF722000EF86E090022
:100F2000F5500DBEF28E1200436C61766500F2CF73
:100F30000DF0F29EF76A4C0FF66E0F0EF722000EC0
:100F4000F86E0900F5500DBEF28E1200436F7272FA
:100F5000656374610000F2CF0DF0F29EF76A740FC2
:100F6000F66E0F0EF722000EF86E0900F5500DBE5A
:100F7000F28E1200496E636F7272656374610000D5
:100F8000F2CF0DF0F29EF76A9E0FF66E0F0EF7226B
:100F9000000EF86E0900F5500DBEF28E12002020F2
:100FA00021416272612050726F74656363696F6E74
:100FB0000000F2CF0DF0F29EF76AD00FF66E0F0E22
:100FC000F722000EF86E0900F5500DBEF28E1200E9
:100FD00020202020202046726F6E74616C2120201A
:100FE00020200000F2CF0DF0F29EF76A020FF66E9D
:100FF000100EF722000EF86E0900F5500DBEF28EAD
:10100000120020202020202020202020202020200E
:10101000202020200000F2CF0DF0F29EF76A340F5E
:10102000F66E100EF722000EF86E0900F5500DBE98
:10103000F28E120046696C74726F2053617475727F
:1010400061646F00F2CF0DF0F29EF76A620FF66EE8
:10105000100EF722000EF86E0900F5500DBEF28E4C
:1010600012004A50435637322D5043522D4543000B
:10107000F2CF0DF0F29EF76A8E0FF66E100EF72289
:10108000000EF86E0900F5500DBEF28E12004D658F
:101090006E750000F2CF0DF0F29EF76AB20FF66E99
:1010A000100EF722000EF86E0900F5500DBEF28EFC
:1010B0001200416A757374657300F2CF0DF0F29EF1
:1010C000F76AD80FF66E100EF722000EF86E0900C0
:1010D000F5500DBEF28E120043616D62696F20649F
:1010E0006520436C61766500F2CF0DF0F29EF76AE1
:1010F000060FF66E110EF722000EF86E0900F5507D
:101100000DBEF28E12004D6F646F0000F2CF0DF035
:10111000F29EF76A2A0FF66E110EF722000EF86E95
:101120000900F5500DBEF28E12005469656D706FA6
:101130002050757267610000F2CF0DF0F29EF76AE1
:10114000560FF66E110EF722000EF86E0900F550DC
:101150000DBEF28E120054656D706F205556000062
:10116000F2CF0DF0F29EF76A7E0FF66E110EF722A7
:10117000000EF86E0900F5500DBEF28E12004D61A2
:101180006E74656E696D69656E746F00F2CF0DF0F7
:10119000F29EF76AAA0FF66E110EF722000EF86E95
:1011A0000900F5500DBEF28E120053657276696328
:1011B000696F0000F2CF0DF0F29EF76AD20FF66E63
:1011C000110EF722000EF86E0900F5500DBEF28EDA
:1011D0001200542E2050757267610000F2CF0DF09E
:1011E000F29EF76AFA0FF66E110EF722000EF86EF5
:1011F0000900F5500DBEF28E1200542E20555600F7
:10120000F2CF0DF0F29EF76A1E0FF66E120EF72265
:10121000000EF86E0900F5500DBEF28E1200436C00
:10122000617665204E7565766100F2CF0DF0F29E15
:10123000F76A480FF66E120EF722000EF86E0900DC
:10124000F5500DBEF28E12004D616E74656E6965CB
:101250006E746F00F2CF0DF0F29EF76A720FF66EA9
:10126000120EF722000EF86E0900F5500DBEF28E38
:10127000120054726162616A6F2046696C74726F09
:101280002868293A0000F2CF0DF0F29EF76AA40F09
:10129000F66E120EF722000EF86E0900F5500DBE24
:1012A000F28E120054726162616A6F204C757A206E
:1012B00055562868293A0000F2CF0DF0F29EF76AE1
:1012C000D60FF66E120EF722000EF86E0900F550DA
:1012D0000DBEF28E120053656E736F72206465202E
:1012E000466C756A6F00F2CF0DF0F29EF76A040F3C
:1012F000F66E130EF722000EF86E0900F5500DBEC3
:10130000F28E120053656E736F7220646520507206
:101310006573696F6E00F2CF0DF0F29EF76A340FBD
:10132000F66E130EF722000EF86E0900F5500DBE92
:10133000F28E120056656C6F6369646164205665B5
:101340006E74696C61646F720000F2CF0DF0F29EF2
:10135000F76A680FF66E130EF722000EF86E09009A
:10136000F5500DBEF28E120053656C656363696FB4
:101370006E2056656C00F2CF0DF0F29EF76A940F66
:10138000F66E130EF722000EF86E0900F5500DBE32
:10139000F28E120056656C6F636964616400F2CF6F
:1013A0000DF0F29EF76ABC0FF66E130EF722000ED8
:1013B000F86E0900F5500DBEF28E1200477561728D
:1013C000646164610000030E0601315F0AE3060EEA
:1013D000EA6E310EE96EEF5004E001D000D0EF2E3E
:1013E000FDD70001000C928A80BA05D00401EB2BD6
:1013F000D8B4EC2B03D00401EC6BEB6B968084B07B
:1014000004D0ED2BD8B4EE2B02D0EE6BED6B9682B0
:1014100084B204D0EF2BD8B4F02B02D0F06BEF6B7A
:10142000968484B404D0F12BD8B4F22B02D0F26BA2
:10143000F16B0501D72BD8B4D82BD85303E1D75182
:10144000770858E2D86BD76B04012D8D2F89D32BE9
:101450002DAF03D0E72BD8B4E82B2FA128D0E12B58
:10146000D8B4E22B050107BF05D00751000802E2FE
:1014700007071ED0090E076F08BF05D008510008E6
:1014800002E2080715D0050E086F09BF05D0095103
:10149000000802E209070CD0090E096F0ABF05D047
:1014A0000A51000802E20A0703D004012F85050152
:1014B00004012EB902D02FAF1CD0F32BF3BF05D0FF
:1014C000F351090802E2F36BF42BF4BF05D0F45199
:1014D000050802E2F46BF52BF5BF05D0F5510908BC
:1014E00002E2F56BF62BF6BF04D0F651050801E2D7
:1014F000F66B0501E06BDF6B04012F8D0501E251F6
:10150000050820E3E2531CE0E151630819E3DAC562
:1015100030F60601302B3007D8B406D0FF0E316FFD
:10152000000151DF0601F7D7D9C531F600014BDFC5
:101530008B849494A60E006E002EFED70000050149
:101540008B949494F29200012CEF00F0050EEA6E59
:10155000FF0EE96EEF500DE0060E016E006A002EE0
:10156000FED7012EFBD77B0E006E002EFED7EF2E8E
:10157000F3D7000C0501EB51060804E1E16B8B8405
:10158000949437D0EB51050807E10F0EE16F070E79
:10159000DA6FD00ED96F2DD0EB51040807E1190E88
:1015A000E16F0B0EDA6FB80ED96F23D0EB51030841
:1015B00007E1230EE16F0E0EDA6F100ED96F19D00E
:1015C000EB51020807E12D0EE16F100EDA6FCC0E21
:1015D000D96F0FD0EB2D07D0320EE16F130EDA6FFB
:1015E000880ED96F06D0EB5304E1640EE16F8B9443
:1015F00094940001000C0501FA5303E093968A8647
:1016000002D093948A84939C8A9C956AFBC58CFF34
:101610000000939E8A8E00D000D00000939E8A9E88
:1016200093948A9493968A960001000C0501F66BB8
:10163000170EF56F020EF86F170EF76FF351FF0DCF
:10164000F3CFF4F5FA6BF96BFA5101081AE3F6C51A
:1016500003F0F551F52BD8B4F62BE96E03C0EAFF81
:10166000F4C5EFFFF8C503F0F751F72BD8B4F82B0A
:10167000E96E03C0EAFFF4C5EFFFF92BD8B4FA2BEB
:10168000E3D70001000C0501F66B170EF56F020E93
:10169000F86F170EF76FF36BF35107084EE3939A49
:1016A0008A9AFA6B400EFB6F0001A5DF010E05015F
:1016B000FA6F400EFB6F00019EDF0501F351B80980
:1016C000F96FFA6BFB6F000196DF0501F351B80962
:1016D000F96F010EFA6FF9C5FBF500018CDF939AE3
:1016E0008A8A0501F46BF4513F0825E3F6C503F03F
:1016F000F551F52BD8B4F62BE96E03C0EAFFEFCF16
:10170000F9F5FA6BF9C5FBF5000175DF0501F8C5C0
:1017100003F0F751F72BD8B4F82BE96E03C0EAFFBA
:10172000EFCFF9F5010EFA6FF9C5FBF5000163DFA4
:101730000501F42BD8D7F32BAFD70001000C9398F9
:101740008A88939E8A9E93948A9493968A96939A73
:101750008A9A0501FA6BC00EFB6F00014CDF010E87
:101760000501FA6FC00EFB6F000145DF0501FA6B42
:10177000400EFB6F00013FDF010E0501FA6F400EC6
:10178000FB6F000138DF0501FA6BB80EFB6F00013B
:1017900032DF010E0501FA6FB80EFB6F00012BDF7F
:1017A0000501EB2D0ED0FA6B3F0EFB6F000123DF1E
:1017B000010E0501FA6F3F0EFB6F00011CDF0DD01B
:1017C0000501FA6B3E0EFB6F000115DF010E0501EE
:1017D000FA6F3E0EFB6F00010EDF0501F36B000197
:1017E00025DF51DF000C0601256B2031246F2433E7
:1017F00024331F0E24172437253724372537243761
:101800002537243725372437253724372537C00E89
:1018100024171F512427000E25231F513F080DE2D6
:10182000170E2425266F020E2521276F400E265DF8
:10183000226F000E2759236F06D0170E2425226F22
:10184000000E2521236F215315E023C603F022C685
:10185000E9FF23C6EAFF2051070B266F010E006E39
:101860002651016E04E0D8900036012EFCD70050BE
:10187000EF1215D023C603F022C6E9FF23C6EAFF04
:101880002051070B266F010E006E2651016E04E0F9
:10189000D8900036012EFCD70050FF0AEF16000149
:1018A000000C07C603F0060106C6E9FF07C6EAFFFB
:1018B000EF52D8B4D0D007C603F006C6E9FF07C67A
:1018C000EAFFEF50520827E307C603F006C6E9FF18
:1018D00007C6EAFF200EEF5C050DF350036A136F95
:1018E000060EEA6E0E0EE96E176B13C616F6F2CFF1
:1018F00014F6F29E050E016EF76A135100014FECCB
:1019000000F00A000900F5CFEEFF012EFBD706011B
:1019100014BFF28E35D007C603F006C6E9FF07C62E
:10192000EAFFEF507E0827E307C603F006C6E9FF8B
:1019300007C6EAFF530EEF5C050DF350036A136F01
:10194000060EEA6E0E0EE96E176B13C616F6F2CF90
:1019500014F6F29E050E016EF76A13510001DEECDB
:1019600000F00A000900F5CFEEFF012EFBD70601BB
:1019700014BFF28E05D00E6B0F6B106B116B126BD8
:1019800007C603F00651E96E03C0EAFFEF500A0AEA
:10199000000103E0070A09E00BD006010851070D1A
:1019A000F350010F052750D000010601046B4CD005
:1019B00006010851050DF35004257F0806E2046B6B
:1019C0000851070DF350010F05270A6B0A5104084F
:1019D0003BE30B6B0B51060833E3036A0A510E0F0E
:1019E000E96E060E0320EA6EEFCF13F613C600F081
:1019F0000B51016E04E0D8900032012EFCD700A0FC
:101A00001DD00C6B08510C5D19E20D6B08510D5D7A
:101A100013E20D510425136F0B510803F3500525F4
:101A20000C25146F13C61FF6206F09C621F600019E
:101A3000DADE06010D2BEAD70C2BE4D70B2BCAD725
:101A40000A2B08510427C2D7062BD8B4072B042B26
:101A5000000127D706010001000C8E0E006E21C682
:101A600001F020C602F0036A015209E102C001F050
:101A7000026A080E005E015202E1006A08D0D890A6
:101A800001BE04D0023601360006F9D7019E000CD3
:101A900006011C51D8B4A5D0286F2051D8B4A1D0CC
:101AA000285F05E37F0E2827D8B09BD006D0810E93
:101AB000285FD8A096D0D8B494D028C600F0016A88
:101AC000026A036A276B1DC626F6268F1EC625F6F8
:101AD0001FC624F6190E286F2351245F0DE2010E54
:101AE000255F0AE2265F08E2275F06E2272B262B06
:101AF000252B2351242728D02251255F12E2010EE5
:101B0000265F0FE2275F0DE2272B262B2251252788
:101B10002351242719E3252B17E1262B15E1272B29
:101B200013D021518009265F0EE2010E275F0BE2E0
:101B3000272B21518009262722512527E9E3262B2F
:101B4000E7E1272BE5D70380282F01D00BD0D890D1
:101B50002437253726372737D89003360236013603
:101B60002937BAD729A106D0D890013202320332E0
:101B7000293302D0000635E029BF1ED0D890243783
:101B80002537263727372351245F07E2010E255FCB
:101B900004E2265F02E2275F1AE32251255F05E295
:101BA000010E265F02E2275F12E321518009265FC2
:101BB00003E2010E275F0BE3032A09E1022A07E192
:101BC000012A05E1002A0DE00132023203321DC66E
:101BD00028F62151281B28AF02D0018E06D0019E85
:101BE00004D0006A016A026A036A0001000C800ED8
:101BF000D8A202D00601251B06012A6B2B6B21C639
:101C000029F62551291B2051D8B4DFD0286F006E4A
:101C10002451D8B4E3D0285FD8B483D03EE325C69E
:101C20002EF62E8F26C62DF627C62CF62B6BD890B7
:101C30002E332D332C332B33282FF8D729AF03D055
:101C40002A81E0D02A9128912A89060EEA6E230E75
:101C5000E96EEBD02A9929BF0AD028A113D02E33E0
:101C60002D332C332B33002AD8B4C7D00BD02EBF42
:101C70000CD0D8902B372C372D372E370006D8B400
:101C8000BCD0F5D72A8D6DD02A9D21C629F621AF6B
:101C900002D02E8FABD02E9FA9D024C628F624C602
:101CA00000F02051285F21C62EF62E8F22C62DF679
:101CB00023C62CF62B6BD8902E332D332C332B339D
:101CC000282FF8D729AF03D02A839CD02A932891B4
:101CD0002A8B060EEA6E270EE96EA7D02A9B29BF33
:101CE0000AD028A113D02E332D332C332B33002AC6
:101CF000D8B483D00BD02EBF0CD0D8902B372C3734
:101D00002D372E370006D8B478D0F5D72A8F29D0B2
:101D10002A9F25C629F625AF02D02E8F67D02E9F89
:101D200065D025C62EF62E8F26C62DF627C62CF694
:101D300029AF04D02E9F2A8565D02A952B6B289138
:101D4000060EEA6E230EE96E70D029BF1CD021C6A4
:101D500029F628A106D02E332D332C332B33002A1D
:101D60004CE02BAF0BD02C2B09E12D2B07E12E2BB8
:101D700005E12E332D332C33002A3FE02ABD84D7D2
:101D80002ABFC6D71CD0800E2E1B2EAF04D03AD04F
:101D900025C629F60AD021C629F62E5306E12D5371
:101DA00004E12C5302E1006A21D02EBF08D0D89064
:101DB0002B372C372D372E37002EF7D71ED029AFD3
:101DC00002D02E8F13D02E9F11D024C600F025C62E
:101DD0002EF626C62DF627C62CF608D020C600F013
:101DE00021C62EF622C62DF623C62CF62EC601F0ED
:101DF0002DC602F02CC603F034D0006A016A026AD4
:101E0000036A2FD02B6B2C1F2D1F2E1F2B1F2B2B4C
:101E100005E12C2B03E12D2B01E12E2B2AB112D74A
:101E20002AB354D72AB589D7B3D7EF502C2705E367
:101E30002D2B03E12E2BD8B42881ED52EF502D2706
:101E400003E32E2BD8B42881ED52EF50EFBE01D022
:101E5000800A2E27D8B028812AB9FCD62ABB3ED7C3
:101E600074D70001000CF2CFEBF5F29EAA6AA96AC2
:101E7000A69CA69EA680A8500501EBBFF28E136F0C
:101E80000A0EFF6F0001A6EC0AF0F2CFEBF5F29E0E
:101E9000AA6A010EA96EA69CA69EA680A85005015E
:101EA000EBBFF28E146F0A0EFF6F0001A6EC0AF072
:101EB000F2CFEBF5F29EAA6A020EA96EA69CA69E30
:101EC000A680A8500501EBBFF28E156F0A0EFF6FBA
:101ED0000001A6EC0AF0F2CFEBF5F29EAA6A030E1F
:101EE000A96EA69CA69EA680A8500501EBBFF28E07
:101EF000166F0A0EFF6F0001A6EC0AF0F2CFEBF5A9
:101F0000F29EAA6A040EA96EA69CA69EA680A85060
:101F10000501EBBFF28E0401F76F0A0E0501FF6F9A
:101F20000001A6EC0AF0F2CFEBF5F29EAA6A050ECC
:101F3000A96EA69CA69EA680A8500501EBBFF28EB6
:101F40000401F86F0A0E0501FF6F0001A6EC0AF00C
:101F5000F2CFEBF5F29EAA6A060EA96EA69CA69E8B
:101F6000A680A8500501EBBFF28E0401F96F0A0E9E
:101F70000501FF6F0001A6EC0AF0F2CFEBF5F29E2F
:101F8000AA6A070EA96EA69CA69EA680A850050167
:101F9000EBBFF28E0401FA6F0A0E0501FF6F00011C
:101FA000A6EC0AF0F2CFEBF5F29EAA6A080EA96E33
:101FB000A69CA69EA680A8500501EBBFF28E040148
:101FC000FB6F0A0E0501FF6F0001A6EC0AF0F2CFCD
:101FD000EBF5F29EAA6A090EA96EA69CA69EA680A3
:101FE000A8500501EBBFF28E0401FC6F0A0E05013B
:101FF000FF6F0001A6EC0AF0F2CFEBF5F29EAA6AA1
:102000000A0EA96EA69CA69EA680A8500501EBBF4D
:10201000F28E0401FD6F0A0E0501FF6F0001A6ECB0
:102020000AF0F2CFEBF5F29EAA6A0B0EA96EA69CFF
:10203000A69EA680A8500501EBBFF28E0401FE6F9C
:102040000A0E0501FF6F0001A6EC0AF0F2CFEBF5D6
:10205000F29EAA6A0C0EA96EA69CA69EA680A85007
:102060000501EBBFF28E0401FF6F0A0E0501FF6F41
:102070000001A6EC0AF0F2CFEBF5F29EAA6A0D0E73
:10208000A96EA69CA69EA680A8500501EBBFF28E65
:10209000006F0A0EFF6F0001A6EC0AF0F2CFEBF51D
:1020A000F29EAA6A0E0EA96EA69CA69EA680A850B5
:1020B0000501EBBFF28E016F0A0EFF6F0001A6EC67
:1020C0000AF0F2CFEBF5F29EAA6A0F0EA96EA69C5B
:1020D000A69EA680A8500501EBBFF28E026F0A0EE5
:1020E000FF6F0001A6EC0AF0F2CFEBF5F29EAA6AB0
:1020F000100EA96EA69CA69EA680A8500501EBBF57
:10210000F28E0B6F0A0EFF6F0001A6EC0AF0F2CF01
:10211000EBF5F29EAA6A110EA96EA69CA69EA68059
:10212000A8500501EBBFF28E0C6F0A0EFF6F000185
:10213000A6EC0AF0F2CFEBF5F29EAA6A120EA96E97
:10214000A69CA69EA680A8500501EBBFF28E0D6F3F
:102150000A0EFF6F0001A6EC0AF0F2CFEBF5F29E3B
:10216000AA6A130EA96EA69CA69EA680A850050179
:10217000EBBFF28E0E6F0A0EFF6F0001A6EC0AF0A5
:10218000F2CFEBF5F29EAA6A150EA96EA69CA69E4A
:10219000A680A8500501EBBFF28E036F0A0EFF6FF9
:1021A0000001A6EC0AF0F2CFEBF5F29EAA6A160E39
:1021B000A96EA69CA69EA680A8500501EBBFF28E34
:1021C000046F0A0EFF6F0001A6EC0AF0F2CFEBF5E8
:1021D000F29EAA6A170EA96EA69CA69EA680A8507B
:1021E0000501EBBFF28E056F0A0EFF6F0001A6EC32
:1021F0000AF0F2CFEBF5F29EAA6A180EA96EA69C21
:10220000A69EA680A8500501EBBFF28E066F0A0EAF
:10221000FF6F0001A6EC0AF0F2CFEBF5F29EAA6A7E
:10222000190EA96EA69CA69EA680A8500501EBBF1C
:10223000F28E0401D86F0A0E0501FF6F0001A6ECB3
:102240000AF0F2CFEBF5F29EAA6A1A0EA96EA69CCE
:10225000A69EA680A8500501EBBFF28E0601216B59
:10226000206F00012DEC0DF003C04AF502C049F5C6
:1022700001C048F500C047F50A0E0501FF6F0001D7
:10228000A6EC0AF04AC51FF649C51EF648C51DF65C
:1022900047C51CF60601236B226B200E216F820EB0
:1022A000206F000148EC0DF003C04AF502C049F56B
:1022B00001C048F500C047F50601216BD8C420F6DF
:1022C00000012DEC0DF0D89203C023F602C022F6D7
:1022D00001C021F600C020F64AC527F649C526F6FA
:1022E00048C525F647C524F682DC03C042F502C086
:1022F00041F501C040F500C03FF5F2CFEBF5F29E8D
:10230000AA6A1B0EA96EA69CA69EA680A8500501CF
:10231000EBBFF28E0401D86F0A0E0501FF6F0001BA
:10232000A6EC0AF0F2CFEBF5F29EAA6A1C0EA96E9B
:10233000A69CA69EA680A8500501EBBFF28E0601C2
:10234000216B206F00012DEC0DF003C04AF502C097
:1023500049F501C048F500C047F50A0E0501FF6FB9
:102360000001A6EC0AF04AC51FF649C51EF648C58D
:102370001DF647C51CF60601236B226B200E216F4C
:10238000820E206F000148EC0DF003C04AF502C038
:1023900049F501C048F500C047F50601216BD8C4D6
:1023A00020F600012DEC0DF0D89203C023F602C0F8
:1023B00022F601C021F600C020F64AC527F649C51D
:1023C00026F648C525F647C524F611DC03C046F5B8
:1023D00002C045F501C044F500C043F5F2CFEBF56E
:1023E000F29EAA6A1E0EA96EA69CA69EA680A85062
:1023F0000501EBBFF28EEC6FF2CFEDF5F29EAA6A0B
:102400001D0EA96EA69CA69EA680A850EDBFF28EBA
:10241000EE6FECC503F0EE510601206F03C021F60C
:1024200000012DEC0DF003C0CAF502C0C9F501C0D2
:10243000C8F500C0C7F50A0E0501FF6F0001A6EC44
:102440000AF0F2CFEBF5F29EAA6A220EA96EA69CC4
:10245000A69EA680A8500501EBBFF28EEC6FF2CFCE
:10246000EDF5F29EAA6A210EA96EA69CA69EA680F4
:10247000A850EDBFF28EEE6FECC5E8F4EEC5E7F4C0
:102480000A0EFF6F0001A6EC0AF0F2CFEBF5F29E08
:10249000AA6A1F0EA96EA69CA69EA680A85005013A
:1024A000EBBFF28E0401E66BE56F0A0E0501FF6FCC
:1024B0000001A6EC0AF0F2CFEBF5F29EAA6A200E1C
:1024C000A96EA69CA69EA680A8500501EBBFF28E21
:1024D000E26F0A0EFF6F0001A6EC0AF0F2CFEBF5F7
:1024E000F29EAA6A3D0EA96EA69CA69EA680A85042
:1024F0000501EBBFF28EEC6FF2CFEDF5F29EAA6A0A
:102500003C0EA96EA69CA69EA680A850EDBFF28E9A
:10251000EE6FECC503F0EE510601206F03C021F60B
:1025200000012DEC0DF003C026F502C025F501C019
:1025300024F500C023F50A0E0501FF6F0001A6EC8B
:102540000AF0F2CFEBF5F29EAA6A3F0EA96EA69CA6
:10255000A69EA680A8500501EBBFF28EEC6FF2CFCD
:10256000EDF5F29EAA6A3E0EA96EA69CA69EA680D6
:10257000A850EDBFF28EEE6FECC503F0EE510601F0
:10258000206F03C021F600012DEC0DF003C0D6F53D
:1025900002C0D5F501C0D4F500C0D3F50A0E05017F
:1025A000FF6F0001A6EC0AF0F2CFEBF5F29EAA6AEB
:1025B000320EA96EA69CA69EA680A8500501EBBF70
:1025C000F28E0401D06F0A0E0501FF6F0001A6EC28
:1025D0000AF075EF33F01DC624F606012151241BC5
:1025E00024AF05D0D894D8901DBFD8802FD01DC659
:1025F00024F620C625F61C51255F06E024AF26D020
:10260000D850010AD86E22D021C625F61D51255F6B
:1026100006E024AF1BD0D850010AD86E17D022C6CE
:1026200025F61E51255F06E024AF10D0D850010AD0
:10263000D86E0CD023C625F61F51255F06E024AFC7
:1026400005D0D850010AD86E01D0D8900001000CF6
:10265000050113BF03D01351090803E313BF01D0D1
:1026600016D0136BAA6AA96AA86AA69CA69EA6841D
:10267000F250006EF29E0F01550EA76EAA0EA76EC5
:10268000A682A6B2FED7A6940050F212050114BF8E
:1026900003D01451090803E314BF01D017D0146B01
:1026A000AA6A010EA96EA86AA69CA69EA684F250EC
:1026B000006EF29E0F01550EA76EAA0EA76EA6829F
:1026C000A6B2FED7A6940050F212050115BF03D0A2
:1026D0001551090803E315BF01D017D0156BAA6A7D
:1026E000020EA96EA86AA69CA69EA684F250006E51
:1026F000F29E0F01550EA76EAA0EA76EA682A6B275
:10270000FED7A6940050F212050116BF03D0165151
:10271000090803E316BF01D016D0166BAA6A030E90
:10272000A96EA86AA69CA69EA684F250006EF29E90
:102730000F01550EA76EAA0EA76EA682A6B2FED7EF
:10274000A6940050F2120401F7BF03D0F751090814
:1027500003E3F7BF01D017D0F76BAA6A040EA96E86
:10276000A86AA69CA69EA684F250006EF29E0F0157
:10277000550EA76EAA0EA76EA682A6B2FED7A69485
:102780000050F2120401F8BF03D0F851090803E326
:10279000F8BF01D017D0F86BAA6A050EA96EA86A17
:1027A000A69CA69EA684F250006EF29E0F01550EC6
:1027B000A76EAA0EA76EA682A6B2FED7A694005058
:1027C000F2120401F9BF03D0F951090803E3F9BF7C
:1027D00001D019D0020EF96FAA6A060EA96E020E78
:1027E000A86EA69CA69EA684F250006EF29E0F01D3
:1027F000550EA76EAA0EA76EA682A6B2FED7A69405
:102800000050F2120401FABF03D0FA51090803E3A1
:10281000FABF01D017D0FA6BAA6A070EA96EA86A90
:10282000A69CA69EA684F250006EF29E0F01550E45
:10283000A76EAA0EA76EA682A6B2FED7A6940050D7
:10284000F2120401FBBF03D0FB51090803E3FBBFF5
:1028500001D017D0FB6BAA6A080EA96EA86AA69CC5
:10286000A69EA684F250006EF29E0F01550EA76E32
:10287000AA0EA76EA682A6B2FED7A6940050F212A8
:102880000401FCBF03D0FC51090803E3FCBF01D0E5
:1028900017D0FC6BAA6A090EA96EA86AA69CA69E10
:1028A000A684F250006EF29E0F01550EA76EAA0E7E
:1028B000A76EA682A6B2FED7A6940050F21204011B
:1028C000FDBF03D0FD51090803E3FDBF01D019D0BE
:1028D000020EFD6FAA6A0A0EA96E020EA86EA69CD1
:1028E000A69EA684F250006EF29E0F01550EA76EB2
:1028F000AA0EA76EA682A6B2FED7A6940050F21228
:102900000401FEBF03D0FE51090803E3FEBF01D05E
:1029100017D0FE6BAA6A0B0EA96EA86AA69CA69E8B
:10292000A684F250006EF29E0F01550EA76EAA0EFD
:10293000A76EA682A6B2FED7A6940050F21204019A
:10294000FFBF03D0FF51090803E3FFBF01D016D03A
:10295000FF6BAA6A0C0EA96EA86AA69CA69EA68406
:10296000F250006EF29E0F01550EA76EAA0EA76ED2
:10297000A682A6B2FED7A6940050F212050100BFAF
:1029800003D00051090803E300BF01D017D0006B4A
:10299000AA6A0D0EA96EA86AA69CA69EA684F250ED
:1029A000006EF29E0F01550EA76EAA0EA76EA682AC
:1029B000A6B2FED7A6940050F212050101BF03D0C3
:1029C0000151090803E301BF01D017D0016BAA6AC6
:1029D0000E0EA96EA86AA69CA69EA684F250006E52
:1029E000F29E0F01550EA76EAA0EA76EA682A6B282
:1029F000FED7A6940050F212050102BF03D0025187
:102A0000090803E302BF01D017D0026BAA6A0F0EB8
:102A1000A96EA86AA69CA69EA684F250006EF29E9D
:102A20000F01550EA76EAA0EA76EA682A6B2FED7FC
:102A3000A6940050F21205010BBF03D00B510908F8
:102A400003E30BBF01D017D00B6BAA6A100EA96E5F
:102A5000A86AA69CA69EA684F250006EF29E0F0164
:102A6000550EA76EAA0EA76EA682A6B2FED7A69492
:102A70000050F21205010CBF03D00C51090803E30A
:102A80000CBF01D017D00C6BAA6A110EA96EA86AF0
:102A9000A69CA69EA684F250006EF29E0F01550ED3
:102AA000A76EAA0EA76EA682A6B2FED7A694005065
:102AB000F21205010DBF03D00D51090803E30DBF4C
:102AC00001D017D00D6BAA6A120EA96EA86AA69C37
:102AD000A69EA684F250006EF29E0F01550EA76EC0
:102AE000AA0EA76EA682A6B2FED7A6940050F21236
:102AF00005010EBF03D00E51090803E30EBF01D03C
:102B000017D00E6BAA6A130EA96EA86AA69CA69E81
:102B1000A684F250006EF29E0F01550EA76EAA0E0B
:102B2000A76EA682A6B2FED7A6940050F2120501A7
:102B300003BF03D00351090803E303BF01D017D03B
:102B4000036BAA6A150EA96EA86AA69CA69EA68407
:102B5000F250006EF29E0F01550EA76EAA0EA76EE0
:102B6000A682A6B2FED7A6940050F212050104BFB9
:102B700003D00451090803E304BF01D017D0046B4C
:102B8000AA6A160EA96EA86AA69CA69EA684F250F2
:102B9000006EF29E0F01550EA76EAA0EA76EA682BA
:102BA000A6B2FED7A6940050F212050105BF03D0CD
:102BB0000551090803E305BF01D017D0056BAA6AC8
:102BC000170EA96EA86AA69CA69EA684F250006E57
:102BD000F29E0F01550EA76EAA0EA76EA682A6B290
:102BE000FED7A6940050F212050106BF03D006518D
:102BF000090803E306BF01D018D0010E066FAA6AC8
:102C0000180EA96E010EA86EA69CA69EA684F25070
:102C1000006EF29E0F01550EA76EAA0EA76EA68239
:102C2000A6B2FED7A6940050F21206011F6B1E6BCF
:102C30001D6B800E1C6F42C523F641C522F640C5B0
:102C400021F63FC520F60001C6DC32E30501426BE8
:102C5000416B400E406F7F0E3F6FAA6A190EA96E3E
:102C6000010EA86EA69CA69EA684F250006EF29E4F
:102C70000F01550EA76EAA0EA76EA682A6B2FED7AA
:102C8000A6940050F212AA6A1A0EA96E050EA86E3A
:102C9000A69CA69EA684F250006EF29E550EA76ECC
:102CA000AA0EA76EA682A6B2FED7A6940050F21274
:102CB00006011F6B1E6B1D6B800E1C6F46C523F635
:102CC00045C522F644C521F643C520F6000183DC44
:102CD00030E30501466B456B446B7F0E436FAA6A78
:102CE0001B0EA96E010EA86EA69CA69EA684F2508D
:102CF000006EF29E0F01550EA76EAA0EA76EA68259
:102D0000A6B2FED7A6940050F212AA6A1C0EA96EB3
:102D1000A86AA69CA69EA684F250006EF29E550E4E
:102D2000A76EAA0EA76EA682A6B2FED7A6940050E2
:102D3000F21206011F6B1E6B160E1D6F870E1C6FA5
:102D4000CAC523F6C9C522F6C8C521F6C7C520F6EF
:102D5000000141DC31E30501CA6BC96B4B0EC86F42
:102D6000860EC76FAA6A1D0EA96ECB0EA86EA69C12
:102D7000A69EA684F250006EF29E0F01550EA76E1D
:102D8000AA0EA76EA682A6B2FED7A6940050F21293
:102D9000AA6A1E0EA96EA86AA69CA69EA684F250D8
:102DA000006EF29E550EA76EAA0EA76EA682A6B260
:102DB000FED7A6940050F2120401E65303E1E55158
:102DC0003C0817E2E66BE56BAA6A1F0EA96EA86ABB
:102DD000A69CA69EA684F250006EF29E0F01550E90
:102DE000A76EAA0EA76EA682A6B2FED7A694005022
:102DF000F2120501E251060818E2020EE26FAA6A19
:102E0000200EA96E020EA86EA69CA69EA684F25065
:102E1000006EF29E0F01550EA76EAA0EA76EA68237
:102E2000A6B2FED7A6940050F2120401E8510D0894
:102E300030E2FF0A03E1E75110082BE2E86BE76B91
:102E4000AA6A210EA96EA86AA69CA69EA684F25024
:102E5000006EF29E0F01550EA76EAA0EA76EA682F7
:102E6000A6B2FED7A6940050F212AA6A220EA96E4C
:102E7000A86AA69CA69EA684F250006EF29E550EED
:102E8000A76EAA0EA76EA682A6B2FED7A694005081
:102E9000F21206011F6B1E6B480E1D6F860E1C6F13
:102EA00026C523F625C522F624C521F623C520F61E
:102EB0000001EBEC12F02EE30501266B256B246B71
:102EC000236BAA6A3C0EA96EA86AA69CA69EA6843D
:102ED000F250006EF29E0F01550EA76EAA0EA76E5D
:102EE000A682A6B2FED7A6940050F212AA6A3D0EA0
:102EF000A96EA86AA69CA69EA684F250006EF29EB9
:102F0000550EA76EAA0EA76EA682A6B2FED7A694ED
:102F10000050F212D6C51FF6D5C51EF6D4C51DF653
:102F2000D3C51CF60601236B226B340E216F860E6F
:102F3000206F0001EBEC12F013E206011F6B1E6B19
:102F40002F0E1D6F870E1C6FD6C523F6D5C522F632
:102F5000D4C521F6D3C520F60001EBEC12F031E325
:102F60000501D66BD56B700ED46F860ED36FAA6A2F
:102F70003E0EA96EF00EA86EA69CA69EA684F250E8
:102F8000006EF29E0F01550EA76EAA0EA76EA682C6
:102F9000A6B2FED7A6940050F212AA6A3F0EA96EFE
:102FA000A86AA69CA69EA684F250006EF29E550EBC
:102FB000A76EAA0EA76EA682A6B2FED7A694005050
:102FC000F2120401D051140819E20A0ED06FAA6A55
:102FD000320EA96E0A0EA86EA69CA69EA684F2507A
:102FE000006EF29E0F01550EA76EAA0EA76EA68266
:102FF000A6B2FED7A6940050F2120401000177EFAA
:1030000033F00501FC35006E0036FC0E001600C0E2
:1030100001F0C250C30B0010C26E010EFF6F000121
:10302000A6EC0AF0C282C2B2FED7C4CFFEF50501FB
:10303000C3CFFDF5FDC501F0FEC502F00001000C97
:103040008E0E006E06011C51005E1DC602F01EC6EB
:1030500001F0028E005209E0D890025202E10152C2
:1030600004E002320132002EF7D71DAF05D0011E59
:10307000021E012AD8B4022A0001000C06011C51CC
:10308000D8B471D0006E2051D8B46DD0002604E3BE
:10309000810E002668E204D07F0E005E64E363E0E8
:1030A0001DC624F62151241B1D8F218F1F51230380
:1030B000F4CF26F61E512203F4CF03F0F3CF25F60A
:1030C0002303F3502627F4502523000E03221F511B
:1030D0002203F3502627F4502523000E026A032210
:1030E00002221D512303F3502527F4500322000E22
:1030F00002221D512203F3500326F4500222000E37
:10310000016A01221F512103F3502527F4500322A5
:10311000000E022201221E512103F3500326F45017
:103120000222000E01221D512103F3500226F45009
:103130000122002A01BE05D02537033602360136AA
:103140000006000E25AF0AD0032A022201220150F8
:1031500005E1025003E1035001E1002A24BF018E82
:1031600024AF019E04D0006A016A026A036A00016A
:10317000000C06011B910FC614F60EC613F60DC601
:1031800012F60CC611F60FC61FF60EC61EF60DC6B9
:103190001DF60CC61CF6236B226B216B206B000105
:1031A000EBEC12F005E306011B811251800A126F4D
:1031B00014C61FF613C61EF612C61DF611C61CF65F
:1031C0000601236B226B216B8E0E206F0001EBEC4E
:1031D00012F001E218E114C61FF613C61EF612C65D
:1031E0001DF611C61CF62CDF02C021F601C020F628
:1031F0002DEC0DF003C018F602C017F601C016F64C
:1032000000C015F6CFD014C61FF613C61EF612C6A0
:103210001DF611C61CF6800E0601236F960E226F56
:10322000180E216F960E206F0001EBEC12F0D8A063
:10323000B1D014C61FF613C61EF612C61DF611C66F
:103240001CF60601236B226B216B8E0E206F000192
:1032500048EC0DF003C01FF602C01EF601C01DF6BB
:1032600000C01CF6EDDE02C01AF601C019F614C645
:103270001FF613C61EF612C61DF611C61CF6060171
:10328000236B226B216B8E0E206F000148EC0DF03A
:1032900000C01CF601C01DF602C01EF603C01FF6DA
:1032A0001AC621F619C620F62DEC0DF0D8821FC6DD
:1032B00023F61EC622F61DC621F61CC620F603C044
:1032C00027F602C026F601C025F600C024F6F7EC6A
:1032D0000DF006011F6B1E6B1D6B8E0E1C6F03C065
:1032E00023F602C022F601C021F600C020F600013C
:1032F000C5DE03C014F602C013F601C012F600C00A
:1033000011F61AC621F619C620F62DEC0DF00601AD
:103310001F6B1E6B1D6B8E0E1C6F03C023F602C04D
:1033200022F601C021F600C020F60001A7DE03C08E
:1033300018F602C017F601C016F600C015F614C63E
:103340001FF613C61EF612C61DF611C61CF678DE51
:1033500002C021F601C020F62DEC0DF0D89218C65F
:1033600023F617C622F616C621F615C620F603C0A8
:1033700027F602C026F601C025F600C024F6F7ECB9
:103380000DF003C018F602C017F601C016F600C013
:1033900015F608D014C618F613C617F612C616F698
:1033A00011C615F614C61FF613C61EF612C61DF674
:1033B00011C61CF645DE02C021F601C020F62DEC38
:1033C0000DF0D88214C623F613C622F612C621F6D3
:1033D00011C620F603C027F602C026F601C025F666
:1033E00000C024F6F7EC0DF003C014F602C013F68B
:1033F00001C012F600C011F606011BA103D0165140
:10340000800A166F14C61FF613C61EF612C61DF6E6
:1034100011C61CF6236B226B216B206B0001EBECB9
:1034200012F03CE006011BA11CD010531AE1D88217
:1034300018C623F617C622F616C621F615C620F6BC
:10344000276B266B256B7F0E246F0001F7EC0DF0C8
:1034500003C018F602C017F601C016F600C015F634
:1034600006011BB11CD0102D1AD0D89218C623F615
:1034700017C622F616C621F615C620F6276B266B50
:10348000256B7F0E246F0001F7EC0DF003C018F6DA
:1034900002C017F601C016F600C015F606010FC6E9
:1034A0001FF60EC61EF60DC61DF60CC61CF6236BC7
:1034B000226B216B206B0001EBEC12F006E10601A0
:1034C000186B176B166B156B000115C600F016C64E
:1034D00001F017C602F018C603F0000C0BC60FF679
:1034E0000AC60EF609C60DF608C60CF6010E060150
:1034F000106F00013EDEEBEF1AF00BC60FF60AC6A6
:103500000EF609C60DF608C60CF60601106B000192
:1035100030DE0FEF1BF0FFC51FF6FEC51EF6FDC522
:103520001DF6FCC51CF60601236B226B216B206B7C
:103530000001EBEC12F0D8B4A0D0FBC51FF6FAC521
:103540001EF6F9C51DF6F8C51CF6FFC523F6FEC527
:1035500022F6FDC521F6FCC520F648EC0DF000C0B2
:1035600004F601C005F602C006F603C007F603C064
:103570001FF602C01EF601C01DF600C01CF60601B3
:10358000236B226B216B206B0001EBEC12F024E328
:10359000FBC51FF6FAC51EF6F9C51DF6F8C51CF6E3
:1035A000FFC523F6FEC522F6FDC521F6FCC520F6B3
:1035B00048EC0DF000C004F601C005F602C006F6A6
:1035C00003C007F603C00BF602C00AF601C009F6F5
:1035D00000C008F683D723D0FBC51FF6FAC51EF638
:1035E000F9C51DF6F8C51CF6FFC523F6FEC522F683
:1035F000FDC521F6FCC520F648EC0DF000C004F630
:1036000001C005F602C006F603C007F603C00BF6BC
:1036100002C00AF601C009F600C008F66ED703C062
:1036200003F602C002F601C001F600C000F603C6B0
:103630001FF602C61EF601C61DF600C61CF6FFC523
:1036400023F6FEC522F6FDC521F6FCC520F616DDE3
:10365000D882FBC523F6FAC522F6F9C521F6F8C5CE
:1036600020F603C027F602C026F601C025F600C0EA
:1036700024F6F7EC0DF001D000D0000C8E0E006E99
:1036800013C601F012C602F0036A01AE05D0011E96
:10369000021E022A01E1012A015209E102C001F0E1
:1036A000026A080E005E015202E1006A0DD0D89055
:1036B00001BE04D0023601360006F9D7060113AF69
:1036C00002D0000101D0019E0001000CFFC503F6ED
:1036D000FEC502F6FDC501F6FCC500F603C61FF6E1
:1036E00002C61EF601C61DF600C61CF60601236BB7
:1036F000226B216B7F0E206F0001EBEC12F0D8B42F
:1037000042D2060E0601116B11C6E9FFEA6E7E0E6B
:10371000EF6ED88203C623F602C622F601C621F652
:1037200000C620F6276B266B256B7F0E246F0001E9
:10373000F7EC0DF000C011F601C012F602C013F64E
:1037400003C014F6D89203C623F602C622F601C6B9
:1037500021F600C620F60601276B266B256B7F0E2F
:10376000246F0001F7EC0DF014C61FF613C61EF609
:1037700012C61DF611C61CF603C023F602C022F6BF
:1037800001C021F600C020F648EC0DF003C003F69E
:1037900002C002F601C001F600C000F603C61FF623
:1037A00002C61EF601C61DF600C61CF603C623F6A9
:1037B00002C622F601C621F600C620F65FDC03C071
:1037C0000FF602C00EF601C00DF600C00CF6BC0EDE
:1037D00006011F6F240E1E6F670E1D6F7D0E1C6F7E
:1037E0000FC623F60EC622F60DC621F60CC620F62D
:1037F000000144DC00C011F601C012F602C013F64D
:1038000003C014F6D89203C023F602C022F601C00A
:1038100021F600C020F6E30E0601276FE40E266FA6
:10382000900E256F820E246F0001F7EC0DF003C09F
:1038300007F602C006F601C005F600C004F607C68A
:103840001FF606C61EF605C61DF604C61CF60FC6F4
:1038500023F60EC622F60DC621F60CC620F60EDCA7
:1038600000C011F601C012F602C013F603C014F630
:10387000D89203C023F602C022F601C021F600C090
:1038800020F61C0E0601276F870E266F570E256F38
:10389000830E246F0001F7EC0DF003C007F602C0A1
:1038A00006F601C005F600C004F607C61FF606C6F8
:1038B0001EF605C61DF604C61CF60FC623F60EC678
:1038C00022F60DC621F60CC620F63EEC18F000C01C
:1038D00011F601C012F602C013F603C014F6D89216
:1038E00003C023F602C022F601C021F600C020F674
:1038F000AB0E0601276FE10E266F9E0E256F830E1D
:10390000246F0001F7EC0DF003C007F602C006F6C5
:1039100001C005F600C004F606011F6B1E6B1D6B8F
:103920007F0E1C6F0FC623F60EC622F60DC621F6BB
:103930000CC620F600013EEC18F000C011F601C0E4
:1039400012F602C013F603C014F6D89203C023F691
:1039500002C022F601C021F600C020F6B40E060116
:10396000276F2A0E266F820E256F246F0001F7EC59
:103970000DF003C00BF602C00AF601C009F600C044
:1039800008F60BC61FF60AC61EF609C61DF608C6BF
:103990001CF60FC623F60EC622F60DC621F60CC67F
:1039A00020F63EEC18F000C011F601C012F602C07D
:1039B00013F603C014F6D89203C023F602C022F611
:1039C00001C021F600C020F6800E0601276F3E0ED2
:1039D000266F060E256F830E246F0001F7EC0DF0A5
:1039E00003C00BF602C00AF601C009F600C008F6D3
:1039F0000BC61FF60AC61EF609C61DF608C61CF63B
:103A00000FC623F60EC622F60DC621F60CC620F60A
:103A10003EEC18F000C011F601C012F602C013F619
:103A200003C014F6D89203C023F602C022F601C0E8
:103A300021F600C020F6AB0E0601276FE10E266FBF
:103A40009E0E256F820E246F0001F7EC0DF003C06F
:103A50000BF602C00AF601C009F600C008F603C65C
:103A60001FF602C61EF601C61DF600C61CF607C6E6
:103A700023F606C622F605C621F604C620F63EEC5D
:103A800018F000C011F601C012F602C013F603C010
:103A900014F603C01FF602C01EF601C01DF600C0DA
:103AA0001CF60BC623F60AC622F609C621F608C67E
:103AB00020F648EC0DF003C007F602C006F601C080
:103AC00005F600C004F6050E0601126FFC0EE96E45
:103AD00012C6EAFF7E0EEF5C106F10BF01D014D04B
:103AE000000ED8801055136B126F12BF1307000120
:103AF000C5DD00C008F60150800A0601096F02C04A
:103B00000AF603C00BF610D0136B10C612F612BFE4
:103B100013070001B3DD03C00BF602C00AF601C0B3
:103B200009F600C008F606010BC61FF60AC61EF607
:103B300009C61DF608C61CF6180E236F720E226FFA
:103B4000310E216F7E0E206F00013EEC18F0D892EE
:103B500007C623F606C622F605C621F604C620F6D9
:103B600003C027F602C026F601C025F600C024F6E1
:103B7000F7EC0DF003C007F602C006F601C005F62B
:103B800000C004F606D00601076B066B056B046BDC
:103B9000000104C600F005C601F006C602F007C623
:103BA00003F0000CFFC51FF6FEC51EF6FDC51DF691
:103BB000FCC51CF6180E0601236F720E226F310E23
:103BC000216F7E0E206F000148EC0DF003C01FF640
:103BD00002C01EF601C01DF600C01CF620EC18F055
:103BE00001C00CF606010D91FFC503F6FEC502F6F5
:103BF000FDC501F6FCC500F6FFC51FF6FEC51EF6A5
:103C0000FDC51DF6FCC51CF6236B226B216B206BDA
:103C10000001EBEC12F006E306010D810C6D015181
:103C2000800A016F0601076B066B056B046B060EBD
:103C30000F6F040EE96E0FC6EAFF7F0E0C25EF6EC4
:103C400003C61FF602C61EF601C61DF600C61CF608
:103C5000180E236F720E226F310E216F7E0E206FB1
:103C6000000148EC0DF000C00EF601C00FF602C0D6
:103C700010F603C011F60601136B0CC612F612BF44
:103C800013070001FBDCD88211C623F610C622F60A
:103C90000FC621F60EC620F603C027F602C026F690
:103CA00001C025F600C024F6F7EC0DF003C003F6C2
:103CB00002C002F601C001F600C000F67C0E06014B
:103CC0001F6F880E1E6F590E1D6F720E1C6F03C67C
:103CD00023F602C622F601C621F600C620F6000130
:103CE0003EEC18F000C00EF601C00FF602C010F650
:103CF00003C011F6D89203C023F602C022F601C019
:103D000021F600C020F6E00E0601276F970E266F01
:103D1000260E256F750E246F0001F7EC0DF003C021
:103D20000BF602C00AF601C009F600C008F60BC681
:103D30001FF60AC61EF609C61DF608C61CF603C6FF
:103D400023F602C622F601C621F600C620F63EEC96
:103D500018F000C00EF601C00FF602C010F603C046
:103D600011F6D89203C023F602C022F601C021F654
:103D700000C020F6C40E0601276F1D0E266F1E0E12
:103D8000256F780E246F0001F7EC0DF003C00BF6E1
:103D900002C00AF601C009F600C008F60BC61FF6FD
:103DA0000AC61EF609C61DF608C61CF603C623F68B
:103DB00002C622F601C621F600C620F63EEC18F037
:103DC00000C00EF601C00FF602C010F603C011F6D7
:103DD000D89203C023F602C022F601C021F600C02B
:103DE00020F65E0E0601276F500E266F630E256FBC
:103DF0007A0E246F0001F7EC0DF003C00BF602C041
:103E00000AF601C009F600C008F60BC61FF60AC67E
:103E10001EF609C61DF608C61CF603C623F602C622
:103E200022F601C621F600C620F63EEC18F000C0CE
:103E30000EF601C00FF602C010F603C011F6D892BC
:103E400003C023F602C022F601C021F600C020F60E
:103E50001A0E0601276FFE0E266F750E256F7C0E5B
:103E6000246F0001F7EC0DF003C00BF602C00AF658
:103E700001C009F600C008F60BC61FF60AC61EF6FA
:103E800009C61DF608C61CF603C623F602C622F6AE
:103E900001C621F600C620F63EEC18F000C00EF672
:103EA00001C00FF602C010F603C011F6D89203C08D
:103EB00023F602C022F601C021F600C020F6180E3B
:103EC0000601276F720E266F310E256F7E0E246F4E
:103ED0000001F7EC0DF003C00BF602C00AF601C0BA
:103EE00009F600C008F603C61FF602C61EF601C694
:103EF0001DF600C61CF60BC623F60AC622F609C636
:103F000021F608C620F63EEC18F0D8920601236B85
:103F1000226B216B7F0E206F03C027F602C026F6AE
:103F200001C025F600C024F60001F7EC0DF007C62D
:103F30001FF606C61EF605C61DF604C61CF603C00F
:103F400023F602C022F601C021F600C020F63EECA6
:103F500018F003C007F602C006F601C005F600C05F
:103F600004F606010DA119D01F6B1E6B1D6B7F0E91
:103F70001C6F07C623F606C622F605C621F604C640
:103F800020F6000148EC0DF003C007F602C006F66B
:103F900001C005F600C004F6060104C600F005C61F
:103FA00001F006C602F007C603F00001000CF3C5DD
:103FB0001FF6F2C51EF6F1C51DF6F0C51CF606018A
:103FC000236B226B216B206B0001EBEC12F0D8A06D
:103FD000D9D0F7C5FBF5F6C5FAF5F5C5F9F5F4C581
:103FE000F8F50501FF6BFE6BFD6B7F0EFC6F0001AA
:103FF0008BEC1AF000C0F8F501C0F9F502C0FAF533
:1040000003C0FBF503C01FF602C01EF601C01DF67B
:1040100000C01CF60601236B226B216B206B000194
:10402000EBEC12F0D8A4AED0F7C5FBF5F6C5FAF567
:10403000F5C5F9F5F4C5F8F50501FF6BFE6BFD6BF1
:10404000800EFC6F00018BEC1AF000C0F8F501C087
:10405000F9F502C0FAF503C0FBF503C01FF602C074
:104060001EF601C01DF600C01CF60601236B226B74
:10407000216B206B0001EBEC12F041E1F0C5F8F58B
:104080000501F151800AF96FF2C5FAF5F3C5FBF5A8
:10409000F3C5FFF5F2C5FEF5FD6FF0C5FCF50001B7
:1040A00066EC1BF000C0F8F501C0F9F502C0FAF5A6
:1040B00003C0FBF503C01FF602C01EF601C01DF6CB
:1040C00000C01CF6F7C523F6F6C522F6F5C521F6A5
:1040D000F4C520F63EEC18F000C0F8F501C0F9F583
:1040E00002C0FAF503C0FBF503C0FFF502C0FEF500
:1040F00001C0FDF500C0FCF555DDDED042D0F0C5B5
:10410000F8F50501F151800AF96FF2C5FAF5F3C52A
:10411000FBF5F3C5FFF5F2C5FEF5FD6FF0C5FCF547
:10412000000166EC1BF000C0F8F501C0F9F502C013
:10413000FAF503C0FBF503C01FF602C01EF601C06E
:104140001DF600C01CF6F7C523F6F6C522F6F5C528
:1041500021F6F4C520F63EEC18F000C0F8F501C0D9
:10416000F9F502C0FAF503C0FBF503C0FFF502C084
:10417000FEF501C0FDF500C0FCF514DD800E011A4E
:104180009BD09AD0F3C51FF6F2C51EF6F1C51DF6F9
:10419000F0C51CF60601236B226B216B206B00011E
:1041A000EBEC12F030E3F7C5FBF5F6C5FAF5F5C513
:1041B000F9F5F4C5F8F50501FF6BFE6BFD6B7F0E9D
:1041C000FC6F00018BEC1AF000C0F8F501C0F9F5A6
:1041D00002C0FAF503C0FBF503C01FF602C01EF6CD
:1041E00001C01DF600C01CF60601236B226B216B7B
:1041F000206B0001EBEC12F006E0006A016A026A33
:10420000036A5AD059D0F3C51FF6F2C51EF6F1C5A0
:104210001DF6F0C51CF60601236B226B216B206B8B
:104220000001EBEC12F012E1F7C51FF6F6C51EF621
:10423000F5C51DF6F4C51CF60601236B226B216B38
:10424000206B0001EBEC12F001E236E1F3C5FFF563
:10425000F2C5FEF5F1C5FDF5F0C5FCF566EC1BF009
:1042600000C0F8F501C0F9F502C0FAF503C0FBF58E
:1042700003C01FF602C01EF601C01DF600C01CF6EA
:10428000F7C523F6F6C522F6F5C521F6F4C520F6E6
:104290003EEC18F000C0F8F501C0F9F502C0FAF5DF
:1042A00003C0FBF503C0FFF502C0FEF501C0FDF53C
:1042B00000C0FCF577DC00D0000C010E0501FC6F9E
:1042C000000101EC18F002C0DCF401C0DBF40401D1
:1042D000D0510A0823E1DCC421F6DBC420F600013A
:1042E0002DEC0DF0D89203C023F602C022F601C0D7
:1042F00021F600C020F626C527F625C526F624C5DA
:1043000025F623C524F6F7EC0DF003C036F502C000
:1043100035F501C034F500C033F50401D05114085F
:1043200022E1DCC421F6DBC420F600012DEC0DF007
:10433000D88203C023F602C022F601C021F600C0D5
:1043400020F626C527F625C526F624C525F623C55D
:1043500024F6F7EC0DF003C036F502C035F501C0C8
:1043600034F500C033F536C5F3F535C5F2F534C57F
:10437000F1F533C5F0F50501F76BF66B400EF56FFF
:10438000800EF46F000113DE00C0ECF501C0EDF506
:1043900002C0EEF503C0EFF503C01FF602C01EF623
:1043A00001C01DF600C01CF652C523F651C522F609
:1043B00050C521F64FC520F63EEC18F000C0ECF5D4
:1043C00001C0EDF502C0EEF503C0EFF536C5F3F51B
:1043D00035C5F2F534C5F1F533C5F0F50501F76BD8
:1043E000F66BF56B800EF46F0001E1DD00C0F0F5B7
:1043F00001C0F1F502C0F2F503C0F3F503C01FF6EA
:1044000002C01EF601C01DF600C01CF656C523F6FC
:1044100055C522F654C521F653C520F63EEC18F0DA
:10442000EACFF1F5E9CFF0F5D892EFC523F6EEC566
:1044300022F6EDC521F6ECC520F603C027F602C032
:1044400026F601C025F600C024F6F7EC0DF0F1C504
:10445000EAFFF0C5E9FF00C0ECF501C0EDF502C0D0
:10446000EEF503C0EFF536C51FF635C51EF634C5AB
:104470001DF633C51CF65AC523F659C522F658C594
:1044800021F657C520F63EEC18F0EACFF3F5E9CF58
:10449000F2F5D892EFC523F6EEC522F6EDC521F66A
:1044A000ECC520F603C027F602C026F601C025F6AB
:1044B00000C024F6F7EC0DF0F3C5EAFFF2C5E9FF02
:1044C00000C0ECF501C0EDF502C0EEF503C0EFF55C
:1044D000EACFF5F5E9CFF4F5D89203C023F602C090
:1044E00022F601C021F600C020F65EC527F65DC5A4
:1044F00026F65CC525F65BC524F6F7EC0DF0F5C590
:10450000EAFFF4C5E9FF03C032F502C031F501C08E
:1045100030F500C02FF532C51FF631C51EF630C587
:104520001DF62FC51CF60601236B226B216B206B39
:104530000001EBEC12F005E30501326B316B306BDF
:104540002F6B0501EB510401D65D01E3D66BD6510B
:10455000040DF350036A5F0FE96E050E0320EA6E47
:104560002FC5EFFF30C5ECFF31C5ECFF32C5ECFFC6
:10457000D62B0501C26BC16BC06BBF6B0401D76B3F
:10458000010E0501EB5D0401D75D01E038E2D75172
:10459000040DF350036A5F0FE96E050E0320EA6E07
:1045A000EFCF00F0ECCF01F0ECCF02F0ECCF03F056
:1045B000EACFEDF5E9CFECF5D892C2C523F6C1C537
:1045C00022F6C0C521F6BFC520F603C027F602C0FB
:1045D00026F601C025F600C024F60001F7EC0DF028
:1045E000EDC5EAFFECC5E9FF03C0C2F502C0C1F5A5
:1045F00001C0C0F500C0BFF50401D72BC1D706012B
:10460000216BEBC520F600012DEC0DF0C2C51FF6A5
:10461000C1C51EF6C0C51DF6BFC51CF603C023F6F6
:1046200002C022F601C021F600C020F648EC0DF0D1
:1046300000C0ECF501C0EDF502C0EEF503C0EFF5EA
:1046400003C01FF602C01EF601C01DF600C01CF616
:1046500042C523F641C522F640C521F63FC520F6E6
:104660003EEC18F003C0C2F502C0C1F501C0C0F5B0
:1046700000C0BFF5BFC500F0C0C501F0C1C502F064
:10468000C2C503F083EF33F00501EF6BEE6BED6B0A
:10469000EC6BF36BF26BF16BF06BF76BF66BF56B2E
:1046A000F46BFB6BFA6BF96BF86BFC6B000101ECC4
:1046B00018F002C021F601C020F62DEC0DF003C069
:1046C000EFF502C0EEF501C0EDF500C0ECF5060116
:1046D0001F6B1E6B200E1D6F810E1C6FEFC523F626
:1046E000EEC522F6EDC521F6ECC520F600013EEC44
:1046F00018F000C0FCF501C0FDF502C0FEF503C0D6
:10470000FFF503C01FF602C01EF601C01DF600C073
:104710001CF60601236BC00E226F7F0E216F880EE0
:10472000206F000148EC0DF003C0F3F502C0F2F574
:1047300001C0F1F500C0F0F5F3C51FF6F2C51EF695
:10474000F1C51DF6F0C51CF60A0E0601236FD70E43
:10475000226F230E216F780E206F000148EC0DF0C0
:1047600003C0F7F502C0F6F501C0F5F500C0F4F599
:104770000501DC51EB5D01E2DC6BDC51040DF35013
:10478000036A7F0FE96E050E0320EA6EF4C5EFFFA2
:10479000F5C5ECFFF6C5ECFFF7C5ECFFDC2BFB6BBA
:1047A000FA6BF96BF86BDD6B010EEB5DDD5D01E023
:1047B00038E2DD51040DF350036A7F0FE96E050EF8
:1047C0000320EA6EEFCF00F0ECCF01F0ECCF02F067
:1047D000ECCF03F0EACFFDF5E9CFFCF5D892FBC5AD
:1047E00023F6FAC522F6F9C521F6F8C520F603C06E
:1047F00027F602C026F601C025F600C024F6000107
:10480000F7EC0DF0FDC5EAFFFCC5E9FF03C0FBF5C1
:1048100002C0FAF501C0F9F500C0F8F50501DD2B7D
:10482000C3D70601216BEBC520F600012DEC0DF07E
:10483000FBC51FF6FAC51EF6F9C51DF6F8C51CF630
:1048400003C023F602C022F601C021F600C020F604
:1048500048EC0DF091EF33F00501EF6BEE6BED6B73
:10486000EC6BF36BF26BF16BF06BF76BF66BF56B5C
:10487000F46BFB6BFA6BF96BF86B020EFC6F0001CB
:1048800001EC18F002C0DEF401C0DDF4DEC421F654
:10489000DDC420F62DEC0DF003C0CEF502C0CDF541
:1048A00001C0CCF500C0CBF5CEC51FF6CDC51EF6B8
:1048B000CCC51DF6CBC51CF6D6C523F6D5C522F64C
:1048C000D4C521F6D3C520F648EC0DF000C0FCF5A8
:1048D00001C0FDF502C0FEF503C0FFF5D88203C09C
:1048E00023F602C022F601C021F600C020F6060120
:1048F000276B266B256B7F0E246F0001F7EC0DF004
:1049000003C0D2F502C0D1F501C0D0F500C0CFF58B
:10491000D2C51FF6D1C51EF6D0C51DF6CFC51CF6F3
:104920000601236B226B216B206B0001EBEC12F074
:1049300005E30501D26BD16BD06BCF6B010E050186
:10494000EB5D0401D55D02E001E3D56BD551040DAB
:10495000F350036A9F0FE96E050E0320EA6ED2C57D
:104960001FF6D1C51EF6D0C51DF6CFC51CF6D70E55
:104970000601236FA30E226F216B810E206F0001B1
:104980003EEC18F000C0EFFF01C0ECFF02C0ECFFEE
:1049900003C0ECFF0401D52BD46B010E0501EB5DC8
:1049A0000401D45D01E038E2D451040DF350036AF0
:1049B0009F0FE96E050E0320EA6EEFCF00F0ECCFFB
:1049C00001F0ECCF02F0ECCF03F0EACFFDF5E9CF38
:1049D000FCF5D892EFC523F6EEC522F6EDC521F61B
:1049E000ECC520F603C027F602C026F601C025F666
:1049F00000C024F60001F7EC0DF0FDC5EAFFFCC590
:104A0000E9FF03C0EFF502C0EEF501C0EDF500C00F
:104A1000ECF50401D42BC1D70601216BEBC520F6C0
:104A200000012DEC0DF0EFC51FF6EEC51EF6EDC52D
:104A30001DF6ECC51CF603C023F602C022F601C029
:104A400021F600C020F648EC0DF003C0EFF502C0DF
:104A5000EEF501C0EDF500C0ECF5EFC51FF6EEC5B3
:104A60001EF6EDC51DF6ECC51CF646C523F645C57C
:104A700022F644C521F643C520F63EEC18F0A3EF1C
:104A800033F006010951016A085D03E208C600F02F
:104A90000CD0006A080E0A6F083700360951005C16
:104AA000D8B0006E01360A2FF7D70001000C2CC4D5
:104AB000EAFF2BC4E9FF06010DC6EFFFE92AD8B4CF
:104AC000EA2AEF6A04012B2BD8B42C2B0001000C2E
:104AD000200E060103A9300E046F02C600F002AFDB
:104AE00007D0001E002A00C002F62D0E046F038FAF
:104AF000015002C608F6640E096F0001C2DF00C053
:104B000002F6300E01240601056F02C608F60A0EF1
:104B1000096F0001B6DF300E00240601076F300E6A
:104B20000124066F04C600F003A702D003AF03956B
:104B300003B90BD003AF22D003B520D000C005F6D7
:104B400003B31CD000C006F619D0300E055D16E187
:104B500000C005F6200E046F03A704D0039503835D
:104B600003AF0393300E065D09E100C006F6200E88
:104B7000056F03A7F7D7039303AF039103A505D0F0
:104B800004C60DF6000193DF060103A305D005C698
:104B90000DF600018CDF060103A104D006C60DF658
:104BA000000185DF07C60DF6000181DF000C010E54
:104BB0000601186F196F1E6B0F51115D1F6F1F518A
:104BC0001FAF03D0000ED8801F55036A166F03C0B5
:104BD00017F61051125D1F6F1F511FAF03D0000E4B
:104BE000D8801F55036A146F03C015F60F51115D6D
:104BF00002E2FF0E186F1051125D02E2FF0E196FF4
:104C00001551175D3CE303E11451165D38E3D8906C
:104C1000143715371651145D006E1751155900C021
:104C20001AF61B6F16511A5D1C6F17511B591D6F19
:104C3000175303E11E51165D21E30FC61FF610C680
:104C400020F613C621F60001F3EC0BF006011BBFA2
:104C500001D008D014511A2715511B2318510F25C4
:104C60000F6F0AD01C511A271D511B2318510F25F5
:104C70000F6F19511025106F1E2BDAD737D0D8902F
:104C8000163717371451165D006E1551175900C0AD
:104C90001AF61B6F14511A5D1C6F15511B591D6FAD
:104CA000155303E11E51145D21E30FC61FF610C614
:104CB00020F613C621F60001F3EC0BF006011BBF32
:104CC00001D008D016511A2717511B23195110254E
:104CD000106F0AD01C511A271D511B2318510F2584
:104CE0000F6F19511025106F1E2BDAD70001000C21
:104CF000060108532FE00651045D05E204C60BF6D9
:104D000006C60CF604D006C60BF604C60CF6075110
:104D1000055D05E205C60DF607C60EF604D007C60A
:104D20000DF605C60EF60B510C5D13E30DC60AF623
:104D30000A510E5D0CE30BC61FF60AC620F609C623
:104D400021F60001F3EC0BF006010A2BF1D70B2B37
:104D5000EAD72ED004C60FF605C610F606C611F621
:104D600005C612F609C613F6000121DF04C60FF6C8
:104D700007C610F606C611F607C612F609C613F6E0
:104D800016DF04C60FF605C610F604C611F607C6F0
:104D900012F609C613F60BDF06C60FF605C610F6A7
:104DA00006C611F607C612F609C613F600DF06019D
:104DB0000001000C050E04012C6FF90E2B6FF5C5D8
:104DC00002F61F0E0601036F000182DE0501F82DB9
:104DD0002ED0120EF6250601026F180E0501F725DA
:104DE0000601036FF6C504F6F7C505F602C606F61A
:104DF000076F010E086F096F00017ADF020E0501CF
:104E0000F6250601026F010E0501F7250601036F65
:104E100002C604F6056F050E076FF90E066F020E47
:104E2000086F096B000151EC0CF02DD00501120E3A
:104E3000F6250601026F180E0501F7250601036F1E
:104E4000F6C504F6F7C505F602C606F6076F086B49
:104E5000096B00014DDF020E0501F6250601026F08
:104E6000010E0501F7250601036F02C604F6056F62
:104E7000050E076FF90E066F020E086F010E096F1F
:104E8000000151EC0CF0000C0501F3C501F0F4C574
:104E900003F0F3C5F9F5F4C5FAF5040EEA6E170E42
:104EA000E96EF4C5E2FFF3C5E1FFE752E6CFEEFF9E
:104EB000FCE1F72D29D0F851080DF350F625F96FD4
:104EC0000601046BF6C505F67F0E066FF9C507F6F9
:104ED000010E086F096F00010BDF010E0501F525BA
:104EE000F96F010EF625FA6FF9C504F6E8CF05F65D
:104EF000040E0601076F170E066FF8C508F6096B5A
:104F0000000151EC0CF00501F7532AE1F851080DAE
:104F1000F350F625F96F0601046BF6C505F67F0E12
:104F2000066FF9C507F6010E086F096B0001E0DE98
:104F3000010E0501F525F96F010EF625FA6FF9C589
:104F400004F6E8CF05F6040E0601076F170E066F8C
:104F5000F8C508F6010E096F000151EC0CF00501CF
:104F60000001000C04012FBB4BD00FC5F5F5140E4A
:104F70000501F66F1E0EF76F010EF86F00011ADFC4
:104F800010C5F5F5280E0501F66F1E0EF76FF86BCC
:104F9000000110DF11C5F5F53C0E0501F66F1E0E80
:104FA000F76FF86B000106DF0FC5F5F5500E050130
:104FB000F66F1E0EF76FF86B0001FCDE040EEA6E52
:104FC000170EE96EF2CFF3F5F29E000E85EC07F0B6
:104FD0000A000900F550EE6E0009FBE10501F3BF80
:104FE000F28E040EF46F170EF36F140EF56FF66B5E
:104FF000010EF76F030EF86F000146DF04012F8BDF
:10500000928A80BA6DD02E9DE46BE36B2DB167D090
:105010002D81050E0501FF6F0001A6EC0AF0010EBF
:105020000501DB6FDB51040859E3DB510401CE5D60
:105030003AE1010E0501DB5D036A0F0FE96E050E13
:105040000320EA6EEF2A010EDB5D036A0F0FE96EA3
:10505000050E0320EA6EEFBE0CD0EF50090809E2FE
:10506000010EDB5D036A0F0FE96E050E0320EA6E89
:10507000EF6A010EDB5D036A0F0FE96E050E032078
:10508000EA6EEFCFF3F5DB51140DF3CFF4F5F3C572
:10509000F5F5F4C5F6F51E0EF76F010EF86F000179
:1050A00089DE19D00401010E0501DB5D036A0F0FD3
:1050B000E96E050E0320EA6EEFCFF3F5DB51140D18
:1050C000F3CFF4F5F3C5F5F5F4C5F6F51E0EF76F5D
:1050D000F86B00016FDE0501DB2BA4D7040101D0C2
:1050E0002D91968084B06CD02E9DE46BE36B2DB532
:1050F00066D02D85050E0501FF6F0001A6EC0AF0B4
:10510000010E0501DB6FDB51040858E3DB5104019C
:10511000CE5D39E1010E0501DB5D036A0F0FE96E1B
:10512000050E0320EA6EEF06010EDB5D036A0F0F2A
:10513000E96E050E0320EA6EEFBE01D00AD0010E23
:10514000DB5D036A0F0FE96E050E0320EA6E090EA0
:10515000EF6E010EDB5D036A0F0FE96E050E032093
:10516000EA6EEFCFF3F5DB51140DF3CFF4F5F3C591
:10517000F5F5F4C5F6F51E0EF76F010EF86F000198
:1051800019DE19D00401010E0501DB5D036A0F0F62
:10519000E96E050E0320EA6EEFCFF3F5DB51140D37
:1051A000F3CFF4F5F3C5F5F5F4C5F6F51E0EF76F7C
:1051B000F86B0001FFDD0501DB2BA5D7040101D051
:1051C0002D95968284B250D02E9DE46BE36B2DB367
:1051D0004AD02D83050E0501FF6F0001A6EC0AF0F1
:1051E0000401CE2B010E0501DB6FDB5104083AE30D
:1051F000DB510401CE5D1BE1010E0501DB5D036A9D
:105200000F0FE96E050E0320EA6EEFCFF3F5DB51C9
:10521000140DF3CFF4F5F3C5F5F5F4C5F6F51E0E50
:10522000F76F010EF86F0001C5DD19D00401010E02
:105230000501DB5D036A0F0FE96E050E0320EA6EC0
:10524000EFCFF3F5DB51140DF3CFF4F5F3C5F5F51E
:10525000F4C5F6F51E0EF76FF86B0001ABDD050126
:10526000DB2BC3D7040101D02D93968484B424D0C2
:10527000640E0501FF6F0001A6EC0AF0968484B469
:105280001AD0ECC5CDF40501F36B000116EC0BF060
:1052900004012F9B010ECF6FCE6F05010F6B106BBA
:1052A000116B126BF36B000116EC0BF043EC0BF07F
:1052B000010E016EC6D10401CE510408D8B0C2D18E
:1052C0000501F36B000116EC0BF0010E0401CE6F2B
:1052D0002E9DE46BE36B05010F510308D8A479D030
:1052E00010510808D8A475D01151090872E1125163
:1052F00002086FE1ED536DE1AA6AA96AA86AA69C4B
:10530000A69EA684F250006EF29E0F01550EA76E67
:10531000AA0EA76EA682A6B2FED7A6940050F212DD
:10532000140E0501FF6F0001A6EC0AF0AA6A010E37
:10533000A96EA86AA69CA69EA684F250006EF29E54
:105340000F01550EA76EAA0EA76EA682A6B2FED7B3
:10535000A6940050F212140E0501FF6F0001A6EC96
:105360000AF0AA6A020EA96EA86AA69CA69EA68446
:10537000F250006EF29E0F01550EA76EAA0EA76E98
:10538000A682A6B2FED7A6940050F212140E050112
:10539000FF6F0001A6EC0AF0AA6A030EA96EA86AC4
:1053A000A69CA69EA684F250006EF29E0F01550E9A
:1053B000A76EAA0EA76EA682A6B2FED7A69400502C
:1053C000F212140E0501FF6F0001A6EC0AF0FF00B7
:1053D0000501EF510F5DD8A470D0F051105D6DE163
:1053E000F151115D6AE1F251125D67E1F36B000169
:1053F00016EC0BF0040EEA6E170EE96EF2CFF3F521
:10540000F29E000E85EC07F00A000900F550EE6EE2
:105410000009FBE10501F3BFF28E040EF46F170ED5
:10542000F36F1E0EF56FF66BF76B020EF86F00014F
:105430002BDD040EEA6E170EE96EF2CFF3F5F29E45
:10544000000E97EC07F00A000900F550EE6E000917
:10545000FBE10501F3BFF28E040EF46F170EF36F3C
:105460000F0EF56F1E0EF66FF76B020EF86F000150
:105470000BDDEEC5CDF443EC0BF0040E0501F36F2C
:10548000FA0EFF6F0001A6EC0AF00501F32FF8D722
:10549000F36B000116EC0BF005010F6B106B116B39
:1054A000126BED5302E104012E8904012F9B010EC2
:1054B000016E0001C6D0C5D00501F36B000116ECEA
:1054C0000BF0040EEA6E170EE96EF2CFF3F5F29EC2
:1054D000000E85EC07F00A000900F550EE6E000999
:1054E000FBE10501F3BFF28E040EF46F170EF36FAC
:1054F0001E0EF56FF66BF76B020EF86F0001C4DC41
:10550000040EEA6E170EE96EF2CFF3F5F29E000E6E
:10551000ABEC07F00A000900F550EE6E0009FBE164
:105520000501F3BFF28E040EF46F170EF36FF56BE7
:105530001E0EF66FF76B020EF86F0001A5DC010E70
:105540000401CE6F000143EC0BF0040E0501F36F74
:10555000FA0EFF6F0001A6EC0AF00501F32FF8D751
:105560000F6B106B116B126BF36B000116EC0BF0F1
:105570000601046B056B7F0E066F190E076F010E97
:10558000086F096F000178EC26F0040EEA6E170E22
:10559000E96EF2CFF3F5F29E000E85EC07F00A00FB
:1055A0000900F550EE6E0009FBE10501F3BFF28E34
:1055B000190E0601046F010E056F040E076F170E1A
:1055C000066F030E086F096B000151EC0CF00FC55C
:1055D000F5F5140E0501F66F1E0EF76F010EF86F4C
:1055E0000001DAEC26F010C5F5F5280E0501F66F7E
:1055F0001E0EF76FF86B0001DAEC26F011C5F5F519
:105600003C0E0501F66F1E0EF76FF86B0001DAEC29
:1056100026F00FC5F5F5500E0501F66F1E0EF76F5B
:10562000F86B0001DAEC26F0ECC5CDF40501F36B64
:10563000000116EC0BF004012F9B000E016E00011F
:1056400000D004010001000C050E04012C6FF00EC7
:105650002B6FEBC502F61F0E0601036F000168EC0D
:1056600025F00501EE2D30D0EF51060DF350EC255D
:10567000F96FEF51080DF350ED25FA6FECC504F604
:10568000EDC505F6F9C506F6E8CF07F6010E0601E9
:10569000086F096F000178EC26F0020E0501EC2579
:1056A000F96F010EED25FA6FF9C504F6E8CF05F69E
:1056B000050E0601076FF00E066FEFC508F6096BC1
:1056C000000151EC0CF00501EE5331E1EF51060DF4
:1056D000F350EC25F96FEF51080DF350ED25FA6FFB
:1056E000ECC504F6EDC505F6F9C506F6E8CF07F6F4
:1056F000010E0601086F096B000178EC26F0020E1E
:105700000501EC25F96F010EED25FA6FF9C504F6D8
:10571000E8CF05F6050E0601076FF00E066FEFC520
:1057200008F6010E096F000151EC0CF005010001B3
:10573000000C06010D51B6080D6F036A0EC611F676
:105740000E8FD8900E330F331033033202320132F2
:1057500000320D2FF6D711AF0BD0001E011E021E16
:10576000031E002AD8B4012AD8B4022AD8B4032AC6
:10577000000127EF2CF0006A016A026A036A060141
:10578000156B166B176B186B145113111211111145
:105790002CE0200E196FD8900D370E370F371037C9
:1057A00015371637173718371451185D08E113519C
:1057B000175D05E11251165D02E11151155D0FE310
:1057C0001151155F1251D8A0123D165F1351D8A088
:1057D000133D175F1451D8A0143D185FD8800036D0
:1057E000013602360336192FD6D7060EEA6E150E8D
:1057F000E96E0001000CE9500601056F0451076FC6
:105800001CE003C61FF602C61EF601C61DF600C642
:105810001CF6236B226B200E216F820E206F00017D
:105820003EEC18F003C003F602C002F601C001F618
:1058300000C000F60601072FE4D703C610F602C623
:105840000FF601C60EF600C60DF6000172D703C0B2
:1058500003F602C002F601C001F600C000F6060120
:1058600003AF0DD00507058B001F011F021F031F8B
:10587000002BD8B4012BD8B4022BD8B4032B3B0E89
:105880000C6F9A0E0B6FCA0E0A6F096B0A0E076F28
:105890000451D8B4052B03C610F602C60FF601C694
:1058A0000EF600C60DF60CC614F60BC613F60AC6A5
:1058B00012F609C611F600015EDF0150EFCF00F6C7
:1058C000ECCF01F6ECCF02F6ECCF03F6005213E179
:1058D00006010429075DD8A402D000010CD00551AF
:1058E0000DE00F0B075D01E044E205BF42D005BDAE
:1058F00005D0200E37D0200E0601051705AB0FD0BE
:10590000059B0451D8A405070050056F2D0E0D6F9F
:10591000000157EC25F006010551006E056B04519E
:10592000075D0DE10050056F2E0E0D6F000157EC65
:1059300025F006010551006E200E0517000E300EF1
:1059400005AB10D0059B0451D8A405070050056F86
:105950002D0E0D6F000157EC25F006010551006E6C
:10596000056B300E002600C00DF6000157EC25F047
:1059700006010CC610F60BC60FF60AC60EF609C6CF
:105980000DF6146B136B126B0A0E116F0001F3DE30
:1059900003C00CF602C00BF601C00AF600C009F6FF
:1059A0000601072F78D70001000C006A016A060182
:1059B0000B51D8900CB10026003201320CB30026F6
:1059C000003201320CB50026003201320CB700263D
:1059D000003201320CB90026003201320CBB002625
:1059E000003201320CBD0026003201320CBF00260D
:1059F000003201320001000C0601076B04C608F6F4
:105A0000010ED8800455096F055365E00751025D0A
:105A10000A6F085103250B6F075102250C6F0851BF
:105A200003250D6F0AC60FF60BC610F60CC611F64D
:105A3000126F06C613F60001D7EC25F006010751D8
:105A4000025D0A6F0851035D0B6F075102250C6F51
:105A50000851035D0D6F0AC60FF60BC610F60CC693
:105A600011F6126F06C613F60001D7EC25F00601F9
:105A70000851025D0A6F075103250B6F085102257B
:105A80000C6F075103250D6F0AC60FF60BC610F6F3
:105A90000CC611F6126F06C613F60001D7EC25F0FE
:105AA00006010851025D0A6F0751035D0B6F085133
:105AB00002250C6F0751035D0D6F0AC60FF60BC66A
:105AC00010F60CC611F6126F06C613F60001D7ECDD
:105AD00025F078D00601025107250A6F03510825E9
:105AE0000B6F0AC61FF6206F06C621F60001F3EC05
:105AF0000BF00601025108250A6F035107250B6FB1
:105B00000AC61FF6206F06C621F60001F3EC0BF063
:105B100006010751025D0A6F035108250B6F0AC683
:105B20001FF6206F06C621F60001F3EC0BF006010C
:105B30000851025D0A6F035107250B6F0AC61FF655
:105B4000206F06C621F60001F3EC0BF006010251AE
:105B500008250A6F0751035D0B6F0AC61FF6206FF9
:105B600006C621F60001F3EC0BF0060102510725F1
:105B70000A6F0851035D0B6F0AC61FF6206F06C639
:105B800021F60001F3EC0BF006010751025D0A6FEC
:105B90000851035D0B6F0AC61FF6206F06C621F67B
:105BA0000001F3EC0BF006010851025D0A6F07518A
:105BB000035D0B6F0AC61FF6206F06C621F60001B3
:105BC000F3EC0BF0060109BF01D00ED00751072BF3
:105BD0000A6F020E0B6F0AC60CF60001E6DE0150DA
:105BE000030F0601092711D00751072B0A6F08512F
:105BF00008070A5D0A6F020E0B6F0AC60CF6000159
:105C0000D4DE0150050F060109270751800A006EF6
:105C10000851800A005CD8B4F7D6D8A0F5D60001A8
:105C2000000C050E04012C6FF70E2B6F010EE96EB0
:105C3000F2C503F6F1C502F6F0C501F6EFC500F6B0
:105C40000601046B0001D7DD200E06010D6F000177
:105C500057EC25F0430E06010D6F000157EC25F0BF
:105C60000501F52D45D0F651140DF350F32506012D
:105C7000006F0501F651080DF350F4250601016F80
:105C8000F3C504F6F4C505F600C606F6076F010E67
:105C9000086F096F000178EC26F0020E0501F3256C
:105CA0000601006F010E0501F4250601016F00C613
:105CB00004F6056F050E076FF70E066FF6C508F6BA
:105CC000096B000151EC0CF0110E0501F3250601E2
:105CD000006F020E0501F4250601016F00C602F6F1
:105CE000036F010E046F056F066B000185DE050171
:105CF000F55346E1F651140DF350F3250601006FFC
:105D00000501F651080DF350F4250601016FF3C5A6
:105D100004F6F4C505F600C606F6076F010E086F17
:105D2000096B000178EC26F0020E0501F32506014F
:105D3000006F010E0501F4250601016F00C604F68F
:105D4000056F050E076FF70E066FF6C508F6010E14
:105D5000096F000151EC0CF0110E0501F32506014D
:105D6000006F020E0501F4250601016F00C602F660
:105D7000036F010E046F056F066F00013DDE050124
:105D8000000129EF3AF00501EF51F103F3CF01F0E3
:105D9000F4CF00F0F203F3500026F051F103F3507A
:105DA0000020026E0001000C0501EB51030853E1D5
:105DB000EC6BEC513F084FE3ED6BED510F0849E3FD
:105DC000070EEE6FEE51800A7F0841E2F06BECC5E2
:105DD000EFF5F26B100EF16F0001D5DF02C0F0F5A8
:105DE00001C0EFF50501ED510124016E000E022006
:105DF000036E0150F2CFEFF5F29E03C0F7FF0001F2
:105E00005BEC01F00501EFBFF28EEF6F070ED8805B
:105E1000EE55F06FEFC500F0F051016E04E0D89040
:105E20000032012EFCD700A010D0ED51080DF35028
:105E3000EE25EF6FE8CF1FF6ECC520F6010E060148
:105E4000216F0001F3EC0BF00501EE07BBD7ED2B42
:105E5000B4D7EC2BAED7EB51040853E1EC6BEC510B
:105E60003F084FE3ED6BED510F0849E3070EEE6F6E
:105E7000EE51800A7F0841E2F06BECC5EFF5F26B62
:105E8000100EF16F00017FDF02C0F0F501C0EFF5E9
:105E90000501ED510124016E000E0220036E015038
:105EA000F2CFEFF5F29E03C0F7FF000169EC03F0BB
:105EB0000501EFBFF28EEF6F070ED880EE55F06F41
:105EC000EFC500F0F051016E04E0D8900032012ED1
:105ED000FCD700A010D0ED51080DF350EE25EF6F68
:105EE000E8CF1FF6ECC520F6010E0601216F000178
:105EF000F3EC0BF00501EE07BBD7ED2BB4D7EC2B81
:105F0000AED7EB51050853E1EC6BEC513F084FE382
:105F1000ED6BED510F0849E3070EEE6FEE51800A6D
:105F20007F0841E2F06BECC5EFF5F26B100EF16FFC
:105F3000000129DF02C0F0F501C0EFF50501ED51C8
:105F40000124016E000E0220036E0150F2CFEFF526
:105F5000F29E03C0F7FF000177EC05F00501EFBFEB
