:040000003EEF30F0AF
:08000800046ED8CF05F0E0CF33
:1000100006F00001E9CF0CF0EACF07F0E1CF08F0DD
:10002000E2CF09F0D9CF0AF0DACF0BF0F3CF12F01C
:10003000F4CF13F0FACF14F000C00EF001C00FF0AF
:1000400002C010F003C011F0F2A82AEF00F0F2B2E3
:10005000ADEF09F00EC000F00FC001F010C002F0CB
:1000600011C003F00CC0E9FF07C0EAFF078E08C00B
:10007000E1FF09C0E2FF0AC0D9FF0BC0DAFF12C0DE
:10008000F3FF13C0F4FF14C0FAFF045006C0E0FFF2
:1000900005C0D8FF1000F2CF0DF0F29EF76AB00F46
:1000A000F66E000EF7220900F5500DBEF28E12001A
:1000B000000000000000005F0000000300030014C7
:1000C0003E143E14242A7F2A1243330866613649BF
:1000D0005522500005030000001C2241000041226F
:1000E0001C0014083E081408083E080800503000A0
:1000F00000080808080800606000002010080402DA
:100100003E5149453E0004027F004261514946226A
:10011000414949361814127F1027454545393E4953
:100120004949320101710907364949493626494989
:10013000493E0036360000005636000008142241C1
:100140000014141414140041221408020151090669
:100150003E4159555E7E0909097E7F494949363E2F
:10016000414141227F4141413E7F494949417F0907
:100170000909013E4141493A7F0808087F00417F53
:100180004100304040403F7F081422417F404040C2
:10019000407F020C027F7F0204087F3E4141413EC6
:1001A0007F090909061E2121215E7F0909097600C0
:1001B000F2CF0DF0F29EF76ACA0FF66E010EF7222B
:1001C0000900F5500DBEF28E120026494949320150
:1001D000017F01013F4040403F1F2040201F7F2002
:1001E00010207F41221C22410708700807615149F5
:1001F0004543007F41000002040810200000417FB9
:10020000000402010204404040404000010204009A
:1002100020545454787F4444443838444444443847
:100220004444447F385454541804047E050508544B
:1002300054543C7F0804047800447D40002040442E
:100240003D007F1028440000417F40007C0478047A
:10025000787C0804047838444444387C1414140826
:10026000081414147C007C080404485454542004DA
:10027000043F44443C4040207C1C2040201C3C4027
:1002800030403C44281028440C5050503C446454A6
:100290004C44000836414100007F000041413608CF
:1002A000000201020402F2CF0DF0F29EBE0FF66EC4
:1002B000020EF7220900F5500DBEF28E120000006A
:1002C000000000000000000000000000000000002E
:1002D000000000000000000000000000000000001E
:1002E000000000000000000000000000000000000E
:1002F00000000000000000000000000000000000FE
:1003000000000000000000000000000000000000ED
:1003100000000000000000000000000000000000DD
:1003200000000000000000000000000000000000CD
:1003300000000000000000000000000000000000BD
:1003400000000000000000000000000000000000AD
:10035000000000000000000000000000000000009D
:10036000000000000000000000000000000000008D
:10037000000000000000000000000000000000007D
:10038000000000000000000000000000000000006D
:10039000000000000000000000000000000000005D
:1003A000000000000000000000000000000000004D
:1003B00000000000000000000000000800800000B5
:1003C0000000000000000000000000040100000028
:1003D0000000000000000000000000020200000019
:1003E0000000000000000000000000007800000095
:1003F0000000000000000000000000008400000079
:1004000000000000000000000000000102000000E9
:100410000000000000000000000000F902F80000E9
:1004200000000000000000000000000102000000C9
:1004300000000000000000000000000102000000B9
:1004400000000000000000000000000484800000A4
:1004500000000000000000000000000878400000DC
:100460000000000000000000000000104820000014
:100470000000000000000000000000204810000004
:1004800000000000000000000000000078000000F4
:10049000000000000000000000000000000000005C
:1004A000000000000000000000000000000000004C
:1004B000000000000000000000000000000000003C
:1004C000000000000000000000000000000000002C
:1006B0000000000000000000000000000000F2CF79
:1006C0000DF0F29ED60FF66E060EF7220900F550D9
:1006D0000DBEF28E120000000000000000000000BD
:1006E000000000000000000000000000000000000A
:1006F00000000000000000000000000000000000FA
:1007000000000000000000000000000000000000E9
:1007100000000000000000000000000000000000D9
:1007200000000000000000000000000000000000C9
:1007300000000000000000000000000000000000B9
:1007400000000000000000000000000000000000A9
:100750000000000000000000000000000000000099
:100760000000000000000000000000000000000089
:100770000000000000000000000000000000000079
:100780000000000000000000000000000000000069
:100790000000000000000000000000000000000059
:1007A0000000000000000000000000000000000049
:1007B0000000000000000000000000000000000039
:1007C0000000000000000000000000000000000029
:1007D0000000000000000000000000000000000019
:1007E0000000000000000000000000000000000009
:1007F00000000000000000000000000000000000F9
:1008000000000000000000000000000000000000E8
:1008100000000000000000000000000000000000D8
:1008200000000000000000000000000000000000C8
:1008300000000000000000000000000000000000B8
:1008400000000000000000000000000000000000A8
:100850000000000000000000000000000000000098
:100860000000000000000000000000000000000088
:100870000000000000000000000000000000000078
:100880000000000000000000000000000000000068
:100890000000000000000000000000000000000058
:1008A0000000000000000000000000000000000048
:1008B0000000000000000000000000000000000038
:1008C0000000007FFFF800000000000000000000B2
:1008D00000000040000800000000000000000000D0
:1008E0000000004703880000000000000000000036
:1008F0000000004502880000000000000000000029
:100900000000004502880000000000000000000018
:100910000000004502880000000000000000000008
:1009200000000045028800000000000000000000F8
:1009300000000047038800000000000000000000E5
:10094000000000400008000000000000000000005F
:1009500000000040FC080000000000000000000053
:1009600000000040840800000000000000000000BB
:1009700000000040840800000000000000000000AB
:1009800000000040FC080000000000000000000023
:10099000000000400008000000000000000000000F
:1009A0000000007FFFF800000000000000000000D1
:1009B0000000000000000000000000000000000037
:1009C0000000000000000000000000000000000027
:1009D0000000000000000000000000000000000017
:1009E0000000000000000000000000000000000007
:1009F00000000000000000000000000000000000F7
:100A000000000000000000000000000000000000E6
:100A100000000000000000000000000000000000D6
:100A200000000000000000000000000000000000C6
:100A300000000000000000000000000000000000B6
:100A400000000000000000000000000000000000A6
:100A50000000000000000000000000000000000096
:100A60000000000000000000000000000000000086
:100A70000000000000000000000000000000000076
:100A80000000000000000000000000000000000066
:100A90000000000000000000000000000000000056
:100AA0000000000000000000000000000000000046
:100AB0000000000000000000000000000000000036
:100AC0000000000000000000000000000000000026
:100AD000000000000000F2CF0DF0F29EEE0FF66E67
:100AE0000A0EF7220900F5500DBEF28E120000002A
:100AF00000000000000000000000000000000000F6
:100B000000000000000000000000000000000000E5
:100B100000000000000000000000000000000000D5
:100B200000000000000000000000000000000000C5
:100DD00000000000000000000000000060000000B3
:100DE000000000000000000000000000F000000013
:100DF000000000000000000000000001F8000000FA
:100E0000000000000000000000000001F8000000E9
:100E1000000000000000000000000001F8000000D9
:100E2000000000000000000000000000F0000000D2
:100E300000000000000000000000003871C0000049
:100E400000000000000000000000007C93E00000B3
:100E50000000000000000000000000FF0FF0000094
:100E60000000000000000000000000FF0FF0000084
:100E700000000000000000000000007D93E0000082
:100E800000000000000000000000003861C0000009
:100E9000000000000000000000000000F000000062
:100EA000000000000000000000000001F800000049
:100EB000000000000000000000000001F800000039
:100EC000000000000000000000000001F800000029
:100ED000000000000000000000000000F000000022
:100EE0000000000000000000000000006000F2CFE1
:100EF0000DF0F29EF76A080FF66E0F0EF72209004A
:100F0000F5500DBEF28E1200436C61766500F2CF93
:100F10000DF0F29EF76A280FF66E0F0EF722090009
:100F2000F5500DBEF28E1200436F727265637461EC
:100F30000000F2CF0DF0F29EF76A4C0FF66E0F0E26
:100F4000F7220900F5500DBEF28E1200496E636F54
:100F50007272656374610000F2CF0DF0F29EF76A61
:100F6000720FF66E0F0EF7220900F5500DBEF28ECD
:100F70001200202021416272612050726F746563FB
:100F800063696F6E0000F2CF0DF0F29EF76AA00F5A
:100F9000F66E0F0EF7220900F5500DBEF28E12000C
:100FA00020202020202046726F6E74616C2120204A
:100FB00020200000F2CF0DF0F29EF76ACE0FF66E01
:100FC0000F0EF7220900F5500DBEF28E1200202000
:100FD0002020202020202020202020202020202011
:100FE0000000F2CF0DF0F29EF76AFC0FF66E0F0EC6
:100FF000F7220900F5500DBEF28E120046696C749E
:10100000726F20536174757261646F00F2CF0DF0DE
:10101000F29EF76A260FF66E100EF7220900F550C1
:101020000DBEF28E12004A50435633362D504352B5
:101030002D454300F2CF0DF0F29EF76A4E0FF66E8B
:10104000100EF7220900F5500DBEF28E12004D650C
:101050006E750000F2CF0DF0F29EF76A6E0FF66E1D
:10106000100EF7220900F5500DBEF28E1200416AF3
:10107000757374657300F2CF0DF0F29EF76A900FEE
:10108000F66E100EF7220900F5500DBEF28E12001A
:1010900043616D62696F20646520436C6176650011
:1010A000F2CF0DF0F29EF76ABA0FF66E100EF7222D
:1010B0000900F5500DBEF28E12004D6F646F0000F6
:1010C000F2CF0DF0F29EF76ADA0FF66E100EF722ED
:1010D0000900F5500DBEF28E12005469656D706FF7
:1010E0002050757267610000F2CF0DF0F29EF76A32
:1010F000020FF66E110EF7220900F5500DBEF28EAA
:10110000120054656D706F2055560000F2CF0DF03F
:10111000F29EF76A260FF66E110EF7220900F550BF
:101120000DBEF28E12004D616E74656E696D69655B
:101130006E746F00F2CF0DF0F29EF76A4E0FF66EEE
:10114000110EF7220900F5500DBEF28E1200536504
:1011500072766963696F0000F2CF0DF0F29EF76A54
:10116000720FF66E110EF7220900F5500DBEF28EC9
:101170001200542E2050757267610000F2CF0DF0FE
:10118000F29EF76A960FF66E110EF7220900F550DF
:101190000DBEF28E1200542E20555600F2CF0DF0E7
:1011A000F29EF76AB60FF66E110EF7220900F5509F
:1011B0000DBEF28E1200436C617665204E75657629
:1011C0006100F2CF0DF0F29EF76ADC0FF66E110EA1
:1011D000F7220900F5500DBEF28E12004D616E74BB
:1011E000656E69656E746F00F2CF0DF0F29EF76A5E
:1011F000020FF66E120EF7220900F5500DBEF28EA8
:10120000120054726162616A6F2046696C74726F79
:101210002868293A0000F2CF0DF0F29EF76A300FED
:10122000F66E120EF7220900F5500DBEF28E120076
:1012300054726162616A6F204C757A205556286835
:10124000293A0000F2CF0DF0F29EF76A5E0FF66EBB
:10125000120EF7220900F5500DBEF28E12005365F2
:101260006E736F7220646520466C756A6F00F2CFF2
:101270000DF0F29EF76A880FF66E120EF722090043
:10128000F5500DBEF28E120053656E736F722064BE
:10129000652050726573696F6E00F2CF0DF0F29E9B
:1012A000F76AB40FF66E120EF7220900F5500DBE64
:1012B000F28E120056656C6F636964616420566536
:1012C0006E74696C61646F720000F2CF0DF0F29E73
:1012D000F76AE40FF66E120EF7220900F5500DBE04
:1012E000F28E120053656C656363696F6E205665FC
:1012F0006C00F2CF0DF0F29EF76A0C0FF66E130E33
:10130000F7220900F5500DBEF28E120056656C6F83
:10131000636964616400F2CF0DF0F29EF76A300FEA
:10132000F66E130EF7220900F5500DBEF28E120074
:1013300047756172646164610000030E0601285FF5
:101340000AE3060EEA6E280EE96EEF5004E001D0C3
:1013500000D0EF2EFDD70001000C0501CE2BD8B434
:10136000CF2BCF5303E1CE51770858E2CF6BCE6B32
:1013700004012C8D2E89D22B2CAF03D0E62BD8B4B0
:10138000E72B2EA128D0E02BD8B4E12BFEBF05D04F
:10139000FE51000802E2FE071ED0090EFE6FFFBFDD
:1013A00005D0FF51000802E2FF0715D0050EFF6FC0
:1013B000050100BF05D00051000802E200070CD073
:1013C000090E006F01BF05D00151000802E20107BC
:1013D00003D004012E85050104012DB902D02EAFE2
:1013E0001CD0EA2BEABF05D0EA51090802E2EA6BF9
:1013F000EB2BEBBF05D0EB51050802E2EB6BEC2BBE
:10140000ECBF05D0EC51090802E2EC6BED2BEDBF0F
:1014100004D0ED51050801E2ED6B0501D76BD66BE9
:1014200004012E8D0501D951050820E3D9531CE094
:10143000D851630819E3D1C527F60601272B2707E2
:10144000D8B406D0FF0E286F000177DF0601F7D76A
:10145000D0C528F6000171DF8B849494A60E006E2F
:10146000002EFED7000005018B949494F2920001A7
:101470002AEF00F0050EEA6EF60EE96EEF500DE071
:10148000060E016E006A002EFED7012EFBD77B0EE2
:10149000006E002EFED7EF2EF3D7000C0501E251AF
:1014A000060804E1D86B8B84949437D0E251050888
:1014B00007E10F0ED86F070ED16FD00ED06F2DD071
:1014C000E251040807E1190ED86F0B0ED16FB80E68
:1014D000D06F23D0E251030807E1230ED86F0E0E20
:1014E000D16F100ED06F19D0E251020807E12D0E16
:1014F000D86F100ED16FCC0ED06F0FD0E22D07D069
:10150000320ED86F130ED16F880ED06F06D0E25313
:1015100004E1640ED86F8B9494940001000C0501D3
:10152000F15303E093968A8602D093948A84939C25
:101530008A9C956AF2C58CFF0000939E8A8E00D02B
:1015400000D00000939E8A9E93948A9493968A96E4
:101550000001000C0501ED6B160EEC6F020EEF6F33
:10156000160EEE6FEA51FF0DF3CFEBF5F16BF06B5A
:10157000F15101081AE3EDC503F0EC51EC2BD8B49E
:10158000ED2BE96E03C0EAFFEBC5EFFFEFC503F0FB
:10159000EE51EE2BD8B4EF2BE96E03C0EAFFEBC59A
:1015A000EFFFF02BD8B4F12BE3D70001000C0501BD
:1015B000ED6B160EEC6F020EEF6F160EEE6FEA6B10
:1015C000EA5107084EE3939A8A9AF16B400EF26F44
:1015D0000001A5DF010E0501F16F400EF26F000161
:1015E0009EDF0501EA51B809F06FF16BF26F00015F
:1015F00096DF0501EA51B809F06F010EF16FF0C5F1
:10160000F2F500018CDF939A8A8A0501EB6BEB51AE
:101610003F0825E3EDC503F0EC51EC2BD8B4ED2BDE
:10162000E96E03C0EAFFEFCFF0F5F16BF0C5F2F51C
:10163000000175DF0501EFC503F0EE51EE2BD8B4C4
:10164000EF2BE96E03C0EAFFEFCFF0F5010EF16F6B
:10165000F0C5F2F5000163DF0501EB2BD8D7EA2BCB
:10166000AFD70001000C93988A88939E8A9E93942A
:101670008A9493968A96939A8A9A0501F16BC00E82
:10168000F26F00014CDF010E0501F16FC00EF26F29
:10169000000145DF0501F16B400EF26F00013FDFF5
:1016A000010E0501F16F400EF26F000138DF0501F8
:1016B000F16BB80EF26F000132DF010E0501F16F20
:1016C000B80EF26F00012BDF0501E22D0ED0F16B99
:1016D0003F0EF26F000123DF010E0501F16F3F0E97
:1016E000F26F00011CDF0DD00501F16B3E0EF26FB1
:1016F000000115DF010E0501F16F3E0EF26F0001D2
:101700000EDF0501EA6B000125DF51DF000C060149
:101710001C6B17311B6F1B331B331F0E1B171B3723
:101720001C371B371C371B371C371B371C371B3725
:101730001C371B371C37C00E1B1716511B27000EFA
:101740001C2316513F080DE2160E1B251D6F020EBD
:101750001C211E6F400E1D5D196F000E1E591A6F61
:1017600006D0160E1B25196F000E1C211A6F185378
:1017700015E01AC603F019C6E9FF1AC6EAFF1751A9
:10178000070B1D6F010E006E1D51016E04E0D89015
:101790000036012EFCD70050EF1215D01AC603F008
:1017A00019C6E9FF1AC6EAFF1751070B1D6F010E94
:1017B000006E1D51016E04E0D8900036012EFCD75A
:1017C0000050FF0AEF160001000CFEC503F00501F2
:1017D000FDC5E9FFFEC5EAFFEF52D8B4DFD0FEC574
:1017E00003F0FDC5E9FFFEC5EAFFEF50520828E30C
:1017F000FEC503F0FDC5E9FFFEC5EAFF200EEF5C64
:10180000050DF350036A06010A6F060EEA6E050E17
:10181000E96E0E6B0AC60DF6F2CF0BF6F29E016E64
:10182000F76A0A5100014BEC00F00A000900F5CFFD
:10183000EEFF012EFBD706010BBFF28E37D005015C
:10184000FEC503F0FDC5E9FFFEC5EAFFEF507E08C7
:1018500027E3FEC503F0FDC5E9FFFEC5EAFF530E11
:10186000EF5C050DF350036A06010A6F060EEA6E7F
:10187000050EE96E0E6B0AC60DF6F2CF0BF6F29E60
:10188000016EF76A0A510001D8EC00F00A00090065
:10189000F5CFEEFF012EFBD706010BBFF28E06D06F
:1018A0000601056B066B076B086B096BFEC503F041
:1018B0000501FD51E96E03C0EAFFEF500A0A00017D
:1018C00003E0070A09E00BD00501FF51070DF350B3
:1018D000010FFC275CD000010501FB6B58D005010E
:1018E000FF51050DF350FB257F0806E2FB6BFF510E
:1018F000070DF350010FFC270601016B015104088D
:1019000045E3026B025106083BE3036A0151050FF0
:10191000E96E060E0320EA6EEFCF0AF60AC600F063
:101920000251016E04E0D8900032012EFCD700A0D5
:1019300025D0036B0501FF510601035D1FE2046B17
:101940000501FF510601045D17E204510501FB2565
:1019500006010A6F02510501FF03F350FC25060141
:1019600003250B6F0AC616F6176F00C618F600019E
:10197000CEDE0601042BE4D7032BDCD7022BC2D723
:10198000012B0501FF51FB270601B8D70501FD2BEF
:10199000D8B4FE2BFB2B000118D705010001000C69
:1019A0008E0E006E18C601F017C602F0036A0152CF
:1019B00009E102C001F0026A080E005E015202E174
:1019C000006A08D0D89001BE04D002360136000665
:1019D000F9D7019E000C06011351D8B4A5D01F6F92
:1019E0001751D8B4A1D01F5F05E37F0E1F27D8B0D1
:1019F0009BD006D0810E1F5FD8A096D0D8B494D0CB
:101A00001FC600F0016A026A036A1E6B14C61DF647
:101A10001D8F15C61CF616C61BF6190E1F6F1A5120
:101A20001B5F0DE2010E1C5F0AE21D5F08E21E5FF4
:101A300006E21E2B1D2B1C2B1A511B2728D01951D7
:101A40001C5F12E2010E1D5F0FE21E5F0DE21E2BF6
:101A50001D2B19511C271A511B2719E31C2B17E1A9
:101A60001D2B15E11E2B13D0185180091D5F0EE2AE
:101A7000010E1E5F0BE21E2B185180091D27195104
:101A80001C27E9E31D2BE7E11E2BE5D703801F2F61
:101A900001D00BD0D8901B371C371D371E37D8907C
:101AA0000336023601362037BAD720A106D0D890A7
:101AB000013202320332203302D0000635E020BF6B
:101AC0001ED0D8901B371C371D371E371A511B5F8D
:101AD00007E2010E1C5F04E21D5F02E21E5F1AE3D3
:101AE00019511C5F05E2010E1D5F02E21E5F12E349
:101AF000185180091D5F03E2010E1E5F0BE3032AEC
:101B000009E1022A07E1012A05E1002A0DE001327C
:101B10000232033214C61FF618511F1B1FAF02D02A
:101B2000018E06D0019E04D0006A016A026A036A2F
:101B30000001000C800ED8A202D006011C1B060179
:101B4000216B226B18C620F61C51201B1751D8B4EC
:101B5000DFD01F6F006E1B51D8B4E3D01F5FD8B425
:101B600083D03EE31CC625F6258F1DC624F61EC66F
:101B700023F6226BD89025332433233322331F2FAF
:101B8000F8D720AF03D02181E0D021911F91218986
:101B9000060EEA6E1A0EE96EEBD0219920BF0AD02C
:101BA0001FA113D02533243323332233002AD8B482
:101BB000C7D00BD025BF0CD0D8902237233724377D
:101BC00025370006D8B4BCD0F5D7218D6DD0219D26
:101BD00018C620F618AF02D0258FABD0259FA9D00C
:101BE0001BC61FF61BC600F017511F5F18C625F64F
:101BF000258F19C624F61AC623F6226BD8902533F2
:101C00002433233322331F2FF8D720AF03D021836F
:101C10009CD021931F91218B060EEA6E1E0EE96E59
:101C2000A7D0219B20BF0AD01FA113D02533243376
:101C300023332233002AD8B483D00BD025BF0CD055
:101C4000D89022372337243725370006D8B478D0E8
:101C5000F5D7218F29D0219F1CC620F61CAF02D0BA
:101C6000258F67D0259F65D01CC625F6258F1DC6FC
:101C700024F61EC623F620AF04D0259F218565D00B
:101C80002195226B1F91060EEA6E1A0EE96E70D036
:101C900020BF1CD018C620F61FA106D02533243340
:101CA00023332233002A4CE022AF0BD0232B09E14F
:101CB000242B07E1252B05E1253324332333002A88
:101CC0003FE021BD84D721BFC6D71CD0800E251B85
:101CD00025AF04D03AD01CC620F60AD018C620F68C
:101CE000255306E1245304E1235302E1006A21D085
:101CF00025BF08D0D8902237233724372537002E28
:101D0000F7D71ED020AF02D0258F13D0259F11D03A
:101D10001BC600F01CC625F61DC624F61EC623F6FB
:101D200008D017C600F018C625F619C624F61AC63C
:101D300023F625C601F024C602F023C603F034D0F2
:101D4000006A016A026A036A2FD0226B231F241FD4
:101D5000251F221F222B05E1232B03E1242B01E168
:101D6000252B21B112D721B354D721B589D7B3D7A9
:101D7000EF50232705E3242B03E1252BD8B41F8143
:101D8000ED52EF50242703E3252BD8B41F81ED52E9
:101D9000EF50EFBE01D0800A2527D8B01F8121B9AE
:101DA000FCD621BB3ED774D70001000CF2CFE2F580
:101DB000F29EAA6AA96AA69CA69EA680A8500501C2
:101DC000E2BFF28E0A6F0A0EF66F00013AEC0AF0DB
:101DD000F2CFE2F5F29EAA6A010EA96EA69CA69E1B
:101DE000A680A8500501E2BFF28E0B6F0A0EF66FB7
:101DF00000013AEC0AF0F2CFE2F5F29EAA6A020E76
:101E0000A96EA69CA69EA680A8500501E2BFF28EF0
:101E10000C6F0A0EF66F00013AEC0AF0F2CFE2F511
:101E2000F29EAA6A030EA96EA69CA69EA680A85042
:101E30000501E2BFF28E0D6F0A0EF66F00013AEC5B
:101E40000AF0F2CFE2F5F29EAA6A040EA96EA69CF1
:101E5000A69EA680A8500501E2BFF28E0401EE6F97
:101E60000A0E0501F66F00013AEC0AF0F2CFE2F536
:101E7000F29EAA6A050EA96EA69CA69EA680A850F0
:101E80000501E2BFF28E0401EF6F0A0E0501F66F45
:101E900000013AEC0AF0F2CFE2F5F29EAA6A060ED1
:101EA000A96EA69CA69EA680A8500501E2BFF28E50
:101EB0000401F06F0A0E0501F66F00013AEC0AF01A
:101EC000F2CFE2F5F29EAA6A070EA96EA69CA69E24
:101ED000A680A8500501E2BFF28E0401F16F0A0E40
:101EE0000501F66F00013AEC0AF0F2CFE2F5F29E3E
:101EF000AA6A080EA96EA69CA69EA680A8500501F7
:101F0000E2BFF28E0401F26F0A0E0501F66F0001C6
:101F10003AEC0AF0F2CFE2F5F29EAA6A090EA96E37
:101F2000A69CA69EA680A8500501E2BFF28E0401E1
:101F3000F36F0A0E0501F66F00013AEC0AF0F2CFDA
:101F4000E2F5F29EAA6A0A0EA96EA69CA69EA6803B
:101F5000A8500501E2BFF28E0401F46F0A0E0501DC
:101F6000F66F00013AEC0AF0F2CFE2F5F29EAA6AAF
:101F70000B0EA96EA69CA69EA680A8500501E2BFE6
:101F8000F28E0401F56F0A0E0501F66F00013AECBE
:101F90000AF0F2CFE2F5F29EAA6A0C0EA96EA69C98
:101FA000A69EA680A8500501E2BFF28E0401F66F3E
:101FB0000A0E0501F66F00013AEC0AF0F2CFE2F5E5
:101FC000F29EAA6A0D0EA96EA69CA69EA680A85097
:101FD0000501E2BFF28E0401F76F0A0E0501F66FEC
:101FE00000013AEC0AF0F2CFE2F5F29EAA6A0E0E78
:101FF000A96EA69CA69EA680A8500501E2BFF28EFF
:102000000401F86F0A0E0501F66F00013AEC0AF0C0
:10201000F2CFE2F5F29EAA6A0F0EA96EA69CA69ECA
:10202000A680A8500501E2BFF28E0401F96F0A0EE6
:102030000501F66F00013AEC0AF0F2CFE2F5F29EEC
:10204000AA6A100EA96EA69CA69EA680A85005019D
:10205000E2BFF28E026F0A0EF66F00013AEC0AF050
:10206000F2CFE2F5F29EAA6A110EA96EA69CA69E78
:10207000A680A8500501E2BFF28E036F0A0EF66F2C
:1020800000013AEC0AF0F2CFE2F5F29EAA6A120ED3
:10209000A96EA69CA69EA680A8500501E2BFF28E5E
:1020A000046F0A0EF66F00013AEC0AF0F2CFE2F587
:1020B000F29EAA6A130EA96EA69CA69EA680A850A0
:1020C0000501E2BFF28E056F0A0EF66F00013AECD1
:1020D0000AF0F2CFE2F5F29EAA6A150EA96EA69C4E
:1020E000A69EA680A8500501E2BFF28E0401FA6FF9
:1020F0000A0E0501F66F00013AEC0AF0F2CFE2F5A4
:10210000F29EAA6A160EA96EA69CA69EA680A8504C
:102110000501E2BFF28E0401FB6F0A0E0501F66FA6
:1021200000013AEC0AF0F2CFE2F5F29EAA6A170E2D
:10213000A96EA69CA69EA680A8500501E2BFF28EBD
:102140000401FC6F0A0E0501F66F00013AEC0AF07B
:10215000F2CFE2F5F29EAA6A180EA96EA69CA69E80
:10216000A680A8500501E2BFF28E0401FD6F0A0EA1
:102170000501F66F00013AEC0AF0F2CFE2F5F29EAB
:10218000AA6A190EA96EA69CA69EA680A850050153
:10219000E2BFF28E0401D76F0A0E0501F66F00014F
:1021A0003AEC0AF0F2CFE2F5F29EAA6A1A0EA96E94
:1021B000A69CA69EA680A8500501E2BFF28E06014D
:1021C000186B176F0001D0EC0CF003C041F502C092
:1021D00040F501C03FF500C03EF50A0E0501F66F5F
:1021E00000013AEC0AF041C516F640C515F63FC5A8
:1021F00014F63EC513F606011A6B196B200E186F04
:10220000820E176F0001EBEC0CF003C041F502C029
:1022100040F501C03FF500C03EF50601186BD7C47C
:1022200017F60001D0EC0CF0D89203C01AF602C0E9
:1022300019F601C018F600C017F641C51EF640C5D4
:102240001DF63FC51CF63EC51BF674DC03C039F510
:1022500002C038F501C037F500C036F5F2CFE2F51F
:10226000F29EAA6A1B0EA96EA69CA69EA680A850E6
:102270000501E2BFF28E0401D76F0A0E0501F66F69
:1022800000013AEC0AF0F2CFE2F5F29EAA6A1C0EC7
:10229000A96EA69CA69EA680A8500501E2BFF28E5C
:1022A0000601186B176F0001D0EC0CF003C041F56C
:1022B00002C040F501C03FF500C03EF50A0E050121
:1022C000F66F00013AEC0AF041C516F640C515F666
:1022D0003FC514F63EC513F606011A6B196B200EA6
:1022E000186F820E176F0001EBEC0CF003C041F584
:1022F00002C040F501C03FF500C03EF50601186B75
:10230000D7C417F60001D0EC0CF0D89203C01AF62F
:1023100002C019F601C018F600C017F641C51EF636
:1023200040C51DF63FC51CF63EC51BF603DC03C0C9
:102330003DF502C03CF501C03BF500C03AF5F2CFD7
:10234000E2F5F29EAA6A1E0EA96EA69CA69EA68023
:10235000A8500501E2BFF28EE36FF2CFE4F5F29EE2
:10236000AA6A1D0EA96EA69CA69EA680A850E4BFD0
:10237000F28EE56FE3C503F0E5510601176F03C068
:1023800018F60001D0EC0CF003C0C1F502C0C0F596
:1023900001C0BFF500C0BEF50A0E0501F66F0001D1
:1023A0003AEC0AF0F2CFE2F5F29EAA6A220EA96E8A
:1023B000A69CA69EA680A8500501E2BFF28EE36F00
:1023C000F2CFE4F5F29EAA6A210EA96EA69CA69E03
:1023D000A680A850E4BFF28EE56FE3C5E7F4E5C53B
:1023E000E6F40A0EF66F00013AEC0AF0F2CFE2F5DD
:1023F000F29EAA6A1F0EA96EA69CA69EA680A85051
:102400000501E2BFF28E0401E56BE46F0A0E0501DF
:10241000F66F00013AEC0AF0F2CFE2F5F29EAA6AFA
:10242000200EA96EA69CA69EA680A8500501E2BF1C
:10243000F28ED96F0A0EF66F00013AEC0AF0F2CF75
:10244000E2F5F29EAA6A3D0EA96EA69CA69EA68003
:10245000A8500501E2BFF28EE36FF2CFE4F5F29EE1
:10246000AA6A3C0EA96EA69CA69EA680A850E4BFB0
:10247000F28EE56FE3C503F0E5510601176F03C067
:1024800018F60001D0EC0CF003C01DF502C01CF5DD
:1024900001C01BF500C01AF50A0E0501F66F000118
:1024A0003AEC0AF0F2CFE2F5F29EAA6A3F0EA96E6C
:1024B000A69CA69EA680A8500501E2BFF28EE36FFF
:1024C000F2CFE4F5F29EAA6A3E0EA96EA69CA69EE5
:1024D000A680A850E4BFF28EE56FE3C503F0E55196
:1024E0000601176F03C018F60001D0EC0CF003C012
:1024F000CDF502C0CCF501C0CBF500C0CAF50A0E7F
:102500000501F66F00013AEC0AF0F2CFE2F5F29E17
:10251000AA6A320EA96EA69CA69EA680A8500501A6
:10252000E2BFF28E0401CF6F0A0E0501F66F0001C3
:102530003AEC0AF04FEF33F014C61BF606011851BF
:102540001B1B1BAF05D0D894D89014BFD8802FD0B8
:1025500014C61BF617C61CF613511C5F06E01BAF12
:1025600026D0D850010AD86E22D018C61CF61451B5
:102570001C5F06E01BAF1BD0D850010AD86E17D0E5
:1025800019C61CF615511C5F06E01BAF10D0D850C1
:10259000010AD86E0CD01AC61CF616511C5F06E054
:1025A0001BAF05D0D850010AD86E01D0D8900001D9
:1025B000000C05010ABF03D00A51090803E30ABF52
:1025C00001D016D00A6BAA6AA96AA86AA69CA69E20
:1025D000A684F250006EF29E0F01550EA76EAA0E51
:1025E000A76EA682A6B2FED7A6940050F2120501ED
:1025F0000BBF03D00B51090803E30BBF01D017D069
:102600000B6BAA6A010EA96EA86AA69CA69EA68458
:10261000F250006EF29E0F01550EA76EAA0EA76E25
:10262000A682A6B2FED7A6940050F21205010CBFF6
:1026300003D00C51090803E30CBF01D017D00C6B79
:10264000AA6A020EA96EA86AA69CA69EA684F2504B
:10265000006EF29E0F01550EA76EAA0EA76EA682FF
:10266000A6B2FED7A6940050F21205010DBF03D00A
:102670000D51090803E30DBF01D016D00D6BAA6AF6
:10268000030EA96EA86AA69CA69EA684F250006EB0
:10269000F29E0F01550EA76EAA0EA76EA682A6B2D5
:1026A000FED7A6940050F2120401EEBF03D0EE5103
:1026B000090803E3EEBF01D017D0EE6BAA6A040E3F
:1026C000A96EA86AA69CA69EA684F250006EF29EF1
:1026D0000F01550EA76EAA0EA76EA682A6B2FED750
:1026E000A6940050F2120401EFBF03D0EF51090885
:1026F00003E3EFBF01D017D0EF6BAA6A050EA96EF6
:10270000A86AA69CA69EA684F250006EF29E0F01B7
:10271000550EA76EAA0EA76EA682A6B2FED7A694E5
:102720000050F2120401F0BF03D0F051090803E396
:10273000F0BF01D019D0020EF06FAA6A060EA96E82
:10274000020EA86EA69CA69EA684F250006EF29E73
:102750000F01550EA76EAA0EA76EA682A6B2FED7CF
:10276000A6940050F2120401F1BF03D0F151090800
:1027700003E3F1BF01D017D0F16BAA6A070EA96E6F
:10278000A86AA69CA69EA684F250006EF29E0F0137
:10279000550EA76EAA0EA76EA682A6B2FED7A69465
:1027A0000050F2120401F2BF03D0F251090803E312
:1027B000F2BF01D017D0F26BAA6A080EA96EA86A00
:1027C000A69CA69EA684F250006EF29E0F01550EA6
:1027D000A76EAA0EA76EA682A6B2FED7A694005038
:1027E000F2120401F3BF03D0F351090803E3F3BF6E
:1027F00001D017D0F36BAA6A090EA96EA86AA69C2D
:10280000A69EA684F250006EF29E0F01550EA76E92
:10281000AA0EA76EA682A6B2FED7A6940050F21208
:102820000401F4BF03D0F451090803E3F4BF01D05D
:1028300019D0020EF46FAA6A0A0EA96E020EA86ED3
:10284000A69CA69EA684F250006EF29E0F01550E25
:10285000A76EAA0EA76EA682A6B2FED7A6940050B7
:10286000F2120401F5BF03D0F551090803E3F5BFE7
:1028700001D017D0F56BAA6A0B0EA96EA86AA69CA8
:10288000A69EA684F250006EF29E0F01550EA76E12
:10289000AA0EA76EA682A6B2FED7A6940050F21288
:1028A0000401F6BF03D0F651090803E3F6BF01D0D7
:1028B00017D0F66BAA6A0C0EA96EA86AA69CA69EF3
:1028C000A684F250006EF29E0F01550EA76EAA0E5E
:1028D000A76EA682A6B2FED7A6940050F2120401FB
:1028E000F7BF03D0F751090803E3F7BF01D017D0B2
:1028F000F76BAA6A0D0EA96EA86AA69CA69EA6846E
:10290000F250006EF29E0F01550EA76EAA0EA76E32
:10291000A682A6B2FED7A6940050F2120401F8BF18
:1029200003D0F851090803E3F8BF01D017D0F86BC2
:10293000AA6A0E0EA96EA86AA69CA69EA684F2504C
:10294000006EF29E0F01550EA76EAA0EA76EA6820C
:10295000A6B2FED7A6940050F2120401F9BF03D02C
:10296000F951090803E3F9BF01D016D0F96BAA6A3F
:102970000F0EA96EA86AA69CA69EA684F250006EB1
:10298000F29E0F01550EA76EAA0EA76EA682A6B2E2
:10299000FED7A6940050F212050102BF03D00251E7
:1029A000090803E302BF01D017D0026BAA6A100E18
:1029B000A96EA86AA69CA69EA684F250006EF29EFE
:1029C0000F01550EA76EAA0EA76EA682A6B2FED75D
:1029D000A6940050F212050103BF03D00351090869
:1029E00003E303BF01D017D0036BAA6A110EA96ECF
:1029F000A86AA69CA69EA684F250006EF29E0F01C5
:102A0000550EA76EAA0EA76EA682A6B2FED7A694F2
:102A10000050F212050104BF03D00451090803E37A
:102A200004BF01D017D0046BAA6A120EA96EA86A5F
:102A3000A69CA69EA684F250006EF29E0F01550E33
:102A4000A76EAA0EA76EA682A6B2FED7A6940050C5
:102A5000F212050105BF03D00551090803E305BFC4
:102A600001D016D0056BAA6A130EA96EA86AA69C9F
:102A7000A69EA684F250006EF29E0F01550EA76E20
:102A8000AA0EA76EA682A6B2FED7A6940050F21296
:102A90000401FABF03D0FA51090803E3FABF01D0D9
:102AA00017D0FA6BAA6A150EA96EA86AA69CA69EF4
:102AB000A684F250006EF29E0F01550EA76EAA0E6C
:102AC000A76EA682A6B2FED7A6940050F212040109
:102AD000FBBF03D0FB51090803E3FBBF01D017D0B4
:102AE000FB6BAA6A160EA96EA86AA69CA69EA6846F
:102AF000F250006EF29E0F01550EA76EAA0EA76E41
:102B0000A682A6B2FED7A6940050F2120401FCBF22
:102B100003D0FC51090803E3FCBF01D017D0FC6BC4
:102B2000AA6A170EA96EA86AA69CA69EA684F25051
:102B3000006EF29E0F01550EA76EAA0EA76EA6821A
:102B4000A6B2FED7A6940050F2120401FDBF03D036
:102B5000FD51090803E3FDBF01D018D0010EFD6F40
:102B6000AA6A180EA96E010EA86EA69CA69EA6843F
:102B7000F250006EF29E0F01550EA76EAA0EA76EC0
:102B8000A682A6B2FED7A6940050F2120601166BDA
:102B9000156B146B800E136F39C51AF638C519F60C
:102BA00037C518F636C517F60001C6DC32E3050155
:102BB000396B386B400E376F7F0E366FAA6A190E6D
:102BC000A96E010EA86EA69CA69EA684F250006E69
:102BD000F29E0F01550EA76EAA0EA76EA682A6B290
:102BE000FED7A6940050F212AA6A1A0EA96E050E1C
:102BF000A86EA69CA69EA684F250006EF29E550E6C
:102C0000A76EAA0EA76EA682A6B2FED7A694005003
:102C1000F2120601166B156B146B800E136F3DC517
:102C20001AF63CC519F63BC518F63AC517F6000169
:102C300083DC30E305013D6B3C6B3B6B7F0E3A6FF1
:102C4000AA6A1B0EA96E010EA86EA69CA69EA6845B
:102C5000F250006EF29E0F01550EA76EAA0EA76EDF
:102C6000A682A6B2FED7A6940050F212AA6A1C0E43
:102C7000A96EA86AA69CA69EA684F250006EF29E3B
:102C8000550EA76EAA0EA76EA682A6B2FED7A69470
:102C90000050F2120601166B156B160E146F870E9C
:102CA000136FC1C51AF6C0C519F6BFC518F6BEC563
:102CB00017F6000141DC31E30501C16BC06B4B0E1F
:102CC000BF6F860EBE6FAA6A1D0EA96ECB0EA86ED0
:102CD000A69CA69EA684F250006EF29E0F01550E91
:102CE000A76EAA0EA76EA682A6B2FED7A694005023
:102CF000F212AA6A1E0EA96EA86AA69CA69EA684B7
:102D0000F250006EF29E550EA76EAA0EA76EA68216
:102D1000A6B2FED7A6940050F2120401E55303E1D7
:102D2000E4513C0817E2E56BE46BAA6A1F0EA96E3A
:102D3000A86AA69CA69EA684F250006EF29E0F0181
:102D4000550EA76EAA0EA76EA682A6B2FED7A694AF
:102D50000050F2120501D951060818E2020ED96F8F
:102D6000AA6A200EA96E020EA86EA69CA69EA68434
:102D7000F250006EF29E0F01550EA76EAA0EA76EBE
:102D8000A682A6B2FED7A6940050F2120401E75123
:102D90000D0830E2FF0A03E1E65110082BE2E76B71
:102DA000E66BAA6A210EA96EA86AA69CA69EA684B6
:102DB000F250006EF29E0F01550EA76EAA0EA76E7E
:102DC000A682A6B2FED7A6940050F212AA6A220EDC
:102DD000A96EA86AA69CA69EA684F250006EF29EDA
:102DE000550EA76EAA0EA76EA682A6B2FED7A6940F
:102DF0000050F2120601166B156B480E146F860E0A
:102E0000136F1DC51AF61CC519F61BC518F61AC591
:102E100017F600019CEC12F02EE305011D6B1C6BF4
:102E20001B6B1A6BAA6A3C0EA96EA86AA69CA69E8A
:102E3000A684F250006EF29E0F01550EA76EAA0EE8
:102E4000A76EA682A6B2FED7A6940050F212AA6A76
:102E50003D0EA96EA86AA69CA69EA684F250006E9E
:102E6000F29E550EA76EAA0EA76EA682A6B2FED738
:102E7000A6940050F212CDC516F6CCC515F6CBC5FA
:102E800014F6CAC513F606011A6B196B340E186FC7
:102E9000860E176F00019CEC12F013E20601166B10
:102EA000156B2F0E146F870E136FCDC51AF6CCC598
:102EB00019F6CBC518F6CAC517F600019CEC12F03E
:102EC00031E30501CD6BCC6B700ECB6F860ECA6FF4
:102ED000AA6A3E0EA96EF00EA86EA69CA69EA684B7
:102EE000F250006EF29E0F01550EA76EAA0EA76E4D
:102EF000A682A6B2FED7A6940050F212AA6A3F0E8E
:102F0000A96EA86AA69CA69EA684F250006EF29EA8
:102F1000550EA76EAA0EA76EA682A6B2FED7A694DD
:102F20000050F2120401CF51140819E20A0ECF6FBB
:102F3000AA6A320EA96E0A0EA86EA69CA69EA68448
:102F4000F250006EF29E0F01550EA76EAA0EA76EEC
:102F5000A682A6B2FED7A6940050F2120401000188
:102F600051EF33F00501F335006E0036FC0E00160C
:102F700000C001F0C250C30B0010C26E010EF66F0C
:102F800000013AEC0AF0C282C2B2FED7C4CFF5F516
:102F90000501C3CFF4F5F4C501F0F5C502F0000159
:102FA000000C8E0E006E06011351005E14C602F076
:102FB00015C601F0028E005209E0D890025202E1DB
:102FC000015204E002320132002EF7D714AF05D0CF
:102FD000011E021E012AD8B4022A0001000C0601BB
:102FE0001351D8B471D0006E1751D8B46DD00026EB
:102FF00004E3810E002668E204D07F0E005E64E3E5
:1030000063E014C61BF618511B1B148F188F165142
:103010001A03F4CF1DF615511903F4CF03F0F3CFC3
:103020001CF61A03F3501D27F4501C23000E032234
:1030300016511903F3501D27F4501C23000E026A89
:103040000322022214511A03F3501C27F4500322C6
:10305000000E022214511903F3500326F4500222E9
:10306000000E016A012216511803F3501C27F45078
:103070000322000E0222012215511803F3500326E9
:10308000F4500222000E012214511803F3500226BC
:10309000F4500122002A01BE05D01C370336023647
:1030A00001360006000E1CAF0AD0032A02220122BC
:1030B000015005E1025003E1035001E1002A1BBF6A
:1030C000018E1BAF019E04D0006A016A026A036A86
:1030D0000001000C0601129106C60BF605C60AF6A1
:1030E00004C609F603C608F606C616F605C615F6A2
:1030F00004C614F603C613F61A6B196B186B176B1C
:1031000000019CEC12F005E3060112810951800ACE
:10311000096F0BC616F60AC615F609C614F608C6D8
:1031200013F606011A6B196B186B8E0E176F0001E0
:103130009CEC12F001E218E10BC616F60AC615F671
:1031400009C614F608C613F62CDF02C018F601C033
:1031500017F6D0EC0CF003C00FF602C00EF601C05B
:103160000DF600C00CF6CFD00BC616F60AC615F643
:1031700009C614F608C613F6800E06011A6F960EDD
:10318000196F180E186F960E176F00019CEC12F055
:10319000D8A0B1D00BC616F60AC615F609C614F6A5
:1031A00008C613F606011A6B196B186B8E0E176F93
:1031B0000001EBEC0CF003C016F602C015F601C0DE
:1031C00014F600C013F6EDDE02C011F601C010F6D1
:1031D0000BC616F60AC615F609C614F608C613F687
:1031E00006011A6B196B186B8E0E176F0001EBEC52
:1031F0000CF000C013F601C014F602C015F603C0AF
:1032000016F611C618F610C617F6D0EC0CF0D882D8
:1032100016C61AF615C619F614C618F613C617F60A
:1032200003C01EF602C01DF601C01CF600C01BF64E
:103230009AEC0DF00601166B156B146B8E0E136F66
:1032400003C01AF602C019F601C018F600C017F63E
:103250000001C5DE03C00BF602C00AF601C009F684
:1032600000C008F611C618F610C617F6D0EC0CF020
:103270000601166B156B146B8E0E136F03C01AF6D6
:1032800002C019F601C018F600C017F60001A7DE4B
:1032900003C00FF602C00EF601C00DF600C00CF61A
:1032A0000BC616F60AC615F609C614F608C613F6B6
:1032B00078DE02C018F601C017F6D0EC0CF0D892F8
:1032C0000FC61AF60EC619F60DC618F60CC617F676
:1032D00003C01EF602C01DF601C01CF600C01BF69E
:1032E0009AEC0DF003C00FF602C00EF601C00DF609
:1032F00000C00CF608D00BC60FF60AC60EF609C6BB
:103300000DF608C60CF60BC616F60AC615F609C663
:1033100014F608C613F645DE02C018F601C017F60B
:10332000D0EC0CF0D8820BC61AF60AC619F609C6FC
:1033300018F608C617F603C01EF602C01DF601C037
:103340001CF600C01BF69AEC0DF003C00BF602C091
:103350000AF601C009F600C008F6060112A103D062
:103360000D51800A0D6F0BC616F60AC615F609C672
:1033700014F608C613F61A6B196B186B176B00015D
:103380009CEC12F03CE0060112A11CD007531AE19C
:10339000D8820FC61AF60EC619F60DC618F60CC658
:1033A00017F61E6B1D6B1C6B7F0E1B6F00019AECDA
:1033B0000DF003C00FF602C00EF601C00DF600C0FE
:1033C0000CF6060112B11CD0072D1AD0D8920FC6E8
:1033D0001AF60EC619F60DC618F60CC617F61E6BB1
:1033E0001D6B1C6B7F0E1B6F00019AEC0DF003C070
:1033F0000FF602C00EF601C00DF600C00CF6060175
:1034000006C616F605C615F604C614F603C613F668
:103410001A6B196B186B176B00019CEC12F006E12C
:1034200006010F6B0E6B0D6B0C6B00010CC600F0F0
:103430000DC601F00EC602F00FC603F0000C02C666
:1034400006F601C605F600C604F6FFC503F6010E32
:103450000601076F00013EDE9CEF1AF002C606F679
:1034600001C605F600C604F6FFC503F60601076BA4
:10347000000130DEC0EF1AF0F6C516F6F5C515F6F8
:10348000F4C514F6F3C513F606011A6B196B186B25
:10349000176B00019CEC12F0D8B4A0D0F2C516F660
:1034A000F1C515F6F0C514F6EFC513F6F6C51AF614
:1034B000F5C519F6F4C518F6F3C517F6EBEC0CF0E4
:1034C00000C0FBF501C0FCF502C0FDF503C0FEF530
:1034D00003C016F602C015F601C014F600C013F6BC
:1034E00006011A6B196B186B176B00019CEC12F03C
:1034F00024E3F2C516F6F1C515F6F0C514F6EFC5CE
:1035000013F6F6C51AF6F5C519F6F4C518F6F3C59F
:1035100017F6EBEC0CF000C0FBF501C0FCF502C0A7
:10352000FDF503C0FEF503C002F602C001F601C0BE
:1035300000F600C0FFF583D723D0F2C516F6F1C51B
:1035400015F6F0C514F6EFC513F6F6C51AF6F5C56F
:1035500019F6F4C518F6F3C517F6EBEC0CF000C03D
:10356000FBF501C0FCF502C0FDF503C0FEF503C08C
:1035700002F602C001F601C000F600C0FFF56ED7EA
:1035800003C0FAF502C0F9F501C0F8F500C0F7F57F
:10359000FAC516F6F9C515F6F8C514F6F7C513F60B
:1035A000F6C51AF6F5C519F6F4C518F6F3C517F6FB
:1035B00016DDD882F2C51AF6F1C519F6F0C518F66F
:1035C000EFC517F603C01EF602C01DF601C01CF6BB
:1035D00000C01BF69AEC0DF001D000D0000C8E0E4E
:1035E000006E0AC601F009C602F0036A01AE05D0FA
:1035F000011E021E022A01E1012A015209E102C054
:1036000001F0026A080E005E015202E1006A0DD06C
:10361000D89001BE04D0023601360006F9D7060163
:103620000AAF02D0000101D0019E0001000CF6C5D6
:10363000FAF5F5C5F9F5F4C5F8F5F3C5F7F5FAC5EA
:1036400016F6F9C515F6F8C514F6F7C513F6060112
:103650001A6B196B186B7F0E176F00019CEC12F040
:10366000D8B443D2050E0601096FF70EE96E09C6FC
:10367000EAFF7E0EEF6ED882FAC51AF6F9C519F682
:10368000F8C518F6F7C517F61E6B1D6B1C6B7F0E81
:103690001B6F00019AEC0DF000C008F601C009F69E
:1036A00002C00AF603C00BF6D892FAC51AF6F9C59D
:1036B00019F6F8C518F6F7C517F606011E6B1D6B4F
:1036C0001C6B7F0E1B6F00019AEC0DF00BC616F6FB
:1036D0000AC615F609C614F608C613F603C01AF68C
:1036E00002C019F601C018F600C017F6EBEC0CF09A
:1036F00003C0FAF502C0F9F501C0F8F500C0F7F50E
:10370000FAC516F6F9C515F6F8C514F6F7C513F699
:10371000FAC51AF6F9C519F6F8C518F6F7C517F679
:103720005EDC03C006F602C005F601C004F600C068
:1037300003F6BC0E0601166F240E156F670E146F8C
:103740007D0E136F06C61AF605C619F604C618F6DE
:1037500003C617F6000143DC00C008F601C009F6F5
:1037600002C00AF603C00BF6D89203C01AF602C0D4
:1037700019F601C018F600C017F6E30E06011E6F19
:10378000E40E1D6F900E1C6F820E1B6F00019AECF1
:103790000DF003C0FEF502C0FDF501C0FCF500C050
:1037A000FBF5FEC516F6FDC515F6FCC514F6FBC502
:1037B00013F606C61AF605C619F604C618F603C6A9
:1037C00017F60DDC00C008F601C009F602C00AF6C3
:1037D00003C00BF6D89203C01AF602C019F601C056
:1037E00018F600C017F61C0E06011E6F870E1D6F1F
:1037F000570E1C6F830E1B6F00019AEC0DF003C077
:10380000FEF502C0FDF501C0FCF500C0FBF5FEC5EC
:1038100016F6FDC515F6FCC514F6FBC513F606C66F
:103820001AF605C619F604C618F603C617F6EFEC25
:1038300017F000C008F601C009F602C00AF603C07E
:103840000BF6D89203C01AF602C019F601C018F69A
:1038500000C017F6AB0E06011E6FE10E1D6F9E0E27
:103860001C6F830E1B6F00019AEC0DF003C0FEF578
:1038700002C0FDF501C0FCF500C0FBF50601166BAA
:10388000156B146B7F0E136F06C61AF605C619F674
:1038900004C618F603C617F60001EFEC17F000C0D7
:1038A00008F601C009F602C00AF603C00BF6D8926A
:1038B00003C01AF602C019F601C018F600C017F6C8
:1038C000B40E06011E6F2A0E1D6F820E1C6F1B6F39
:1038D00000019AEC0DF003C002F602C001F601C02F
:1038E00000F600C0FFF502C616F601C615F600C6C2
:1038F00014F6FFC513F606C61AF605C619F604C671
:1039000018F603C617F6EFEC17F000C008F601C072
:1039100009F602C00AF603C00BF6D89203C01AF6E5
:1039200002C019F601C018F600C017F6800E060195
:103930001E6F3E0E1D6F060E1C6F830E1B6F000167
:103940009AEC0DF003C002F602C001F601C000F6C9
:1039500000C0FFF502C616F601C615F600C614F63D
:10396000FFC513F606C61AF605C619F604C618F6FC
:1039700003C617F6EFEC17F000C008F601C009F611
:1039800002C00AF603C00BF6D89203C01AF602C0B2
:1039900019F601C018F600C017F6AB0E06011E6F2F
:1039A000E10E1D6F9E0E1C6F820E1B6F00019AECC4
:1039B0000DF003C002F602C001F601C000F600C01F
:1039C000FFF5FAC516F6F9C515F6F8C514F6F7C5EC
:1039D00013F6FEC51AF6FDC519F6FCC518F6FBC5AB
:1039E00017F6EFEC17F000C008F601C009F602C0A8
:1039F0000AF603C00BF603C016F602C015F601C0A6
:103A000014F600C013F602C61AF601C619F600C66F
:103A100018F6FFC517F6EBEC0CF003C0FEF502C07C
:103A2000FDF501C0FCF500C0FBF5050E0601096FB0
:103A3000F30EE96E09C6EAFF7E0EEF5C076F07BF63
:103A400001D014D0000ED88007550A6B096F09BF4A
:103A50000A070001C4DD00C0FFF50150800A06011D
:103A6000006F02C001F603C002F610D00A6B07C651
:103A700009F609BF0A070001B2DD03C002F602C061
:103A800001F601C000F600C0FFF5060102C616F6F9
:103A900001C615F600C614F6FFC513F6180E1A6F08
:103AA000720E196F310E186F7E0E176F0001EFEC5A
:103AB00017F0D892FEC51AF6FDC519F6FCC518F622
:103AC000FBC517F603C01EF602C01DF601C01CF6AA
:103AD00000C01BF69AEC0DF003C0FEF502C0FDF528
:103AE00001C0FCF500C0FBF506D00501FE6BFD6BC7
:103AF000FC6BFB6B0001FBC500F0FCC501F0FDC5D4
:103B000002F0FEC503F0000CF6C516F6F5C515F675
:103B1000F4C514F6F3C513F6180E06011A6F720EEB
:103B2000196F310E186F7E0E176F0001EBEC0CF061
:103B300003C016F602C015F601C014F600C013F655
:103B4000D1EC17F001C003F606010491F6C5FAF5B1
:103B5000F5C5F9F5F4C5F8F5F3C5F7F5F6C516F6AC
:103B6000F5C515F6F4C514F6F3C513F61A6B196B03
:103B7000186B176B00019CEC12F007E3060104813F
:103B8000036D0501F851800AF86F0501FE6BFD6BAE
:103B9000FC6BFB6B050E0601066FFB0EE96E06C69D
:103BA000EAFF7F0E0325EF6EFAC516F6F9C515F686
:103BB000F8C514F6F7C513F6180E1A6F720E196FC2
:103BC000310E186F7E0E176F0001EBEC0CF000C089
:103BD00005F601C006F602C007F603C008F60601A6
:103BE0000A6B03C609F609BF0A070001F8DCD88290
:103BF00008C61AF607C619F606C618F605C617F659
:103C000003C01EF602C01DF601C01CF600C01BF664
:103C10009AEC0DF003C0FAF502C0F9F501C0F8F511
:103C200000C0F7F57C0E0601166F880E156F590E51
:103C3000146F720E136FFAC51AF6F9C519F6F8C5A6
:103C400018F6F7C517F60001EFEC17F000C005F6FF
:103C500001C006F602C007F603C008F6D89203C0FA
:103C60001AF602C019F601C018F600C017F6E00EE9
:103C700006011E6F970E1D6F260E1C6F750E1B6FB3
:103C800000019AEC0DF003C002F602C001F601C07B
:103C900000F600C0FFF502C616F601C615F600C60E
:103CA00014F6FFC513F6FAC51AF6F9C519F6F8C5E4
:103CB00018F6F7C517F6EFEC17F000C005F601C0CF
:103CC00006F602C007F603C008F6D89203C01AF63B
:103CD00002C019F601C018F600C017F6C40E06019E
:103CE0001E6F1D0E1D6F1E0E1C6F780E1B6F0001C8
:103CF0009AEC0DF003C002F602C001F601C000F616
:103D000000C0FFF502C616F601C615F600C614F689
:103D1000FFC513F6FAC51AF6F9C519F6F8C518F66F
:103D2000F7C517F6EFEC17F000C005F601C006F670
:103D300002C007F603C008F6D89203C01AF602C004
:103D400019F601C018F600C017F65E0E06011E6FC8
:103D5000500E1D6F630E1C6F7A0E1B6F00019AECE4
:103D60000DF003C002F602C001F601C000F600C06B
:103D7000FFF502C616F601C615F600C614F6FFC515
:103D800013F6FAC51AF6F9C519F6F8C518F6F7C507
:103D900017F6EFEC17F000C005F601C006F602C0FA
:103DA00007F603C008F6D89203C01AF602C019F647
:103DB00001C018F600C017F61A0E06011E6FFE0E9F
:103DC0001D6F750E1C6F7C0E1B6F00019AEC0DF0C1
:103DD00003C002F602C001F601C000F600C0FFF504
:103DE00002C616F601C615F600C614F6FFC513F690
:103DF000FAC51AF6F9C519F6F8C518F6F7C517F693
:103E0000EFEC17F000C005F601C006F602C007F699
:103E100003C008F6D89203C01AF602C019F601C012
:103E200018F600C017F6180E06011E6F720E1D6FF1
:103E3000310E1C6F7E0E1B6F00019AEC0DF003C05B
:103E400002F602C001F601C000F600C0FFF5FAC597
:103E500016F6F9C515F6F8C514F6F7C513F602C639
:103E60001AF601C619F600C618F6FFC517F6EFECEC
:103E700017F0D89206011A6B196B186B7F0E176F2B
:103E800003C01EF602C01DF601C01CF600C01BF6E2
:103E900000019AEC0DF0FEC516F6FDC515F6FCC541
:103EA00014F6FBC513F603C01AF602C019F601C0DA
:103EB00018F600C017F6EFEC17F003C0FEF502C0CD
:103EC000FDF501C0FCF500C0FBF5060104A119D009
:103ED000166B156B146B7F0E136FFEC51AF6FDC5BE
:103EE00019F6FCC518F6FBC517F60001EBEC0CF053
:103EF00003C0FEF502C0FDF501C0FCF500C0FBF5F6
:103F00000601FBC500F0FCC501F0FDC502F0FEC5D1
:103F100003F00001000CEAC516F6E9C515F6E8C580
:103F200014F6E7C513F606011A6B196B186B176BBD
:103F300000019CEC12F0D8A0D9D0EEC5F2F5EDC589
:103F4000F1F5ECC5F0F5EBC5EFF50501F66BF56B9A
:103F5000F46B7F0EF36F00013CEC1AF000C0EFF53C
:103F600001C0F0F502C0F1F503C0F2F503C016F68A
:103F700002C015F601C014F600C013F606011A6B54
:103F8000196B186B176B00019CEC12F0D8A4AED023
:103F9000EEC5F2F5EDC5F1F5ECC5F0F5EBC5EFF5C5
:103FA0000501F66BF56BF46B800EF36F00013CECD2
:103FB0001AF000C0EFF501C0F0F502C0F1F503C042
:103FC000F2F503C016F602C015F601C014F600C0E3
:103FD00013F606011A6B196B186B176B00019CEC3A
:103FE00012F041E1E7C5EFF50501E851800AF06FF5
:103FF000E9C5F1F5EAC5F2F5EAC5F6F5E9C5F5F565
:10400000F46FE7C5F3F5000117EC1BF000C0EFF506
:1040100001C0F0F502C0F1F503C0F2F503C016F6D9
:1040200002C015F601C014F600C013F6EEC51AF66C
:10403000EDC519F6ECC518F6EBC517F6EFEC17F061
:1040400000C0EFF501C0F0F502C0F1F503C0F2F5D4
:1040500003C0F6F502C0F5F501C0F4F500C0F3F5B4
:1040600053DDDED042D0E7C5EFF50501E851800A07
:10407000F06FE9C5F1F5EAC5F2F5EAC5F6F5E9C56F
:10408000F5F5F46FE7C5F3F5000117EC1BF000C080
:10409000EFF501C0F0F502C0F1F503C0F2F503C081
:1040A00016F602C015F601C014F600C013F6EEC5F0
:1040B0001AF6EDC519F6ECC518F6EBC517F6EFECD8
:1040C00017F000C0EFF501C0F0F502C0F1F503C034
:1040D000F2F503C0F6F502C0F5F501C0F4F500C035
:1040E000F3F512DD800E011A9BD09AD0EAC516F6C0
:1040F000E9C515F6E8C514F6E7C513F606011A6B0F
:10410000196B186B176B00019CEC12F030E3EEC5D5
:10411000F2F5EDC5F1F5ECC5F0F5EBC5EFF50501F0
:10412000F66BF56BF46B7F0EF36F00013CEC1AF04D
:1041300000C0EFF501C0F0F502C0F1F503C0F2F5E3
:1041400003C016F602C015F601C014F600C013F63F
:1041500006011A6B196B186B176B00019CEC12F0BF
:1041600006E0006A016A026A036A5AD059D0EAC5B9
:1041700016F6E9C515F6E8C514F6E7C513F6060107
:104180001A6B196B186B176B00019CEC12F012E1A3
:10419000EEC516F6EDC515F6ECC514F6EBC513F62F
:1041A00006011A6B196B186B176B00019CEC12F06F
:1041B00001E236E1EAC5F6F5E9C5F5F5E8C5F4F53D
:1041C000E7C5F3F517EC1BF000C0EFF501C0F0F503
:1041D00002C0F1F503C0F2F503C016F602C015F6F1
:1041E00001C014F600C013F6EEC51AF6EDC519F6B7
:1041F000ECC518F6EBC517F6EFEC17F000C0EFF5BD
:1042000001C0F0F502C0F1F503C0F2F503C0F6F508
:1042100002C0F5F501C0F4F500C0F3F575DC00D07F
:10422000000C010E0501F36F0001B2EC17F002C0A3
:10423000DBF401C0DAF40401CF510A0823E1DBC446
:1042400018F6DAC417F60001D0EC0CF0D89203C0CF
:104250001AF602C019F601C018F600C017F61DC5FF
:104260001EF61CC51DF61BC51CF61AC51BF69AECDE
:104270000DF003C02DF502C02CF501C02BF500C0D8
:104280002AF50401CF51140822E1DBC418F6DAC480
:1042900017F60001D0EC0CF0D88203C01AF602C069
:1042A00019F601C018F600C017F61DC51EF61CC58C
:1042B0001DF61BC51CF61AC51BF69AEC0DF003C0C3
:1042C0002DF502C02CF501C02BF500C02AF52DC537
:1042D000EAF52CC5E9F52BC5E8F52AC5E7F5050192
:1042E000EE6BED6B400EEC6F800EEB6F000113DE9A
:1042F00000C0E3F501C0E4F502C0E5F503C0E6F552
:1043000003C016F602C015F601C014F600C013F67D
:1043100049C51AF648C519F647C518F646C517F631
:10432000EFEC17F000C0E3F501C0E4F502C0E5F5DD
:1043300003C0E6F52DC5EAF52CC5E9F52BC5E8F572
:104340002AC5E7F50501EE6BED6BEC6B800EEB6FAC
:104350000001E1DD00C0E7F501C0E8F502C0E9F5C4
:1043600003C0EAF503C016F602C015F601C014F644
:1043700000C013F64DC51AF64CC519F64BC518F614
:104380004AC517F6EFEC17F0EACFE8F5E9CFE7F505
:10439000D892E6C51AF6E5C519F6E4C518F6E3C5E0
:1043A00017F603C01EF602C01DF601C01CF600C0C1
:1043B0001BF69AEC0DF0E8C5EAFFE7C5E9FF00C07F
:1043C000E3F501C0E4F502C0E5F503C0E6F52DC54F
:1043D00016F62CC515F62BC514F62AC513F651C5CD
:1043E0001AF650C519F64FC518F64EC517F6EFEC7C
:1043F00017F0EACFEAF5E9CFE9F5D892E6C51AF663
:10440000E5C519F6E4C518F6E3C517F603C01EF6B0
:1044100002C01DF601C01CF600C01BF69AEC0DF0A0
:10442000EAC5EAFFE9C5E9FF00C0E3F501C0E4F52C
:1044300002C0E5F503C0E6F5EACFECF5E9CFEBF510
:10444000D89203C01AF602C019F601C018F600C0CF
:1044500017F655C51EF654C51DF653C51CF652C5B4
:104460001BF69AEC0DF0ECC5EAFFEBC5E9FF03C0C3
:1044700029F502C028F501C027F500C026F529C599
:1044800016F628C515F627C514F626C513F6060137
:104490001A6B196B186B176B00019CEC12F005E39B
:1044A0000501296B286B276B266B0501E25104017E
:1044B000D55D01E3D56BD551040DF350036A560F5A
:1044C000E96E050E0320EA6E26C5EFFF27C5ECFF57
:1044D00028C5ECFF29C5ECFFD52B0501B96BB86BDE
:1044E000B76BB66B0401D66B010E0501E25D0401EA
:1044F000D65D01E038E2D651040DF350036A560F41
:10450000E96E050E0320EA6EEFCF00F0ECCF01F06C
:10451000ECCF02F0ECCF03F0EACFE4F5E9CFE3F51E
:10452000D892B9C51AF6B8C519F6B7C518F6B6C502
:1045300017F603C01EF602C01DF601C01CF600C02F
:104540001BF600019AEC0DF0E4C5EAFFE3C5E9FFB4
:1045500003C0B9F502C0B8F501C0B7F500C0B6F5A3
:104560000401D62BC1D70601186BE2C517F600016E
:10457000D0EC0CF0B9C516F6B8C515F6B7C514F6EB
:10458000B6C513F603C01AF602C019F601C018F634
:1045900000C017F6EBEC0CF000C0E3F501C0E4F549
:1045A00002C0E5F503C0E6F503C016F602C015F635
:1045B00001C014F600C013F639C51AF638C519F64D
:1045C00037C518F636C517F6EFEC17F003C0B9F586
:1045D00002C0B8F501C0B7F500C0B6F5B6C500F029
:1045E000B7C501F0B8C502F0B9C503F05DEF33F00F
:1045F0000501E66BE56BE46BE36BEA6BE96BE86B7B
:10460000E76BEE6BED6BEC6BEB6BF26BF16BF06BE6
:10461000EF6BF36B0001B2EC17F002C018F601C0AB
:1046200017F6D0EC0CF003C0E6F502C0E5F501C0CA
:10463000E4F500C0E3F50601166B156B200E146F50
:10464000810E136FE6C51AF6E5C519F6E4C518F62E
:10465000E3C517F60001EFEC17F000C0F3F501C059
:10466000F4F502C0F5F503C0F6F503C016F602C076
:1046700015F601C014F600C013F606011A6BC00E41
:10468000196F7F0E186F880E176F0001EBEC0CF09E
:1046900003C0EAF502C0E9F501C0E8F500C0E7F59E
:1046A000EAC516F6E9C515F6E8C514F6E7C513F62A
:1046B0000A0E06011A6FD70E196F230E186F780EA7
:1046C000176F0001EBEC0CF003C0EEF502C0EDF546
:1046D00001C0ECF500C0EBF50501D351E25D01E24C
:1046E000D36BD351040DF350036A760FE96E050EB8
:1046F0000320EA6EEBC5EFFFECC5ECFFEDC5ECFF68
:10470000EEC5ECFFD32BF26BF16BF06BEF6BD46B60
:10471000010EE25DD45D01E038E2D451040DF350A6
:10472000036A760FE96E050E0320EA6EEFCF00F004
:10473000ECCF01F0ECCF02F0ECCF03F0EACFF4F5D0
:10474000E9CFF3F5D892F2C51AF6F1C519F6F0C51E
:1047500018F6EFC517F603C01EF602C01DF601C01D
:104760001CF600C01BF600019AEC0DF0F4C5EAFF40
:10477000F3C5E9FF03C0F2F502C0F1F501C0F0F5A1
:1047800000C0EFF50501D42BC3D70601186BE2C5B5
:1047900017F60001D0EC0CF0F2C516F6F1C515F6CF
:1047A000F0C514F6EFC513F603C01AF602C019F6E9
:1047B00001C018F600C017F6EBEC0CF06BEF33F00D
:1047C0000501E66BE56BE46BE36BEA6BE96BE86BA9
:1047D000E76BEE6BED6BEC6BEB6BF26BF16BF06B15
:1047E000EF6B020EF36F0001B2EC17F002C0DDF4C4
:1047F00001C0DCF4DDC418F6DCC417F6D0EC0CF014
:1048000003C0C5F502C0C4F501C0C3F500C0C2F5C0
:10481000C5C516F6C4C515F6C3C514F6C2C513F64C
:10482000CDC51AF6CCC519F6CBC518F6CAC517F60C
:10483000EBEC0CF000C0F3F501C0F4F502C0F5F5A7
:1048400003C0F6F5D88203C01AF602C019F601C0FB
:1048500018F600C017F606011E6B1D6B1C6B7F0E51
:104860001B6F00019AEC0DF003C0C9F502C0C8F53A
:1048700001C0C7F500C0C6F5C9C516F6C8C515F60E
:10488000C7C514F6C6C513F606011A6B196B186B6B
:10489000176B00019CEC12F005E30501C96BC86BB6
:1048A000C76BC66B010E0501E25D0401D45D02E039
:1048B00001E3D46BD451040DF350036A960FE96EF3
:1048C000050E0320EA6EC9C516F6C8C515F6C7C59C
:1048D00014F6C6C513F6D70E06011A6FA30E196F8C
:1048E000186B810E176F0001EFEC17F000C0EFFF9F
:1048F00001C0ECFF02C0ECFF03C0ECFF0401D42BAD
:10490000D36B010E0501E25D0401D35D01E038E2E5
:10491000D351040DF350036A960FE96E050E032080
:10492000EA6EEFCF00F0ECCF01F0ECCF02F0ECCF6D
:1049300003F0EACFF4F5E9CFF3F5D892E6C51AF61D
:10494000E5C519F6E4C518F6E3C517F603C01EF66B
:1049500002C01DF601C01CF600C01BF600019AEC57
:104960000DF0F4C5EAFFF3C5E9FF03C0E6F502C0A8
:10497000E5F501C0E4F500C0E3F50401D32BC1D790
:104980000601186BE2C517F60001D0EC0CF0E6C585
:1049900016F6E5C515F6E4C514F6E3C513F603C02F
:1049A0001AF602C019F601C018F600C017F6EBECB3
:1049B0000CF003C0E6F502C0E5F501C0E4F500C067
:1049C000E3F5E6C516F6E5C515F6E4C514F6E3C548
:1049D00013F63DC51AF63CC519F63BC518F63AC59F
:1049E00017F6EFEC17F07DEF33F006010051016A86
:1049F0000501FF5D03E2FFC500F010D0006A080E5C
:104A00000601016F0501FF37003606010051005C09
:104A1000D8B0006E0136012FF5D705010001000C5A
:104A20002BC4EAFF2AC4E9FF060104C6EFFFE92A06
:104A3000D8B4EA2AEF6A04012A2BD8B42B2B000140
:104A4000000C200E0501FAA9300EFB6FF9C500F02D
:104A5000F9AF07D0001E002A00C0F9F52D0EFB6F3C
:104A6000FA8F0150F9C5FFF5640E0601006F0001D1
:104A7000BCDF00C0F9F5300E01240501FC6FF9C55B
:104A8000FFF50A0E0601006F0001AFDF300E0024B3
:104A90000501FE6F300E0124FD6FFBC500F0FAA783
:104AA00002D0FAAFFA95FAB90BD0FAAF22D0FAB524
:104AB00020D000C0FCF5FAB31CD000C0FDF519D021
:104AC000300EFC5D16E100C0FCF5200EFB6FFAA76E
:104AD00004D0FA95FA83FAAFFA93300EFD5D09E13E
:104AE00000C0FDF5200EFC6FFAA7F7D7FA93FAAFD6
:104AF000FA91FAA505D0FBC504F6000191DF050186
:104B0000FAA305D0FCC504F600018ADF0501FAA16D
:104B100004D0FDC504F6000183DFFEC504F60001E4
:104B20007FDF000C010E06010F6F106F156B065131
:104B3000085D166F165116AF03D0000ED8801655BB
:104B4000036A0D6F03C00EF60751095D166F16510B
:104B500016AF03D0000ED8801655036A0B6F03C042
:104B60000CF60651085D02E2FF0E0F6F0751095D5A
:104B700002E2FF0E106F0C510E5D3CE303E10B519E
:104B80000D5D38E3D8900B370C370D510B5D006E7F
:104B90000E510C5900C011F6126F0D51115D136FBB
:104BA0000E511259146F0E5303E115510D5D21E39F
:104BB00006C616F607C617F60AC618F6000187ECF1
:104BC0000BF0060112BF01D008D00B5111270C5178
:104BD00012230F510625066F0AD0135111271451C5
:104BE00012230F510625066F10510725076F152B4D
:104BF000DAD737D0D8900D370E370B510D5D006ED8
:104C00000C510E5900C011F6126F0B51115D136F4C
:104C10000C511259146F0C5303E115510B5D21E334
:104C200006C616F607C617F60AC618F6000187EC80
:104C30000BF0060112BF01D008D00D5111270E5103
:104C4000122310510725076F0AD013511127145151
:104C500012230F510625066F10510725076F152BDC
:104C6000DAD70001000C0501FF5331E0FD51FB5D77
:104C700005E2FBC502F6FDC503F604D0FDC502F64C
:104C8000FBC503F6FE51FC5D05E2FCC504F6FEC55E
:104C900005F604D0FEC504F6FCC505F60601025172
:104CA000035D13E304C601F60151055D0CE302C682
:104CB00016F601C617F600C618F6000187EC0BF0D1
:104CC0000601012BF1D7022BEAD72FD00501FBC536
:104CD00006F6FCC507F6FDC508F6FCC509F600C6D4
:104CE0000AF600011FDFFBC506F6FEC507F6FDC587
:104CF00008F6FEC509F600C60AF614DFFBC506F67F
:104D0000FCC507F6FBC508F6FEC509F600C60AF69F
:104D100009DFFDC506F6FCC507F6FDC508F6FEC5AC
:104D200009F600C60AF6FEDE06010001000C050EBB
:104D300004012B6FF00E2A6FECC5F9F51F0E05016B
:104D4000FA6F00017EDE0501EF2D2AD0120EED254F
:104D5000F96F180EEE25FA6FEDC5FBF5EEC5FCF503
:104D6000F9C5FDF5FE6F010EFF6F0601006F000132
:104D70007ADF020E0501ED25F96F010EEE25FA6FBF
:104D8000F9C5FBF5FC6F050EFE6FF00EFD6F020E10
:104D9000FF6F0601006B0001E5EC0BF029D0050167
:104DA000120EED25F96F180EEE25FA6FEDC5FBF525
:104DB000EEC5FCF5F9C5FDF5FE6FFF6B0601006B56
:104DC000000151DF020E0501ED25F96F010EEE2500
:104DD000FA6FF9C5FBF5FC6F050EFE6FF00EFD6F67
:104DE000020EFF6F010E0601006F0001E5EC0BF0F3
:104DF000000C0501EAC501F0EBC503F0EAC5F0F5CA
:104E0000EBC5F1F5040EEA6E160EE96EEBC5E2FF96
:104E1000EAC5E1FFE752E6CFEEFFFCE1EE2D28D038
:104E2000EF51080DF350ED25F06FFB6BEDC5FCF570
:104E30007F0EFD6FF0C5FEF5010EFF6F0601006FDE
:104E4000000111DF010E0501EC25F06F010EED25CB
:104E5000F16FF0C5FBF5FC6F040EFE6F160EFD6FD3
:104E6000EFC5FFF50601006B0001E5EC0BF0050155
:104E7000EE5329E1EF51080DF350ED25F06FFB6B78
:104E8000EDC5FCF57F0EFD6FF0C5FEF5010EFF6F61
:104E90000601006B0001E7DE010E0501EC25F06F55
:104EA000010EED25F16FF0C5FBF5FC6F040EFE6FF2
:104EB000160EFD6FEFC5FFF5010E0601006F000134
:104EC000E5EC0BF005010001000C04012EBB4BD0FA
:104ED00006C5ECF5140E0501ED6F1E0EEE6F010E0A
:104EE000EF6F000124DF07C5ECF5280E0501ED6F1B
:104EF0001E0EEE6FEF6B00011ADF08C5ECF53C0EDD
:104F00000501ED6F1E0EEE6FEF6B000110DF06C5A1
:104F1000ECF5500E0501ED6F1E0EEE6FEF6B00010C
:104F200006DF040EEA6E160EE96EF2CFEAF5F29E87
:104F3000000E77EC07F00A000900F550EE6E00094C
:104F4000FBE10501EABFF28E040EEB6F160EEA6F6D
:104F5000140EEC6FED6B010EEE6F030EEF6F0001A0
:104F600048DF04012E8B928A80BA6DD02D9DE36BB1
:104F7000E26B2CB167D02C81050E0501F66F0001A4
:104F80003AEC0AF0010E0501D26FD251040859E340
:104F9000D2510401CD5D3AE1010E0501D25D036AF3
:104FA000060FE96E050E0320EA6EEF2A010ED25DB0
:104FB000036A060FE96E050E0320EA6EEFBE0CD001
:104FC000EF50090809E2010ED25D036A060FE96E8F
:104FD000050E0320EA6EEF6A010ED25D036A060F2A
:104FE000E96E050E0320EA6EEFCFEAF5D251140DFB
:104FF000F3CFEBF5EAC5ECF5EBC5EDF51E0EEE6F64
:10500000010EEF6F000193DE19D00401010E0501BE
:10501000D25D036A060FE96E050E0320EA6EEFCF3C
:10502000EAF5D251140DF3CFEBF5EAC5ECF5EBC57B
:10503000EDF51E0EEE6FEF6B000179DE0501D22B50
:10504000A4D7040101D02C91968084B06CD02D9D02
:10505000E36BE26B2CB566D02C85050E0501F66F6F
:1050600000013AEC0AF0010E0501D26FD25104089A
:1050700058E3D2510401CD5D39E1010E0501D25D45
:10508000036A060FE96E050E0320EA6EEF06010EB5
:10509000D25D036A060FE96E050E0320EA6EEFBECD
:1050A00001D00AD0010ED25D036A060FE96E050E2B
:1050B0000320EA6E090EEF6E010ED25D036A060F41
:1050C000E96E050E0320EA6EEFCFEAF5D251140D1A
:1050D000F3CFEBF5EAC5ECF5EBC5EDF51E0EEE6F83
:1050E000010EEF6F000123DE19D00401010E05014E
:1050F000D25D036A060FE96E050E0320EA6EEFCF5C
:10510000EAF5D251140DF3CFEBF5EAC5ECF5EBC59A
:10511000EDF51E0EEE6FEF6B000109DE0501D22BDF
:10512000A5D7040101D02C95968284B250D02D9D34
:10513000E36BE26B2CB34AD02C83050E0501F66FAE
:1051400000013AEC0AF00401CD2B010E0501D26FEB
:10515000D25104083AE3D2510401CD5D1BE1010EA6
:105160000501D25D036A060FE96E050E0320EA6EA3
:10517000EFCFEAF5D251140DF3CFEBF5EAC5ECF51C
:10518000EBC5EDF51E0EEE6F010EEF6F0001CFDDEA
:1051900019D00401010E0501D25D036A060FE96E04
:1051A000050E0320EA6EEFCFEAF5D251140DF3CFCE
:1051B000EBF5EAC5ECF5EBC5EDF51E0EEE6FEF6B0A
:1051C0000001B5DD0501D22BC3D7040101D02C931A
:1051D000968484B424D0640E0501F66F00013AEC85
:1051E0000AF0968484B41AD0E3C5CCF40501EA6BC6
:1051F0000001AAEC0AF004012E9B010ECE6FCD6FC8
:105200000501066B076B086B096BEA6B0001AAECE2
:105210000AF0D7EC0AF0010E016EC7D10401CD519E
:105220000408D8B0C3D10501EA6B0001AAEC0AF06A
:10523000010E0401CD6F2D9DE36BE26B050106515C
:105240000308D8A479D007510808D8A475D008510C
:10525000090872E1095102086FE1E4536DE1AA6A9D
:10526000A96AA86AA69CA69EA684F250006EF29E29
:105270000F01550EA76EAA0EA76EA682A6B2FED784
:10528000A6940050F212140E0501F66F00013AECDC
:105290000AF0AA6A010EA96EA86AA69CA69EA68418
:1052A000F250006EF29E0F01550EA76EAA0EA76E69
:1052B000A682A6B2FED7A6940050F212140E0501E3
:1052C000F66F00013AEC0AF0AA6A020EA96EA86A0B
:1052D000A69CA69EA684F250006EF29E0F01550E6B
:1052E000A76EAA0EA76EA682A6B2FED7A6940050FD
:1052F000F212140E0501F66F00013AEC0AF0AA6AE8
:10530000030EA96EA86AA69CA69EA684F250006E03
:10531000F29E0F01550EA76EAA0EA76EA682A6B228
:10532000FED7A6940050F212140E0501F66F00018C
:105330003AEC0AF0FF000501E651065DD8A470D0F2
:10534000E751075D6DE1E851085D6AE1E951095DEA
:1053500067E1EA6B0001AAEC0AF0040EEA6E160E91
:10536000E96EF2CFEAF5F29E000E77EC07F00A0044
:105370000900F550EE6E0009FBE10501EABFF28E6F
:10538000040EEB6F160EEA6F1E0EEC6FED6BEE6BFC
:10539000020EEF6F00012DDD040EEA6E160EE96EAF
:1053A000F2CFEAF5F29E000E87EC07F00A00090042
:1053B000F550EE6E0009FBE10501EABFF28E040E26
:1053C000EB6F160EEA6F0F0EEC6F1E0EED6FEE6BAD
:1053D000020EEF6F00010DDDE5C5CCF4D7EC0AF04D
:1053E000040E0501EA6FFA0EF66F00013AEC0AF0BE
:1053F0000501EA2FF8D7EA6B0001AAEC0AF00501D3
:10540000066B076B086B096BE45302E104012D89FD
:1054100004012E9B010E016E0001C7D0C6D005010C
:10542000EA6B0001AAEC0AF0040EEA6E160EE96EB1
:10543000F2CFEAF5F29E000E77EC07F00A000900C1
:10544000F550EE6E0009FBE10501EABFF28E040E95
:10545000EB6F160EEA6F1E0EEC6FED6BEE6B020E2D
:10546000EF6F0001C6DC040EEA6E160EE96EF2CF95
:10547000EAF5F29E000E99EC07F00A000900F550DB
:10548000EE6E0009FBE10501EABFF28E040EEB6F40
:10549000160EEA6FEC6B1E0EED6FEE6B020EEF6FE9
:1054A0000001A7DC010E0401CD6F0001D7EC0AF06A
:1054B000040E0501EA6FFA0EF66F00013AEC0AF0ED
:1054C0000501EA2FF8D7066B076B086B096BEA6BCF
:1054D0000001AAEC0AF00501FB6BFC6B7F0EFD6F6F
:1054E000190EFE6F010EFF6F0601006F000133EC15
:1054F00026F0040EEA6E160EE96EF2CFEAF5F29E81
:10550000000E77EC07F00A000900F550EE6E000976
:10551000FBE10501EABFF28E190EFB6F010EFC6F75
:10552000040EFE6F160EFD6F030EFF6F0601006B7B
:105530000001E5EC0BF006C5ECF5140E0501ED6F6E
:105540001E0EEE6F010EEF6F000197EC26F007C5FF
:10555000ECF5280E0501ED6F1E0EEE6FEF6B0001EE
:1055600097EC26F008C5ECF53C0E0501ED6F1E0E1C
:10557000EE6FEF6B000197EC26F006C5ECF5500ED0
:105580000501ED6F1E0EEE6FEF6B000197EC26F03C
:10559000E3C5CCF40501EA6B0001AAEC0AF00401B2
:1055A0002E9B000E016E000100D004010001000CD2
:1055B000050E04012B6FE70E2A6FE2C5F9F51F0EE9
:1055C0000501FA6F000121EC25F00501E52D2ED033
:1055D000E651060DF350E325F06FE651080DF35048
:1055E000E425F16FE3C5FBF5E4C5FCF5F0C5FDF579
:1055F000FE6F010EFF6F0601006F000133EC26F015
:10560000020E0501E325F06F010EE425F16FF0C5F0
:10561000FBF5FC6F050EFE6FE70EFD6FE6C5FFF5AF
:105620000601006B0001E5EC0BF00501E5532FE1ED
:10563000E651060DF350E325F06FE651080DF350E7
:10564000E425F16FE3C5FBF5E4C5FCF5F0C5FDF518
:10565000FE6F010EFF6F0601006B000133EC26F0B8
:10566000020E0501E325F06F010EE425F16FF0C590
:10567000FBF5FC6F050EFE6FE70EFD6FE6C5FFF54F
:10568000010E0601006F0001E5EC0BF005010001C1
:10569000000C06010451B608046F036A05C608F63B
:1056A000058FD890053306330733033202320132B7
:1056B0000032042FF6D708AF0BD0001E011E021EC9
:1056C000031E002AD8B4012AD8B4022AD8B4032A67
:1056D0000001D8EF2BF0006A016A026A036A060132
:1056E0000C6B0D6B0E6B0F6B0B510A11091108112E
:1056F0002CE0200E106FD890043705370637073797
:105700000C370D370E370F370B510F5D08E10A517B
:105710000E5D05E109510D5D02E108510C5D0FE3DD
:1057200008510C5F0951D8A0093D0D5F0A51D8A05E
:105730000A3D0E5F0B51D8A00B3D0F5FD88000369D
:10574000013602360336102FD6D7060EEA6E0C0E3F
:10575000E96E0001000CE9500501FC6FFB51FE6F82
:105760001DE0FAC516F6F9C515F6F8C514F6F7C525
:1057700013F606011A6B196B200E186F820E176F45
:105780000001EFEC17F003C0FAF502C0F9F501C013
:10579000F8F500C0F7F50501FE2FE3D7FAC507F6C7
:1057A000F9C506F6F8C505F6F7C504F6000171D788
:1057B00003C0FAF502C0F9F501C0F8F500C0F7F52D
:1057C0000501FAAF0DD0FC07FC8BF71FF81FF91F7E
:1057D000FA1FF72BD8B4F82BD8B4F92BD8B4FA2B7E
:1057E0003B0E0601036F9A0E026FCA0E016F006B2B
:1057F0000A0E0501FE6FFB51D8B4FC2BFAC507F663
:10580000F9C506F6F8C505F6F7C504F603C60BF6A6
:1058100002C60AF601C609F600C608F600015BDFFB
:105820000150EFCFF7F5ECCFF8F5ECCFF9F5ECCF71
:10583000FAF5005213E10501FB29FE5DD8A402D060
:1058400000010CD0FC510DE00F0BFE5D01E046E2C3
:10585000FCBF44D0FCBD05D0200E3AD0200E05017F
:10586000FC17FCAB10D0FC9BFB51D8A4FC070050EC
:10587000FC6F2D0E0601046F000110EC25F00501F0
:10588000FC51006EFC6BFB51FE5D0EE10050FC6FA5
:105890002E0E0601046F000110EC25F00501FC51ED
:1058A000006E200EFC17000E300EFCAB11D0FC9BDE
:1058B000FB51D8A4FC070050FC6F2D0E0601046FAD
:1058C000000110EC25F00501FC51006EFC6B300E60
:1058D000002600C004F6000110EC25F003C607F610
:1058E00002C606F601C605F600C604F606010B6BF5
:1058F0000A6B096B0A0E086F0001EDDE03C003F6A8
:1059000002C002F601C001F600C000F60501FE2F3C
:1059100075D70001000C006A016A06010251D89097
:1059200003B100260032013203B3002600320132F7
:1059300003B500260032013203B7002600320132DF
:1059400003B900260032013203BB002600320132C7
:1059500003BD00260032013203BF002600320132AF
:105960000001000C0501FE6BFBC5FFF5010ED880A0
:10597000FB550601006F0501FC53D8B481D0FE51E0
:10598000F95D0601016F0501FF51FA250601026F5D
:105990000501FE51F9250601036F0501FF51FA25A6
:1059A0000601046F01C606F602C607F603C608F62E
:1059B000096FFDC50AF6000192EC25F00501FE51C4
:1059C000F95D0601016F0501FF51FA5D0601026FE5
:1059D0000501FE51F9250601036F0501FF51FA5D2E
:1059E0000601046F01C606F602C607F603C608F6EE
:1059F000096FFDC50AF6000192EC25F00501FF5183
:105A0000F95D0601016F0501FE51FA250601026FDD
:105A10000501FF51F9250601036F0501FE51FA2525
:105A20000601046F01C606F602C607F603C608F6AD
:105A3000096FFDC50AF6000192EC25F00501FF5142
:105A4000F95D0601016F0501FE51FA5D0601026F65
:105A50000501FF51F9250601036F0501FE51FA5DAD
:105A60000601046F01C606F602C607F603C608F66D
:105A7000096FFDC50AF6000192EC25F090D00501F2
:105A8000F951FE250601016F0501FA51FF250601B6
:105A9000026F01C616F6176FFDC518F6000187ECF8
:105AA0000BF00501F951FF250601016F0501FA51BF
:105AB000FE250601026F01C616F6176FFDC518F622
:105AC000000187EC0BF00501FE51F95D0601016F45
:105AD0000501FA51FF250601026F01C616F6176F80
:105AE000FDC518F6000187EC0BF00501FF51F95DCB
:105AF0000601016F0501FA51FE250601026F01C67C
:105B000016F6176FFDC518F6000187EC0BF00501BE
:105B1000F951FF250601016F0501FE51FA5D0601ED
:105B2000026F01C616F6176FFDC518F6000187EC67
:105B30000BF00501F951FE250601016F0501FF512A
:105B4000FA5D0601026F01C616F6176FFDC518F65D
:105B5000000187EC0BF00501FE51F95D0601016FB4
:105B60000501FF51FA5D0601026F01C616F6176FB7
:105B7000FDC518F6000187EC0BF00501FF51F95D3A
:105B80000601016F0501FE51FA5D0601026F01C6B3
:105B900016F6176FFDC518F6000187EC0BF006012D
:105BA00000BF01D010D00501FE51FE2B0601016F90
:105BB000020E026F01C603F60001ADDE0150030FB5
:105BC0000601002715D00501FE51FE2B0601016FCD
:105BD0000501FF51FF070601015D016F020E026F13
:105BE00001C603F6000197DE0150050F06010027EC
:105BF0000501FE51800A006EFF51800A005CD8B496
:105C0000BBD6D8A0B9D60001000C050E04012B6F3D
:105C1000EE0E2A6F010EE96EE9C5FAF5E8C5F9F551
:105C2000E7C5F8F5E6C5F7F50501FB6B000193DD67
:105C3000200E0601046F000110EC25F0430E060152
:105C4000046F000110EC25F00501EC2D3ED0ED5164
:105C5000140DF350EA25F76FED51080DF350EB25C5
:105C6000F86FEAC5FBF5EBC5FCF5F7C5FDF5FE6F72
:105C7000010EFF6F0601006F000133EC26F0020EEB
:105C80000501EA25F76F010EEB25F86FF7C5FBF567
:105C9000FC6F050EFE6FEE0EFD6FEDC5FFF5060104
:105CA000006B0001E5EC0BF0110E0501EA25F76F22
:105CB000020EEB25F86FF7C5F9F5FA6F010EFB6FD1
:105CC000FC6FFD6B00014EDE0501EC533FE1ED5131
:105CD000140DF350EA25F76FED51080DF350EB2545
:105CE000F86FEAC5FBF5EBC5FCF5F7C5FDF5FE6FF2
:105CF000010EFF6F0601006B000133EC26F0020E6F
:105D00000501EA25F76F010EEB25F86FF7C5FBF5E6
:105D1000FC6F050EFE6FEE0EFD6FEDC5FFF5010E7B
:105D20000601006F0001E5EC0BF0110E0501EA25FC
:105D3000F76F020EEB25F86FF7C5F9F5FA6F010E54
:105D4000FB6FFC6FFD6F00010DDE0501000126EF0A
:105D50003AF00501E651E803F3CF01F0F4CF00F08B
:105D6000E903F3500026E751E803F3500020026EE8
:105D70000001000C0501E251030853E1E36BE3511C
:105D80003F084FE3E46BE4510F0849E3070EE56F6A
:105D9000E551800A7F0841E2E76BE3C5E6F5E96B70
:105DA000100EE86F0001D5DF02C0E7F501C0E6F58F
:105DB0000501E4510124016E000E0220036E015022
:105DC000F2CFE6F5F29E03C0F7FF000153EC01F0BD
:105DD0000501E6BFF28EE66F070ED880E555E76F46
:105DE000E6C500F0E751016E04E0D8900032012EC4
:105DF000FCD700A010D0E451080DF350E525E66F64
:105E0000E8CF16F6E3C517F6010E0601186F00017C
:105E100087EC0BF00501E507BBD7E42BB4D7E32BE8
:105E2000AED7E251040853E1E36BE3513F084FE37F
:105E3000E46BE4510F0849E3070EE56FE551800A72
:105E40007F0841E2E76BE3C5E6F5E96B100EE86F0A
:105E500000017FDF02C0E7F501C0E6F50501E4516E
:105E60000124016E000E0220036E0150F2CFE6F510
:105E7000F29E03C0F7FF00015FEC03F00501E6BFEF
:105E8000F28EE66F070ED880E555E76FE6C500F0A5
:105E9000E751016E04E0D8900032012EFCD700A03B
:105EA00010D0E451080DF350E525E66FE8CF16F663
:105EB000E3C517F6010E0601186F000187EC0BF021
:105EC0000501E507BBD7E42BB4D7E32BAED7E251EE
:105ED000050853E1E36BE3513F084FE3E46BE45102
:105EE0000F0849E3070EE56FE551800A7F0841E29C
:105EF000E76BE3C5E6F5E96B100EE86F000129DFFB
:105F000002C0E7F501C0E6F50501E4510124016E88
:105F1000000E0220036E0150F2CFE6F5F29E03C0A0
:105F2000F7FF00016BEC05F00501E6BFF28EE66FAE
:105F3000070ED880E555E76FE6C500F0E751016E22
:105F400004E0D8900032012EFCD700A010D0E4511C
:105F5000080DF350E525E66FE8CF16F6E3C517F612
