:04000000AFEF04F06A
:08000800046ED8CF05F0E0CF33
:1000100006F00001E9CF0CF0EACF07F0E1CF08F0DD
:10002000E2CF09F0D9CF0AF0DACF0BF0F3CF12F01C
:10003000F4CF13F0FACF14F000C00EF001C00FF0AF
:1000400002C010F003C011F09DA02AEF00F09EB096
:100050008EEF00F00EC000F00FC001F010C002F0F3
:1000600011C003F00CC0E9FF07C0EAFF078E08C00B
:10007000E1FF09C0E2FF0AC0D9FF0BC0DAFF12C0DE
:10008000F3FF13C0F4FF14C0FAFF045006C0E0FFF2
:1000900005C0D8FF1000F2CF0DF0F29EF76AB00F46
:1000A000F66E000EF7220900F5500DBEF28E12001A
:1000B000280C01064553544143494F4E20444520E6
:1000C0002054524142414A4F00002020202020204D
:1000D00020205043522020202020202020200000DB
:1000E000202020204A502020494E474C4F42414C6E
:1000F000202020200000202020205245463A4A504F
:1001000032342D5043522020202000005265696E69
:10011000696369616E646F2E2E2E2E00B20ECF6E53
:100120000C0ECE6E282AD8B4292A295203E1285071
:10013000C70825E2296A286A242A168C272C08D0A9
:1001400017B203D08B90949002D08B80949017724A
:1001500016A015D017B413D01B2A16BA10D02052EF
:1001600002E020060CD01F5204E01F063B0E206E5A
:1001700006D0168A169021C01FF022C020F09E9053
:100180002AEF00F02020202054656D706F72697A8C
:1001900061646F7220202020200020202020202059
:1001A000204C757A20555620202020202020200029
:1001B00025303375204D696E75746F7320200000F3
:1001C00020205469656D706F20416C6D6163656EB0
:1001D00061646F0020202020436F72726563746138
:1001E0006D656E746520200020204D6F646F2020A7
:1001F000436F6E74696E756F200020202053656C0C
:10020000656363696F6E61646F2020004A504352DA
:10021000200055736F204C757A2055563A202530B2
:10022000354C752048002143616D626965204C752D
:100230007A20555621002020202020202020202018
:1002400020202020200054656D706F72697A6164EF
:100250006F723A253033753A253032750000202010
:1002600054656D706F72697A61646F722020646585
:1002700020200000204C757A205556202046696EBB
:10028000616C697A61646F200000202020202020AA
:10029000202020202020202020202020202000009E
:1002A000202020202020202020202020202020204E
:1002B0002020202000002055563A4F4E2000205587
:1002C000563A4F4646004C757A3A4F4E20004C75D0
:1002D0007A3A4F464600EA6A3C0EE96EEF500EE06D
:1002E000050E016E006A002EFED7012EFBD72E0EE2
:1002F000006E002EFED700D0EF2EF2D7000C3D3856
:10030000F00B006E0F0E83140010836E090E006E4A
:10031000002EFED700D08386490E006E002EFED739
:100320008396000C8392010E3C6ED5DF3AA0839237
:100330003AB08382090E006E002EFED700D083945F
:10034000090E006E002EFED700D083963B383C6E1F
:100350000F0E3C163CC03DF0D2DF3B500F0B3C6E05
:100360003D6ECDDF000C000E956E839283948396D4
:100370000F0E3C6EB0DF010E2D6E2D50030808E30A
:10038000030E3D6EBCDF050E3C6EA5DF2D2AF5D7B2
:10039000020E3D6EB4DF2D6A2D5003080EE3036A92
:1003A0002D50F2CF2EF0F29E76DE2EBEF28E2E6E05
:1003B0003A6A3B6EB7DF2D2AEFD7000CD4DFFF0E71
:1003C000926E966E850ECD6E9D80C00EF212DBEFA2
:1003D00004F0010E385CFC0F0FE2040F04EF02F092
:1003E000800E396E09D0C00E396E06D0940E396E6B
:1003F00003D0D40E396E00D0010E375C39263A6A2C
:1004000039C03BF08FDF000CF2CF0DF0F29EE824F4
:10041000F76AF7362D0FF66E040EF7220A00F55034
:10042000FA6E0800F5500DBEF28EF96EE003E60399
:10043000EC03F2033650F10802E1EE0E366E365050
:10044000D10802E1FF0E366E36500C0A05E0060AAE
:100450000DE0020A12E016D03A6A010E3B6E62DF2E
:10046000010E2C6E020E3C6E36DF12D02C2A010ECD
:10047000376E2CC038F0ADDF0BD03A6A100E3B6EF1
:1004800051DF06D0010E3A6E36C03BF04BDF00D094
:10049000000C0900F5520CE0F6CF2DF0F7CF2EF04E
:1004A000F5CF36F0C7DF2DC0F6FF2EC0F7FFF1D72E
:1004B000000C010E376E386E8CDFB40EF66E000E37
:1004C000F76EE7DF010E376E020E386E82DFCA0E5E
:1004D000F66E000EF76EDDDF010E376E030E386E1E
:1004E00078DFE00EF66E000EF76ED3DF010E376E8A
:1004F000040E386E6EDFF60EF66E000EF76EC9DF74
:10050000080E2D6EFA0E3C6EE6DE2D2EFBD70C0E7D
:10051000366E90DF000CF2CF2DF0F29EA96AA69CF9
:10052000A69EA680A8502DBEF28E1F6E140E3C6EA5
:10053000D2DEF2CF2DF0F29E010EA96EA69CA69EF1
:10054000A680A8502DBEF28E1B6E140E3C6EC3DE2C
:10055000F2CF2DF0F29E020EA96EA69CA69EA6805A
:10056000A8502DBEF28E1C6E140E3C6EB4DEF2CF7F
:100570002DF0F29E030EA96EA69CA69EA680A85002
:100580002DBEF28E1D6E140E3C6EA5DEF2CF2DF048
:10059000F29E040EA96EA69CA69EA680A8502DBE13
:1005A000F28E1E6E140E3C6E96DE1EC02BF01DC029
:1005B0002AF0000C1F50C80819E2050E1F6EA96A28
:1005C000A86EA69CA69EA684F250006EF29E0F0115
:1005D000550EA76EAA0EA76EA682A6B2FED7A69447
:1005E0000050F212140E3C6E000175DE1B503C08E8
:1005F00019E21B6A010EA96EA86AA69CA69EA68493
:10060000F250006EF29E0F01550EA76EAA0EA76E55
:10061000A682A6B2FED7A6940050F212140E3C6E2B
:10062000000159DE1C503C0819E21C6A020EA96E3A
:10063000A86AA69CA69EA684F250006EF29E0F01A8
:10064000550EA76EAA0EA76EA682A6B2FED7A694D6
:100650000050F212140E3C6E00013DDE2B502608B5
:1006600037E2FF0A03E12A50100832E22B6A2A6AB5
:10067000030EA96EA86AA69CA69EA684F250006EE0
:10068000F29E0F01550EA76EAA0EA76EA682A6B205
:10069000FED7A6940050F212140E3C6E00011BDE31
:1006A000040EA96EA86AA69CA69EA684F250006EAF
:1006B000F29E0F01550EA76EAA0EA76EA682A6B2D5
:1006C000FED7A6940050F212140E3C6E000103DE19
:1006D0001FC021F020C022F0215202E1178401D076
:1006E0001794000CA96AA86AA69CA69EA684F2503C
:1006F000006EF29E0F01550EA76EAA0EA76EA6827F
:10070000A6B2FED7A6940050F212140E3C6E000161
:10071000E2DD010EA96EA86AA69CA69EA684F250F0
:10072000006EF29E0F01550EA76EAA0EA76EA6824E
:10073000A6B2FED7A6940050F212140E3C6E000131
:10074000CADD020EA96EA86AA69CA69EA684F250D7
:10075000006EF29E0F01550EA76EAA0EA76EA6821E
:10076000A6B2FED7A6940050F212140E3C6E000101
:10077000B2DD030EA96EA86AA69CA69EA684F250BE
:10078000006EF29E0F01550EA76EAA0EA76EA682EE
:10079000A6B2FED7A6940050F212140E3C6E0001D1
:1007A0009ADD040EA96EA86AA69CA69EA684F250A5
:1007B000006EF29E0F01550EA76EAA0EA76EA682BE
:1007C000A6B2FED7A6940050F212140E3C6E0001A1
:1007D00082DD010E376E040E386EFBDD0C0EF66EF8
:1007E000010EF76E56DE080E2D6EFA0E3C6E73DDAE
:1007F0002D2EFBD75EDE8FDEDDDE02EF05F0305002
:10080000016A2F5C03E22FC000F00CD0006A080ED2
:10081000316E2F3600363050005CD8B0006E013695
:10082000312EF7D7000C01502DC02FF0640E306E22
:10083000E6DF00C02DF00150300E07E12EA20CD0F3
:100840002EB60AD02EB8200E03D02E962E982E80CB
:10085000012601C036F0EEDD2DC02FF00A0E306EFD
:10086000CEDF00C02DF00150300E06E12EB608D0CC
:100870002EA006D02EB8200E012601C036F0DADDFB
:10088000300E2D262DC036F0D5DD000C0900F6CF38
:100890002EF0F7CF2FF0F5CF36F0CCDD2EC0F6FFDF
:1008A0002FC0F7FF2D2EF2D7000CEACF35F0E9CF9D
:1008B00034F02E38F009306E3026E20F316E320FF0
:1008C000336E2E500F0B312631263326E90F326E50
:1008D000322632262D380F0B322633263236333667
:1008E000331E33362D500F0B33263036070E2F6E46
:1008F0000A0E32063326FDE331063226FDE33006CA
:100900003126FDE32F063026FDE3EA6A2F0EE96E5D
:10091000070E3414349CE926330EE95CD8B4348CC9
:10092000EF50006E08E134BC06D034B813D034B6B2
:1009300002D0200E03D034863498300E0026EACF41
:100940002EF0E9CF2DF000C036F074DD2EC0EAFFA6
:100950002DC0E9FFEE5034ACDFD7FAEF05F0F86AAE
:10096000D09E078EEA6AE96A169016921694169639
:100970001698169A169C169E179017921794010EA9
:10098000186E020E196E1A6E1B6A1C6A1D6A1E6AA8
:100990001F6A206A216A226A236A246A256A266AF3
:1009A000276A2B6A2A6A1786C150C00B0F09C16ECD
:1009B000070EB46E03D57DDDAEDDFCDD899092902F
:1009C00089949294899692968B9294928B94949413
:1009D0008B9C949C8B9E949E8A9093908A969396DF
:1009E0008A9893988A9A939A8A9C939C8A9E939EBB
:1009F000928A80BA07D0968084B004D0968284B25E
:100A000001D070D618500208D8A4D2D0010E376E8B
:100A1000386EDFDC840EF66E010EF76E3ADD010EE5
:100A2000376E020E386ED5DC9A0EF66E010EF76E3A
:100A300030DD060E376E030E386ECBDC21C02DF094
:100A4000030E2E6EF0DEB40EF66E010EF76E0A0E79
:100A50002D6E1CDF21C02FF0050E306ED0DE00524F
:100A600002E0050E216E928A80BA12D0140E3C6EFE
:100A700032DC928A80BA0CD02150EF0809E3050ECF
:100A80002126020E2D6E960E3C6E25DC2D2EFBD7F8
:100A9000968084B011D0140E3C6E1DDC968084B01C
:100AA0000BD0215209E0050E215E020E2D6E960E2E
:100AB0003C6E11DC2D2EFBD7968484A403D0968245
:100AC00084B276D0C80E3C6E06DC968484A403D033
:100AD000968284B26DD00C0E366EACDC010E376E91
:100AE000020E386E76DCC00EF66E010EF76ED1DCAB
:100AF000010E376E030E386E6CDCD40EF66E010EEE
:100B0000F76EC7DCA96A21C0A8FFA69CA69EA68492
:100B1000F250006EF29E0F01550EA76EAA0EA76E40
:100B2000A682A6B2FED7A6940050F212140E3C6E16
:100B300000016BEC01F021C01FF0226A206A040E54
:100B40002D6EAF0E3C6E6BEC01F02D2EFAD70C0E15
:100B5000366E70DC215216E11784010E376E020EDC
:100B6000386E37DCE80EF66E010EF76E92DC010E81
:100B7000376E030E386E2DDCFA0EF66E010EF76E30
:100B800088DC01D01794040E2D6EAF0E3C6E6BEC1A
:100B900001F02D2EFAD71E0E3C6E6BEC01F0010E0B
:100BA000186E266A020E196E1A6E0C0E366E42DC34
:100BB000182C07D216AC61D0169C010E376E386E19
:100BC00008DC0C0EF66E020EF76E63DC010E376E5B
:100BD000020E386EE9EC01F0120EF66E020EF76EA0
:100BE0000C0E2D6E53DE080EE96E2BC02EF02AC0BF
:100BF0002DF05BD6200E366E1DDC480E366E1ADCEC
:100C00002B50040813E2FF0A03E12A50DC080EE22D
:100C1000060E376E010E386EE9EC01F0260EF66E08
:100C2000020EF76E36DC010E276E0CD0060E376E04
:100C3000010E386EE9EC01F0360EF66E020EF76E1C
:100C400028DC276A010E376E030E386EE9EC01F0DE
:100C5000460EF66E020EF76E0D0E2D6E17DE1FC0DD
:100C60002DF0030E2E6EDFDD3A0E366E1AEC02F01A
:100C700020C02DF0010E2E6ED6DD16AA4AD00C0E25
:100C8000366E1AEC02F0010E376E020E386EE9EC89
:100C900001F05E0EF66E020EF76E49EC02F0010EE8
:100CA000376E030E386EE9EC01F0740EF66E020E2C
:100CB000F76E49EC02F0010E376E040E386EE9EC67
:100CC00001F08A0EF66E020EF76E49EC02F0010E8C
:100CD000376E386EE9EC01F0A00EF66E020EF76E7C
:100CE00049EC02F0236A235004080EE38B809490B1
:100CF000C80E3C6E6BEC01F08B909490C80E3C6E6D
:100D00006BEC01F0232AEFD7169A0C0E366E1AEC14
:100D100002F016A01BD0928280B218D016928A8858
:100D200093988A96939616BE10D00C0E366E1AECD7
:100D300002F0B3EC01F0C80E3C6E6BEC01F0B3ECCA
:100D400001F0168E010E256E178615D016908A8634
:100D5000939616AE10D00C0E366E1AEC02F0B3EC71
:100D600001F0C80E3C6E6BEC01F0B3EC01F0169E86
:100D7000010E256E178616A20FD08A98939817B089
:100D80000AD0B3EC01F0C80E3C6E6BEC01F0B3EC92
:100D900001F0178017860ED08A88939817A00AD082
:100DA000B3EC01F0C80E3C6E6BEC01F0B3EC01F05B
:100DB00017901786968084B015D0140E3C6E6BEC9D
:100DC00001F0968084B00DD016B60BD01672168640
:100DD000020E2D6E960E3C6E6BEC01F02D2EFAD7A6
:100DE000178601D01696968284B215D0140E3C6EEA
:100DF0006BEC01F0968284B20DD016B80BD016744D
:100E00001688020E2D6E960E3C6E6BEC01F02D2EA8
:100E1000FAD7178601D01698968484B40DD0140E94
:100E20003C6E6BEC01F0968484B406D0960E3C6E5A
:100E30006BEC01F01670178616A00DD00D0E376EF4
:100E4000040E386EE9EC01F0B60EF66E020EF76E87
:100E500049EC02F00CD00D0E376E040E386EE9EC42
:100E600001F0BE0EF66E020EF76E49EC02F016A20D
:100E70000DD0010E376E040E386EE9EC01F0C60E8F
:100E8000F66E020EF76E49EC02F00CD0010E376ED2
:100E9000040E386EE9EC01F0CE0EF66E020EF76E1F
:100EA00049EC02F0252C61D0010EA96E1BC0A8FFF1
:100EB000A69CA69EA684F250006EF29E0F01550ECF
:100EC000A76EAA0EA76EA682A6B2FED7A694005061
:100ED000F212020EA96E1CC0A8FFA69CA69EA684B4
:100EE000F250006EF29E550EA76EAA0EA76EA68255
:100EF000A6B2FED7A6940050F2122AC01DF02BC055
:100F00001EF0030EA96E1DC0A8FFA69CA69EA68477
:100F1000F2CF00F0F29E550EA76EAA0EA76EA68223
:100F2000A6B2FED7A6940050F212140E3C6E000139
:100F30006BEC01F0040EA96E1EC0A8FFA69CA69E35
:100F4000A684F250006EF29E0F01550EA76EAA0EF7
:100F5000A76EA682A6B2FED7A6940050F212140E77
:100F60003C6E00016BEC01F0256A1B503B0802E26D
:100F70001B6A1C2A1C503C0804E11C6A2A2AD8B4AB
:100F80002B2A928A80BA1DD0140E3C6E6BEC01F0B5
:100F9000928A80BA16D0C80E3C6E6BEC01F00C0E33
:100FA000366E1AEC02F0020E2D6E960E3C6E6BEC55
:100FB00001F02D2EFAD7020E186E266A196E1A6EDF
:100FC000178624503B0809E2B3EC01F0C80E3C6ED2
:0E0FD0006BEC01F0B3EC01F0246A14D50300C1
:020000040030CA
:0E00000038C23F1E000781000FC00FE00F4006
:00000001FF
;PIC18F4550
;CRC=DFA0  CREATED="22-jul.-20 09:35"
