:0400000080EF30F06D
:08000800046ED8CF05F0E0CF33
:1000100006F00001E9CF0CF0EACF07F0E1CF08F0DD
:10002000E2CF09F0D9CF0AF0DACF0BF0F3CF12F01C
:10003000F4CF13F0FACF14F0FBCF15F000C00EF0A0
:1000400001C00FF002C010F003C011F0F2A82CEFB5
:1000500000F0F2B2F3EF09F00EC000F00FC001F0B3
:1000600010C002F011C003F00CC0E9FF07C0EAFFA6
:10007000078E08C0E1FF09C0E2FF0AC0D9FF0BC02C
:10008000DAFF12C0F3FF13C0F4FF14C0FAFF15C06B
:10009000FBFF045006C0E0FF05C0D8FF1000F2CF00
:1000A0000DF0F29EF76ABC0FF66E000EF722000EFE
:1000B000F86E0900F5500DBEF28E1200000000002F
:1000C0000000005F00000003000300143E143E1413
:1000D000242A7F2A1243330866613649552250008C
:1000E00005030000001C2241000041221C001408EE
:1000F0003E081408083E08080050300000080808B0
:100100000808006060000020100804023E514945C4
:100110003E0004027F00426151494622414949366E
:100120001814127F1027454545393E494949320187
:10013000017109073649494936264949493E003681
:100140003600000056360000081422410014141432
:100150001414004122140802015109063E41595568
:100160005E7E0909097E7F494949363E4141412267
:100170007F4141413E7F494949417F090909013E8B
:100180004141493A7F0808087F00417F41003040E3
:1001900040403F7F081422417F404040407F020C96
:1001A000027F7F0204087F3E4141413E7F090909E9
:1001B000061E2121215E7F0909097600F2CF0DF08C
:1001C000F29EF76ADA0FF66E010EF722000EF86E55
:1001D0000900F5500DBEF28E120026494949320140
:1001E000017F01013F4040403F1F2040201F7F20F2
:1001F00010207F41221C22410708700807615149E5
:100200004543007F41000002040810200000417FA8
:10021000000402010204404040404000010204008A
:1002200020545454787F4444443838444444443837
:100230004444447F385454541804047E050508543B
:1002400054543C7F0804047800447D40002040441E
:100250003D007F1028440000417F40007C0478046A
:10026000787C0804047838444444387C1414140816
:10027000081414147C007C080404485454542004CA
:10028000043F44443C4040207C1C2040201C3C4017
:1002900030403C44281028440C5050503C44645496
:1002A0004C44000836414100007F000041413608BF
:1002B000000201020402F2CF0DF0F29ED20FF66EA0
:1002C000020EF722000EF86E0900F5500DBEF28EF8
:1002D000120000000000000000000000000000000C
:1002E000000000000000000000000000000000000E
:1002F00000000000000000000000000000000000FE
:1003000000000000000000000000000000000000ED
:1003100000000000000000000000000000000000DD
:1003200000000000000000000000000000000000CD
:1003300000000000000000000000000000000000BD
:1003400000000000000000000000000000000000AD
:10035000000000000000000000000000000000009D
:10036000000000000000000000000000000000008D
:10037000000000000000000000000000000000007D
:10038000000000000000000000000000000000006D
:10039000000000000000000000000000000000005D
:1003A000000000000000000000000000000000004D
:1003B000000000000000000000000000000000003D
:1003C0000000000000000000000000000000000825
:1003D0000080000000000000000000000000000499
:1003E000010000000000000000000000000000020A
:1003F00002000000000000000000000000000000FB
:100400007800000000000000000000000000000074
:100410008400000000000000000000000000000157
:10042000020000000000000000000000000000F9D1
:1004300002F80000000000000000000000000001C1
:1004400002000000000000000000000000000001A9
:100450000200000000000000000000000000000496
:100460008480000000000000000000000000000880
:1004700078400000000000000000000000000010B4
:1004800048200000000000000000000000000020E4
:100490004810000000000000000000000000000004
:1004A00078000000000000000000000000000000D4
:1004B000000000000000000000000000000000003C
:1004C000000000000000000000000000000000002C
:1004D000000000000000000000000000000000001C
:1004E000000000000000000000000000000000000C
:1006D0000000F2CF0DF0F29EEE0FF66E060EF7223E
:1006E000000EF86E0900F5500DBEF28E12000000EB
:1006F00000000000000000000000000000000000FA
:1007000000000000000000000000000000000000E9
:1007100000000000000000000000000000000000D9
:1007200000000000000000000000000000000000C9
:1007300000000000000000000000000000000000B9
:1007400000000000000000000000000000000000A9
:100750000000000000000000000000000000000099
:100760000000000000000000000000000000000089
:100770000000000000000000000000000000000079
:100780000000000000000000000000000000000069
:100790000000000000000000000000000000000059
:1007A0000000000000000000000000000000000049
:1007B0000000000000000000000000000000000039
:1007C0000000000000000000000000000000000029
:1007D0000000000000000000000000000000000019
:1007E0000000000000000000000000000000000009
:1007F00000000000000000000000000000000000F9
:1008000000000000000000000000000000000000E8
:1008100000000000000000000000000000000000D8
:1008200000000000000000000000000000000000C8
:1008300000000000000000000000000000000000B8
:1008400000000000000000000000000000000000A8
:100850000000000000000000000000000000000098
:100860000000000000000000000000000000000088
:100870000000000000000000000000000000000078
:100880000000000000000000000000000000000068
:100890000000000000000000000000000000000058
:1008A0000000000000000000000000000000000048
:1008B0000000000000000000000000000000000038
:1008C0000000000000000000000000000000000028
:1008D00000000000000000000000007FFFF80000A2
:1008E00000000000000000000000004000080000C0
:1008F0000000000000000000000000470388000026
:100900000000000000000000000000450288000018
:100910000000000000000000000000450288000008
:1009200000000000000000000000004502880000F8
:1009300000000000000000000000004502880000E8
:1009400000000000000000000000004703880000D5
:10095000000000000000000000000040000800004F
:10096000000000000000000000000040FC08000043
:1009700000000000000000000000004084080000AB
:10098000000000000000000000000040840800009B
:10099000000000000000000000000040FC08000013
:1009A00000000000000000000000004000080000FF
:1009B00000000000000000000000007FFFF80000C1
:1009C0000000000000000000000000000000000027
:1009D0000000000000000000000000000000000017
:1009E0000000000000000000000000000000000007
:1009F00000000000000000000000000000000000F7
:100A000000000000000000000000000000000000E6
:100A100000000000000000000000000000000000D6
:100A200000000000000000000000000000000000C6
:100A300000000000000000000000000000000000B6
:100A400000000000000000000000000000000000A6
:100A50000000000000000000000000000000000096
:100A60000000000000000000000000000000000086
:100A70000000000000000000000000000000000076
:100A80000000000000000000000000000000000066
:100A90000000000000000000000000000000000056
:100AA0000000000000000000000000000000000046
:100AB0000000000000000000000000000000000036
:100AC0000000000000000000000000000000000026
:100AD0000000000000000000000000000000000016
:100AE0000000000000000000000000000000F2CF45
:100AF0000DF0F29E0A0FF66E0B0EF722000EF86E46
:100B00000900F5500DBEF28E12000000000000003A
:100B100000000000000000000000000000000000D5
:100B200000000000000000000000000000000000C5
:100B300000000000000000000000000000000000B5
:100B400000000000000000000000000000000000A5
:100DF0000000000000000000600000000000000093
:100E00000000000000000000F000000000000000F2
:100E10000000000000000001F800000000000000D9
:100E20000000000000000001F800000000000000C9
:100E30000000000000000001F800000000000000B9
:100E40000000000000000000F000000000000000B2
:100E5000000000000000003871C000000000000029
:100E6000000000000000007C93E000000000000093
:100E700000000000000000FF0FF000000000000074
:100E800000000000000000FF0FF000000000000064
:100E9000000000000000007D93E000000000000062
:100EA000000000000000003861C0000000000000E9
:100EB0000000000000000000F00000000000000042
:100EC0000000000000000001F80000000000000029
:100ED0000000000000000001F80000000000000019
:100EE0000000000000000001F80000000000000009
:100EF0000000000000000000F00000000000000002
:100F000000000000000000006000F2CF0DF0F29E33
:100F1000F76A280FF66E0F0EF722000EF86E090022
:100F2000F5500DBEF28E1200436C61766500F2CF73
:100F30000DF0F29EF76A4C0FF66E0F0EF722000EC0
:100F4000F86E0900F5500DBEF28E1200436F7272FA
:100F5000656374610000F2CF0DF0F29EF76A740FC2
:100F6000F66E0F0EF722000EF86E0900F5500DBE5A
:100F7000F28E1200496E636F7272656374610000D5
:100F8000F2CF0DF0F29EF76A9E0FF66E0F0EF7226B
:100F9000000EF86E0900F5500DBEF28E12002020F2
:100FA00021416272612050726F74656363696F6E74
:100FB0000000F2CF0DF0F29EF76AD00FF66E0F0E22
:100FC000F722000EF86E0900F5500DBEF28E1200E9
:100FD00020202020202046726F6E74616C2120201A
:100FE00020200000F2CF0DF0F29EF76A020FF66E9D
:100FF000100EF722000EF86E0900F5500DBEF28EAD
:10100000120020202020202020202020202020200E
:10101000202020200000F2CF0DF0F29EF76A340F5E
:10102000F66E100EF722000EF86E0900F5500DBE98
:10103000F28E120046696C74726F2053617475727F
:1010400061646F00F2CF0DF0F29EF76A620FF66EE8
:10105000100EF722000EF86E0900F5500DBEF28E4C
:1010600012004A50435633362D5043522D4543000B
:10107000F2CF0DF0F29EF76A8E0FF66E100EF72289
:10108000000EF86E0900F5500DBEF28E12004D658F
:101090006E750000F2CF0DF0F29EF76AB20FF66E99
:1010A000100EF722000EF86E0900F5500DBEF28EFC
:1010B0001200416A757374657300F2CF0DF0F29EF1
:1010C000F76AD80FF66E100EF722000EF86E0900C0
:1010D000F5500DBEF28E120043616D62696F20649F
:1010E0006520436C61766500F2CF0DF0F29EF76AE1
:1010F000060FF66E110EF722000EF86E0900F5507D
:101100000DBEF28E12004D6F646F0000F2CF0DF035
:10111000F29EF76A2A0FF66E110EF722000EF86E95
:101120000900F5500DBEF28E12005469656D706FA6
:101130002050757267610000F2CF0DF0F29EF76AE1
:10114000560FF66E110EF722000EF86E0900F550DC
:101150000DBEF28E120054656D706F205556000062
:10116000F2CF0DF0F29EF76A7E0FF66E110EF722A7
:10117000000EF86E0900F5500DBEF28E12004D61A2
:101180006E74656E696D69656E746F00F2CF0DF0F7
:10119000F29EF76AAA0FF66E110EF722000EF86E95
:1011A0000900F5500DBEF28E120053657276696328
:1011B000696F0000F2CF0DF0F29EF76AD20FF66E63
:1011C000110EF722000EF86E0900F5500DBEF28EDA
:1011D0001200542E2050757267610000F2CF0DF09E
:1011E000F29EF76AFA0FF66E110EF722000EF86EF5
:1011F0000900F5500DBEF28E1200542E20555600F7
:10120000F2CF0DF0F29EF76A1E0FF66E120EF72265
:10121000000EF86E0900F5500DBEF28E1200436C00
:10122000617665204E7565766100F2CF0DF0F29E15
:10123000F76A480FF66E120EF722000EF86E0900DC
:10124000F5500DBEF28E12004D616E74656E6965CB
:101250006E746F00F2CF0DF0F29EF76A720FF66EA9
:10126000120EF722000EF86E0900F5500DBEF28E38
:10127000120054726162616A6F2046696C74726F09
:101280002868293A0000F2CF0DF0F29EF76AA40F09
:10129000F66E120EF722000EF86E0900F5500DBE24
:1012A000F28E120054726162616A6F204C757A206E
:1012B00055562868293A0000F2CF0DF0F29EF76AE1
:1012C000D60FF66E120EF722000EF86E0900F550DA
:1012D0000DBEF28E120053656E736F72206465202E
:1012E000466C756A6F00F2CF0DF0F29EF76A040F3C
:1012F000F66E130EF722000EF86E0900F5500DBEC3
:10130000F28E120053656E736F7220646520507206
:101310006573696F6E00F2CF0DF0F29EF76A340FBD
:10132000F66E130EF722000EF86E0900F5500DBE92
:10133000F28E120056656C6F6369646164205665B5
:101340006E74696C61646F720000F2CF0DF0F29EF2
:10135000F76A680FF66E130EF722000EF86E09009A
:10136000F5500DBEF28E120053656C656363696FB4
:101370006E2056656C00F2CF0DF0F29EF76A940F66
:10138000F66E130EF722000EF86E0900F5500DBE32
:10139000F28E120056656C6F636964616400F2CF6F
:1013A0000DF0F29EF76ABC0FF66E130EF722000ED8
:1013B000F86E0900F5500DBEF28E1200477561728D
:1013C000646164610000030E0601375F0AE3060EE4
:1013D000EA6E370EE96EEF5004E001D000D0EF2E38
:1013E000FDD70001000C928A80BA05D00401EB2BD6
:1013F000D8B4EC2B03D00401EC6BEB6B968084B07B
:1014000004D0ED2BD8B4EE2B02D0EE6BED6B9682B0
:1014100084B204D0EF2BD8B4F02B02D0F06BEF6B7A
:10142000968484B404D0F12BD8B4F22B02D0F26BA2
:10143000F16B928680B609D0F45306E1F3513B0874
:1014400003E3F32BD8B4F42B02D0F46BF36B050158
:10145000D92BD8B4DA2BDA5303E1D951770858E203
:10146000DA6BD96B04012D8D2F89D32B2DAF03D0CF
:10147000E72BD8B4E82B2FA128D0E12BD8B4E22B4E
:10148000050109BF05D00951000802E209071ED075
:10149000090E096F0ABF05D00A51000802E20A07C7
:1014A00015D0050E0A6F0BBF05D00B51000802E2E4
:1014B0000B070CD0090E0B6F0CBF05D00C510008A8
:1014C00002E20C0703D004012F85050104012EB9A7
:1014D00002D02FAF1CD0F52BF5BF05D0F551090870
:1014E00002E2F56BF62BF6BF05D0F651050802E2D5
:1014F000F66BF72BF7BF05D0F751090802E2F76B3F
:10150000F82BF8BF04D0F851050801E2F86B05018B
:10151000E26BE16B04012F8D0501E451050820E326
:10152000E4531CE0E351630819E3DCC536F6060119
:10153000362B3607D8B406D0FF0E376F000143DFD5
:101540000601F7D7DBC537F600013DDF8B849494A5
:10155000A60E006E002EFED7000005018B94949419
:10156000F29200012CEF00F0060EEA6E010EE96E19
:10157000EF500DE0060E016E006A002EFED7012E20
:10158000FBD77B0E006E002EFED7EF2EF3D7000C9C
:101590000501ED51060804E1E36B8B84949437D088
:1015A000ED51050807E10F0EE36F070EDC6FD00E5B
:1015B000DB6F2DD0ED51040807E1190EE36F0B0E20
:1015C000DC6FB80EDB6F23D0ED51030807E1230E6B
:1015D000E36F0E0EDC6F100EDB6F19D0ED510208B9
:1015E00007E12D0EE36F100EDC6FCC0EDB6F0FD01A
:1015F000ED2D07D0320EE36F130EDC6F880EDB6F1C
:1016000006D0ED5304E1640EE36F8B9494940001D3
:10161000000C0501FC5303E093968A8602D0939454
:101620008A84939C8A9C956AFDC58CFF0000939EDA
:101630008A8E00D000D00000939E8A9E93948A9454
:1016400093968A960001000C0501F86B170EF76F50
:10165000020EFA6F170EF96FF551FF0DF3CFF6F585
:10166000FC6BFB6BFC5101081AE3F8C503F0F75162
:10167000F72BD8B4F82BE96E03C0EAFFF6C5EFFFED
:10168000FAC503F0F951F92BD8B4FA2BE96E03C06F
:10169000EAFFF6C5EFFFFB2BD8B4FC2BE3D7000124
:1016A000000C0501F86B170EF76F020EFA6F170E9C
:1016B000F96FF56BF55107084EE3939A8A9AFC6B24
:1016C000400EFD6F0001A5DF010E0501FC6F400E0D
:1016D000FD6F00019EDF0501F551B809FB6FFC6B42
:1016E000FD6F000196DF0501F551B809FB6F010E92
:1016F000FC6FFBC5FDF500018CDF939A8A8A05011A
:10170000F66BF6513F0825E3F8C503F0F751F72BC8
:10171000D8B4F82BE96E03C0EAFFEFCFFBF5FC6B02
:10172000FBC5FDF5000175DF0501FAC503F0F951B0
:10173000F92BD8B4FA2BE96E03C0EAFFEFCFFBF523
:10174000010EFC6FFBC5FDF5000163DF0501F62B03
:10175000D8D7F52BAFD70001000C93988A88939EB9
:101760008A9E93948A9493968A96939A8A9A05016C
:10177000FC6BC00EFD6F00014CDF010E0501FC6F1C
:10178000C00EFD6F000145DF0501FC6B400EFD6FD3
:1017900000013FDF010E0501FC6F400EFD6F0001EF
:1017A00038DF0501FC6BB80EFD6F000132DF010E62
:1017B0000501FC6FB80EFD6F00012BDF0501ED2D5B
:1017C0000ED0FC6B3F0EFD6F000123DF010E050103
:1017D000FC6F3F0EFD6F00011CDF0DD00501FC6B9F
:1017E0003E0EFD6F000115DF010E0501FC6F3E0E80
:1017F000FD6F00010EDF0501F56B000125DF51DFF4
:10180000000C0601276B2231266F263326331F0E6C
:1018100026172637273726372737263727372637FD
:1018200027372637273726372737C00E2617215167
:101830002627000E272321513F080DE2170E2625EB
:10184000286F020E2721296F400E285D246F000E9D
:101850002959256F06D0170E2625246F000E272143
:10186000256F235315E025C603F024C6E9FF25C6DE
:10187000EAFF2251070B286F010E006E2851016EFE
:1018800004E0D8900036012EFCD70050EF1215D09E
:1018900025C603F024C6E9FF25C6EAFF2251070B3F
:1018A000286F010E006E2851016E04E0D8900036BA
:1018B000012EFCD70050FF0AEF160001000C09C6EC
:1018C00003F0060108C6E9FF09C6EAFFEF52D8B4E3
:1018D000D0D009C603F008C6E9FF09C6EAFFEF50F9
:1018E000520827E309C603F008C6E9FF09C6EAFF64
:1018F000200EEF5C050DF350036A156F060EEA6EBD
:10190000100EE96E196B15C618F6F2CF16F6F29E98
:10191000050E016EF76A155100014FEC00F00A0048
:101920000900F5CFEEFF012EFBD7060116BFF28EA0
:1019300035D009C603F008C6E9FF09C6EAFFEF5033
:101940007E0827E309C603F008C6E9FF09C6EAFFD7
:10195000530EEF5C050DF350036A156F060EEA6E29
:10196000100EE96E196B15C618F6F2CF16F6F29E38
:10197000050E016EF76A15510001DEEC00F00A0059
:101980000900F5CFEEFF012EFBD7060116BFF28E40
:1019900005D0106B116B126B136B146B09C603F03F
:1019A0000851E96E03C0EAFFEF500A0A000103E0A4
:1019B000070A09E00BD006010A51070DF350010F89
:1019C000072750D000010601066B4CD006010A51D2
:1019D000050DF35006257F0806E2066B0A51070D38
:1019E000F350010F07270C6B0C5104083BE30D6B00
:1019F0000D51060833E3036A0C51100FE96E060E11
:101A00000320EA6EEFCF15F615C600F00D51016EFA
:101A100004E0D8900032012EFCD700A01DD00E6B40
:101A20000A510E5D19E20F6B0A510F5D13E20F515F
:101A30000625156F0D510A03F35007250E25166F65
:101A400015C621F6226F0BC623F60001DADE060169
:101A50000F2BEAD70E2BE4D70D2BCAD70C2B0A512C
:101A60000627C2D7082BD8B4092B062B000127D78D
:101A700006010001000C8E0E006E23C601F022C686
:101A800002F0036A015209E102C001F0026A080E85
:101A9000005E015202E1006A08D0D89001BE04D075
:101AA000023601360006F9D7019E000C06011E51D0
:101AB000D8B4A5D02A6F2251D8B4A1D02A5F05E3AB
:101AC0007F0E2A27D8B09BD006D0810E2A5FD8A0DF
:101AD00096D0D8B494D02AC600F0016A026A036A8C
:101AE000296B1FC628F6288F20C627F621C626F6A2
:101AF000190E2A6F2551265F0DE2010E275F0AE2BB
:101B0000285F08E2295F06E2292B282B272B255185
:101B1000262728D02451275F12E2010E285F0FE20A
:101B2000295F0DE2292B282B245127272551262711
:101B300019E3272B17E1282B15E1292B13D023516B
:101B40008009285F0EE2010E295F0BE2292B235149
:101B50008009282724512727E9E3282BE7E1292BAF
:101B6000E5D703802A2F01D00BD0D890263727370E
:101B700028372937D8900336023601362B37BAD7A3
:101B80002BA106D0D8900132023203322B3302D07F
:101B9000000635E02BBF1ED0D890263727372837D0
:101BA00029372551265F07E2010E275F04E2285FEF
:101BB00002E2295F1AE32451275F05E2010E285F44
:101BC00002E2295F12E323518009285F03E2010E3C
:101BD000295F0BE3032A09E1022A07E1012A05E153
:101BE000002A0DE00132023203321FC62AF62351C9
:101BF0002A1B2AAF02D0018E06D0019E04D0006AB3
:101C0000016A026A036A0001000C800ED8A202D0A9
:101C10000601271B06012C6B2D6B23C62BF62751C3
:101C20002B1B2251D8B4DFD02A6F006E2651D8B4B6
:101C3000E3D02A5FD8B483D03EE327C630F6308F96
:101C400028C62FF629C62EF62D6BD89030332F33A9
:101C50002E332D332A2FF8D72BAF03D02C81E0D091
:101C60002C912A912C89060EEA6E250EE96EEBD096
:101C70002C992BBF0AD02AA113D030332F332E3307
:101C80002D33002AD8B4C7D00BD030BF0CD0D89099
:101C90002D372E372F3730370006D8B4BCD0F5D7C4
:101CA0002C8D6DD02C9D23C62BF623AF02D0308F08
:101CB000ABD0309FA9D026C62AF626C600F0225106
:101CC0002A5F23C630F6308F24C62FF625C62EF69F
:101CD0002D6BD89030332F332E332D332A2FF8D756
:101CE0002BAF03D02C839CD02C932A912C8B060EE7
:101CF000EA6E290EE96EA7D02C9B2BBF0AD02AA131
:101D000013D030332F332E332D33002AD8B483D061
:101D10000BD030BF0CD0D8902D372E372F3730371F
:101D20000006D8B478D0F5D72C8F29D02C9F27C6A1
:101D30002BF627AF02D0308F67D0309F65D027C6F3
:101D400030F6308F28C62FF629C62EF62BAF04D0DA
:101D5000309F2C8565D02C952D6B2A91060EEA6E4E
:101D6000250EE96E70D02BBF1CD023C62BF62AA1FE
:101D700006D030332F332E332D33002A4CE02DAFD5
:101D80000BD02E2B09E12F2B07E1302B05E130334F
:101D90002F332E33002A3FE02CBD84D72CBFC6D76B
:101DA0001CD0800E301B30AF04D03AD027C62BF6A3
:101DB0000AD023C62BF6305306E12F5304E12E53ED
:101DC00002E1006A21D030BF08D0D8902D372E37DD
:101DD0002F373037002EF7D71ED02BAF02D0308FE1
:101DE00013D0309F11D026C600F027C630F628C683
:101DF0002FF629C62EF608D022C600F023C630F6EC
:101E000024C62FF625C62EF630C601F02FC602F0E6
:101E10002EC603F034D0006A016A026A036A2FD02A
:101E20002D6B2E1F2F1F301F2D1F2D2B05E12E2B4D
:101E300003E12F2B01E1302B2CB112D72CB354D757
:101E40002CB589D7B3D7EF502E2705E32F2B03E10D
:101E5000302BD8B42A81ED52EF502F2703E3302BDB
:101E6000D8B42A81ED52EF50EFBE01D0800A30275E
:101E7000D8B02A812CB9FCD62CBB3ED774D7000130
:101E8000000CF2CFEDF5F29EAA6AA96AA69CA69E66
:101E9000A680A8500501EDBFF28E156F0A0E06014F
:101EA000016F0001B4EC0AF0F2CFEDF5F29EAA6AE0
:101EB000010EA96EA69CA69EA680A8500501EDBFA6
:101EC000F28E166F0A0E0601016F0001B4EC0AF0E3
:101ED000F2CFEDF5F29EAA6A020EA96EA69CA69E0E
:101EE000A680A8500501EDBFF28E176F0A0E0601FD
:101EF000016F0001B4EC0AF0F2CFEDF5F29EAA6A90
:101F0000030EA96EA69CA69EA680A8500501EDBF53
:101F1000F28E186F0A0E0601016F0001B4EC0AF090
:101F2000F2CFEDF5F29EAA6A040EA96EA69CA69EBB
:101F3000A680A8500501EDBFF28E0401F96F0A0ECC
:101F40000601016F0001B4EC0AF0F2CFEDF5F29E4C
:101F5000AA6A050EA96EA69CA69EA680A850050199
:101F6000EDBFF28E0401FA6F0A0E0601016F000147
:101F7000B4EC0AF0F2CFEDF5F29EAA6A060EA96E55
:101F8000A69CA69EA680A8500501EDBFF28E040176
:101F9000FB6F0A0E0601016F0001B4EC0AF0F2CFEC
:101FA000EDF5F29EAA6A070EA96EA69CA69EA680D3
:101FB000A8500501EDBFF28E0401FC6F0A0E060168
:101FC000016F0001B4EC0AF0F2CFEDF5F29EAA6ABF
:101FD000080EA96EA69CA69EA680A8500501EDBF7E
:101FE000F28E0401FD6F0A0E0601016F0001B4ECD0
:101FF0000AF0F2CFEDF5F29EAA6A090EA96EA69C30
:10200000A69EA680A8500501EDBFF28E0401FE6FCA
:102010000A0E0601016F0001B4EC0AF0F2CFEDF5F3
:10202000F29EAA6A0A0EA96EA69CA69EA680A85039
:102030000501EDBFF28E0401FF6F0A0E0601016F6C
:102040000001B4EC0AF0F2CFEDF5F29EAA6A0B0E95
:10205000A96EA69CA69EA680A8500501EDBFF28E93
:10206000006F0A0E0601016F0001B4EC0AF0F2CF16
:10207000EDF5F29EAA6A0C0EA96EA69CA69EA680FD
:10208000A8500501EDBFF28E016F0A0E0601016F27
:102090000001B4EC0AF0F2CFEDF5F29EAA6A0D0E43
:1020A000A96EA69CA69EA680A8500501EDBFF28E43
:1020B000026F0A0E0601016F0001B4EC0AF0F2CFC4
:1020C000EDF5F29EAA6A0E0EA96EA69CA69EA680AB
:1020D000A8500501EDBFF28E036F0A0E0601016FD5
:1020E0000001B4EC0AF0F2CFEDF5F29EAA6A0F0EF1
:1020F000A96EA69CA69EA680A8500501EDBFF28EF3
:10210000046F0A0E0601016F0001B4EC0AF0F2CF71
:10211000EDF5F29EAA6A100EA96EA69CA69EA68058
:10212000A8500501EDBFF28E0D6F0A0E0601016F7A
:102130000001B4EC0AF0F2CFEDF5F29EAA6A110E9E
:10214000A96EA69CA69EA680A8500501EDBFF28EA2
:102150000E6F0A0E0601016F0001B4EC0AF0F2CF17
:10216000EDF5F29EAA6A120EA96EA69CA69EA68006
:10217000A8500501EDBFF28E0F6F0A0E0601016F28
:102180000001B4EC0AF0F2CFEDF5F29EAA6A130E4C
:10219000A96EA69CA69EA680A8500501EDBFF28E52
:1021A000106F0A0E0601016F0001B4EC0AF0F2CFC5
:1021B000EDF5F29EAA6A150EA96EA69CA69EA680B3
:1021C000A8500501EDBFF28E056F0A0E0601016FE2
:1021D0000001B4EC0AF0F2CFEDF5F29EAA6A160EF9
:1021E000A96EA69CA69EA680A8500501EDBFF28E02
:1021F000066F0A0E0601016F0001B4EC0AF0F2CF7F
:10220000EDF5F29EAA6A170EA96EA69CA69EA68060
:10221000A8500501EDBFF28E076F0A0E0601016F8F
:102220000001B4EC0AF0F2CFEDF5F29EAA6A180EA6
:10223000A96EA69CA69EA680A8500501EDBFF28EB1
:10224000086F0A0E0601016F0001B4EC0AF0F2CF2C
:10225000EDF5F29EAA6A190EA96EA69CA69EA6800E
:10226000A8500501EDBFF28E0401D86F0A0E0601D9
:10227000016F0001B4EC0AF0F2CFEDF5F29EAA6A0C
:102280001A0EA96EA69CA69EA680A8500501EDBFB9
:10229000F28E0601236B226F00013BEC0DF003C0B0
:1022A0004CF502C04BF501C04AF500C049F50A0ED5
:1022B0000601016F0001B4EC0AF04CC521F64BC5D4
:1022C00020F64AC51FF649C51EF60601256B246B8C
:1022D000200E236F820E226F000156EC0DF003C01A
:1022E0004CF502C04BF501C04AF500C049F50601A6
:1022F000236BD8C422F600013BEC0DF0D89203C04A
:1023000025F602C024F601C023F600C022F64CC513
:1023100029F64BC528F64AC527F649C526F675DCC9
:1023200003C044F502C043F501C042F500C041F5C9
:10233000F2CFEDF5F29EAA6A1B0EA96EA69CA69E90
:10234000A680A8500501EDBFF28E0401D86F0A0ED9
:102350000601016F0001B4EC0AF0F2CFEDF5F29E38
:10236000AA6A1C0EA96EA69CA69EA680A85005016E
:10237000EDBFF28E0601236B226F00013BEC0DF0E6
:1023800003C04CF502C04BF501C04AF500C049F549
:102390000A0E0601016F0001B4EC0AF04CC521F6EB
:1023A0004BC520F64AC51FF649C51EF60601256B2A
:1023B000246B200E236F820E226F000156EC0DF06D
:1023C00003C04CF502C04BF501C04AF500C049F509
:1023D0000601236BD8C422F600013BEC0DF0D89225
:1023E00003C025F602C024F601C023F600C022F681
:1023F0004CC529F64BC528F64AC527F649C526F629
:1024000004DC03C048F502C047F501C046F500C032
:1024100045F5F2CFEDF5F29EAA6A1E0EA96EA69CB6
:10242000A69EA680A8500501EDBFF28EEE6FF2CFFA
:10243000EFF5F29EAA6A1D0EA96EA69CA69EA68026
:10244000A850EFBFF28EF06FEEC503F0F051060119
:10245000226F03C023F600013BEC0DF003C0CCF566
:1024600002C0CBF501C0CAF500C0C9F50A0E0601CD
:10247000016F0001B4EC0AF0F2CFEDF5F29EAA6A0A
:10248000220EA96EA69CA69EA680A8500501EDBFAF
:10249000F28EEE6FF2CFEFF5F29EAA6A210EA96ED0
:1024A000A69CA69EA680A850EFBFF28EF06FEEC548
:1024B000E8F4F0C5E7F40A0E0601016F0001B4EC80
:1024C0000AF0F2CFEDF5F29EAA6A1F0EA96EA69C45
:1024D000A69EA680A8500501EDBFF28E0401E66B12
:1024E000E56F0A0E0601016F0001B4EC0AF0F2CFAD
:1024F000EDF5F29EAA6A200EA96EA69CA69EA68065
:10250000A8500501EDBFF28EE46F0A0E0601016FBF
:102510000001B4EC0AF0F2CFEDF5F29EAA6A3D0E8E
:10252000A96EA69CA69EA680A8500501EDBFF28EBE
:10253000EE6FF2CFEFF5F29EAA6A3C0EA96EA69C52
:10254000A69EA680A850EFBFF28EF06FEEC503F0F6
:10255000F0510601226F03C023F600013BEC0DF0A1
:1025600003C028F502C027F501C026F500C025F5F7
:102570000A0E0601016F0001B4EC0AF0F2CFEDF58E
:10258000F29EAA6A3F0EA96EA69CA69EA680A8509F
:102590000501EDBFF28EEE6FF2CFEFF5F29EAA6A63
:1025A0003E0EA96EA69CA69EA680A850EFBFF28EF6
:1025B000F06FEEC503F0F0510601226F03C023F661
:1025C00000013BEC0DF003C0D8F502C0D7F501C007
:1025D000D6F500C0D5F50A0E0601016F0001B4EC76
:1025E0000AF0F2CFEDF5F29EAA6A320EA96EA69C11
:1025F000A69EA680A8500501EDBFF28E0401D06F03
:102600000A0E0601016F0001B4EC0AF09AEF33F0F4
:102610001FC626F606012351261B26AF05D0D894E7
:10262000D8901FBFD8802FD01FC626F622C627F607
:102630001E51275F06E026AF26D0D850010AD86E7B
:1026400022D023C627F61F51275F06E026AF1BD0F6
:10265000D850010AD86E17D024C627F62051275F1C
:1026600006E026AF10D0D850010AD86E0CD025C68F
:1026700027F62151275F06E026AF05D0D850010A82
:10268000D86E01D0D8900001000C050115BF03D011
:102690001551090803E315BF01D016D0156BAA6ABE
:1026A000A96AA86AA69CA69EA684F250006EF29E15
:1026B0000F01550EA76EAA0EA76EA682A6B2FED770
:1026C000A6940050F212050116BF03D01651090856
:1026D00003E316BF01D017D0166BAA6A010EA96ECC
:1026E000A86AA69CA69EA684F250006EF29E0F01D8
:1026F000550EA76EAA0EA76EA682A6B2FED7A69406
:102700000050F212050117BF03D01751090803E367
:1027100017BF01D017D0176BAA6A020EA96EA86A5C
:10272000A69CA69EA684F250006EF29E0F01550E46
:10273000A76EAA0EA76EA682A6B2FED7A6940050D8
:10274000F212050118BF03D01851090803E318BF9E
:1027500001D016D0186BAA6A030EA96EA86AA69CAF
:10276000A69EA684F250006EF29E0F01550EA76E33
:10277000AA0EA76EA682A6B2FED7A6940050F212A9
:102780000401F9BF03D0F951090803E3F9BF01D0EF
:1027900017D0F96BAA6A040EA96EA86AA69CA69E19
:1027A000A684F250006EF29E0F01550EA76EAA0E7F
:1027B000A76EA682A6B2FED7A6940050F21204011C
:1027C000FABF03D0FA51090803E3FABF01D017D0CA
:1027D000FA6BAA6A050EA96EA86AA69CA69EA68494
:1027E000F250006EF29E0F01550EA76EAA0EA76E54
:1027F000A682A6B2FED7A6940050F2120401FBBF37
:1028000003D0FB51090803E3FBBF01D019D0020E2E
:10281000FB6FAA6A060EA96E020EA86EA69CA69E63
:10282000A684F250006EF29E0F01550EA76EAA0EFE
:10283000A76EA682A6B2FED7A6940050F21204019B
:10284000FCBF03D0FC51090803E3FCBF01D017D043
:10285000FC6BAA6A070EA96EA86AA69CA69EA6840F
:10286000F250006EF29E0F01550EA76EAA0EA76ED3
:10287000A682A6B2FED7A6940050F2120401FDBFB4
:1028800003D0FD51090803E3FDBF01D017D0FD6B54
:10289000AA6A080EA96EA86AA69CA69EA684F250F3
:1028A000006EF29E0F01550EA76EAA0EA76EA682AD
:1028B000A6B2FED7A6940050F2120401FEBF03D0C8
:1028C000FE51090803E3FEBF01D017D0FE6BAA6AD0
:1028D000090EA96EA86AA69CA69EA684F250006E58
:1028E000F29E0F01550EA76EAA0EA76EA682A6B283
:1028F000FED7A6940050F2120401FFBF03D0FF518F
:10290000090803E3FFBF01D018D0020EFF6FAA6AC7
:102910000A0EA96E020EA86EA69CA69EA684F25070
:10292000006EF29E0F01550EA76EAA0EA76EA6822C
:10293000A6B2FED7A6940050F212050100BF03D044
:102940000051090803E300BF01D017D0006BAA6A49
:102950000B0EA96EA86AA69CA69EA684F250006ED5
:10296000F29E0F01550EA76EAA0EA76EA682A6B202
:10297000FED7A6940050F212050101BF03D0015109
:10298000090803E301BF01D017D0016BAA6A0C0E3E
:10299000A96EA86AA69CA69EA684F250006EF29E1E
:1029A0000F01550EA76EAA0EA76EA682A6B2FED77D
:1029B000A6940050F212050102BF03D0025109088B
:1029C00003E302BF01D017D0026BAA6A0D0EA96EF5
:1029D000A86AA69CA69EA684F250006EF29E0F01E5
:1029E000550EA76EAA0EA76EA682A6B2FED7A69413
:1029F0000050F212050103BF03D00351090803E39D
:102A000003BF01D017D0036BAA6A0E0EA96EA86A85
:102A1000A69CA69EA684F250006EF29E0F01550E53
:102A2000A76EAA0EA76EA682A6B2FED7A6940050E5
:102A3000F212050104BF03D00451090803E304BFE7
:102A400001D017D0046BAA6A0F0EA96EA86AA69CC3
:102A5000A69EA684F250006EF29E0F01550EA76E40
:102A6000AA0EA76EA682A6B2FED7A6940050F212B6
:102A700005010DBF03D00D51090803E30DBF01D0BF
:102A800017D00D6BAA6A100EA96EA86AA69CA69E06
:102A9000A684F250006EF29E0F01550EA76EAA0E8C
:102AA000A76EA682A6B2FED7A6940050F212050128
:102AB0000EBF03D00E51090803E30EBF01D017D09B
:102AC0000E6BAA6A110EA96EA86AA69CA69EA68481
:102AD000F250006EF29E0F01550EA76EAA0EA76E61
:102AE000A682A6B2FED7A6940050F21205010FBF2F
:102AF00003D00F51090803E30FBF01D017D00F6BAC
:102B0000AA6A120EA96EA86AA69CA69EA684F25076
:102B1000006EF29E0F01550EA76EAA0EA76EA6823A
:102B2000A6B2FED7A6940050F212050110BF03D042
:102B30001051090803E310BF01D017D0106BAA6A27
:102B4000130EA96EA86AA69CA69EA684F250006EDB
:102B5000F29E0F01550EA76EAA0EA76EA682A6B210
:102B6000FED7A6940050F212050105BF03D005510F
:102B7000090803E305BF01D017D0056BAA6A150E3B
:102B8000A96EA86AA69CA69EA684F250006EF29E2C
:102B90000F01550EA76EAA0EA76EA682A6B2FED78B
:102BA000A6940050F212050106BF03D00651090891
:102BB00003E306BF01D017D0066BAA6A160EA96EF2
:102BC000A86AA69CA69EA684F250006EF29E0F01F3
:102BD000550EA76EAA0EA76EA682A6B2FED7A69421
:102BE0000050F212050107BF03D00751090803E3A3
:102BF00007BF01D017D0076BAA6A170EA96EA86A83
:102C0000A69CA69EA684F250006EF29E0F01550E61
:102C1000A76EAA0EA76EA682A6B2FED7A6940050F3
:102C2000F212050108BF03D00851090803E308BFE9
:102C300001D018D0010E086FAA6A180EA96E010EF5
:102C4000A86EA69CA69EA684F250006EF29E0F016E
:102C5000550EA76EAA0EA76EA682A6B2FED7A694A0
:102C60000050F2120601216B206B1F6B800E1E6F4D
:102C700044C525F643C524F642C523F641C522F6D0
:102C80000001C6DC32E30501446B436B400E426F2A
:102C90007F0E416FAA6A190EA96E010EA86EA69C3E
:102CA000A69EA684F250006EF29E0F01550EA76EEE
:102CB000AA0EA76EA682A6B2FED7A6940050F21264
:102CC000AA6A1A0EA96E050EA86EA69CA69EA684D8
:102CD000F250006EF29E550EA76EAA0EA76EA68247
:102CE000A6B2FED7A6940050F2120601216B206B0B
:102CF0001F6B800E1E6F48C525F647C524F646C5D6
:102D000023F645C522F6000183DC30E30501486B5C
:102D1000476B466B7F0E456FAA6A1B0EA96E010EAC
:102D2000A86EA69CA69EA684F250006EF29E0F018D
:102D3000550EA76EAA0EA76EA682A6B2FED7A694BF
:102D40000050F212AA6A1C0EA96EA86AA69CA69E42
:102D5000A684F250006EF29E550EA76EAA0EA76EC4
:102D6000A682A6B2FED7A6940050F2120601216BED
:102D7000206B160E1F6F870E1E6FCCC525F6CBC5B8
:102D800024F6CAC523F6C9C522F6000141DC31E3A9
:102D90000501CC6BCB6B4B0ECA6F860EC96FAA6A4E
:102DA0001D0EA96ECB0EA86EA69CA69EA684F25000
:102DB000006EF29E0F01550EA76EAA0EA76EA68298
:102DC000A6B2FED7A6940050F212AA6A1E0EA96EF1
:102DD000A86AA69CA69EA684F250006EF29E550E8E
:102DE000A76EAA0EA76EA682A6B2FED7A694005022
:102DF000F2120401E65303E1E5513C0817E2E66BE9
:102E0000E56BAA6A1F0EA96EA86AA69CA69EA68458
:102E1000F250006EF29E0F01550EA76EAA0EA76E1D
:102E2000A682A6B2FED7A6940050F2120501E45184
:102E3000060818E2020EE46FAA6A200EA96E020EBE
:102E4000A86EA69CA69EA684F250006EF29E0F016C
:102E5000550EA76EAA0EA76EA682A6B2FED7A6949E
:102E60000050F2120401E8510D0830E2FF0A03E1BC
:102E7000E75110082BE2E86BE76BAA6A210EA96EF6
:102E8000A86AA69CA69EA684F250006EF29E0F0130
:102E9000550EA76EAA0EA76EA682A6B2FED7A6945E
:102EA0000050F212AA6A220EA96EA86AA69CA69EDB
:102EB000A684F250006EF29E550EA76EAA0EA76E63
:102EC000A682A6B2FED7A6940050F2120601216B8C
:102ED000206B480E1F6F860E1E6F28C525F627C56E
:102EE00024F626C523F625C522F6000108EC13F0CA
:102EF0002EE30501286B276B266B256BAA6A3C0E17
:102F0000A96EA86AA69CA69EA684F250006EF29EA8
:102F10000F01550EA76EAA0EA76EA682A6B2FED707
:102F2000A6940050F212AA6A3D0EA96EA86AA69C49
:102F3000A69EA684F250006EF29E550EA76EAA0EB3
:102F4000A76EA682A6B2FED7A6940050F212D8C5EC
:102F500021F6D7C520F6D6C51FF6D5C51EF6060143
:102F6000256B246B340E236F860E226F000108EC54
:102F700013F013E20601216B206B2F0E1F6F870EDB
:102F80001E6FD8C525F6D7C524F6D6C523F6D5C5F8
:102F900022F6000108EC13F031E30501D86BD76B82
:102FA000700ED66F860ED56FAA6A3E0EA96EF00E11
:102FB000A86EA69CA69EA684F250006EF29E0F01FB
:102FC000550EA76EAA0EA76EA682A6B2FED7A6942D
:102FD0000050F212AA6A3F0EA96EA86AA69CA69E8D
:102FE000A684F250006EF29E550EA76EAA0EA76E32
:102FF000A682A6B2FED7A6940050F2120401D051C8
:10300000140819E20A0ED06FAA6A320EA96E0A0ECF
:10301000A86EA69CA69EA684F250006EF29E0F019A
:10302000550EA76EAA0EA76EA682A6B2FED7A694CC
:103030000050F212040100019CEF33F00501FE354F
:10304000006E0036FC0E001600C001F0C250C30B2B
:103050000010C26E010E0601016F0001B4EC0AF00F
:10306000C282C2B2FED7C4CF00F6C3CFFFF5FFC500
:1030700001F0060100C602F00001000C8E0E006E89
:1030800006011E51005E1FC602F020C601F0028E2E
:10309000005209E0D890025202E1015204E00232EB
:1030A0000132002EF7D71FAF05D0011E021E012AE4
:1030B000D8B4022A0001000C06011E51D8B471D008
:1030C000006E2251D8B46DD0002604E3810E002694
:1030D00068E204D07F0E005E64E363E01FC626F65C
:1030E0002351261B1F8F238F21512503F4CF28F650
:1030F00020512403F4CF03F0F3CF27F62503F35038
:103100002827F4502723000E032221512403F350D3
:103110002827F4502723000E026A032202221F519F
:103120002503F3502727F4500322000E02221F51DB
:103130002403F3500326F4500222000E016A0122F8
:1031400021512303F3502727F4500322000E0222BB
:10315000012220512303F3500326F4500222000ED3
:1031600001221F512303F3500226F4500122002AAA
:1031700001BE05D027370336023601360006000EA1
:1031800027AF0AD0032A02220122015005E1025092
:1031900003E1035001E1002A26BF018E26AF019E04
:1031A00004D0006A016A026A036A0001000C060189
:1031B0001D9111C616F610C615F60FC614F60EC6EA
:1031C00013F611C621F610C620F60FC61FF60EC65E
:1031D0001EF6256B246B236B226B000108EC13F0A9
:1031E00005E306011D811451800A146F16C621F6ED
:1031F00015C620F614C61FF613C61EF60601256B6B
:10320000246B236B8E0E226F000108EC13F001E299
:1032100018E116C621F615C620F614C61FF613C609
:103220001EF62CDF02C023F601C022F63BEC0DF0A7
:1032300003C01AF602C019F601C018F600C017F64E
:10324000CFD016C621F615C620F614C61FF613C633
:103250001EF6800E0601256F960E246F180E236F42
:10326000960E226F000108EC13F0D8A0B1D016C65C
:1032700021F615C620F614C61FF613C61EF6060163
:10328000256B246B236B8E0E226F000156EC0DF024
:1032900003C021F602C020F601C01FF600C01EF6D2
:1032A000EDDE02C01CF601C01BF616C621F615C6DF
:1032B00020F614C61FF613C61EF60601256B246BF6
:1032C000236B8E0E226F000156EC0DF000C01EF62F
:1032D00001C01FF602C020F603C021F61CC623F66B
:1032E0001BC622F63BEC0DF0D88221C625F620C67F
:1032F00024F61FC623F61EC622F603C029F602C016
:1033000028F601C027F600C026F605EC0EF00601EF
:10331000216B206B1F6B8E0E1E6F03C025F602C043
:1033200024F601C023F600C022F60001C5DE03C06A
:1033300016F602C015F601C014F600C013F61CC63E
:1033400023F61BC622F63BEC0DF00601216B206B29
:103350001F6B8E0E1E6F03C025F602C024F601C03F
:1033600023F600C022F60001A7DE03C01AF602C051
:1033700019F601C018F600C017F616C621F615C6D4
:1033800020F614C61FF613C61EF678DE02C023F61A
:1033900001C022F63BEC0DF0D8921AC625F619C6EC
:1033A00024F618C623F617C622F603C029F602C073
:1033B00028F601C027F600C026F605EC0EF003C083
:1033C0001AF602C019F601C018F600C017F608D0A8
:1033D00016C61AF615C619F614C618F613C617F649
:1033E00016C621F615C620F614C61FF613C61EF61D
:1033F00045DE02C023F601C022F63BEC0DF0D88278
:1034000016C625F615C624F614C623F613C622F6EC
:1034100003C029F602C028F601C027F600C026F630
:1034200005EC0EF003C016F602C015F601C014F646
:1034300000C013F606011DA103D01851800A186FB1
:1034400016C621F615C620F614C61FF613C61EF6BC
:10345000256B246B236B226B000108EC13F03CE01E
:1034600006011DA11CD012531AE1D8821AC625F6F6
:1034700019C624F618C623F617C622F6296B286B40
:10348000276B7F0E266F000105EC0EF003C01AF6C5
:1034900002C019F601C018F600C017F606011DB1EA
:1034A0001CD0122D1AD0D8921AC625F619C624F6A9
:1034B00018C623F617C622F6296B286B276B7F0EDA
:1034C000266F000105EC0EF003C01AF602C019F6D3
:1034D00001C018F600C017F6060111C621F610C685
:1034E00020F60FC61FF60EC61EF6256B246B236B47
:1034F000226B000108EC13F006E106011A6B196B50
:10350000186B176B000117C600F018C601F019C63A
:1035100002F01AC603F0000C0DC611F60CC610F628
:103520000BC60FF60AC60EF6010E0601126F000159
:103530003EDE09EF1BF00DC611F60CC610F60BC6E9
:103540000FF60AC60EF60601126B000130DE2DEFF3
:103550001BF001C621F600C620F6FFC51FF6FEC50A
:103560001EF60601256B246B236B226B000108EC11
:1035700013F0D8B4A0D0FDC521F6FCC520F6FBC5DC
:103580001FF6FAC51EF601C625F600C624F6FFC5CD
:1035900023F6FEC522F656EC0DF000C006F601C07B
:1035A00007F602C008F603C009F603C021F602C000
:1035B00020F601C01FF600C01EF60601256B246B25
:1035C000236B226B000108EC13F024E3FDC521F608
:1035D000FCC520F6FBC51FF6FAC51EF601C625F68A
:1035E00000C624F6FFC523F6FEC522F656EC0DF004
:1035F00000C006F601C007F602C008F603C009F6CF
:1036000003C00DF602C00CF601C00BF600C00AF6AE
:1036100083D723D0FDC521F6FCC520F6FBC51FF6D8
:10362000FAC51EF601C625F600C624F6FFC523F628
:10363000FEC522F656EC0DF000C006F601C007F6F6
:1036400002C008F603C009F603C00DF602C00CF66E
:1036500001C00BF600C00AF66ED703C005F602C023
:1036600004F601C003F600C002F605C621F604C642
:1036700020F603C61FF602C61EF601C625F600C6D2
:1036800024F6FFC523F6FEC522F616DDD882FDC559
:1036900025F6FCC524F6FBC523F6FAC522F603C0C1
:1036A00029F602C028F601C027F600C026F605EC70
:1036B0000EF001D000D0000C8E0E006E17C601F087
:1036C00016C602F0036A01AE05D0011E021E022AD0
:1036D00001E1012A015209E102C001F0026A080E6B
:1036E000005E015202E1006A0DD0D89001BE04D004
:1036F000023601360006F9D7060117AF02D00001E5
:1037000001D0019E0001000C01C605F600C604F6BA
:10371000FFC503F6FEC502F605C621F604C620F66F
:1037200003C61FF602C61EF60601256B246B236B2B
:103730007F0E226F000108EC13F0D8B443D2060EBE
:103740000601146F020EE96E14C6EAFF7E0EEF6EDC
:10375000D88205C625F604C624F603C623F602C69B
:1037600022F6296B286B276B7F0E266F000105EC74
:103770000EF000C013F601C014F602C015F603C027
:1037800016F6D89205C625F604C624F603C623F617
:1037900002C622F60601296B286B276B7F0E266F67
:1037A000000105EC0EF016C621F615C620F614C66B
:1037B0001FF613C61EF603C025F602C024F601C08C
:1037C00023F600C022F656EC0DF003C005F602C049
:1037D00004F601C003F600C002F605C621F604C6D1
:1037E00020F603C61FF602C61EF605C625F604C659
:1037F00024F603C623F602C622F65EDC03C011F6E9
:1038000002C010F601C00FF600C00EF6BC0E060195
:10381000216F240E206F670E1F6F7D0E1E6F11C665
:1038200025F610C624F60FC623F60EC622F60001B2
:1038300043DC00C013F601C014F602C015F603C045
:1038400016F6D89203C025F602C024F601C023F66E
:1038500000C022F6E30E0601296FE40E286F900ED9
:10386000276F820E266F000105EC0EF003C009F6EB
:1038700002C008F601C007F600C006F609C621F628
:1038800008C620F607C61FF606C61EF611C625F6A0
:1038900010C624F60FC623F60EC622F60DDC00C0B5
:1038A00013F601C014F602C015F603C016F6D8923E
:1038B00003C025F602C024F601C023F600C022F69C
:1038C0001C0E0601296F870E286F570E276F830E77
:1038D000266F000105EC0EF003C009F602C008F6E1
:1038E00001C007F600C006F609C621F608C620F694
:1038F00007C61FF606C61EF611C625F610C624F624
:103900000FC623F60EC622F65CEC18F000C013F6C4
:1039100001C014F602C015F603C016F6D89203C013
:1039200025F602C024F601C023F600C022F6AB0E35
:103930000601296FE10E286F9E0E276F830E266FFA
:10394000000105EC0EF003C009F602C008F601C044
:1039500007F600C006F60601216B206B1F6B7F0E79
:103960001E6F11C625F610C624F60FC623F60EC626
:1039700022F600015CEC18F000C013F601C014F64A
:1039800002C015F603C016F6D89203C025F602C091
:1039900024F601C023F600C022F6B40E0601296FFA
:1039A0002A0E286F820E276F266F000105EC0EF09D
:1039B00003C00DF602C00CF601C00BF600C00AF6FB
:1039C0000DC621F60CC620F60BC61FF60AC61EF65B
:1039D00011C625F610C624F60FC623F60EC622F62B
:1039E0005CEC18F000C013F601C014F602C015F626
:1039F00003C016F6D89203C025F602C024F601C013
:103A000023F600C022F6800E0601296F3E0E286FB5
:103A1000060E276F830E266F000105EC0EF003C023
:103A20000DF602C00CF601C00BF600C00AF60DC67A
:103A300021F60CC620F60BC61FF60AC61EF611C6E6
:103A400025F610C624F60FC623F60EC622F65CEC49
:103A500018F000C013F601C014F602C015F603C03A
:103A600016F6D89203C025F602C024F601C023F64C
:103A700000C022F6AB0E0601296FE10E286F9E0EE4
:103A8000276F820E266F000105EC0EF003C00DF6C5
:103A900002C00CF601C00BF600C00AF605C621F6FE
:103AA00004C620F603C61FF602C61EF609C625F692
:103AB00008C624F607C623F606C622F65CEC18F004
:103AC00000C013F601C014F602C015F603C016F6C6
:103AD00003C021F602C020F601C01FF600C01EF68A
:103AE0000DC625F60CC624F60BC623F60AC622F62A
:103AF00056EC0DF003C009F602C008F601C007F647
:103B000000C006F6050E0601146FFE0EE96E14C61F
:103B1000EAFF7E0EEF5C126F12BF01D014D0000ED0
:103B2000D8801255176B166F16BF17070001C4DD3A
:103B300000C00AF60150800A06010B6F02C00CF6A5
:103B400003C00DF610D0176B12C616F616BF170776
:103B50000001B2DD03C00DF602C00CF601C00BF689
:103B600000C00AF606010DC621F60CC620F60BC6EB
:103B70001FF60AC61EF6180E256F720E246F310E40
:103B8000236F7E0E226F00015CEC18F0D89209C6FC
:103B900025F608C624F607C623F606C622F603C095
:103BA00029F602C028F601C027F600C026F605EC6B
:103BB0000EF003C009F602C008F601C007F600C007
:103BC00006F606D00601096B086B076B066B000151
:103BD00006C600F007C601F008C602F009C603F0E9
:103BE000000C01C621F600C620F6FFC51FF6FEC573
:103BF0001EF6180E0601256F720E246F310E236F0C
:103C00007E0E226F000156EC0DF003C021F602C0BB
:103C100020F601C01FF600C01EF63EEC18F001C0F1
:103C20000EF606010F9101C605F600C604F6FFC5A3
:103C300003F6FEC502F601C621F600C620F6FFC552
:103C40001FF6FEC51EF6256B246B236B226B00014D
:103C500008EC13F006E306010F810E6D0351800A94
:103C6000036F0601096B086B076B066B060EE96EA6
:103C7000EA6E7F0E0E25EF6E05C621F604C620F60D
:103C800003C61FF602C61EF6180E256F720E246FAD
:103C9000310E236F7E0E226F000156EC0DF000C036
:103CA00010F601C011F602C012F603C013F60601A9
:103CB000176B0EC616F616BF17070001FDDCD8827B
:103CC00013C625F612C624F611C623F610C622F630
:103CD00003C029F602C028F601C027F600C026F668
:103CE00005EC0EF003C005F602C004F601C003F6B1
:103CF00000C002F67C0E0601216F880E206F590E5F
:103D00001F6F720E1E6F05C625F604C624F603C685
:103D100023F602C622F600015CEC18F000C010F693
:103D200001C011F602C012F603C013F6D89203C008
:103D300025F602C024F601C023F600C022F6E00EEC
:103D40000601296F970E286F260E276F750E266FB6
:103D5000000105EC0EF003C00DF602C00CF601C028
:103D60000BF600C00AF60DC621F60CC620F60BC6EF
:103D70001FF60AC61EF605C625F604C624F603C6B7
:103D800023F602C622F65CEC18F000C010F601C063
:103D900011F602C012F603C013F6D89203C025F63E
:103DA00002C024F601C023F600C022F6C40E0601AC
:103DB000296F1D0E286F1E0E276F780E266F0001CB
:103DC00005EC0EF003C00DF602C00CF601C00BF6B8
:103DD00000C00AF60DC621F60CC620F60BC61FF66B
:103DE0000AC61EF605C625F604C624F603C623F643
:103DF00002C622F65CEC18F000C010F601C011F605
:103E000002C012F603C013F6D89203C025F602C012
:103E100024F601C023F600C022F65E0E0601296FCB
:103E2000500E286F630E276F7A0E266F000105EC87
:103E30000EF003C00DF602C00CF601C00BF600C078
:103E40000AF60DC621F60CC620F60BC61FF60AC6EA
:103E50001EF605C625F604C624F603C623F602C6DA
:103E600022F65CEC18F000C010F601C011F602C09A
:103E700012F603C013F6D89203C025F602C024F64A
:103E800001C023F600C022F61A0E0601296FFE0EAD
:103E9000286F750E276F7C0E266F000105EC0EF063
:103EA00003C00DF602C00CF601C00BF600C00AF606
:103EB0000DC621F60CC620F60BC61FF60AC61EF666
:103EC00005C625F604C624F603C623F602C622F666
:103ED0005CEC18F000C010F601C011F602C012F63A
:103EE00003C013F6D89203C025F602C024F601C021
:103EF00023F600C022F6180E0601296F720E286FF5
:103F0000310E276F7E0E266F000105EC0EF003C008
:103F10000DF602C00CF601C00BF600C00AF605C68D
:103F200021F604C620F603C61FF602C61EF60DC60D
:103F300025F60CC624F60BC623F60AC622F65CEC60
:103F400018F0D8920601256B246B236B7F0E226F2D
:103F500003C029F602C028F601C027F600C026F6E5
:103F6000000105EC0EF009C621F608C620F607C6CA
:103F70001FF606C61EF603C025F602C024F601C0D1
:103F800023F600C022F65CEC18F003C009F602C06C
:103F900008F601C007F600C006F606010FA119D009
:103FA000216B206B1F6B7F0E1E6F09C625F608C69E
:103FB00024F607C623F606C622F6000156EC0DF0DD
:103FC00003C009F602C008F601C007F600C006F6F5
:103FD000060106C600F007C601F008C602F009C6D1
:103FE00003F00001000CF5C521F6F4C520F6F3C579
:103FF0001FF6F2C51EF60601256B246B236B226BA0
:10400000000108EC13F0D8A0DBD0F9C5FDF5F8C528
:10401000FCF5F7C5FBF5F6C5FAF50601016B006B7B
:104020000501FF6B7F0EFE6F0001A9EC1AF000C0C6
:10403000FAF501C0FBF502C0FCF503C0FDF503C0B5
:1040400021F602C020F601C01FF600C01EF60601D0
:10405000256B246B236B226B000108EC13F0D8A4B2
:10406000AFD0F9C5FDF5F8C5FCF5F7C5FBF5F6C50C
:10407000FAF50601016B006B0501FF6B800EFE6F08
:104080000001A9EC1AF000C0FAF501C0FBF502C06E
:10409000FCF503C0FDF503C021F602C020F601C007
:1040A0001FF600C01EF60601256B246B236B226BE6
:1040B000000108EC13F041E1F2C5FAF50501F351F6
:1040C000800AFB6FF4C5FCF5F5C5FDF5F5C501F6F5
:1040D000F4C500F6FF6FF2C5FEF5000184EC1BF09D
:1040E00000C0FAF501C0FBF502C0FCF503C0FDF508
:1040F00003C021F602C020F601C01FF600C01EF664
:10410000F9C525F6F8C524F6F7C523F6F6C522F657
:104110005CEC18F000C0FAF501C0FBF502C0FCF53C
:1041200003C0FDF503C001F602C000F601C0FFF5B3
:1041300000C0FEF556DDDFD042D0F2C5FAF505012C
:10414000F351800AFB6FF4C5FCF5F5C5FDF5F5C527
:1041500001F6F4C500F6FF6FF2C5FEF5000184EC30
:104160001BF000C0FAF501C0FBF502C0FCF503C06E
:10417000FDF503C021F602C020F601C01FF600C005
:104180001EF6F9C525F6F8C524F6F7C523F6F6C5DB
:1041900022F65CEC18F000C0FAF501C0FBF502C095
:1041A000FCF503C0FDF503C001F602C000F601C036
:1041B000FFF500C0FEF515DD800E011A9CD09BD0E6
:1041C000F5C521F6F4C520F6F3C51FF6F2C51EF6B7
:1041D0000601256B246B236B226B000108EC13F0A6
:1041E00031E3F9C5FDF5F8C5FCF5F7C5FBF5F6C5F6
:1041F000FAF50601016B006B0501FF6B7F0EFE6F88
:104200000001A9EC1AF000C0FAF501C0FBF502C0EC
:10421000FCF503C0FDF503C021F602C020F601C085
:104220001FF600C01EF60601256B246B236B226B64
:10423000000108EC13F006E0006A016A026A036AF2
:104240005AD059D0F5C521F6F4C520F6F3C51FF6AE
:10425000F2C51EF60601256B246B236B226B000151
:1042600008EC13F012E1F9C521F6F8C520F6F7C500
:104270001FF6F6C51EF60601256B246B236B226B19
:10428000000108EC13F001E236E1F5C501F6F4C5D2
:1042900000F6F3C5FFF5F2C5FEF584EC1BF000C097
:1042A000FAF501C0FBF502C0FCF503C0FDF503C043
:1042B00021F602C020F601C01FF600C01EF6F9C5A7
:1042C00025F6F8C524F6F7C523F6F6C522F65CEC0C
:1042D00018F000C0FAF501C0FBF502C0FCF503C000
:1042E000FDF503C001F602C000F601C0FFF500C0F5
:1042F000FEF577DC00D0000C010E0501FE6F000119
:104300001EEC18F002C0DCF401C0DBF40401D05153
:104310000A0823E1DCC423F6DBC422F600013BECEF
:104320000DF0D89203C025F602C024F601C023F692
:1043300000C022F628C529F627C528F626C527F687
:1043400025C526F605EC0EF003C038F502C037F59A
:1043500001C036F500C035F50401D051140822E142
:10436000DCC423F6DBC422F600013BEC0DF0D8825E
:1043700003C025F602C024F601C023F600C022F6D1
:1043800028C529F627C528F626C527F625C526F609
:1043900005EC0EF003C038F502C037F501C036F564
:1043A00000C035F538C5F5F537C5F4F536C5F3F574
:1043B00035C5F2F50501F96BF86B400EF76F800E0D
:1043C000F66F000110DE00C0EEF501C0EFF502C08F
:1043D000F0F503C0F1F503C021F602C020F601C0DC
:1043E0001FF600C01EF654C525F653C524F652C567
:1043F00023F651C522F65CEC18F000C0EEF501C0C2
:10440000EFF502C0F0F503C0F1F538C5F5F537C595
:10441000F4F536C5F3F535C5F2F50501F96BF86B22
:10442000F76B800EF66F0001DEDD00C0F2F501C013
:10443000F3F502C0F4F503C0F5F503C021F602C0A0
:1044400020F601C01FF600C01EF658C525F657C558
:1044500024F656C523F655C522F65CEC18F0EACFD3
:10446000F3F5E9CFF2F5D892F1C525F6F0C524F6BB
:10447000EFC523F6EEC522F603C029F602C028F6E2
:1044800001C027F600C026F605EC0EF0F3C5EAFFE2
:10449000F2C5E9FF00C0EEF501C0EFF502C0F0F58E
:1044A00003C0F1F538C521F637C520F636C51FF62D
:1044B00035C51EF65CC525F65BC524F65AC523F640
:1044C00059C522F65CEC18F0EACFF5F5E9CFF4F522
:1044D000D892F1C525F6F0C524F6EFC523F6EEC552
:1044E00022F603C029F602C028F601C027F600C054
:1044F00026F605EC0EF0F5C5EAFFF4C5E9FF00C0AD
:10450000EEF501C0EFF502C0F0F503C0F1F5EACF1A
:10451000F7F5E9CFF6F5D89203C025F602C024F6E8
:1045200001C023F600C022F660C529F65FC528F653
:104530005EC527F65DC526F605EC0EF0F7C5EAFF69
:10454000F6C5E9FF03C034F502C033F501C032F50A
:1045500000C031F534C521F633C520F632C51FF64B
:1045600031C51EF60601256B246B236B226B0001FF
:1045700008EC13F005E30501346B336B326B316BE0
:104580000501ED510401D65D01E3D66BD651040D52
:10459000F350036A610FE96E050E0320EA6E31C520
:1045A000EFFF32C5ECFF33C5ECFF34C5ECFFD62B73
:1045B0000501C46BC36BC26BC16B0401D76B010EE9
:1045C0000501ED5D0401D75D01E038E2D751040D2E
:1045D000F350036A610FE96E050E0320EA6EEFCF18
:1045E00000F0ECCF01F0ECCF02F0ECCF03F0EACF1B
:1045F000EFF5E9CFEEF5D892C4C525F6C3C524F68C
:10460000C2C523F6C1C522F603C029F602C028F6AA
:1046100001C027F600C026F6000105EC0EF0EFC53C
:10462000EAFFEEC5E9FF03C0C4F502C0C3F501C04F
:10463000C2F500C0C1F50401D72BC1D70601236B19
:10464000EDC522F600013BEC0DF0C4C521F6C3C553
:1046500020F6C2C51FF6C1C51EF603C025F602C06E
:1046600024F601C023F600C022F656EC0DF000C07F
:10467000EEF501C0EFF502C0F0F503C0F1F503C09F
:1046800021F602C020F601C01FF600C01EF644C588
:1046900025F643C524F642C523F641C522F65CEC57
:1046A00018F003C0C4F502C0C3F501C0C2F500C0D4
:1046B000C1F5C1C500F0C2C501F0C3C502F0C4C553
:1046C00003F0A8EF33F00501F16BF06BEF6BEE6BCD
:1046D000F56BF46BF36BF26BF96BF86BF76BF66BD6
:1046E000FD6BFC6BFB6BFA6BFE6B00011EEC18F0B4
:1046F00002C023F601C022F63BEC0DF003C0F1F539
:1047000002C0F0F501C0EFF500C0EEF50601216B27
:10471000206B200E1F6F810E1E6FF1C525F6F0C5B0
:1047200024F6EFC523F6EEC522F600015CEC18F086
:1047300000C0FEF501C0FFF502C000F603C001F69F
:1047400003C021F602C020F601C01FF600C01EF60D
:104750000601256BC00E246F7F0E236F880E226F1B
:10476000000156EC0DF003C0F5F502C0F4F501C0F0
:10477000F3F500C0F2F5F5C521F6F4C520F6F3C552
:104780001FF6F2C51EF60A0E0601256FD70E246F1E
:10479000230E236F780E226F000156EC0DF003C03C
:1047A000F9F502C0F8F501C0F7F500C0F6F505010E
:1047B000DE51ED5D01E2DE6BDE51040DF350036A64
:1047C000810FE96E050E0320EA6EF6C5EFFFF7C50F
:1047D000ECFFF8C5ECFFF9C5ECFFDE2BFD6BFC6BC5
:1047E000FB6BFA6BDF6B010EED5DDF5D01E038E224
:1047F000DF51040DF350036A810FE96E050E0320AB
:10480000EA6EEFCF00F0ECCF01F0ECCF02F0ECCF8E
:1048100003F0EACFFFF5E9CFFEF5D892FDC525F606
:10482000FCC524F6FBC523F6FAC522F603C029F61B
:1048300002C028F601C027F600C026F6000105ECEC
:104840000EF0FFC5EAFFFEC5E9FF03C0FDF502C09B
:10485000FCF501C0FBF500C0FAF50501DF2BC3D75D
:104860000601236BEDC522F600013BEC0DF0FDC502
:1048700021F6FCC520F6FBC51FF6FAC51EF603C0DF
:1048800025F602C024F601C023F600C022F656EC3D
:104890000DF0B6EF33F00501F16BF06BEF6BEE6BE3
:1048A000F56BF46BF36BF26BF96BF86BF76BF66B04
:1048B000FD6BFC6BFB6BFA6B020EFE6F00011EECD6
:1048C00018F002C0DEF401C0DDF4DEC423F6DDC45E
:1048D00022F63BEC0DF003C0D0F502C0CFF501C0CD
:1048E000CEF500C0CDF5D0C521F6CFC520F6CEC59A
:1048F0001FF6CDC51EF6D8C525F6D7C524F6D6C5F4
:1049000023F6D5C522F656EC0DF000C0FEF501C029
:10491000FFF502C000F603C001F6D88203C025F6F9
:1049200002C024F601C023F600C022F60601296B5E
:10493000286B276B7F0E266F000105EC0EF003C07D
:10494000D4F502C0D3F501C0D2F500C0D1F5D4C56D
:1049500021F6D3C520F6D2C51FF6D1C51EF6060135
:10496000256B246B236B226B000108EC13F005E32D
:104970000501D46BD36BD26BD16B010E0501ED5DDC
:104980000401D55D02E001E3D56BD551040DF35070
:10499000036AA10FE96E050E0320EA6ED4C521F665
:1049A000D3C520F6D2C51FF6D1C51EF6D70E060117
:1049B000256FA30E246F236B810E226F00015CEC28
:1049C00018F000C0EFFF01C0ECFF02C0ECFF03C015
:1049D000ECFF0401D52BD46B010E0501ED5D040144
:1049E000D45D01E038E2D451040DF350036AA10F05
:1049F000E96E050E0320EA6EEFCF00F0ECCF01F078
:104A0000ECCF02F0ECCF03F0EACFFFF5E9CFFEF5F3
:104A1000D892F1C525F6F0C524F6EFC523F6EEC50C
:104A200022F603C029F602C028F601C027F600C00E
:104A300026F6000105EC0EF0FFC5EAFFFEC5E9FF12
:104A400003C0F1F502C0F0F501C0EFF500C0EEF5CE
:104A50000401D42BC1D70601236BEDC522F600015A
:104A60003BEC0DF0F1C521F6F0C520F6EFC51FF6C1
:104A7000EEC51EF603C025F602C024F601C023F6DB
:104A800000C022F656EC0DF003C0F1F502C0F0F5BF
:104A900001C0EFF500C0EEF5F1C521F6F0C520F636
:104AA000EFC51FF6EEC51EF648C525F647C524F628
:104AB00046C523F645C522F65CEC18F0C8EF33F086
:104AC00006010B51016A0A5D03E20AC600F00CD030
:104AD000006A080E0C6F0A3700360B51005CD8B024
:104AE000006E01360C2FF7D70001000C2CC4EAFF32
:104AF0002BC4E9FF06010FC6EFFFE92AD8B4EA2A62
:104B0000EF6A04012B2BD8B42C2B0001000C200ED3
:104B1000060105A9300E066F04C600F004AF07D0E9
:104B2000001E002A00C004F62D0E066F058F0150EE
:104B300004C60AF6640E0B6F0001C2DF00C004F663
:104B4000300E01240601076F04C60AF60A0E0B6F29
:104B50000001B6DF300E00240601096F300E01247B
:104B6000086F06C600F005A702D005AF059505B988
:104B70000BD005AF22D005B520D000C007F605B395
:104B80001CD000C008F619D0300E075D16E100C039
:104B900007F6200E066F05A704D00595058305AF1F
:104BA0000593300E085D09E100C008F6200E076F7E
:104BB00005A7F7D7059305AF059105A505D006C64E
:104BC0000FF6000193DF060105A305D007C60FF617
:104BD00000018CDF060105A104D008C60FF6000114
:104BE00085DF09C60FF6000181DF000C010E06010A
:104BF0001A6F1B6F206B1151135D216F215121AF73
:104C000003D0000ED8802155036A186F03C019F62F
:104C10001251145D216F215121AF03D0000ED880B5
:104C20002155036A166F03C017F61151135D02E296
:104C3000FF0E1A6F1251145D02E2FF0E1B6F175127
:104C4000195D3CE303E11651185D38E3D89016373F
:104C500017371851165D006E1951175900C01CF610
:104C60001D6F18511C5D1E6F19511D591F6F19536F
:104C700003E12051185D21E311C621F612C622F688
:104C800015C623F6000101EC0CF006011DBF01D092
:104C900008D016511C2717511D231A511125116FC9
:104CA0000AD01E511C271F511D231A511125116FA7
:104CB0001B511225126F202BDAD737D0D890183716
:104CC00019371651185D006E1751195900C01CF69E
:104CD0001D6F16511C5D1E6F17511D591F6F175305
:104CE00003E12051165D21E311C621F612C622F61A
:104CF00015C623F6000101EC0CF006011DBF01D022
:104D000008D018511C2719511D231B511225126F51
:104D10000AD01E511C271F511D231A511125116F36
:104D20001B511225126F202BDAD70001000C06014F
:104D30000A532FE00851065D05E206C60DF608C6C7
:104D40000EF604D008C60DF606C60EF60951075D2C
:104D500005E207C60FF609C610F604D009C60FF61D
:104D600007C610F60D510E5D13E30FC60CF60C517D
:104D7000105D0CE30DC621F60CC622F60BC623F619
:104D8000000101EC0CF006010C2BF1D70D2BEAD73A
:104D90002ED006C611F607C612F608C613F607C6C9
:104DA00014F60BC615F6000121DF06C611F609C67A
:104DB00012F608C613F609C614F60BC615F616DF6A
:104DC00006C611F607C612F606C613F609C614F68D
:104DD0000BC615F60BDF08C611F607C612F608C695
:104DE00013F609C614F60BC615F600DF060100011E
:104DF000000C050E04012C6FFB0E2B6FF7C504F69B
:104E00001F0E0601056F000182DE0501FA2D2ED06E
:104E1000120EF8250601046F180E0501F92506018A
:104E2000056FF8C506F6F9C507F604C608F6096F5A
:104E3000010E0A6F0B6F00017ADF020E0501F825E3
:104E40000601046F010E0501F9250601056F04C670
:104E500006F6076F050E096FFB0E086F020E0A6F4C
:104E60000B6B00015FEC0CF02DD00501120EF82544
:104E70000601046F180E0501F9250601056FF8C536
:104E800006F6F9C507F604C608F6096F0A6B0B6B40
:104E900000014DDF020E0501F8250601046F010E29
:104EA0000501F9250601056F04C606F6076F050E14
:104EB000096FFB0E086F020E0A6F010E0B6F0001E7
:104EC0005FEC0CF0000C0501F5C501F0F6C503F030
:104ED000F5C5FBF5F6C5FCF5040EEA6E170EE96E96
:104EE000F6C5E2FFF5C5E1FFE752E6CFEEFFFCE1D4
:104EF000F92D29D0FA51080DF350F825FB6F060162
:104F0000066BF8C507F67F0E086FFBC509F6010EA4
:104F10000A6F0B6F00010BDF010E0501F725FB6F18
:104F2000010EF825FC6FFBC506F6E8CF07F6040E68
:104F30000601096F170E086FFAC50AF60B6B000120
:104F40005FEC0CF00501F9532AE1FA51080DF3501A
:104F5000F825FB6F0601066BF8C507F67F0E086F94
:104F6000FBC509F6010E0A6F0B6B0001E0DE010EB6
:104F70000501F725FB6F010EF825FC6FFBC506F652
:104F8000E8CF07F6040E0601096F170E086FFAC581
:104F90000AF6010E0B6F00015FEC0CF00501000139
:104FA000000C04012FBB4BD011C5F7F5140E050101
:104FB000F86F1E0EF96F010EFA6F00011ADF12C5AD
:104FC000F7F5280E0501F86F1E0EF96FFA6B000158
:104FD00010DF13C5F7F53C0E0501F86F1E0EF96FD3
:104FE000FA6B000106DF11C5F7F5500E0501F86FE9
:104FF0001E0EF96FFA6B0001FCDE040EEA6E170E4E
:10500000E96EF2CFF5F5F29E000E85EC07F00A008E
:105010000900F550EE6E0009FBE10501F5BFF28EC7
:10502000040EF66F170EF56F140EF76FF86B010E86
:10503000F96F030EFA6F000146DF04012F8B928A8D
:1050400080BA6DD02E9DE46BE36B2DB167D02D81BE
:10505000050E0601016F0001B4EC0AF0010E050116
:10506000DD6FDD51040859E3DD510401CE5D3AE105
:10507000010E0501DD5D036A110FE96E050E0320C7
:10508000EA6EEF2A010EDD5D036A110FE96E050E6F
:105090000320EA6EEFBE0CD0EF50090809E2010EC2
:1050A000DD5D036A110FE96E050E0320EA6EEF6AFB
:1050B000010EDD5D036A110FE96E050E0320EA6E35
:1050C000EFCFF5F5DD51140DF3CFF6F5F5C5F7F596
:1050D000F6C5F8F51E0EF96F010EFA6F000189DEB4
:1050E00019D00401010E0501DD5D036A110FE96E9F
:1050F000050E0320EA6EEFCFF5F5DD51140DF3CF69
:10510000F6F5F5C5F7F5F6C5F8F51E0EF96FFA6B6D
:1051100000016FDE0501DD2BA4D7040101D02D9124
:10512000968084B06CD02E9DE46BE36B2DB566D079
:105130002D85050E0601016F0001B4EC0AF0010E89
:105140000501DD6FDD51040858E3DD510401CE5D3A
:1051500039E1010E0501DD5D036A110FE96E050EEF
:105160000320EA6EEF06010EDD5D036A110FE96EA2
:10517000050E0320EA6EEFBE01D00AD0010EDD5D00
:10518000036A110FE96E050E0320EA6E090EEF6E39
:10519000010EDD5D036A110FE96E050E0320EA6E54
:1051A000EFCFF5F5DD51140DF3CFF6F5F5C5F7F5B5
:1051B000F6C5F8F51E0EF96F010EFA6F000119DE43
:1051C00019D00401010E0501DD5D036A110FE96EBE
:1051D000050E0320EA6EEFCFF5F5DD51140DF3CF88
:1051E000F6F5F5C5F7F5F6C5F8F51E0EF96FFA6B8D
:1051F0000001FFDD0501DD2BA5D7040101D02D95B0
:10520000968284B250D02E9DE46BE36B2DB34AD0CE
:105210002D83050E0601016F0001B4EC0AF00401B4
:10522000CE2B010E0501DD6FDD5104083AE3DD519F
:105230000401CE5D1BE1010E0501DD5D036A110F66
:10524000E96E050E0320EA6EEFCFF5F5DD51140D82
:10525000F3CFF6F5F5C5F7F5F6C5F8F51E0EF96FBF
:10526000010EFA6F0001C5DD19D00401010E050120
:10527000DD5D036A110FE96E050E0320EA6EEFCFC4
:10528000F5F5DD51140DF3CFF6F5F5C5F7F5F6C5D7
:10529000F8F51E0EF96FFA6B0001ABDD0501DD2B91
:1052A000C3D7040101D02D93968484B424D0640E16
:1052B0000601016F0001B4EC0AF0968484B41AD0A0
:1052C000EEC5CDF40501F56B000124EC0BF00401F3
:1052D0002F9B010ECF6FCE6F0501116B126B136BFD
:1052E000146BF56B000124EC0BF051EC0BF0010E8C
:1052F000016EC8D10401CE510408D8B0C4D1050153
:10530000F56B000124EC0BF0010E0401CE6F2E9D15
:10531000E46BE36B050111510308D8A479D0125155
:105320000808D8A475D01351090872E11451020875
:105330006FE1EF536DE1AA6AA96AA86AA69CA69ECE
:10534000A684F250006EF29E0F01550EA76EAA0EB3
:10535000A76EA682A6B2FED7A6940050F212140E33
:105360000601016F0001B4EC0AF0AA6A010EA96EF1
:10537000A86AA69CA69EA684F250006EF29E0F011B
:10538000550EA76EAA0EA76EA682A6B2FED7A69449
:105390000050F212140E0601016F0001B4EC0AF085
:1053A000AA6A020EA96EA86AA69CA69EA684F250BE
:1053B000006EF29E0F01550EA76EAA0EA76EA68272
:1053C000A6B2FED7A6940050F212140E0601016F89
:1053D0000001B4EC0AF0AA6A030EA96EA86AA69CA2
:1053E000A69EA684F250006EF29E0F01550EA76E87
:1053F000AA0EA76EA682A6B2FED7A6940050F212FD
:10540000140E0601016F0001B4EC0AF0FF00050163
:10541000F151115DD8A471D0F251125D6EE1F351DA
:10542000135D6BE1F451145D68E1F56B000124EC50
:105430000BF0040EEA6E170EE96EF2CFF5F5F29E50
:10544000000E85EC07F00A000900F550EE6E000929
:10545000FBE10501F5BFF28E040EF66F170EF56F36
:105460001E0EF76FF86BF96B020EFA6F00012BDD61
:10547000040EEA6E170EE96EF2CFF5F5F29E000EFD
:1054800097EC07F00A000900F550EE6E0009FBE109
:105490000501F5BFF28E040EF66F170EF56F0F0EB5
:1054A000F76F1E0EF86FF96B020EFA6F00010BDD3D
:1054B000F0C5CDF451EC0BF0040E0501F56FFA0EBA
:1054C0000601016F0001B4EC0AF00501F52FF7D7D2
:1054D000F56B000124EC0BF00501116B126B136BE3
:1054E000146BEF5302E104012E8904012F9B010E7E
:1054F000016E0001C7D0C6D00501F56B000124EC98
:105500000BF0040EEA6E170EE96EF2CFF5F5F29E7F
:10551000000E85EC07F00A000900F550EE6E000958
:10552000FBE10501F5BFF28E040EF66F170EF56F65
:105530001E0EF76FF86BF96B020EFA6F0001C3DCF9
:10554000040EEA6E170EE96EF2CFF5F5F29E000E2C
:10555000ABEC07F00A000900F550EE6E0009FBE124
:105560000501F5BFF28E040EF66F170EF56FF76B9F
:105570001E0EF86FF96B020EFA6F0001A4DC010E2B
:105580000401CE6F000151EC0BF0040E0501F56F24
:10559000FA0E0601016F0001B4EC0AF00501F52FC7
:1055A000F7D7116B126B136B146BF56B000124ECC6
:1055B0000BF00601066B076B7F0E086F190E096F63
:1055C000010E0A6F0B6F000197EC26F0040EEA6ED5
:1055D000170EE96EF2CFF5F5F29E000E85EC07F09E
:1055E0000A000900F550EE6E0009FBE10501F5BF68
:1055F000F28E190E0601066F010E076F040E096F79
:10560000170E086F030E0A6F0B6B00015FEC0CF0B6
:1056100011C5F7F5140E0501F86F1E0EF96F010E96
:10562000FA6F0001F9EC26F012C5F7F5280E050116
:10563000F86F1E0EF96FFA6B0001F9EC26F013C536
:10564000F7F53C0E0501F86F1E0EF96FFA6B0001BD
:10565000F9EC26F011C5F7F5500E0501F86F1E0E96
:10566000F96FFA6B0001F9EC26F0EEC5CDF40501F7
:10567000F56B000124EC0BF004012F9B000E016E72
:10568000000100D004010001000C050E04012C6F84
:10569000F20E2B6FEDC504F61F0E0601056F00011B
:1056A00087EC25F00501F02D30D0F151060DF350B7
:1056B000EE25FB6FF151080DF350EF25FC6FEEC5A1
:1056C00006F6EFC507F6FBC508F6E8CF09F6010EAA
:1056D00006010A6F0B6F000197EC26F0020E050120
:1056E000EE25FB6F010EEF25FC6FFBC506F6E8CF3C
:1056F00007F6050E0601096FF20E086FF1C50AF6EE
:105700000B6B00015FEC0CF00501F05331E1F1513E
:10571000060DF350EE25FB6FF151080DF350EF2508
:10572000FC6FEEC506F6EFC507F6FBC508F6E8CF39
:1057300009F6010E06010A6F0B6B000197EC26F0CB
:10574000020E0501EE25FB6F010EEF25FC6FFBC578
:1057500006F6E8CF07F6050E0601096FF20E086F90
:10576000F1C50AF6010E0B6F00015FEC0CF00501AC
:105770000001000C06010F51B6080F6F036A10C636
:1057800013F6108FD89010331133123303320232D4
:10579000013200320F2FF6D713AF0BD0001E011EBF
:1057A000021E031E002AD8B4012AD8B4022AD8B493
:1057B000032A000148EF2CF0006A016A026A036ABA
:1057C0000601176B186B196B1A6B16511511141112
:1057D00013112CE0200E1B6FD8900F3710371137A4
:1057E00012371737183719371A3716511A5D08E16B
:1057F0001551195D05E11451185D02E11351175D52
:105800000FE31351175F1451D8A0143D185F1551C1
:10581000D8A0153D195F1651D8A0163D1A5FD88043
:1058200000360136023603361B2FD6D7060EEA6E37
:10583000170EE96E0001000CE9500601076F0651D2
:10584000096F1CE005C621F604C620F603C61FF644
:1058500002C61EF6256B246B200E236F820E226F6C
:1058600000015CEC18F003C005F602C004F601C0AC
:1058700003F600C002F60601092FE4D705C612F6AA
:1058800004C611F603C610F602C60FF6000172D761
:1058900003C005F602C004F601C003F600C002F61C
:1058A000060105AF0DD00707078B021F031F041F5A
:1058B000051F022BD8B4032BD8B4042BD8B4052B66
:1058C0003B0E0E6F9A0E0D6FCA0E0C6F0B6B0A0E0D
:1058D000096F0651D8B4072B05C612F604C611F697
:1058E00003C610F602C60FF60EC616F60DC615F65E
:1058F0000CC614F60BC613F600015EDF0150EFCFA5
:1059000002F6ECCF03F6ECCF04F6ECCF05F600522E
:1059100013E106010629095DD8A402D000010CD0CC
:1059200007510DE00F0B095D01E044E207BF42D0D3
:1059300007BD05D0200E37D0200E0601071707AB94
:105940000FD0079B0651D8A407070050076F2D0EF4
:105950000F6F000176EC25F006010751006E076B12
:105960000651095D0DE10050076F2E0E0F6F00010B
:1059700076EC25F006010751006E200E0717000E89
:10598000300E07AB10D0079B0651D8A40707005074
:10599000076F2D0E0F6F000176EC25F00601075101
:1059A000006E076B300E002600C00FF6000176EC8B
:1059B00025F006010EC612F60DC611F60CC610F63D
:1059C0000BC60FF6166B156B146B0A0E136F0001E6
:1059D000F3DE03C00EF602C00DF601C00CF600C0E7
:1059E0000BF60601092F78D70001000C006A016A46
:1059F00006010D51D8900EB10026003201320EB3CF
:105A00000026003201320EB50026003201320EB7F8
:105A10000026003201320EB90026003201320EBBE0
:105A20000026003201320EBD0026003201320EBFC8
:105A30000026003201320001000C0601096B06C687
:105A40000AF6010ED88006550B6F075365E0095121
:105A5000045D0C6F0A5105250D6F095104250E6F69
:105A60000A5105250F6F0CC611F60DC612F60EC6AB
:105A700013F6146F08C615F60001F6EC25F00601C2
:105A80000951045D0C6F0A51055D0D6F0951042524
:105A90000E6F0A51055D0F6F0CC611F60DC612F69A
:105AA0000EC613F6146F08C615F60001F6EC25F0C5
:105AB00006010A51045D0C6F095105250D6F0A514D
:105AC00004250E6F095105250F6F0CC611F60DC682
:105AD00012F60EC613F6146F08C615F60001F6ECA2
:105AE00025F006010A51045D0C6F0951055D0D6F2B
:105AF0000A5104250E6F0951055D0F6F0CC611F692
:105B00000DC612F60EC613F6146F08C615F6000180
:105B1000F6EC25F078D00601045109250C6F0551EB
:105B20000A250D6F0CC621F6226F08C623F6000168
:105B300001EC0CF0060104510A250C6F05510925F2
:105B40000D6F0CC621F6226F08C623F6000101EC8A
:105B50000CF006010951045D0C6F05510A250D6F0B
:105B60000CC621F6226F08C623F6000101EC0CF0EA
:105B700006010A51045D0C6F055109250D6F0CC615
:105B800021F6226F08C623F6000101EC0CF0060195
:105B900004510A250C6F0951055D0D6F0CC621F6E5
:105BA000226F08C623F6000101EC0CF00601045137
:105BB00009250C6F0A51055D0D6F0CC621F6226F89
:105BC00008C623F6000101EC0CF006010951045D42
:105BD0000C6F0A51055D0D6F0CC621F6226F08C6C9
:105BE00023F6000101EC0CF006010A51045D0C6F74
:105BF0000951055D0D6F0CC621F6226F08C623F60C
:105C0000000101EC0CF006010BBF01D00ED00951D0
:105C1000092B0C6F020E0D6F0CC60EF60001E6DEAE
:105C20000150030F06010B2711D00951092B0C6FEE
:105C30000A510A070C5D0C6F020E0D6F0CC60EF6B2
:105C40000001D4DE0150050F06010B270951800A1F
:105C5000006E0A51800A005CD8B4F7D6D8A0F5D6F9
:105C60000001000C050E04012C6FF90E2B6F010EC4
:105C7000E96EF4C505F6F3C504F6F2C503F6F1C501
:105C800002F60601066B0001D7DD200E06010F6F3C
:105C9000000176EC25F0430E06010F6F000176EC53
:105CA00025F00501F72D45D0F851140DF350F525D9
:105CB0000601026F0501F851080DF350F6250601A3
:105CC000036FF5C506F6F6C507F602C608F6096FB6
:105CD000010E0A6F0B6F000197EC26F0020E050112
:105CE000F5250601026F010E0501F6250601036F79
:105CF00002C606F6076F050E096FF90E086FF8C5A4
:105D00000AF60B6B00015FEC0CF0110E0501F52596
:105D10000601026F020E0501F6250601036F02C699
:105D200004F6056F010E066F076F086B000185DE34
:105D30000501F75346E1F851140DF350F52506011E
:105D4000026F0501F851080DF350F6250601036FA7
:105D5000F5C506F6F6C507F602C608F6096F010E88
:105D60000A6F0B6B000197EC26F0020E0501F5257A
:105D70000601026F010E0501F6250601036F02C63A
:105D800006F6076F050E096FF90E086FF8C50AF6DB
:105D9000010E0B6F00015FEC0CF0110E0501F525F3
:105DA0000601026F020E0501F6250601036F02C609
:105DB00004F6056F010E066F076F086F00013DDEE8
:105DC000050100014EEF3AF00501F151F303F3CF65
:105DD00001F0F4CF00F0F403F3500026F251F30386
:105DE000F3500020026E0001000C0501ED51030884
:105DF00053E1EE6BEE513F084FE3EF6BEF510F08AD
:105E000049E3070EF06FF051800A7F0841E2F26B20
:105E1000EEC5F1F5F46B100EF36F0001D5DF02C093
:105E2000F2F501C0F1F50501EF510124016E000EFC
:105E30000220036E0150F2CFF1F5F29E03C0F7FF8E
:105E400000015BEC01F00501F1BFF28EF16F070E6E
:105E5000D880F055F26FF1C500F0F251016E04E008
:105E6000D8900032012EFCD700A010D0EF51080DC1
:105E7000F350F025F16FE8CF21F6EEC522F6010EC2
:105E80000601236F000101EC0CF00501F007BBD700
:105E9000EF2BB4D7EE2BAED7ED51040853E1EE6BE8
:105EA000EE513F084FE3EF6BEF510F0849E3070E48
:105EB000F06FF051800A7F0841E2F26BEEC5F1F518
:105EC000F46B100EF36F00017FDF02C0F2F501C02A
:105ED000F1F50501EF510124016E000E0220036E61
:105EE0000150F2CFF1F5F29E03C0F7FF000169EC1B
:105EF00003F00501F1BFF28EF16F070ED880F05567
:105F0000F26FF1C500F0F251016E04E0D89000325A
:105F1000012EFCD700A010D0EF51080DF350F02552
:105F2000F16FE8CF21F6EEC522F6010E0601236FD0
:105F3000000101EC0CF00501F007BBD7EF2BB4D743
:105F4000EE2BAED7ED51050853E1EE6BEE513F0855
:105F50004FE3EF6BEF510F0849E3070EF06FF0517D
