:0400000063EF30F08A
:08000800046ED8CF05F0E0CF33
:1000100006F00001E9CF0CF0EACF07F0E1CF08F0DD
:10002000E2CF09F0D9CF0AF0DACF0BF0F3CF12F01C
:10003000F4CF13F0FACF14F0FBCF15F000C00EF0A0
:1000400001C00FF002C010F003C011F0F2A82CEFB5
:1000500000F0F2B2F3EF09F00EC000F00FC001F0B3
:1000600010C002F011C003F00CC0E9FF07C0EAFFA6
:10007000078E08C0E1FF09C0E2FF0AC0D9FF0BC02C
:10008000DAFF12C0F3FF13C0F4FF14C0FAFF15C06B
:10009000FBFF045006C0E0FF05C0D8FF1000F2CF00
:1000A0000DF0F29EF76ABC0FF66E000EF722000EFE
:1000B000F86E0900F5500DBEF28E1200000000002F
:1000C0000000005F00000003000300143E143E1413
:1000D000242A7F2A1243330866613649552250008C
:1000E00005030000001C2241000041221C001408EE
:1000F0003E081408083E08080050300000080808B0
:100100000808006060000020100804023E514945C4
:100110003E0004027F00426151494622414949366E
:100120001814127F1027454545393E494949320187
:10013000017109073649494936264949493E003681
:100140003600000056360000081422410014141432
:100150001414004122140802015109063E41595568
:100160005E7E0909097E7F494949363E4141412267
:100170007F4141413E7F494949417F090909013E8B
:100180004141493A7F0808087F00417F41003040E3
:1001900040403F7F081422417F404040407F020C96
:1001A000027F7F0204087F3E4141413E7F090909E9
:1001B000061E2121215E7F0909097600F2CF0DF08C
:1001C000F29EF76ADA0FF66E010EF722000EF86E55
:1001D0000900F5500DBEF28E120026494949320140
:1001E000017F01013F4040403F1F2040201F7F20F2
:1001F00010207F41221C22410708700807615149E5
:100200004543007F41000002040810200000417FA8
:10021000000402010204404040404000010204008A
:1002200020545454787F4444443838444444443837
:100230004444447F385454541804047E050508543B
:1002400054543C7F0804047800447D40002040441E
:100250003D007F1028440000417F40007C0478046A
:10026000787C0804047838444444387C1414140816
:10027000081414147C007C080404485454542004CA
:10028000043F44443C4040207C1C2040201C3C4017
:1002900030403C44281028440C5050503C44645496
:1002A0004C44000836414100007F000041413608BF
:1002B000000201020402F2CF0DF0F29ED20FF66EA0
:1002C000020EF722000EF86E0900F5500DBEF28EF8
:1002D000120000000000000000000000000000000C
:1002E000000000000000000000000000000000000E
:1002F00000000000000000000000000000000000FE
:1003000000000000000000000000000000000000ED
:1003100000000000000000000000000000000000DD
:1003200000000000000000000000000000000000CD
:1003300000000000000000000000000000000000BD
:1003400000000000000000000000000000000000AD
:10035000000000000000000000000000000000009D
:10036000000000000000000000000000000000008D
:10037000000000000000000000000000000000007D
:10038000000000000000000000000000000000006D
:10039000000000000000000000000000000000005D
:1003A000000000000000000000000000000000004D
:1003B000000000000000000000000000000000003D
:1003C0000000000000000000000000000000000825
:1003D0000080000000000000000000000000000499
:1003E000010000000000000000000000000000020A
:1003F00002000000000000000000000000000000FB
:100400007800000000000000000000000000000074
:100410008400000000000000000000000000000157
:10042000020000000000000000000000000000F9D1
:1004300002F80000000000000000000000000001C1
:1004400002000000000000000000000000000001A9
:100450000200000000000000000000000000000496
:100460008480000000000000000000000000000880
:1004700078400000000000000000000000000010B4
:1004800048200000000000000000000000000020E4
:100490004810000000000000000000000000000004
:1004A00078000000000000000000000000000000D4
:1004B000000000000000000000000000000000003C
:1004C000000000000000000000000000000000002C
:1004D000000000000000000000000000000000001C
:1004E000000000000000000000000000000000000C
:1006D0000000F2CF0DF0F29EEE0FF66E060EF7223E
:1006E000000EF86E0900F5500DBEF28E12000000EB
:1006F00000000000000000000000000000000000FA
:1007000000000000000000000000000000000000E9
:1007100000000000000000000000000000000000D9
:1007200000000000000000000000000000000000C9
:1007300000000000000000000000000000000000B9
:1007400000000000000000000000000000000000A9
:100750000000000000000000000000000000000099
:100760000000000000000000000000000000000089
:100770000000000000000000000000000000000079
:100780000000000000000000000000000000000069
:100790000000000000000000000000000000000059
:1007A0000000000000000000000000000000000049
:1007B0000000000000000000000000000000000039
:1007C0000000000000000000000000000000000029
:1007D0000000000000000000000000000000000019
:1007E0000000000000000000000000000000000009
:1007F00000000000000000000000000000000000F9
:1008000000000000000000000000000000000000E8
:1008100000000000000000000000000000000000D8
:1008200000000000000000000000000000000000C8
:1008300000000000000000000000000000000000B8
:1008400000000000000000000000000000000000A8
:100850000000000000000000000000000000000098
:100860000000000000000000000000000000000088
:100870000000000000000000000000000000000078
:100880000000000000000000000000000000000068
:100890000000000000000000000000000000000058
:1008A0000000000000000000000000000000000048
:1008B0000000000000000000000000000000000038
:1008C0000000000000000000000000000000000028
:1008D00000000000000000000000007FFFF80000A2
:1008E00000000000000000000000004000080000C0
:1008F0000000000000000000000000470388000026
:100900000000000000000000000000450288000018
:100910000000000000000000000000450288000008
:1009200000000000000000000000004502880000F8
:1009300000000000000000000000004502880000E8
:1009400000000000000000000000004703880000D5
:10095000000000000000000000000040000800004F
:10096000000000000000000000000040FC08000043
:1009700000000000000000000000004084080000AB
:10098000000000000000000000000040840800009B
:10099000000000000000000000000040FC08000013
:1009A00000000000000000000000004000080000FF
:1009B00000000000000000000000007FFFF80000C1
:1009C0000000000000000000000000000000000027
:1009D0000000000000000000000000000000000017
:1009E0000000000000000000000000000000000007
:1009F00000000000000000000000000000000000F7
:100A000000000000000000000000000000000000E6
:100A100000000000000000000000000000000000D6
:100A200000000000000000000000000000000000C6
:100A300000000000000000000000000000000000B6
:100A400000000000000000000000000000000000A6
:100A50000000000000000000000000000000000096
:100A60000000000000000000000000000000000086
:100A70000000000000000000000000000000000076
:100A80000000000000000000000000000000000066
:100A90000000000000000000000000000000000056
:100AA0000000000000000000000000000000000046
:100AB0000000000000000000000000000000000036
:100AC0000000000000000000000000000000000026
:100AD0000000000000000000000000000000000016
:100AE0000000000000000000000000000000F2CF45
:100AF0000DF0F29E0A0FF66E0B0EF722000EF86E46
:100B00000900F5500DBEF28E12000000000000003A
:100B100000000000000000000000000000000000D5
:100B200000000000000000000000000000000000C5
:100B300000000000000000000000000000000000B5
:100B400000000000000000000000000000000000A5
:100DF0000000000000000000600000000000000093
:100E00000000000000000000F000000000000000F2
:100E10000000000000000001F800000000000000D9
:100E20000000000000000001F800000000000000C9
:100E30000000000000000001F800000000000000B9
:100E40000000000000000000F000000000000000B2
:100E5000000000000000003871C000000000000029
:100E6000000000000000007C93E000000000000093
:100E700000000000000000FF0FF000000000000074
:100E800000000000000000FF0FF000000000000064
:100E9000000000000000007D93E000000000000062
:100EA000000000000000003861C0000000000000E9
:100EB0000000000000000000F00000000000000042
:100EC0000000000000000001F80000000000000029
:100ED0000000000000000001F80000000000000019
:100EE0000000000000000001F80000000000000009
:100EF0000000000000000000F00000000000000002
:100F000000000000000000006000F2CF0DF0F29E33
:100F1000F76A280FF66E0F0EF722000EF86E090022
:100F2000F5500DBEF28E1200436C61766500F2CF73
:100F30000DF0F29EF76A4C0FF66E0F0EF722000EC0
:100F4000F86E0900F5500DBEF28E1200436F7272FA
:100F5000656374610000F2CF0DF0F29EF76A740FC2
:100F6000F66E0F0EF722000EF86E0900F5500DBE5A
:100F7000F28E1200496E636F7272656374610000D5
:100F8000F2CF0DF0F29EF76A9E0FF66E0F0EF7226B
:100F9000000EF86E0900F5500DBEF28E12002020F2
:100FA00021416272612050726F74656363696F6E74
:100FB0000000F2CF0DF0F29EF76AD00FF66E0F0E22
:100FC000F722000EF86E0900F5500DBEF28E1200E9
:100FD00020202020202046726F6E74616C2120201A
:100FE00020200000F2CF0DF0F29EF76A020FF66E9D
:100FF000100EF722000EF86E0900F5500DBEF28EAD
:10100000120020202020202020202020202020200E
:10101000202020200000F2CF0DF0F29EF76A340F5E
:10102000F66E100EF722000EF86E0900F5500DBE98
:10103000F28E120046696C74726F2053617475727F
:1010400061646F00F2CF0DF0F29EF76A620FF66EE8
:10105000100EF722000EF86E0900F5500DBEF28E4C
:1010600012004A50435632342D5043522D4543000E
:10107000F2CF0DF0F29EF76A8E0FF66E100EF72289
:10108000000EF86E0900F5500DBEF28E12004D658F
:101090006E750000F2CF0DF0F29EF76AB20FF66E99
:1010A000100EF722000EF86E0900F5500DBEF28EFC
:1010B0001200416A757374657300F2CF0DF0F29EF1
:1010C000F76AD80FF66E100EF722000EF86E0900C0
:1010D000F5500DBEF28E120043616D62696F20649F
:1010E0006520436C61766500F2CF0DF0F29EF76AE1
:1010F000060FF66E110EF722000EF86E0900F5507D
:101100000DBEF28E12004D6F646F0000F2CF0DF035
:10111000F29EF76A2A0FF66E110EF722000EF86E95
:101120000900F5500DBEF28E12005469656D706FA6
:101130002050757267610000F2CF0DF0F29EF76AE1
:10114000560FF66E110EF722000EF86E0900F550DC
:101150000DBEF28E120054656D706F205556000062
:10116000F2CF0DF0F29EF76A7E0FF66E110EF722A7
:10117000000EF86E0900F5500DBEF28E12004D61A2
:101180006E74656E696D69656E746F00F2CF0DF0F7
:10119000F29EF76AAA0FF66E110EF722000EF86E95
:1011A0000900F5500DBEF28E120053657276696328
:1011B000696F0000F2CF0DF0F29EF76AD20FF66E63
:1011C000110EF722000EF86E0900F5500DBEF28EDA
:1011D0001200542E2050757267610000F2CF0DF09E
:1011E000F29EF76AFA0FF66E110EF722000EF86EF5
:1011F0000900F5500DBEF28E1200542E20555600F7
:10120000F2CF0DF0F29EF76A1E0FF66E120EF72265
:10121000000EF86E0900F5500DBEF28E1200436C00
:10122000617665204E7565766100F2CF0DF0F29E15
:10123000F76A480FF66E120EF722000EF86E0900DC
:10124000F5500DBEF28E12004D616E74656E6965CB
:101250006E746F00F2CF0DF0F29EF76A720FF66EA9
:10126000120EF722000EF86E0900F5500DBEF28E38
:10127000120054726162616A6F2046696C74726F09
:101280002868293A0000F2CF0DF0F29EF76AA40F09
:10129000F66E120EF722000EF86E0900F5500DBE24
:1012A000F28E120054726162616A6F204C757A206E
:1012B00055562868293A0000F2CF0DF0F29EF76AE1
:1012C000D60FF66E120EF722000EF86E0900F550DA
:1012D0000DBEF28E120053656E736F72206465202E
:1012E000466C756A6F00F2CF0DF0F29EF76A040F3C
:1012F000F66E130EF722000EF86E0900F5500DBEC3
:10130000F28E120053656E736F7220646520507206
:101310006573696F6E00F2CF0DF0F29EF76A340FBD
:10132000F66E130EF722000EF86E0900F5500DBE92
:10133000F28E120056656C6F6369646164205665B5
:101340006E74696C61646F720000F2CF0DF0F29EF2
:10135000F76A680FF66E130EF722000EF86E09009A
:10136000F5500DBEF28E120053656C656363696FB4
:101370006E2056656C00F2CF0DF0F29EF76A940F66
:10138000F66E130EF722000EF86E0900F5500DBE32
:10139000F28E120056656C6F636964616400F2CF6F
:1013A0000DF0F29EF76ABC0FF66E130EF722000ED8
:1013B000F86E0900F5500DBEF28E1200477561728D
:1013C000646164610000030E06012D5F0AE3060EEE
:1013D000EA6E2D0EE96EEF5004E001D000D0EF2E42
:1013E000FDD70001000C0501CF2BD8B4D02BD05372
:1013F00003E1CF51770858E2D06BCF6B04012D8DFC
:101400002F89D32B2DAF03D0E72BD8B4E82B2FA1F6
:1014100028D0E12BD8B4E22BFFBF05D0FF51000844
:1014200002E2FF071ED0090EFF6F050100BF05D0C5
:101430000051000802E2000715D0050E006F01BF41
:1014400005D00151000802E201070CD0090E016F1E
:1014500002BF05D00251000802E2020703D00401D6
:101460002F85050104012EB902D02FAF1CD0EB2B24
:10147000EBBF05D0EB51090802E2EB6BEC2BECBFA4
:1014800005D0EC51050802E2EC6BED2BEDBF05D069
:10149000ED51090802E2ED6BEE2BEEBF04D0EE51E8
:1014A000050801E2EE6B0501D86BD76B04012F8DA7
:1014B0000501DA51050820E3DA531CE0D95163082D
:1014C00019E3D2C52CF606012C2B2C07D8B406D074
:1014D000FF0E2D6F000177DF0601F7D7D1C52DF67E
:1014E000000171DF8B849494A60E006E002EFED74F
:1014F000000005018B949494F29200012CEF00F00F
:10150000050EEA6EF70EE96EEF500DE0060E016E65
:10151000006A002EFED7012EFBD77B0E006E002E38
:10152000FED7EF2EF3D7000C0501E351060804E1C6
:10153000D96B8B84949437D0E351050807E10F0EE3
:10154000D96F070ED26FD00ED16F2DD0E3510408A2
:1015500007E1190ED96F0B0ED26FB80ED16F23D0E1
:10156000E351030807E1230ED96F0E0ED26F100E60
:10157000D16F19D0E351020807E12D0ED96F100E7B
:10158000D26FCC0ED16F0FD0E32D07D0320ED96FB2
:10159000130ED26F880ED16F06D0E35304E1640EB0
:1015A000D96F8B9494940001000C0501F25303E071
:1015B00093968A8602D093948A84939C8A9C956A97
:1015C000F3C58CFF0000939E8A8E00D000D00000EF
:1015D000939E8A9E93948A9493968A960001000C17
:1015E0000501EE6B170EED6F020EF06F170EEF6F29
:1015F000EB51FF0DF3CFECF5F26BF16BF2510108FB
:101600001AE3EEC503F0ED51ED2BD8B4EE2BE96EE5
:1016100003C0EAFFECC5EFFFF0C503F0EF51EF2B7D
:10162000D8B4F02BE96E03C0EAFFECC5EFFFF12B55
:10163000D8B4F22BE3D70001000C0501EE6B170EB6
:10164000ED6F020EF06F170EEF6FEB6BEB510708AB
:101650004EE3939A8A9AF26B400EF36F0001A5DF76
:10166000010E0501F26F400EF36F00019EDF0501D0
:10167000EB51B809F16FF26BF36F000196DF0501D2
:10168000EB51B809F16F010EF26FF1C5F3F50001EE
:101690008CDF939A8A8A0501EC6BEC513F0825E3B5
:1016A000EEC503F0ED51ED2BD8B4EE2BE96E03C07F
:1016B000EAFFEFCFF1F5F26BF1C5F3F5000175DF4D
:1016C0000501F0C503F0EF51EF2BD8B4F02BE96E14
:1016D00003C0EAFFEFCFF1F5010EF26FF1C5F3F5AC
:1016E000000163DF0501EC2BD8D7EB2BAFD700014E
:1016F000000C93988A88939E8A9E93948A949396DA
:101700008A96939A8A9A0501F26BC00EF36F0001D4
:101710004CDF010E0501F26FC00EF36F000145DFD3
:101720000501F26B400EF36F00013FDF010E050172
:10173000F26F400EF36F000138DF0501F26BB80E57
:10174000F36F000132DF010E0501F26FB80EF36F87
:1017500000012BDF0501E32D0ED0F26B3F0EF36F7E
:10176000000123DF010E0501F26F3F0EF36F000150
:101770001CDF0DD00501F26B3E0EF36F000115DF8B
:10178000010E0501F26F3E0EF36F00010EDF050141
:10179000EB6B000125DF51DF000C06011D6B1831DA
:1017A0001C6F1C331C331F0E1C171C371D371C37B6
:1017B0001D371C371D371C371D371C371D371C378D
:1017C0001D37C00E1C1717511C27000E1D23175163
:1017D0003F080DE2170E1C251E6F020E1D211F6F04
:1017E000400E1E5D1A6F000E1F591B6F06D0170E9C
:1017F0001C251A6F000E1D211B6F195315E01BC607
:1018000003F01AC6E9FF1BC6EAFF1851070B1E6F4B
:10181000010E006E1E51016E04E0D8900036012EBC
:10182000FCD70050EF1215D01BC603F01AC6E9FF13
:101830001BC6EAFF1851070B1E6F010E006E1E51EA
:10184000016E04E0D8900036012EFCD70050FF0A4C
:10185000EF160001000CFFC503F00501FEC5E9FF0E
:10186000FFC5EAFFEF52D8B4DFD0FFC503F0FEC5D5
:10187000E9FFFFC5EAFFEF50520828E3FFC503F078
:10188000FEC5E9FFFFC5EAFF200EEF5C050DF35032
:10189000036A06010B6F060EEA6EE96E0F6B0BC64C
:1018A0000EF6F2CF0CF6F29E050E016EF76A0B51A2
:1018B00000014FEC00F00A000900F5CFEEFF012E09
:1018C000FBD706010CBFF28E37D00501FFC503F030
:1018D000FEC5E9FFFFC5EAFFEF507E0827E3FFC51D
:1018E00003F0FEC5E9FFFFC5EAFF530EEF5C050DEF
:1018F000F350036A06010B6F060EEA6EE96E0F6B7A
:101900000BC60EF6F2CF0CF6F29E050E016EF76ACC
:101910000B510001DEEC00F00A000900F5CFEEFFEC
:10192000012EFBD706010CBFF28E06D00601066B16
:10193000076B086B096B0A6BFFC503F00501FE51CD
:10194000E96E03C0EAFFEF500A0A000103E0070A4C
:101950000AE00CD006010051070DF350010F0501FC
:10196000FD275BD000010501FC6B57D0060100513B
:10197000050DF3500501FC257F0808E2FC6B06010C
:101980000051070DF350010F0501FD270601026B01
:101990000251040841E3036B0351060837E3036A6D
:1019A0000251060FE96E060E0320EA6EEFCF0BF62A
:1019B0000BC600F00351016E04E0D8900032012EF6
:1019C000FCD700A021D0046B0051045D1DE2056B23
:1019D0000051055D17E205510501FC2506010B6F5D
:1019E00003510003F3500501FD25060104250C6F8A
:1019F0000BC617F6186F01C619F60001CEDE0601F8
:101A0000052BE6D7042BE0D7032BC6D7022B0051BA
:101A10000501FC270601BCD70501FE2BD8B4FF2B1E
:101A2000FC2B000118D705010001000C8E0E006E82
:101A300019C601F018C602F0036A015209E102C09A
:101A400001F0026A080E005E015202E1006A08D04D
:101A5000D89001BE04D0023601360006F9D7019EA7
:101A6000000C06011451D8B4A5D0206F1851D8B479
:101A7000A1D0205F05E37F0E2027D8B09BD006D0F1
:101A8000810E205FD8A096D0D8B494D020C600F0A4
:101A9000016A026A036A1F6B15C61EF61E8F16C600
:101AA0001DF617C61CF6190E206F1B511C5F0DE2A8
:101AB000010E1D5F0AE21E5F08E21F5F06E21F2B98
:101AC0001E2B1D2B1B511C2728D01A511D5F12E203
:101AD000010E1E5F0FE21F5F0DE21F2B1E2B1A511E
:101AE0001D271B511C2719E31D2B17E11E2B15E188
:101AF0001F2B13D0195180091E5F0EE2010E1F5FCC
:101B00000BE21F2B195180091E271A511D27E9E3EB
:101B10001E2BE7E11F2BE5D70380202F01D00BD030
:101B2000D8901C371D371E371F37D8900336023622
:101B300001362137BAD721A106D0D890013202321E
:101B40000332213302D0000635E021BF1ED0D890E9
:101B50001C371D371E371F371B511C5F07E2010E54
:101B60001D5F04E21E5F02E21F5F1AE31A511D5F50
:101B700005E2010E1E5F02E21F5F12E319518009A8
:101B80001E5F03E2010E1F5F0BE3032A09E1022A35
:101B900007E1012A05E1002A0DE001320232033299
:101BA00015C620F61951201B20AF02D0018E06D099
:101BB000019E04D0006A016A026A036A0001000CF7
:101BC000800ED8A202D006011D1B0601226B236BDA
:101BD00019C621F61D51211B1851D8B4DFD0206F32
:101BE000006E1C51D8B4E3D0205FD8B483D03EE35C
:101BF0001DC626F6268F1EC625F61FC624F6236BA5
:101C0000D8902633253324332333202FF8D721AF20
:101C100003D02281E0D0229120912289060EEA6E23
:101C20001B0EE96EEBD0229921BF0AD020A113D060
:101C30002633253324332333002AD8B4C7D00BD01E
:101C400026BF0CD0D89023372437253726370006F7
:101C5000D8B4BCD0F5D7228D6DD0229D19C621F6FF
:101C600019AF02D0268FABD0269FA9D01CC620F674
:101C70001CC600F01851205F19C626F6268F1AC61A
:101C800025F61BC624F6236BD89026332533243340
:101C90002333202FF8D721AF03D022839CD0229367
:101CA0002091228B060EEA6E1F0EE96EA7D0229BB2
:101CB00021BF0AD020A113D0263325332433233368
:101CC000002AD8B483D00BD026BF0CD0D8902337AD
:101CD0002437253726370006D8B478D0F5D7228F99
:101CE00029D0229F1DC621F61DAF02D0268F67D0B6
:101CF000269F65D01DC626F6268F1EC625F61FC652
:101D000024F621AF04D0269F228565D02295236B2F
:101D10002091060EEA6E1B0EE96E70D021BF1CD01A
:101D200019C621F620A106D02633253324332333C8
:101D3000002A4CE023AF0BD0242B09E1252B07E12F
:101D4000262B05E1263325332433002A3FE022BD2C
:101D500084D722BFC6D71CD0800E261B26AF04D046
:101D60003AD01DC621F60AD019C621F6265306E13F
:101D7000255304E1245302E1006A21D026BF08D094
:101D8000D8902337243725372637002EF7D71ED093
:101D900021AF02D0268F13D0269F11D01CC600F091
:101DA0001DC626F61EC625F61FC624F608D018C680
:101DB00000F019C626F61AC625F61BC624F626C656
:101DC00001F025C602F024C603F034D0006A016A8F
:101DD000026A036A2FD0236B241F251F261F231F8F
:101DE000232B05E1242B03E1252B01E1262B22B136
:101DF00012D722B354D722B589D7B3D7EF502427AF
:101E000005E3252B03E1262BD8B42081ED52EF50BA
:101E1000252703E3262BD8B42081ED52EF50EFBEE7
:101E200001D0800A2627D8B0208122B9FCD622BB57
:101E30003ED774D70001000CF2CFE3F5F29EAA6AF8
:101E4000A96AA69CA69EA680A8500501E3BFF28EB3
:101E50000B6F0A0EF76F000180EC0AF0F2CFE3F58A
:101E6000F29EAA6A010EA96EA69CA69EA680A85004
:101E70000501E3BFF28E0C6F0A0EF76F000180ECD4
:101E80000AF0F2CFE3F5F29EAA6A020EA96EA69CB2
:101E9000A69EA680A8500501E3BFF28E0D6F0A0E24
:101EA000F76F000180EC0AF0F2CFE3F5F29EAA6A28
:101EB000030EA96EA69CA69EA680A8500501E3BFAE
:101EC000F28E0E6F0A0EF76F000180EC0AF0F2CF6F
:101ED000E3F5F29EAA6A040EA96EA69CA69EA680B1
:101EE000A8500501E3BFF28E0401EF6F0A0E050151
:101EF000F76F000180EC0AF0F2CFE3F5F29EAA6AD8
:101F0000050EA96EA69CA69EA680A8500501E3BF5B
:101F1000F28E0401F06F0A0E0501F76F000180ECEC
:101F20000AF0F2CFE3F5F29EAA6A060EA96EA69C0D
:101F3000A69EA680A8500501E3BFF28E0401F16FB2
:101F40000A0E0501F76F000180EC0AF0F2CFE3F50D
:101F5000F29EAA6A070EA96EA69CA69EA680A8500D
:101F60000501E3BFF28E0401F26F0A0E0501F76F5F
:101F7000000180EC0AF0F2CFE3F5F29EAA6A080EA7
:101F8000A96EA69CA69EA680A8500501E3BFF28E6E
:101F90000401F36F0A0E0501F76F000180EC0AF0EF
:101FA000F2CFE3F5F29EAA6A090EA96EA69CA69E40
:101FB000A680A8500501E3BFF28E0401F46F0A0E5B
:101FC0000501F76F000180EC0AF0F2CFE3F5F29E15
:101FD000AA6A0A0EA96EA69CA69EA680A850050114
:101FE000E3BFF28E0401F56F0A0E0501F76F0001E1
:101FF00080EC0AF0F2CFE3F5F29EAA6A0B0EA96E0E
:10200000A69CA69EA680A8500501E3BFF28E0401FF
:10201000F66F0A0E0501F76F000180EC0AF0F2CFAF
:10202000E3F5F29EAA6A0C0EA96EA69CA69EA68057
:10203000A8500501E3BFF28E0401F76F0A0E0501F7
:10204000F76F000180EC0AF0F2CFE3F5F29EAA6A86
:102050000D0EA96EA69CA69EA680A8500501E3BF02
:10206000F28E0401F86F0A0E0501F76F000180EC93
:102070000AF0F2CFE3F5F29EAA6A0E0EA96EA69CB4
:10208000A69EA680A8500501E3BFF28E0401F96F59
:102090000A0E0501F76F000180EC0AF0F2CFE3F5BC
:1020A000F29EAA6A0F0EA96EA69CA69EA680A850B4
:1020B0000501E3BFF28E0401FA6F0A0E0501F76F06
:1020C000000180EC0AF0F2CFE3F5F29EAA6A100E4E
:1020D000A96EA69CA69EA680A8500501E3BFF28E1D
:1020E000036F0A0EF76F000180EC0AF0F2CFE3F500
:1020F000F29EAA6A110EA96EA69CA69EA680A85062
:102100000501E3BFF28E046F0A0EF76F000180EC49
:102110000AF0F2CFE3F5F29EAA6A120EA96EA69C0F
:10212000A69EA680A8500501E3BFF28E056F0A0E99
:10213000F76F000180EC0AF0F2CFE3F5F29EAA6A95
:10214000130EA96EA69CA69EA680A8500501E3BF0B
:10215000F28E066F0A0EF76F000180EC0AF0F2CFE4
:10216000E3F5F29EAA6A150EA96EA69CA69EA6800D
:10217000A8500501E3BFF28E0401FB6F0A0E0501B2
:10218000F76F000180EC0AF0F2CFE3F5F29EAA6A45
:10219000160EA96EA69CA69EA680A8500501E3BFB8
:1021A000F28E0401FC6F0A0E0501F76F000180EC4E
:1021B0000AF0F2CFE3F5F29EAA6A170EA96EA69C6A
:1021C000A69EA680A8500501E3BFF28E0401FD6F14
:1021D0000A0E0501F76F000180EC0AF0F2CFE3F57B
:1021E000F29EAA6A180EA96EA69CA69EA680A8506A
:1021F0000501E3BFF28E0401FE6F0A0E0501F76FC1
:10220000000180EC0AF0F2CFE3F5F29EAA6A190E03
:10221000A96EA69CA69EA680A8500501E3BFF28EDB
:102220000401D86F0A0E0501F76F000180EC0AF077
:10223000F2CFE3F5F29EAA6A1A0EA96EA69CA69E9C
:10224000A680A8500501E3BFF28E0601196B186F36
:10225000000116EC0DF003C042F502C041F501C0CB
:1022600040F500C03FF50A0E0501F76F000180EC54
:102270000AF042C517F641C516F640C515F63FC52A
:1022800014F606011B6B1A6B200E196F820E186F65
:10229000000131EC0DF003C042F502C041F501C070
:1022A00040F500C03FF50601196BD8C418F60001CF
:1022B00016EC0DF0D89203C01BF602C01AF601C04E
:1022C00019F600C018F642C51FF641C51EF640C5F6
:1022D0001DF63FC51CF674DC03C03AF502C039F5A3
:1022E00001C038F500C037F5F2CFE3F5F29EAA6AD7
:1022F0001B0EA96EA69CA69EA680A8500501E3BF52
:10230000F28E0401D86F0A0E0501F76F000180EC10
:102310000AF0F2CFE3F5F29EAA6A1C0EA96EA69C03
:10232000A69EA680A8500501E3BFF28E0601196B98
:10233000186F000116EC0DF003C042F502C041F524
:1023400001C040F500C03FF50A0E0501F76F00011E
:1023500080EC0AF042C517F641C516F640C515F6E1
:102360003FC514F606011B6B1A6B200E196F820E07
:10237000186F000131EC0DF003C042F502C041F5C9
:1023800001C040F500C03FF50601196BD8C418F62E
:10239000000116EC0DF0D89203C01BF602C01AF62D
:1023A00001C019F600C018F642C51FF641C51EF659
:1023B00040C51DF63FC51CF603DC03C03EF502C058
:1023C0003DF501C03CF500C03BF5F2CFE3F5F29ED0
:1023D000AA6A1E0EA96EA69CA69EA680A8500501FC
:1023E000E3BFF28EE46FF2CFE5F5F29EAA6A1D0E0E
:1023F000A96EA69CA69EA680A850E5BFF28EE66FA9
:10240000E4C503F0E6510601186F03C019F6000198
:1024100016EC0DF003C0C2F502C0C1F501C0C0F555
:1024200000C0BFF50A0E0501F76F000180EC0AF04D
:10243000F2CFE3F5F29EAA6A220EA96EA69CA69E92
:10244000A680A8500501E3BFF28EE46FF2CFE5F558
:10245000F29EAA6A210EA96EA69CA69EA680A850EE
:10246000E5BFF28EE66FE4C5E8F4E6C5E7F40A0ED0
:10247000F76F000180EC0AF0F2CFE3F5F29EAA6A52
:102480001F0EA96EA69CA69EA680A8500501E3BFBC
:10249000F28E0401E66BE56F0A0E0501F76F00018D
:1024A00080EC0AF0F2CFE3F5F29EAA6A200EA96E44
:1024B000A69CA69EA680A8500501E3BFF28EDA6F07
:1024C0000A0EF76F000180EC0AF0F2CFE3F5F29EFE
:1024D000AA6A3D0EA96EA69CA69EA680A8500501DC
:1024E000E3BFF28EE46FF2CFE5F5F29EAA6A3C0EEE
:1024F000A96EA69CA69EA680A850E5BFF28EE66FA8
:10250000E4C503F0E6510601186F03C019F6000197
:1025100016EC0DF003C01EF502C01DF501C01CF540
:1025200000C01BF50A0E0501F76F000180EC0AF0F0
:10253000F2CFE3F5F29EAA6A3F0EA96EA69CA69E74
:10254000A680A8500501E3BFF28EE46FF2CFE5F557
:10255000F29EAA6A3E0EA96EA69CA69EA680A850D0
:10256000E5BFF28EE66FE4C503F0E6510601186F91
:1025700003C019F6000116EC0DF003C0CEF502C041
:10258000CDF501C0CCF500C0CBF50A0E0501F76F03
:10259000000180EC0AF0F2CFE3F5F29EAA6A320E57
:1025A000A96EA69CA69EA680A8500501E3BFF28E48
:1025B0000401D06F0A0E0501F76F000180EC0AF0EC
:1025C00074EF33F015C61CF6060119511C1B1CAF25
:1025D00005D0D894D89015BFD8802FD015C61CF63A
:1025E00018C61DF614511D5F06E01CAF26D0D8504A
:1025F000010AD86E22D019C61DF615511D5F06E0DE
:102600001CAF1BD0D850010AD86E17D01AC61DF6C1
:1026100016511D5F06E01CAF10D0D850010AD86ECD
:102620000CD01BC61DF617511D5F06E01CAF05D070
:10263000D850010AD86E01D0D8900001000C0501D5
:102640000BBF03D00B51090803E30BBF01D016D019
:102650000B6BAA6AA96AA86AA69CA69EA684F250D9
:10266000006EF29E0F01550EA76EAA0EA76EA682EF
:10267000A6B2FED7A6940050F21205010CBF03D0FB
:102680000C51090803E30CBF01D017D00C6BAA6AE8
:10269000010EA96EA86AA69CA69EA684F250006EA2
:1026A000F29E0F01550EA76EAA0EA76EA682A6B2C5
:1026B000FED7A6940050F21205010DBF03D00D51B4
:1026C000090803E30DBF01D017D00D6BAA6A020EF3
:1026D000A96EA86AA69CA69EA684F250006EF29EE1
:1026E0000F01550EA76EAA0EA76EA682A6B2FED740
:1026F000A6940050F21205010EBF03D00E51090836
:1027000003E30EBF01D016D00E6BAA6A030EA96EAA
:10271000A86AA69CA69EA684F250006EF29E0F01A7
:10272000550EA76EAA0EA76EA682A6B2FED7A694D5
:102730000050F2120401EFBF03D0EF51090803E388
:10274000EFBF01D017D0EF6BAA6A040EA96EA86A7A
:10275000A69CA69EA684F250006EF29E0F01550E16
:10276000A76EAA0EA76EA682A6B2FED7A6940050A8
:10277000F2120401F0BF03D0F051090803E3F0BFE7
:1027800001D017D0F06BAA6A050EA96EA86AA69CA4
:10279000A69EA684F250006EF29E0F01550EA76E03
:1027A000AA0EA76EA682A6B2FED7A6940050F21279
:1027B0000401F1BF03D0F151090803E3F1BF01D0D7
:1027C00019D0020EF16FAA6A060EA96E020EA86E4B
:1027D000A69CA69EA684F250006EF29E0F01550E96
:1027E000A76EAA0EA76EA682A6B2FED7A694005028
:1027F000F2120401F2BF03D0F251090803E3F2BF61
:1028000001D017D0F26BAA6A070EA96EA86AA69C1F
:10281000A69EA684F250006EF29E0F01550EA76E82
:10282000AA0EA76EA682A6B2FED7A6940050F212F8
:102830000401F3BF03D0F351090803E3F3BF01D050
:1028400017D0F36BAA6A080EA96EA86AA69CA69E6A
:10285000A684F250006EF29E0F01550EA76EAA0ECE
:10286000A76EA682A6B2FED7A6940050F21204016B
:10287000F4BF03D0F451090803E3F4BF01D017D02B
:10288000F46BAA6A090EA96EA86AA69CA69EA684E5
:10289000F250006EF29E0F01550EA76EAA0EA76EA3
:1028A000A682A6B2FED7A6940050F2120401F5BF8C
:1028B00003D0F551090803E3F5BF01D019D0020E8A
:1028C000F56FAA6A0A0EA96E020EA86EA69CA69EB5
:1028D000A684F250006EF29E0F01550EA76EAA0E4E
:1028E000A76EA682A6B2FED7A6940050F2120401EB
:1028F000F6BF03D0F651090803E3F6BF01D017D0A5
:10290000F66BAA6A0B0EA96EA86AA69CA69EA68460
:10291000F250006EF29E0F01550EA76EAA0EA76E22
:10292000A682A6B2FED7A6940050F2120401F7BF09
:1029300003D0F751090803E3F7BF01D017D0F76BB5
:10294000AA6A0C0EA96EA86AA69CA69EA684F2503E
:10295000006EF29E0F01550EA76EAA0EA76EA682FC
:10296000A6B2FED7A6940050F2120401F8BF03D01D
:10297000F851090803E3F8BF01D017D0F86BAA6A31
:102980000D0EA96EA86AA69CA69EA684F250006EA3
:10299000F29E0F01550EA76EAA0EA76EA682A6B2D2
:1029A000FED7A6940050F2120401F9BF03D0F951EA
:1029B000090803E3F9BF01D017D0F96BAA6A0E0E1C
:1029C000A96EA86AA69CA69EA684F250006EF29EEE
:1029D0000F01550EA76EAA0EA76EA682A6B2FED74D
:1029E000A6940050F2120401FABF03D0FA5109086C
:1029F00003E3FABF01D016D0FA6BAA6A0F0EA96ED4
:102A0000A86AA69CA69EA684F250006EF29E0F01B4
:102A1000550EA76EAA0EA76EA682A6B2FED7A694E2
:102A20000050F212050103BF03D00351090803E36C
:102A300003BF01D017D0036BAA6A100EA96EA86A53
:102A4000A69CA69EA684F250006EF29E0F01550E23
:102A5000A76EAA0EA76EA682A6B2FED7A6940050B5
:102A6000F212050104BF03D00451090803E304BFB7
:102A700001D017D0046BAA6A110EA96EA86AA69C91
:102A8000A69EA684F250006EF29E0F01550EA76E10
:102A9000AA0EA76EA682A6B2FED7A6940050F21286
:102AA000050105BF03D00551090803E305BF01D0A7
:102AB00017D0056BAA6A120EA96EA86AA69CA69EDC
:102AC000A684F250006EF29E0F01550EA76EAA0E5C
:102AD000A76EA682A6B2FED7A6940050F2120501F8
:102AE00006BF03D00651090803E306BF01D016D084
:102AF000066BAA6A130EA96EA86AA69CA69EA68457
:102B0000F250006EF29E0F01550EA76EAA0EA76E30
:102B1000A682A6B2FED7A6940050F2120401FBBF13
:102B200003D0FB51090803E3FBBF01D017D0FB6BB7
:102B3000AA6A150EA96EA86AA69CA69EA684F25043
:102B4000006EF29E0F01550EA76EAA0EA76EA6820A
:102B5000A6B2FED7A6940050F2120401FCBF03D027
:102B6000FC51090803E3FCBF01D017D0FC6BAA6A33
:102B7000160EA96EA86AA69CA69EA684F250006EA8
:102B8000F29E0F01550EA76EAA0EA76EA682A6B2E0
:102B9000FED7A6940050F2120401FDBF03D0FD51F0
:102BA000090803E3FDBF01D017D0FD6BAA6A170E19
:102BB000A96EA86AA69CA69EA684F250006EF29EFC
:102BC0000F01550EA76EAA0EA76EA682A6B2FED75B
:102BD000A6940050F2120401FEBF03D0FE51090872
:102BE00003E3FEBF01D018D0010EFE6FAA6A180ED3
:102BF000A96E010EA86EA69CA69EA684F250006E39
:102C0000F29E0F01550EA76EAA0EA76EA682A6B25F
:102C1000FED7A6940050F2120601176B166B156BC7
:102C2000800E146F3AC51BF639C51AF638C519F669
:102C300037C518F60001C6DC32E305013A6B396B83
:102C4000400E386F7F0E376FAA6A190EA96E010EFB
:102C5000A86EA69CA69EA684F250006EF29E0F015E
:102C6000550EA76EAA0EA76EA682A6B2FED7A69490
:102C70000050F212AA6A1A0EA96E050EA86EA69C42
:102C8000A69EA684F250006EF29E550EA76EAA0E66
:102C9000A76EA682A6B2FED7A6940050F212060135
:102CA000176B166B156B800E146F3EC51BF63DC57A
:102CB0001AF63CC519F63BC518F6000183DC30E373
:102CC00005013E6B3D6B3C6B7F0E3B6FAA6A1B0E92
:102CD000A96E010EA86EA69CA69EA684F250006E58
:102CE000F29E0F01550EA76EAA0EA76EA682A6B27F
:102CF000FED7A6940050F212AA6A1C0EA96EA86A0A
:102D0000A69CA69EA684F250006EF29E550EA76E5B
:102D1000AA0EA76EA682A6B2FED7A6940050F21203
:102D20000601176B166B160E156F870E146FC2C552
:102D30001BF6C1C51AF6C0C519F6BFC518F60001C5
:102D400041DC31E30501C26BC16B4B0EC06F860ED7
:102D5000BF6FAA6A1D0EA96ECB0EA86EA69CA69E7A
:102D6000A684F250006EF29E0F01550EA76EAA0EB9
:102D7000A76EA682A6B2FED7A6940050F212AA6A47
:102D80001E0EA96EA86AA69CA69EA684F250006E8E
:102D9000F29E550EA76EAA0EA76EA682A6B2FED709
:102DA000A6940050F2120401E65303E1E5513C08F9
:102DB00017E2E66BE56BAA6A1F0EA96EA86AA69CCD
:102DC000A69EA684F250006EF29E0F01550EA76ECD
:102DD000AA0EA76EA682A6B2FED7A6940050F21243
:102DE0000501DA51060818E2020EDA6FAA6A200E0F
:102DF000A96E020EA86EA69CA69EA684F250006E36
:102E0000F29E0F01550EA76EAA0EA76EA682A6B25D
:102E1000FED7A6940050F2120401E8510D0830E2EA
:102E2000FF0A03E1E75110082BE2E86BE76BAA6A9F
:102E3000210EA96EA86AA69CA69EA684F250006EDA
:102E4000F29E0F01550EA76EAA0EA76EA682A6B21D
:102E5000FED7A6940050F212AA6A220EA96EA86AA2
:102E6000A69CA69EA684F250006EF29E550EA76EFA
:102E7000AA0EA76EA682A6B2FED7A6940050F212A2
:102E80000601176B166B480E156F860E146F1EC564
:102E90001BF61DC51AF61CC519F61BC518F6000150
:102EA000E2EC12F02EE305011E6B1D6B1C6B1B6B1D
:102EB000AA6A3C0EA96EA86AA69CA69EA684F25099
:102EC000006EF29E0F01550EA76EAA0EA76EA68287
:102ED000A6B2FED7A6940050F212AA6A3D0EA96EC1
:102EE000A86AA69CA69EA684F250006EF29E550E7D
:102EF000A76EAA0EA76EA682A6B2FED7A694005011
:102F0000F2120601176B166B700E156F860E146F9A
:102F1000CEC51BF6CDC51AF6CCC519F6CBC518F62D
:102F20000001E2EC12F031E30501CE6BCD6B700EC7
:102F3000CC6F860ECB6FAA6A3E0EA96EF00EA86EFD
:102F4000A69CA69EA684F250006EF29E0F01550E1E
:102F5000A76EAA0EA76EA682A6B2FED7A6940050B0
:102F6000F212AA6A3F0EA96EA86AA69CA69EA68423
:102F7000F250006EF29E550EA76EAA0EA76EA682A4
:102F8000A6B2FED7A6940050F2120401D051140844
:102F900019E20A0ED06FAA6A320EA96E0A0EA86E46
:102FA000A69CA69EA684F250006EF29E0F01550EBE
:102FB000A76EAA0EA76EA682A6B2FED7A694005050
:102FC000F2120401000176EF33F00501F435006ED2
:102FD0000036FC0E001600C001F0C250C30B0010FA
:102FE000C26E010EF76F000180EC0AF0C282C2B21D
:102FF000FED7C4CFF6F50501C3CFF5F5F5C501F051
:10300000F6C502F00001000C8E0E006E0601145190
:10301000005E15C602F016C601F0028E005209E0ED
:10302000D890025202E1015204E002320132002E35
:10303000F7D715AF05D0011E021E012AD8B4022A07
:103040000001000C06011451D8B471D0006E185163
:10305000D8B46DD0002604E3810E002668E204D0C7
:103060007F0E005E64E363E015C61CF619511C1B5D
:10307000158F198F17511B03F4CF1EF616511A0323
:10308000F4CF03F0F3CF1DF61B03F3501E27F450CB
:103090001D23000E032217511A03F3501E27F4506C
:1030A0001D23000E026A0322022215511B03F35056
:1030B0001D27F4500322000E022215511A03F3506B
:1030C0000326F4500222000E016A0122175119034F
:1030D000F3501D27F4500322000E02220122165144
:1030E0001903F3500326F4500222000E0122155159
:1030F0001903F3500226F4500122002A01BE05D024
:103100001D370336023601360006000E1DAF0AD009
:10311000032A02220122015005E1025003E103507B
:1031200001E1002A1CBF018E1CAF019E04D0006A81
:10313000016A026A036A0001000C0601139107C6C6
:103140000CF606C60BF605C60AF604C609F607C64F
:1031500017F606C616F605C615F604C614F61B6B5A
:103160001A6B196B186B0001E2EC12F005E3060113
:1031700013810A51800A0A6F0CC617F60BC616F6A1
:103180000AC615F609C614F606011B6B1A6B196BF5
:103190008E0E186F0001E2EC12F001E218E10CC68D
:1031A00017F60BC616F60AC615F609C614F62CDF76
:1031B00002C019F601C018F616EC0DF003C010F6A7
:1031C00002C00FF601C00EF600C00DF6CFD00CC63F
:1031D00017F60BC616F60AC615F609C614F6800EC3
:1031E00006011B6F960E1A6F180E196F960E186F48
:1031F0000001E2EC12F0D8A0B1D00CC617F60BC655
:1032000016F60AC615F609C614F606011B6B1A6BEC
:10321000196B8E0E186F000131EC0DF003C017F61C
:1032200002C016F601C015F600C014F6EDDE02C0AD
:1032300012F601C011F60CC617F60BC616F60AC632
:1032400015F609C614F606011B6B1A6B196B8E0E68
:10325000186F000131EC0DF000C014F601C015F636
:1032600002C016F603C017F612C619F611C618F6F4
:1032700016EC0DF0D88217C61BF616C61AF615C640
:1032800019F614C618F603C01FF602C01EF601C0D8
:103290001DF600C01CF6E0EC0DF00601176B166B76
:1032A000156B8E0E146F03C01BF602C01AF601C018
:1032B00019F600C018F60001C5DE03C00CF602C006
:1032C0000BF601C00AF600C009F612C619F611C6BF
:1032D00018F616EC0DF00601176B166B156B8E0EBB
:1032E000146F03C01BF602C01AF601C019F600C025
:1032F00018F60001A7DE03C010F602C00FF601C0E9
:103300000EF600C00DF60CC617F60BC616F60AC66A
:1033100015F609C614F678DE02C019F601C018F6D3
:1033200016EC0DF0D89210C61BF60FC61AF60EC694
:1033300019F60DC618F603C01FF602C01EF601C02E
:103340001DF600C01CF6E0EC0DF003C010F602C044
:103350000FF601C00EF600C00DF608D00CC610F630
:103360000BC60FF60AC60EF609C60DF60CC617F602
:103370000BC616F60AC615F609C614F645DE02C0D7
:1033800019F601C018F616EC0DF0D8820CC61BF623
:103390000BC61AF60AC619F609C618F603C01FF6B8
:1033A00002C01EF601C01DF600C01CF6E0EC0DF0D8
:1033B00003C00CF602C00BF601C00AF600C009F605
:1033C000060113A103D00E51800A0E6F0CC617F62A
:1033D0000BC616F60AC615F609C614F61B6B1A6B51
:1033E000196B186B0001E2EC12F03CE0060113A12E
:1033F0001CD008531AE1D88210C61BF60FC61AF665
:103400000EC619F60DC618F61F6B1E6B1D6B7F0ED0
:103410001C6F0001E0EC0DF003C010F602C00FF6C7
:1034200001C00EF600C00DF6060113B11CD0082D28
:103430001AD0D89210C61BF60FC61AF60EC619F689
:103440000DC618F61F6B1E6B1D6B7F0E1C6F0001E7
:10345000E0EC0DF003C010F602C00FF601C00EF64E
:1034600000C00DF6060107C617F606C616F605C615
:1034700015F604C614F61B6B1A6B196B186B00015A
:10348000E2EC12F006E10601106B0F6B0E6B0D6B98
:1034900000010DC600F00EC601F00FC602F010C606
:1034A00003F0000C03C607F602C606F601C605F6D1
:1034B00000C604F6010E0601086F00013EDECFEFE4
:1034C0001AF003C607F602C606F601C605F600C6E0
:1034D00004F60601086B000130DEF3EF1AF0F7C5C1
:1034E00017F6F6C516F6F5C515F6F4C514F6060179
:1034F0001B6B1A6B196B186B0001E2EC12F0D8B45D
:10350000A0D0F3C517F6F2C516F6F1C515F6F0C54D
:1035100014F6F7C51BF6F6C51AF6F5C519F6F4C587
:1035200018F631EC0DF000C0FCF501C0FDF502C04D
:10353000FEF503C0FFF503C017F602C016F601C082
:1035400015F600C014F606011B6B1A6B196B186B8D
:103550000001E2EC12F024E3F3C517F6F2C516F60B
:10356000F1C515F6F0C514F6F7C51BF6F6C51AF643
:10357000F5C519F6F4C518F631EC0DF000C0FCF5F0
:1035800001C0FDF502C0FEF503C0FFF503C003F660
:1035900002C002F601C001F600C000F683D723D0B6
:1035A000F3C517F6F2C516F6F1C515F6F0C514F613
:1035B000F7C51BF6F6C51AF6F5C519F6F4C518F6E3
:1035C00031EC0DF000C0FCF501C0FDF502C0FEF5C8
:1035D00003C0FFF503C003F602C002F601C001F606
:1035E00000C000F66ED703C0FBF502C0FAF501C0BB
:1035F000F9F500C0F8F5FBC517F6FAC516F6F9C5DA
:1036000015F6F8C514F6F7C51BF6F6C51AF6F5C596
:1036100019F6F4C518F616DDD882F3C51BF6F2C507
:103620001AF6F1C519F6F0C518F603C01FF602C068
:103630001EF601C01DF600C01CF6E0EC0DF001D036
:1036400000D0000C8E0E006E0BC601F00AC602F010
:10365000036A01AE05D0011E021E022A01E1012A01
:10366000015209E102C001F0026A080E005E015237
:1036700002E1006A0DD0D89001BE04D002360136B6
:103680000006F9D706010BAF02D0000101D0019E60
:103690000001000CF7C5FBF5F6C5FAF5F5C5F9F51F
:1036A000F4C5F8F5FBC517F6FAC516F6F9C515F613
:1036B000F8C514F606011B6B1A6B196B7F0E186F99
:1036C0000001E2EC12F0D8B443D2050E06010A6FF5
:1036D000F80EE96E0AC6EAFF7E0EEF6ED882FBC5D1
:1036E0001BF6FAC51AF6F9C519F6F8C518F61F6BD8
:1036F0001E6B1D6B7F0E1C6F0001E0EC0DF000C017
:1037000009F601C00AF602C00BF603C00CF6D89207
:10371000FBC51BF6FAC51AF6F9C519F6F8C518F671
:1037200006011F6B1E6B1D6B7F0E1C6F0001E0EC12
:103730000DF00CC617F60BC616F60AC615F609C626
:1037400014F603C01BF602C01AF601C019F600C039
:1037500018F631EC0DF003C0FBF502C0FAF501C01C
:10376000F9F500C0F8F5FBC517F6FAC516F6F9C568
:1037700015F6F8C514F6FBC51BF6FAC51AF6F9C519
:1037800019F6F8C518F65EDC03C007F602C006F6A7
:1037900001C005F600C004F6BC0E0601176F240E2A
:1037A000166F670E156F7D0E146F07C61BF606C6E3
:1037B0001AF605C619F604C618F6000143DC00C067
:1037C00009F601C00AF602C00BF603C00CF6D89247
:1037D00003C01BF602C01AF601C019F600C018F6A5
:1037E000E30E06011F6FE40E1E6F900E1D6F820E1A
:1037F0001C6F0001E0EC0DF003C0FFF502C0FEF508
:1038000001C0FDF500C0FCF5FFC517F6FEC516F6B4
:10381000FDC515F6FCC514F607C61BF606C61AF656
:1038200005C619F604C618F60DDC00C009F601C07D
:103830000AF602C00BF603C00CF6D89203C01BF6C2
:1038400002C01AF601C019F600C018F61C0E0601D7
:103850001F6F870E1E6F570E1D6F830E1C6F0001AA
:10386000E0EC0DF003C0FFF502C0FEF501C0FDF570
:1038700000C0FCF5FFC517F6FEC516F6FDC515F62A
:10388000FCC514F607C61BF606C61AF605C619F6D9
:1038900004C618F622EC18F000C009F601C00AF6BA
:1038A00002C00BF603C00CF6D89203C01BF602C090
:1038B0001AF601C019F600C018F6AB0E06011F6F0C
:1038C000E10E1E6F9E0E1D6F830E1C6F0001E0EC5B
:1038D0000DF003C0FFF502C0FEF501C0FDF500C00C
:1038E000FCF50601176B166B156B7F0E146F07C680
:1038F0001BF606C61AF605C619F604C618F6000128
:1039000022EC18F000C009F601C00AF602C00BF65E
:1039100003C00CF6D89203C01BF602C01AF601C011
:1039200019F600C018F6B40E06011F6F2A0E1E6F9E
:10393000820E1D6F1C6F0001E0EC0DF003C003F65A
:1039400002C002F601C001F600C000F603C617F679
:1039500002C616F601C615F600C614F607C61BF613
:1039600006C61AF605C619F604C618F622EC18F0B3
:1039700000C009F601C00AF602C00BF603C00CF63F
:10398000D89203C01BF602C01AF601C019F600C097
:1039900018F6800E06011F6F3E0E1E6F060E1D6F7D
:1039A000830E1C6F0001E0EC0DF003C003F602C0B3
:1039B00002F601C001F600C000F603C617F602C603
:1039C00016F601C615F600C614F607C61BF606C69F
:1039D0001AF605C619F604C618F622EC18F000C04F
:1039E00009F601C00AF602C00BF603C00CF6D89225
:1039F00003C01BF602C01AF601C019F600C018F683
:103A0000AB0E06011F6FE10E1E6F9E0E1D6F820E24
:103A10001C6F0001E0EC0DF003C003F602C002F6DB
:103A200001C001F600C000F6FBC517F6FAC516F690
:103A3000F9C515F6F8C514F6FFC51BF6FEC51AF64E
:103A4000FDC519F6FCC518F622EC18F000C009F601
:103A500001C00AF602C00BF603C00CF603C017F64D
:103A600002C016F601C015F600C014F603C61BF618
:103A700002C61AF601C619F600C618F631EC0DF0AA
:103A800003C0FFF502C0FEF501C0FDF500C0FCF566
:103A9000050E06010A6FF40EE96E0AC6EAFF7E0EF5
:103AA000EF5C086F08BF01D014D0000ED880085515
:103AB0000B6B0A6F0ABF0B070001C4DD00C000F6E4
:103AC0000150800A0601016F02C002F603C003F62E
:103AD00010D00B6B08C60AF60ABF0B070001B2DD57
:103AE00003C003F602C002F601C001F600C000F6F2
:103AF000060103C617F602C616F601C615F600C67D
:103B000014F6180E1B6F720E1A6F310E196F7E0E9F
:103B1000186F000122EC18F0D892FFC51BF6FEC505
:103B20001AF6FDC519F6FCC518F603C01FF602C04B
:103B30001EF601C01DF600C01CF6E0EC0DF003C03F
:103B4000FFF502C0FEF501C0FDF500C0FCF506D092
:103B50000501FF6BFE6BFD6BFC6B0001FCC500F00B
:103B6000FDC501F0FEC502F0FFC503F0000CF7C56E
:103B700017F6F6C516F6F5C515F6F4C514F6180EC3
:103B800006011B6F720E1A6F310E196F7E0E186FC1
:103B9000000131EC0DF003C017F602C016F601C0AB
:103BA00015F600C014F604EC18F001C004F6060186
:103BB0000591F7C5FBF5F6C5FAF5F5C5F9F5F4C5B8
:103BC000F8F5F7C517F6F6C516F6F5C515F6F4C5FA
:103BD00014F61B6B1A6B196B186B0001E2EC12F0F8
:103BE00007E306010581046D0501F951800AF96FAB
:103BF0000501FF6BFE6BFD6BFC6B050E0601076F8D
:103C0000FC0EE96E07C6EAFF7F0E0425EF6EFBC5CA
:103C100017F6FAC516F6F9C515F6F8C514F6180E16
:103C20001B6F720E1A6F310E196F7E0E186F000126
:103C300031EC0DF000C006F601C007F602C008F630
:103C400003C009F606010B6B04C60AF60ABF0B0790
:103C50000001F8DCD88209C61BF608C61AF607C6AA
:103C600019F606C618F603C01FF602C01EF601C0FC
:103C70001DF600C01CF6E0EC0DF003C0FBF502C021
:103C8000FAF501C0F9F500C0F8F57C0E0601176FD2
:103C9000880E166F590E156F720E146FFBC51BF64A
:103CA000FAC51AF6F9C519F6F8C518F6000122EC9E
:103CB00018F000C006F601C007F602C008F603C0FF
:103CC00009F6D89203C01BF602C01AF601C019F615
:103CD00000C018F6E00E06011F6F970E1E6F260E2D
:103CE0001D6F750E1C6F0001E0EC0DF003C003F6B4
:103CF00002C002F601C001F600C000F603C617F6C6
:103D000002C616F601C615F600C614F6FBC51BF66C
:103D1000FAC51AF6F9C519F6F8C518F622EC18F026
:103D200000C006F601C007F602C008F603C009F697
:103D3000D89203C01BF602C01AF601C019F600C0E3
:103D400018F6C40E06011F6F1D0E1E6F1E0E1D6F8E
:103D5000780E1C6F0001E0EC0DF003C003F602C00A
:103D600002F601C001F600C000F603C617F602C64F
:103D700016F601C615F600C614F6FBC51BF6FAC505
:103D80001AF6F9C519F6F8C518F622EC18F000C0B5
:103D900006F601C007F602C008F603C009F6D8927D
:103DA00003C01BF602C01AF601C019F600C018F6CF
:103DB0005E0E06011F6F500E1E6F630E1D6F7A0E92
:103DC0001C6F0001E0EC0DF003C003F602C002F628
:103DD00001C001F600C000F603C617F602C616F6CB
:103DE00001C615F600C614F6FBC51BF6FAC51AF691
:103DF000F9C519F6F8C518F622EC18F000C006F659
:103E000001C007F602C008F603C009F6D89203C045
:103E10001BF602C01AF601C019F600C018F61A0EF9
:103E200006011F6FFE0E1E6F750E1D6F7C0E1C6F40
:103E30000001E0EC0DF003C003F602C002F601C081
:103E400001F600C000F603C617F602C616F601C654
:103E500015F600C614F6FBC51BF6FAC51AF6F9C529
:103E600019F6F8C518F622EC18F000C006F601C0E5
:103E700007F602C008F603C009F6D89203C01BF685
:103E800002C01AF601C019F600C018F6180E060195
:103E90001F6F720E1E6F310E1D6F7E0E1C6F0001A4
:103EA000E0EC0DF003C003F602C002F601C001F61B
:103EB00000C000F6FBC517F6FAC516F6F9C515F6EB
:103EC000F8C514F603C61BF602C61AF601C619F6A3
:103ED00000C618F622EC18F0D89206011B6B1A6B7C
:103EE000196B7F0E186F03C01FF602C01EF601C0CB
:103EF0001DF600C01CF60001E0EC0DF0FFC517F642
:103F0000FEC516F6FDC515F6FCC514F603C01BF676
:103F100002C01AF601C019F600C018F622EC18F01B
:103F200003C0FFF502C0FEF501C0FDF500C0FCF5C1
:103F3000060105A119D0176B166B156B7F0E146F58
:103F4000FFC51BF6FEC51AF6FDC519F6FCC518F629
:103F5000000131EC0DF003C0FFF502C0FEF501C019
:103F6000FDF500C0FCF50601FCC500F0FDC501F043
:103F7000FEC502F0FFC503F00001000CEBC517F60B
:103F8000EAC516F6E9C515F6E8C514F606011B6B79
:103F90001A6B196B186B0001E2EC12F0D8A0D9D0A3
:103FA000EFC5F3F5EEC5F2F5EDC5F1F5ECC5F0F5AD
:103FB0000501F76BF66BF56B7F0EF46F00016FEC8C
:103FC0001AF000C0F0F501C0F1F502C0F2F503C02F
:103FD000F3F503C017F602C016F601C015F600C0CF
:103FE00014F606011B6B1A6B196B186B0001E2ECDF
:103FF00012F0D8A4AED0EFC5F3F5EEC5F2F5EDC5DD
:10400000F1F5ECC5F0F50501F76BF66BF56B800E7D
:10401000F46F00016FEC1AF000C0F0F501C0F1F58B
:1040200002C0F2F503C0F3F503C017F602C016F69E
:1040300001C015F600C014F606011B6B1A6B196B54
:10404000186B0001E2EC12F041E1E8C5F0F5050162
:10405000E951800AF16FEAC5F2F5EBC5F3F5EBC55E
:10406000F7F5EAC5F6F5F56FE8C5F4F500014AEC99
:104070001BF000C0F0F501C0F1F502C0F2F503C07D
:10408000F3F503C017F602C016F601C015F600C01E
:1040900014F6EFC51BF6EEC51AF6EDC519F6ECC51C
:1040A00018F622EC18F000C0F0F501C0F1F502C0DE
:1040B000F2F503C0F3F503C0F7F502C0F6F501C051
:1040C000F5F500C0F4F553DDDED042D0E8C5F0F5DB
:1040D0000501E951800AF16FEAC5F2F5EBC5F3F588
:1040E000EBC5F7F5EAC5F6F5F56FE8C5F4F500019F
:1040F0004AEC1BF000C0F0F501C0F1F502C0F2F58A
:1041000003C0F3F503C017F602C016F601C015F69A
:1041100000C014F6EFC51BF6EEC51AF6EDC519F68C
:10412000ECC518F622EC18F000C0F0F501C0F1F56E
:1041300002C0F2F503C0F3F503C0F7F502C0F6F5CF
:1041400001C0F5F500C0F4F512DD800E011A9BD018
:104150009AD0EBC517F6EAC516F6E9C515F6E8C517
:1041600014F606011B6B1A6B196B186B0001E2EC5D
:1041700012F030E3EFC5F3F5EEC5F2F5EDC5F1F55C
:10418000ECC5F0F50501F76BF66BF56B7F0EF46F80
:1041900000016FEC1AF000C0F0F501C0F1F502C0AB
:1041A000F2F503C0F3F503C017F602C016F601C01E
:1041B00015F600C014F606011B6B1A6B196B186B11
:1041C0000001E2EC12F006E0006A016A026A036A8A
:1041D0005AD059D0EBC517F6EAC516F6E9C515F65B
:1041E000E8C514F606011B6B1A6B196B186B0001FE
:1041F000E2EC12F012E1EFC517F6EEC516F6EDC5CA
:1042000015F6ECC514F606011B6B1A6B196B186BCF
:104210000001E2EC12F001E236E1EBC5F7F5EAC588
:10422000F6F5E9C5F5F5E8C5F4F54AEC1BF000C074
:10423000F0F501C0F1F502C0F2F503C0F3F503C0DB
:1042400017F602C016F601C015F600C014F6EFC549
:104250001BF6EEC51AF6EDC519F6ECC518F622ECFC
:1042600018F000C0F0F501C0F1F502C0F2F503C08E
:10427000F3F503C0F7F502C0F6F501C0F5F500C08F
:10428000F4F575DC00D0000C010E0501F46F00019F
:10429000E5EC17F002C0DCF401C0DBF40401D051FE
:1042A0000A0823E1DCC419F6DBC418F6000116EC99
:1042B0000DF0D89203C01BF602C01AF601C019F621
:1042C00000C018F61EC51FF61DC51EF61CC51DF63E
:1042D0001BC51CF6E0EC0DF003C02EF502C02DF559
:1042E00001C02CF500C02BF50401D051140822E1C7
:1042F000DCC419F6DBC418F6000116EC0DF0D88208
:1043000003C01BF602C01AF601C019F600C018F669
:104310001EC51FF61DC51EF61CC51DF61BC51CF6C9
:10432000E0EC0DF003C02EF502C02DF501C02CF518
:1043300000C02BF52EC5EBF52DC5EAF52CC5E9F52A
:104340002BC5E8F50501EF6BEE6B400EED6F800EAF
:10435000EC6F000113DE00C0E4F501C0E5F502C01A
:10436000E6F503C0E7F503C017F602C016F601C074
:1043700015F600C014F64AC51BF649C51AF648C51D
:1043800019F647C518F622EC18F000C0E4F501C094
:10439000E5F502C0E6F503C0E7F52EC5EBF52DC542
:1043A000EAF52CC5E9F52BC5E8F50501EF6BEE6BD9
:1043B000ED6B800EEC6F0001E1DD00C0E8F501C09F
:1043C000E9F502C0EAF503C0EBF503C017F602C039
:1043D00016F601C015F600C014F64EC51BF64DC505
:1043E0001AF64CC519F64BC518F622EC18F0EACFB0
:1043F000E9F5E9CFE8F5D892E7C51BF6E6C51AF668
:10440000E5C519F6E4C518F603C01FF602C01EF68E
:1044100001C01DF600C01CF6E0EC0DF0E9C5EAFF96
:10442000E8C5E9FF00C0E4F501C0E5F502C0E6F526
:1044300003C0E7F52EC517F62DC516F62CC515F6E3
:104440002BC514F652C51BF651C51AF650C519F600
:104450004FC518F622EC18F0EACFEBF5E9CFEAF5F4
:10446000D892E7C51BF6E6C51AF6E5C519F6E4C508
:1044700018F603C01FF602C01EF601C01DF600C0EC
:104480001CF6E0EC0DF0EBC5EAFFEAC5E9FF00C061
:10449000E4F501C0E5F502C0E6F503C0E7F5EACFB3
:1044A000EDF5E9CFECF5D89203C01BF602C01AF681
:1044B00001C019F600C018F656C51FF655C51EF600
:1044C00054C51DF653C51CF6E0EC0DF0EDC5EAFF32
:1044D000ECC5E9FF03C02AF502C029F501C028F5A3
:1044E00000C027F52AC517F629C516F628C515F602
:1044F00027C514F606011B6B1A6B196B186B0001AC
:10450000E2EC12F005E305012A6B296B286B276B9F
:104510000501E3510401D65D01E3D66BD651040DCC
:10452000F350036A570FE96E050E0320EA6E27C5A4
:10453000EFFF28C5ECFF29C5ECFF2AC5ECFFD62B01
:104540000501BA6BB96BB86BB76B0401D76B010E81
:104550000501E35D0401D75D01E038E2D751040DA8
:10456000F350036A570FE96E050E0320EA6EEFCF92
:1045700000F0ECCF01F0ECCF02F0ECCF03F0EACF8B
:10458000E5F5E9CFE4F5D892BAC51BF6B9C51AF638
:10459000B8C519F6B7C518F603C01FF602C01EF657
:1045A00001C01DF600C01CF60001E0EC0DF0E5C5F1
:1045B000EAFFE4C5E9FF03C0BAF502C0B9F501C0DE
:1045C000B8F500C0B7F50401D72BC1D70601196BA8
:1045D000E3C518F6000116EC0DF0BAC517F6B9C51B
:1045E00016F6B8C515F6B7C514F603C01BF602C01B
:1045F0001AF601C019F600C018F631EC0DF000C033
:10460000E4F501C0E5F502C0E6F503C0E7F503C037
:1046100017F602C016F601C015F600C014F63AC52A
:104620001BF639C51AF638C519F637C518F622EC47
:1046300018F003C0BAF502C0B9F501C0B8F500C062
:10464000B7F5B7C500F0B8C501F0B9C502F0BAC5F5
:1046500003F082EF33F00501E76BE66BE56BE46B8B
:10466000EB6BEA6BE96BE86BEF6BEE6BED6BEC6B96
:10467000F36BF26BF16BF06BF46B0001E5EC17F090
:1046800002C019F601C018F616EC0DF003C0E7F5EC
:1046900002C0E6F501C0E5F500C0E4F50601176BC0
:1046A000166B200E156F810E146FE7C51BF6E6C55D
:1046B0001AF6E5C519F6E4C518F6000122EC18F063
:1046C00000C0F4F501C0F5F502C0F6F503C0F7F53A
:1046D00003C017F602C016F601C015F600C014F6A6
:1046E00006011B6BC00E1A6F7F0E196F880E186FB4
:1046F000000131EC0DF003C0EBF502C0EAF501C09A
:10470000E9F500C0E8F5EBC517F6EAC516F6E9C508
:1047100015F6E8C514F60A0E06011B6FD70E1A6FC0
:10472000230E196F780E186F000131EC0DF003C0E5
:10473000EFF502C0EEF501C0EDF500C0ECF50501A6
:10474000D451E35D01E2D46BD451040DF350036AFC
:10475000770FE96E050E0320EA6EECC5EFFFEDC59D
:10476000ECFFEEC5ECFFEFC5ECFFD42BF36BF26B67
:10477000F16BF06BD56B010EE35DD55D01E038E2C6
:10478000D551040DF350036A770FE96E050E03202F
:10479000EA6EEFCF00F0ECCF01F0ECCF02F0ECCFFF
:1047A00003F0EACFF5F5E9CFF4F5D892F3C51BF69F
:1047B000F2C51AF6F1C519F6F0C518F603C01FF6D2
:1047C00002C01EF601C01DF600C01CF60001E0ECA0
:1047D0000DF0F5C5EAFFF4C5E9FF03C0F3F502C02B
:1047E000F2F501C0F1F500C0F0F50501D52BC3D7F6
:1047F0000601196BE3C518F6000116EC0DF0F3C5C0
:1048000017F6F2C516F6F1C515F6F0C514F603C095
:104810001BF602C01AF601C019F600C018F631ECFA
:104820000DF090EF33F00501E76BE66BE56BE46BA1
:10483000020EF46F0001E5EC17F002C0DEF401C0D7
:10484000DDF4DEC419F6DDC418F616EC0DF003C075
:10485000C6F502C0C5F501C0C4F500C0C3F5C6C5A4
:1048600017F6C5C516F6C4C515F6C3C514F6CEC5EC
:104870001BF6CDC51AF6CCC519F6CBC518F631EC2A
:104880000DF000C0E8F501C0E9F502C0EAF503C08B
:10489000EBF5D88203C01BF602C01AF601C019F668
:1048A00000C018F606011F6B1E6B1D6B7F0E1C6F80
:1048B0000001E0EC0DF003C0CAF502C0C9F501C06B
:1048C000C8F500C0C7F5CAC517F6C9C516F6C8C5EC
:1048D00015F6C7C514F606011B6B1A6B196B186B1E
:1048E0000001E2EC12F005E30501CA6BC96BC86B6D
:1048F000C76B010E0501E35D0401D55D02E001E334
:10490000D56BD551040DF350036A970FE96E050E70
:104910000320EA6ECAC517F6C9C516F6C8C515F64E
:10492000C7C514F6D70E06011B6FA30E1A6F196BBD
:10493000810E186F000122EC18F000C0EFFF01C0DB
:10494000ECFF02C0ECFF03C0ECFF0401D52BD46BDD
:10495000010E0501E35D0401D45D01E038E2D451AC
:10496000040DF350036A970FE96E050E0320EA6EFB
:10497000EFCF00F0ECCF01F0ECCF02F0ECCF03F082
:10498000EACFE9F5E9CFE8F5D892E7C51BF6E6C529
:104990001AF6E5C519F6E4C518F603C01FF602C0FD
:1049A0001EF601C01DF600C01CF60001E0EC0DF083
:1049B000E9C5EAFFE8C5E9FF03C0E7F502C0E6F58F
:1049C00001C0E5F500C0E4F50401D42BC1D7060110
:1049D000196BE3C518F6000116EC0DF0E7C517F6E4
:1049E000E6C516F6E5C515F6E4C514F603C01BF6D4
:1049F00002C01AF601C019F600C018F631EC0DF02D
:104A000003C0E7F502C0E6F501C0E5F500C0E4F536
:104A1000E7C517F6E6C516F6E5C515F6E4C514F6BE
:104A20003EC51BF63DC51AF63CC519F63BC518F642
:104A300022EC18F0A2EF33F006010151016A005D8B
:104A400003E200C600F00CD0006A080E026F0037C7
:104A500000360151005CD8B0006E0136022FF7D746
:104A60000001000C2CC4EAFF2BC4E9FF060105C6B7
:104A7000EFFFE92AD8B4EA2AEF6A04012B2BD8B455
:104A80002C2B0001000C200E0501FBA9300EFC6F41
:104A9000FAC500F0FAAF07D0001E002A00C0FAF5F0
:104AA0002D0EFC6FFB8F0150FAC500F6640E060157
:104AB000016F0001C1DF00C0FAF5300E01240501CD
:104AC000FD6FFAC500F60A0E0601016F0001B4DFA2
:104AD000300E00240501FF6F300E0124FE6FFCC56F
:104AE00000F0FBA702D0FBAFFB95FBB90BD0FBAFEF
:104AF00022D0FBB520D000C0FDF5FBB31CD000C018
:104B0000FEF519D0300EFD5D16E100C0FDF5200E5A
:104B1000FC6FFBA704D0FB95FB83FBAFFB93300E30
:104B2000FE5D09E100C0FEF5200EFD6FFBA7F7D783
:104B3000FB93FBAFFB91FBA505D0FCC505F600017F
:104B400091DF0501FBA305D0FDC505F600018ADF55
:104B50000501FBA104D0FEC505F6000183DFFFC5FA
:104B600005F600017FDF000C010E0601106F116FCA
:104B7000166B0751095D176F175117AF03D0000E61
:104B8000D8801755036A0E6F03C00FF608510A5DEF
:104B9000176F175117AF03D0000ED8801755036A4F
:104BA0000C6F03C00DF60751095D02E2FF0E106F96
:104BB00008510A5D02E2FF0E116F0D510F5D3CE3DB
:104BC00003E10C510E5D38E3D8900C370D370E51D0
:104BD0000C5D006E0F510D5900C012F6136F0E518F
:104BE000125D146F0F511359156F0F5303E11651D6
:104BF0000E5D21E307C617F608C618F60BC619F6B0
:104C00000001CDEC0BF0060113BF01D008D00C5110
:104C100012270D51132310510725076F0AD0145185
:104C200012271551132310510725076F115108251D
:104C3000086F162BDAD737D0D8900E370F370C51B4
:104C40000E5D006E0D510F5900C012F6136F0C511E
:104C5000125D146F0D511359156F0D5303E1165169
:104C60000C5D21E307C617F608C618F60BC619F641
:104C70000001CDEC0BF0060113BF01D008D00E519E
:104C800012270F51132311510825086F0AD0145110
:104C900012271551132310510725076F11510825AD
:104CA000086F162BDAD70001000C0601005331E023
:104CB0000501FE51FC5D05E2FCC503F6FEC504F6E8
:104CC00004D0FEC503F6FCC504F6FF51FD5D05E208
:104CD000FDC505F6FFC506F604D0FFC505F6FDC502
:104CE00006F606010351045D13E305C602F6025100
:104CF000065D0CE303C617F602C618F601C619F6E0
:104D00000001CDEC0BF00601022BF1D7032BEAD703
:104D10002ED0FCC507F6FDC508F6FEC509F6FDC593
:104D20000AF601C60BF600011FDFFCC507F6FFC53A
:104D300008F6FEC509F6FFC50AF601C60BF614DF34
:104D4000FCC507F6FDC508F6FCC509F6FFC50AF661
:104D500001C60BF609DFFEC507F6FDC508F6FEC560
:104D600009F6FFC50AF601C60BF6FEDE06010001D4
:104D7000000C050E04012C6FF10E2B6FEDC5FAF53A
:104D80001F0E0501FB6F00017EDE0501F02D2AD00C
:104D9000120EEE25FA6F180EEF25FB6FEEC5FCF52F
:104DA000EFC5FDF5FAC5FEF5FF6F010E0601006FB8
:104DB000016F00017ADF020E0501EE25FA6F010E88
:104DC000EF25FB6FFAC5FCF5FD6F050EFF6FF10EC9
:104DD000FE6F020E0601006F016B00012BEC0CF060
:104DE00029D00501120EEE25FA6F180EEF25FB6F84
:104DF000EEC5FCF5EFC5FDF5FAC5FEF5FF6F060142
:104E0000006B016B000151DF020E0501EE25FA6F08
:104E1000010EEF25FB6FFAC5FCF5FD6F050EFF6F68
:104E2000F10EFE6F020E0601006F010E016F000110
:104E30002BEC0CF0000C0501EBC501F0ECC503F008
:104E4000EBC5F1F5ECC5F2F5040EEA6E170EE96E4E
:104E5000ECC5E2FFEBC5E1FFE752E6CFEEFFFCE178
:104E6000EF2D28D0F051080DF350EE25F16FFC6BBB
:104E7000EEC5FDF57F0EFE6FF1C5FFF5010E0601D3
:104E8000006F016F000111DF010E0501ED25F16FCB
:104E9000010EEE25F26FF1C5FCF5FD6F040EFF6FFC
:104EA000170EFE6FF0C500F60601016B00012BEC3A
:104EB0000CF00501EF5329E1F051080DF350EE25F8
:104EC000F16FFC6BEEC5FDF57F0EFE6FF1C5FFF5D2
:104ED000010E0601006F016B0001E7DE010E050106
:104EE000ED25F16F010EEE25F26FF1C5FCF5FD6FBA
:104EF000040EFF6F170EFE6FF0C500F6010E0601DF
:104F0000016F00012BEC0CF005010001000C040105
:104F10002FBB4BD007C5EDF5140E0501EE6F1E0E2D
:104F2000EF6F010EF06F000124DF08C5EDF5280ECC
:104F30000501EE6F1E0EEF6FF06B00011ADF09C561
:104F4000EDF53C0E0501EE6F1E0EEF6FF06B0001EC
:104F500010DF07C5EDF5500E0501EE6F1E0EEF6F69
:104F6000F06B000106DF040EEA6E170EE96EF2CF59
:104F7000EBF5F29E000E85EC07F00A000900F550F3
:104F8000EE6E0009FBE10501EBBFF28E040EEC6F43
:104F9000170EEB6F140EED6FEE6B010EEF6F030E3D
:104FA000F06F000148DF04012F8B928A80BA6DD028
:104FB0002E9DE46BE36B2DB167D02D81050E0501AD
:104FC000F76F000180EC0AF0010E0501D36FD35199
:104FD000040859E3D3510401CE5D3AE1010E050105
:104FE000D35D036A070FE96E050E0320EA6EEF2A10
:104FF000010ED35D036A070FE96E050E0320EA6E0A
:10500000EFBE0CD0EF50090809E2010ED35D036A30
:10501000070FE96E050E0320EA6EEF6A010ED35DFD
:10502000036A070FE96E050E0320EA6EEFCFEBF57A
:10503000D351140DF3CFECF5EBC5EDF5ECC5EEF562
:105040001E0EEF6F010EF06F000193DE19D0040108
:10505000010E0501D35D036A070FE96E050E0320FB
:10506000EA6EEFCFEBF5D351140DF3CFECF5EBC5B2
:10507000EDF5ECC5EEF51E0EEF6FF06B000179DE7D
:105080000501D32BA4D7040101D02D91968084B0C3
:105090006CD02E9DE46BE36B2DB566D02D85050E8F
:1050A0000501F76F000180EC0AF0010E0501D36FD6
:1050B000D351040858E3D3510401CE5D39E1010E08
:1050C0000501D35D036A070FE96E050E0320EA6E42
:1050D000EF06010ED35D036A070FE96E050E03208C
:1050E000EA6EEFBE01D00AD0010ED35D036A070F4E
:1050F000E96E050E0320EA6E090EEF6E010ED35D18
:10510000036A070FE96E050E0320EA6EEFCFEBF599
:10511000D351140DF3CFECF5EBC5EDF5ECC5EEF581
:105120001E0EEF6F010EF06F000123DE19D0040197
:10513000010E0501D35D036A070FE96E050E03201A
:10514000EA6EEFCFEBF5D351140DF3CFECF5EBC5D1
:10515000EDF5ECC5EEF51E0EEF6FF06B000109DE0C
:105160000501D32BA5D7040101D02D95968284B2D9
:1051700050D02E9DE46BE36B2DB34AD02D83050EEA
:105180000501F76F000180EC0AF00401CE2B010E3F
:105190000501D36FD35104083AE3D3510401CE5D26
:1051A0001BE1010E0501D35D036A070FE96E050ED1
:1051B0000320EA6EEFCFEBF5D351140DF3CFECF5EE
:1051C000EBC5EDF5ECC5EEF51E0EEF6F010EF06FC1
:1051D0000001CFDD19D00401010E0501D35D036A82
:1051E000070FE96E050E0320EA6EEFCFEBF5D35102
:1051F000140DF3CFECF5EBC5EDF5ECC5EEF51E0E99
:10520000EF6FF06B0001B5DD0501D32BC3D70401AF
:1052100001D02D93968484B424D0640E0501F76FD9
:10522000000180EC0AF0968484B41AD0E4C5CDF471
:105230000501EB6B0001F0EC0AF004012F9B010E5D
:10524000CF6FCE6F0501076B086B096B0A6BEB6BB9
:105250000001F0EC0AF01DEC0BF0010E016EC7D15D
:105260000401CE510408D8B0C3D10501EB6B000195
:10527000F0EC0AF0010E0401CE6F2E9DE46BE36B9F
:10528000050107510308D8A479D008510808D8A40B
:1052900075D00951090872E10A5102086FE1E5531E
:1052A0006DE1AA6AA96AA86AA69CA69EA684F25085
:1052B000006EF29E0F01550EA76EAA0EA76EA68273
:1052C000A6B2FED7A6940050F212140E0501F76F95
:1052D000000180EC0AF0AA6A010EA96EA86AA69CD9
:1052E000A69EA684F250006EF29E0F01550EA76E88
:1052F000AA0EA76EA682A6B2FED7A6940050F212FE
:10530000140E0501F76F000180EC0AF0AA6A020E84
:10531000A96EA86AA69CA69EA684F250006EF29E74
:105320000F01550EA76EAA0EA76EA682A6B2FED7D3
:10533000A6940050F212140E0501F76F000180ECE4
:105340000AF0AA6A030EA96EA86AA69CA69EA68465
:10535000F250006EF29E0F01550EA76EAA0EA76EB8
:10536000A682A6B2FED7A6940050F212140E050132
:10537000F76F000180EC0AF0FF000501E751075DBF
:10538000D8A470D0E851085D6DE1E951095D6AE18A
:10539000EA510A5D67E1EB6B0001F0EC0AF0040EE4
:1053A000EA6E170EE96EF2CFEBF5F29E000E85EC79
:1053B00007F00A000900F550EE6E0009FBE1050157
:1053C000EBBFF28E040EEC6F170EEB6F1E0EED6F3F
:1053D000EE6BEF6B020EF06F00012DDD040EEA6E36
:1053E000170EE96EF2CFEBF5F29E000E97EC07F088
:1053F0000A000900F550EE6E0009FBE10501EBBF64
:10540000F28E040EEC6F170EEB6F0F0EED6F1E0E8B
:10541000EE6FEF6B020EF06F00010DDDE6C5CDF40F
:105420001DEC0BF0040E0501EB6FFA0EF76F000197
:1054300080EC0AF00501EB2FF8D7EB6B0001F0ECE4
:105440000AF00501076B086B096B0A6BE55302E173
:1054500004012E8904012F9B010E016E0001C7D0AB
:10546000C6D00501EB6B0001F0EC0AF0040EEA6E09
:10547000170EE96EF2CFEBF5F29E000E85EC07F009
:105480000A000900F550EE6E0009FBE10501EBBFD3
:10549000F28E040EEC6F170EEB6F1E0EED6FEE6BBF
:1054A000EF6B020EF06F0001C6DC040EEA6E170E01
:1054B000E96EF2CFEBF5F29E000EABEC07F00A00BE
:1054C0000900F550EE6E0009FBE10501EBBFF28E1D
:1054D000040EEC6F170EEB6FED6B1E0EEE6FEF6BA5
:1054E000020EF06F0001A7DC010E0401CE6F000177
:1054F0001DEC0BF0040E0501EB6FFA0EF76F0001C7
:1055000080EC0AF00501EB2FF8D7076B086B096BED
:105510000A6BEB6B0001F0EC0AF00501FC6BFD6B14
:105520007F0EFE6F190EFF6F010E0601006F016FF7
:10553000000155EC26F0040EEA6E170EE96EF2CF6C
:10554000EBF5F29E000E85EC07F00A000900F5501D
:10555000EE6E0009FBE10501EBBFF28E190EFC6F48
:10556000010EFD6F040EFF6F170EFE6F030E060196
:10557000006F016B00012BEC0CF007C5EDF5140E6C
:105580000501EE6F1E0EEF6F010EF06F0001B9EC1A
:1055900026F008C5EDF5280E0501EE6F1E0EEF6F23
:1055A000F06B0001B9EC26F009C5EDF53C0E0501E4
:1055B000EE6F1E0EEF6FF06B0001B9EC26F007C521
:1055C000EDF5500E0501EE6F1E0EEF6FF06B000152
:1055D000B9EC26F0E4C5CDF40501EB6B0001F0EC6D
:1055E0000AF004012F9B000E016E000100D004019F
:1055F0000001000C050E04012C6FE80E2B6FE3C5B3
:10560000FAF51F0E0501FB6F000143EC25F00501C3
:10561000E62D2ED0E751060DF350E425F16FE7514A
:10562000080DF350E525F26FE4C5FCF5E5C5FDF581
:10563000F1C5FEF5FF6F010E0601006F016F00015D
:1056400055EC26F0020E0501E425F16F010EE5256B
:10565000F26FF1C5FCF5FD6F050EFF6FE80EFE6FF2
:10566000E7C500F60601016B00012BEC0CF005010B
:10567000E6532FE1E751060DF350E425F16FE751B2
:10568000080DF350E525F26FE4C5FCF5E5C5FDF521
:10569000F1C5FEF5FF6F010E0601006F016B000101
:1056A00055EC26F0020E0501E425F16F010EE5250B
:1056B000F26FF1C5FCF5FD6F050EFF6FE80EFE6F92
:1056C000E7C500F6010E0601016F00012BEC0CF09E
:1056D00005010001000C06010551B608056F036ABB
:1056E00006C609F6068FD89006330733083303320F
:1056F000023201320032052FF6D709AF0BD0001E5F
:10570000011E021E031E002AD8B4012AD8B4022AA0
:10571000D8B4032A0001FAEF2BF0006A016A026A8A
:10572000036A06010D6B0E6B0F6B106B0C510B11A6
:105730000A1109112CE0200E116FD8900537063799
:10574000073708370D370E370F3710370C51105DFC
:1057500008E10B510F5D05E10A510E5D02E10951AF
:105760000D5D0FE309510D5F0A51D8A00A3D0E5F90
:105770000B51D8A00B3D0F5F0C51D8A00C3D105F12
:10578000D8800036013602360336112FD6D7060EE2
:10579000EA6E0D0EE96E0001000CE9500501FD6F87
:1057A000FC51FF6F1DE0FBC517F6FAC516F6F9C5EB
:1057B00015F6F8C514F606011B6B1A6B200E196F4F
:1057C000820E186F000122EC18F003C0FBF502C036
:1057D000FAF501C0F9F500C0F8F50501FF2FE3D790
:1057E000FBC508F6FAC507F6F9C506F6F8C505F6CD
:1057F000000171D703C0FBF502C0FAF501C0F9F54D
:1058000000C0F8F50501FBAF0DD0FD07FD8BF81FBB
:10581000F91FFA1FFB1FF82BD8B4F92BD8B4FA2BB9
:10582000D8B4FB2B3B0E0601046F9A0E036FCA0E11
:10583000026F016B0A0E0501FF6FFC51D8B4FD2BFE
:10584000FBC508F6FAC507F6F9C506F6F8C505F66C
:1058500004C60CF603C60BF602C60AF601C609F624
:1058600000015BDF0150EFCFF8F5ECCFF9F5ECCF9D
:10587000FAF5ECCFFBF5005213E10501FC29FF5DC1
:10588000D8A402D000010CD0FD510DE00F0BFF5D3C
:1058900001E046E2FDBF44D0FDBD05D0200E3AD068
:1058A000200E0501FD17FDAB10D0FD9BFC51D8A4C7
:1058B000FD070050FD6F2D0E0601056F000132EC53
:1058C00025F00501FD51006EFD6BFC51FF5D0EE101
:1058D0000050FD6F2E0E0601056F000132EC25F021
:1058E0000501FD51006E200EFD17000E300EFDABC0
:1058F00011D0FD9BFC51D8A4FD070050FD6F2D0E6B
:105900000601056F000132EC25F00501FD51006E26
:10591000FD6B300E002600C005F6000132EC25F0CC
:1059200004C608F603C607F602C606F601C605F663
:1059300006010C6B0B6B0A6B0A0E096F0001EDDEA2
:1059400003C004F602C003F601C002F600C001F66F
:105950000501FF2F75D70001000C006A016A0601DE
:105960000351D89004B100260032013204B300265E
:105970000032013204B500260032013204B700269D
:105980000032013204B900260032013204BB002685
:105990000032013204BD00260032013204BF00266D
:1059A000003201320001000C0501FF6BFCC500F65E
:1059B000010ED880FC550601016F0501FD53D8B4D6
:1059C00083D0FF51FA5D0601026F00510501FB25EE
:1059D0000601036F0501FF51FA250601046F00510E
:1059E0000501FB250601056F02C607F603C608F68A
:1059F00004C609F60A6FFEC50BF60001B4EC25F0EB
:105A00000501FF51FA5D0601026F00510501FB5DC2
:105A10000601036F0501FF51FA250601046F0051CD
:105A20000501FB5D0601056F02C607F603C608F611
:105A300004C609F60A6FFEC50BF60001B4EC25F0AA
:105A4000060100510501FA5D0601026F0501FF51D3
:105A5000FB250601036F00510501FA250601046FBD
:105A60000501FF51FB250601056F02C607F603C6B7
:105A700008F604C609F60A6FFEC50BF60001B4EC81
:105A800025F0060100510501FA5D0601026F0501CE
:105A9000FF51FB5D0601036F00510501FA25060168
:105AA000046F0501FF51FB5D0601056F02C607F695
:105AB00003C608F604C609F60A6FFEC50BF6000118
:105AC000B4EC25F092D00501FA51FF250601026FD2
:105AD0000501FB5106010025036F02C617F6186F7A
:105AE000FEC519F60001CDEC0BF00501FA510601D7
:105AF0000025026F0501FB51FF250601036F02C659
:105B000017F6186FFEC519F60001CDEC0BF0050174
:105B1000FF51FA5D0601026F0501FB5106010025E8
:105B2000036F02C617F6186FFEC519F60001CDEC1B
:105B30000BF0060100510501FA5D0601026F050137
:105B4000FB51FF250601036F02C617F6186FFEC54D
:105B500019F60001CDEC0BF00501FA510601002504
:105B6000026F0501FF51FB5D0601036F02C617F6C8
:105B7000186FFEC519F60001CDEC0BF00501FA51C6
:105B8000FF250601026F00510501FB5D0601036F51
:105B900002C617F6186FFEC519F60001CDEC0BF022
:105BA0000501FF51FA5D0601026F00510501FB5D21
:105BB0000601036F02C617F6186FFEC519F600013D
:105BC000CDEC0BF0060100510501FA5D0601026FF4
:105BD0000501FF51FB5D0601036F02C617F6186F42
:105BE000FEC519F60001CDEC0BF0060101BF01D096
:105BF00010D00501FF51FF2B0601026F020E036F4B
:105C000002C604F60001A9DE0150030F06010127B8
:105C100013D00501FF51FF2B0601026F0051000751
:105C2000025D026F020E036F02C604F6000195DEEC
:105C30000150050F060101270501FF51800A006E82
:105C400006010051800A005CD8B4B7D6D8A0B5D6FA
:105C50000001000C050E04012C6FEF0E2B6F010EDE
:105C6000E96EEAC5FBF5E9C5FAF5E8C5F9F5E7C55A
:105C7000F8F50501FC6B000190DD200E0601056FB3
:105C8000000132EC25F0430E0601056F000132ECF5
:105C900025F00501ED2D3ED0EE51140DF350EB250E
:105CA000F86FEE51080DF350EC25F96FEBC5FCF5DC
:105CB000ECC5FDF5F8C5FEF5FF6F010E0601006F9E
:105CC000016F000155EC26F0020E0501EB25F86F7F
:105CD000010EEC25F96FF8C5FCF5FD6F050EFF6FA1
:105CE000EF0EFE6FEEC500F60601016B00012BEC16
:105CF0000CF0110E0501EB25F86F020EEC25F96F83
:105D0000F8C5FAF5FB6F010EFC6FFD6FFE6B00012D
:105D10004BDE0501ED533FE1EE51140DF350EB2541
:105D2000F86FEE51080DF350EC25F96FEBC5FCF55B
:105D3000ECC5FDF5F8C5FEF5FF6F010E0601006F1D
:105D4000016B000155EC26F0020E0501EB25F86F02
:105D5000010EEC25F96FF8C5FCF5FD6F050EFF6F20
:105D6000EF0EFE6FEEC500F6010E0601016F000199
:105D70002BEC0CF0110E0501EB25F86F020EEC2553
:105D8000F96FF8C5FAF5FB6F010EFC6FFD6FFE6F42
:105D900000010ADE050100014BEF3AF00501E75171
:105DA000E903F3CF01F0F4CF00F0EA03F35000264B
:105DB000E851E903F3500020026E0001000C0501D8
:105DC000E351030853E1E46BE4513F084FE3E56B13
:105DD000E5510F0849E3070EE66FE651800A7F0898
:105DE00041E2E86BE4C5E7F5EA6B100EE96F0001EC
:105DF000D5DF02C0E8F501C0E7F50501E551012452
:105E0000016E000E0220036E0150F2CFE7F5F29E04
:105E100003C0F7FF00015BEC01F00501E7BFF28E64
:105E2000E76F070ED880E655E86FE7C500F0E85148
:105E3000016E04E0D8900032012EFCD700A010D0F3
:105E4000E551080DF350E625E76FE8CF17F6E4C5F6
:105E500018F6010E0601196F0001CDEC0BF00501DB
:105E6000E607BBD7E52BB4D7E42BAED7E351040844
:105E700053E1E46BE4513F084FE3E56BE5510F0854
:105E800049E3070EE66FE651800A7F0841E2E86BBE
:105E9000E4C5E7F5EA6B100EE96F00017FDF02C091
:105EA000E8F501C0E7F50501E5510124016E000E9A
:105EB0000220036E0150F2CFE7F5F29E03C0F7FF18
:105EC000000169EC03F00501E7BFF28EE76F070EF2
:105ED000D880E655E86FE7C500F0E851016E04E0B0
:105EE000D8900032012EFCD700A010D0E551080D4B
:105EF000F350E625E76FE8CF17F6E4C518F6010E74
:105F00000601196F0001CDEC0BF00501E607BBD7C8
:105F1000E52BB4D7E42BAED7E351050853E1E46B8E
:105F2000E4513F084FE3E56BE5510F0849E3070EE5
:105F3000E66FE651800A7F0841E2E86BE4C5E7F5C9
:105F4000EA6B100EE96F000129DF02C0E8F501C01D
:105F5000E7F50501E5510124016E000E0220036EF4
